{
  "_format": "hh-sol-artifact-1",
  "contractName": "SilentWhale",
  "sourceName": "contracts/SilentWhale.sol",
  "abi": [
    {
      "inputs": [
        {
          "internalType": "address",
          "name": "initialOwner",
          "type": "address"
        }
      ],
      "stateMutability": "nonpayable",
      "type": "constructor"
    },
    {
      "inputs": [],
      "name": "ActiveDowngrade",
      "type": "error"
    },
    {
      "inputs": [],
      "name": "AnalystNotApproved",
      "type": "error"
    },
    {
      "inputs": [],
      "name": "BadAlert",
      "type": "error"
    },
    {
      "inputs": [],
      "name": "BadDuration",
      "type": "error"
    },
    {
      "inputs": [],
      "name": "BadFeed",
      "type": "error"
    },
    {
      "inputs": [],
      "name": "BadIndex",
      "type": "error"
    },
    {
      "inputs": [],
      "name": "BadReceipt",
      "type": "error"
    },
    {
      "inputs": [],
      "name": "BadSeats",
      "type": "error"
    },
    {
      "inputs": [],
      "name": "BadSignal",
      "type": "error"
    },
    {
      "inputs": [],
      "name": "BadTeam",
      "type": "error"
    },
    {
      "inputs": [],
      "name": "BadTier",
      "type": "error"
    },
    {
      "inputs": [],
      "name": "BelowFeedTier",
      "type": "error"
    },
    {
      "inputs": [],
      "name": "DaoRequired",
      "type": "error"
    },
    {
      "inputs": [],
      "name": "ExpiryInPast",
      "type": "error"
    },
    {
      "inputs": [],
      "name": "FeedInactive",
      "type": "error"
    },
    {
      "inputs": [
        {
          "internalType": "uint8",
          "name": "got",
          "type": "uint8"
        },
        {
          "internalType": "uint8",
          "name": "expected",
          "type": "uint8"
        }
      ],
      "name": "InvalidEncryptedInput",
      "type": "error"
    },
    {
      "inputs": [],
      "name": "ItemInactive",
      "type": "error"
    },
    {
      "inputs": [],
      "name": "NoScore",
      "type": "error"
    },
    {
      "inputs": [],
      "name": "NotSignalAdmin",
      "type": "error"
    },
    {
      "inputs": [],
      "name": "NotTeamOwner",
      "type": "error"
    },
    {
      "inputs": [
        {
          "internalType": "address",
          "name": "owner",
          "type": "address"
        }
      ],
      "name": "OwnableInvalidOwner",
      "type": "error"
    },
    {
      "inputs": [
        {
          "internalType": "address",
          "name": "account",
          "type": "address"
        }
      ],
      "name": "OwnableUnauthorizedAccount",
      "type": "error"
    },
    {
      "inputs": [],
      "name": "OwnerSeatRequired",
      "type": "error"
    },
    {
      "inputs": [],
      "name": "PublishCooldown",
      "type": "error"
    },
    {
      "inputs": [],
      "name": "ReentrancyGuardReentrantCall",
      "type": "error"
    },
    {
      "inputs": [],
      "name": "RefundFailed",
      "type": "error"
    },
    {
      "inputs": [
        {
          "internalType": "address",
          "name": "token",
          "type": "address"
        }
      ],
      "name": "SafeERC20FailedOperation",
      "type": "error"
    },
    {
      "inputs": [],
      "name": "SeatsFull",
      "type": "error"
    },
    {
      "inputs": [],
      "name": "TeamInactive",
      "type": "error"
    },
    {
      "inputs": [],
      "name": "TierTooLow",
      "type": "error"
    },
    {
      "inputs": [],
      "name": "TierUnavailable",
      "type": "error"
    },
    {
      "inputs": [],
      "name": "TokenDisabled",
      "type": "error"
    },
    {
      "inputs": [],
      "name": "TokenTierUnavailable",
      "type": "error"
    },
    {
      "inputs": [],
      "name": "TokenUnset",
      "type": "error"
    },
    {
      "inputs": [],
      "name": "Underpaid",
      "type": "error"
    },
    {
      "inputs": [],
      "name": "WithdrawFailed",
      "type": "error"
    },
    {
      "inputs": [],
      "name": "ZeroAddress",
      "type": "error"
    },
    {
      "inputs": [],
      "name": "ZeroToken",
      "type": "error"
    },
    {
      "anonymous": false,
      "inputs": [
        {
          "indexed": true,
          "internalType": "address",
          "name": "account",
          "type": "address"
        },
        {
          "indexed": true,
          "internalType": "uint256",
          "name": "alertId",
          "type": "uint256"
        },
        {
          "indexed": false,
          "internalType": "bool",
          "name": "read",
          "type": "bool"
        }
      ],
      "name": "AlertReadUpdated",
      "type": "event"
    },
    {
      "anonymous": false,
      "inputs": [
        {
          "indexed": true,
          "internalType": "address",
          "name": "account",
          "type": "address"
        },
        {
          "indexed": true,
          "internalType": "uint256",
          "name": "alertId",
          "type": "uint256"
        },
        {
          "indexed": true,
          "internalType": "uint256",
          "name": "signalId",
          "type": "uint256"
        },
        {
          "indexed": false,
          "internalType": "bytes32",
          "name": "ruleHash",
          "type": "bytes32"
        }
      ],
      "name": "AlertRecorded",
      "type": "event"
    },
    {
      "anonymous": false,
      "inputs": [
        {
          "indexed": true,
          "internalType": "address",
          "name": "analyst",
          "type": "address"
        },
        {
          "indexed": false,
          "internalType": "string",
          "name": "displayName",
          "type": "string"
        }
      ],
      "name": "AnalystProfileUpdated",
      "type": "event"
    },
    {
      "anonymous": false,
      "inputs": [
        {
          "indexed": true,
          "internalType": "address",
          "name": "analyst",
          "type": "address"
        }
      ],
      "name": "AnalystScoreUpdated",
      "type": "event"
    },
    {
      "anonymous": false,
      "inputs": [
        {
          "indexed": true,
          "internalType": "address",
          "name": "analyst",
          "type": "address"
        },
        {
          "indexed": false,
          "internalType": "bool",
          "name": "approved",
          "type": "bool"
        }
      ],
      "name": "AnalystStatusUpdated",
      "type": "event"
    },
    {
      "anonymous": false,
      "inputs": [
        {
          "indexed": true,
          "internalType": "uint256",
          "name": "feedId",
          "type": "uint256"
        },
        {
          "indexed": false,
          "internalType": "string",
          "name": "name",
          "type": "string"
        },
        {
          "indexed": false,
          "internalType": "uint8",
          "name": "minTier",
          "type": "uint8"
        },
        {
          "indexed": false,
          "internalType": "uint256",
          "name": "monthlyPriceWei",
          "type": "uint256"
        }
      ],
      "name": "FeedCreated",
      "type": "event"
    },
    {
      "anonymous": false,
      "inputs": [
        {
          "indexed": true,
          "internalType": "uint256",
          "name": "feedId",
          "type": "uint256"
        },
        {
          "indexed": false,
          "internalType": "bool",
          "name": "active",
          "type": "bool"
        },
        {
          "indexed": false,
          "internalType": "uint8",
          "name": "minTier",
          "type": "uint8"
        }
      ],
      "name": "FeedUpdated",
      "type": "event"
    },
    {
      "anonymous": false,
      "inputs": [
        {
          "indexed": true,
          "internalType": "address",
          "name": "previousOwner",
          "type": "address"
        },
        {
          "indexed": true,
          "internalType": "address",
          "name": "newOwner",
          "type": "address"
        }
      ],
      "name": "OwnershipTransferred",
      "type": "event"
    },
    {
      "anonymous": false,
      "inputs": [
        {
          "indexed": true,
          "internalType": "address",
          "name": "account",
          "type": "address"
        },
        {
          "indexed": true,
          "internalType": "uint256",
          "name": "receiptId",
          "type": "uint256"
        },
        {
          "indexed": true,
          "internalType": "address",
          "name": "token",
          "type": "address"
        },
        {
          "indexed": false,
          "internalType": "uint8",
          "name": "tier",
          "type": "uint8"
        },
        {
          "indexed": false,
          "internalType": "uint8",
          "name": "monthCount",
          "type": "uint8"
        },
        {
          "indexed": false,
          "internalType": "uint256",
          "name": "amount",
          "type": "uint256"
        }
      ],
      "name": "PaymentReceiptRecorded",
      "type": "event"
    },
    {
      "anonymous": false,
      "inputs": [
        {
          "indexed": true,
          "internalType": "address",
          "name": "token",
          "type": "address"
        },
        {
          "indexed": false,
          "internalType": "uint8",
          "name": "decimals",
          "type": "uint8"
        },
        {
          "indexed": false,
          "internalType": "bool",
          "name": "enabled",
          "type": "bool"
        }
      ],
      "name": "PaymentTokenUpdated",
      "type": "event"
    },
    {
      "anonymous": false,
      "inputs": [
        {
          "indexed": false,
          "internalType": "uint64",
          "name": "secondsBetweenPublishes",
          "type": "uint64"
        }
      ],
      "name": "PublishCooldownUpdated",
      "type": "event"
    },
    {
      "anonymous": false,
      "inputs": [
        {
          "indexed": true,
          "internalType": "uint256",
          "name": "signalId",
          "type": "uint256"
        },
        {
          "indexed": true,
          "internalType": "address",
          "name": "account",
          "type": "address"
        }
      ],
      "name": "SignalAccessGranted",
      "type": "event"
    },
    {
      "anonymous": false,
      "inputs": [
        {
          "indexed": true,
          "internalType": "uint256",
          "name": "signalId",
          "type": "uint256"
        },
        {
          "indexed": true,
          "internalType": "address",
          "name": "editor",
          "type": "address"
        },
        {
          "indexed": false,
          "internalType": "uint8",
          "name": "minTier",
          "type": "uint8"
        },
        {
          "indexed": false,
          "internalType": "bool",
          "name": "active",
          "type": "bool"
        }
      ],
      "name": "SignalMetadataUpdated",
      "type": "event"
    },
    {
      "anonymous": false,
      "inputs": [
        {
          "indexed": true,
          "internalType": "uint256",
          "name": "signalId",
          "type": "uint256"
        },
        {
          "indexed": true,
          "internalType": "address",
          "name": "analyst",
          "type": "address"
        },
        {
          "indexed": true,
          "internalType": "uint256",
          "name": "feedId",
          "type": "uint256"
        },
        {
          "indexed": false,
          "internalType": "uint8",
          "name": "minTier",
          "type": "uint8"
        },
        {
          "indexed": false,
          "internalType": "string",
          "name": "tokenSymbol",
          "type": "string"
        },
        {
          "indexed": false,
          "internalType": "string",
          "name": "sector",
          "type": "string"
        }
      ],
      "name": "SignalPublished",
      "type": "event"
    },
    {
      "anonymous": false,
      "inputs": [
        {
          "indexed": true,
          "internalType": "address",
          "name": "account",
          "type": "address"
        },
        {
          "indexed": false,
          "internalType": "uint8",
          "name": "tier",
          "type": "uint8"
        },
        {
          "indexed": false,
          "internalType": "uint64",
          "name": "expiresAt",
          "type": "uint64"
        },
        {
          "indexed": false,
          "internalType": "uint256",
          "name": "paid",
          "type": "uint256"
        }
      ],
      "name": "Subscribed",
      "type": "event"
    },
    {
      "anonymous": false,
      "inputs": [
        {
          "indexed": true,
          "internalType": "uint256",
          "name": "teamId",
          "type": "uint256"
        },
        {
          "indexed": true,
          "internalType": "address",
          "name": "owner",
          "type": "address"
        },
        {
          "indexed": false,
          "internalType": "bytes32",
          "name": "nameHash",
          "type": "bytes32"
        },
        {
          "indexed": false,
          "internalType": "uint16",
          "name": "seatLimit",
          "type": "uint16"
        }
      ],
      "name": "TeamCreated",
      "type": "event"
    },
    {
      "anonymous": false,
      "inputs": [
        {
          "indexed": true,
          "internalType": "uint256",
          "name": "teamId",
          "type": "uint256"
        },
        {
          "indexed": true,
          "internalType": "address",
          "name": "member",
          "type": "address"
        },
        {
          "indexed": false,
          "internalType": "bool",
          "name": "active",
          "type": "bool"
        }
      ],
      "name": "TeamMemberUpdated",
      "type": "event"
    },
    {
      "anonymous": false,
      "inputs": [
        {
          "indexed": true,
          "internalType": "uint256",
          "name": "teamId",
          "type": "uint256"
        },
        {
          "indexed": false,
          "internalType": "bool",
          "name": "active",
          "type": "bool"
        },
        {
          "indexed": false,
          "internalType": "uint16",
          "name": "seatLimit",
          "type": "uint16"
        }
      ],
      "name": "TeamUpdated",
      "type": "event"
    },
    {
      "anonymous": false,
      "inputs": [
        {
          "indexed": true,
          "internalType": "uint8",
          "name": "tier",
          "type": "uint8"
        },
        {
          "indexed": false,
          "internalType": "uint256",
          "name": "monthlyPriceWei",
          "type": "uint256"
        }
      ],
      "name": "TierPriceUpdated",
      "type": "event"
    },
    {
      "anonymous": false,
      "inputs": [
        {
          "indexed": true,
          "internalType": "uint8",
          "name": "tier",
          "type": "uint8"
        },
        {
          "indexed": false,
          "internalType": "uint256",
          "name": "monthlyPrice",
          "type": "uint256"
        }
      ],
      "name": "TierTokenPriceUpdated",
      "type": "event"
    },
    {
      "anonymous": false,
      "inputs": [
        {
          "indexed": true,
          "internalType": "address",
          "name": "token",
          "type": "address"
        },
        {
          "indexed": true,
          "internalType": "address",
          "name": "recipient",
          "type": "address"
        },
        {
          "indexed": false,
          "internalType": "uint256",
          "name": "amount",
          "type": "uint256"
        }
      ],
      "name": "TokenWithdrawal",
      "type": "event"
    },
    {
      "anonymous": false,
      "inputs": [
        {
          "indexed": true,
          "internalType": "address",
          "name": "recipient",
          "type": "address"
        },
        {
          "indexed": false,
          "internalType": "uint256",
          "name": "amount",
          "type": "uint256"
        }
      ],
      "name": "TreasuryWithdrawal",
      "type": "event"
    },
    {
      "anonymous": false,
      "inputs": [
        {
          "indexed": true,
          "internalType": "address",
          "name": "account",
          "type": "address"
        },
        {
          "indexed": true,
          "internalType": "uint256",
          "name": "index",
          "type": "uint256"
        }
      ],
      "name": "WatchlistAccessGranted",
      "type": "event"
    },
    {
      "anonymous": false,
      "inputs": [
        {
          "indexed": true,
          "internalType": "address",
          "name": "account",
          "type": "address"
        },
        {
          "indexed": true,
          "internalType": "uint256",
          "name": "index",
          "type": "uint256"
        }
      ],
      "name": "WatchlistItemAdded",
      "type": "event"
    },
    {
      "inputs": [],
      "name": "MONTH",
      "outputs": [
        {
          "internalType": "uint64",
          "name": "",
          "type": "uint64"
        }
      ],
      "stateMutability": "view",
      "type": "function"
    },
    {
      "inputs": [],
      "name": "TIER_DAO",
      "outputs": [
        {
          "internalType": "uint8",
          "name": "",
          "type": "uint8"
        }
      ],
      "stateMutability": "view",
      "type": "function"
    },
    {
      "inputs": [],
      "name": "TIER_ELITE",
      "outputs": [
        {
          "internalType": "uint8",
          "name": "",
          "type": "uint8"
        }
      ],
      "stateMutability": "view",
      "type": "function"
    },
    {
      "inputs": [],
      "name": "TIER_FREE",
      "outputs": [
        {
          "internalType": "uint8",
          "name": "",
          "type": "uint8"
        }
      ],
      "stateMutability": "view",
      "type": "function"
    },
    {
      "inputs": [],
      "name": "TIER_PRO",
      "outputs": [
        {
          "internalType": "uint8",
          "name": "",
          "type": "uint8"
        }
      ],
      "stateMutability": "view",
      "type": "function"
    },
    {
      "inputs": [
        {
          "internalType": "uint256",
          "name": "teamId",
          "type": "uint256"
        },
        {
          "internalType": "address",
          "name": "member",
          "type": "address"
        }
      ],
      "name": "addTeamMember",
      "outputs": [],
      "stateMutability": "nonpayable",
      "type": "function"
    },
    {
      "inputs": [
        {
          "internalType": "bytes32",
          "name": "labelHash",
          "type": "bytes32"
        },
        {
          "internalType": "string",
          "name": "publicNote",
          "type": "string"
        },
        {
          "components": [
            {
              "internalType": "uint256",
              "name": "ctHash",
              "type": "uint256"
            },
            {
              "internalType": "uint8",
              "name": "securityZone",
              "type": "uint8"
            },
            {
              "internalType": "uint8",
              "name": "utype",
              "type": "uint8"
            },
            {
              "internalType": "bytes",
              "name": "signature",
              "type": "bytes"
            }
          ],
          "internalType": "struct InEaddress",
          "name": "encryptedWallet",
          "type": "tuple"
        },
        {
          "components": [
            {
              "internalType": "uint256",
              "name": "ctHash",
              "type": "uint256"
            },
            {
              "internalType": "uint8",
              "name": "securityZone",
              "type": "uint8"
            },
            {
              "internalType": "uint8",
              "name": "utype",
              "type": "uint8"
            },
            {
              "internalType": "bytes",
              "name": "signature",
              "type": "bytes"
            }
          ],
          "internalType": "struct InEuint32",
          "name": "encryptedMinConfidenceBps",
          "type": "tuple"
        }
      ],
      "name": "addWatchlistItem",
      "outputs": [
        {
          "internalType": "uint256",
          "name": "index",
          "type": "uint256"
        }
      ],
      "stateMutability": "nonpayable",
      "type": "function"
    },
    {
      "inputs": [
        {
          "internalType": "address",
          "name": "account",
          "type": "address"
        }
      ],
      "name": "alertCount",
      "outputs": [
        {
          "internalType": "uint256",
          "name": "",
          "type": "uint256"
        }
      ],
      "stateMutability": "view",
      "type": "function"
    },
    {
      "inputs": [
        {
          "internalType": "address",
          "name": "analyst",
          "type": "address"
        },
        {
          "internalType": "uint256",
          "name": "index",
          "type": "uint256"
        }
      ],
      "name": "analystSignalAt",
      "outputs": [
        {
          "internalType": "uint256",
          "name": "",
          "type": "uint256"
        }
      ],
      "stateMutability": "view",
      "type": "function"
    },
    {
      "inputs": [
        {
          "internalType": "address",
          "name": "analyst",
          "type": "address"
        }
      ],
      "name": "analystSignalCount",
      "outputs": [
        {
          "internalType": "uint256",
          "name": "",
          "type": "uint256"
        }
      ],
      "stateMutability": "view",
      "type": "function"
    },
    {
      "inputs": [
        {
          "internalType": "address",
          "name": "",
          "type": "address"
        }
      ],
      "name": "approvedAnalysts",
      "outputs": [
        {
          "internalType": "bool",
          "name": "",
          "type": "bool"
        }
      ],
      "stateMutability": "view",
      "type": "function"
    },
    {
      "inputs": [
        {
          "internalType": "address",
          "name": "account",
          "type": "address"
        },
        {
          "internalType": "uint256",
          "name": "signalId",
          "type": "uint256"
        }
      ],
      "name": "canAccessSignal",
      "outputs": [
        {
          "internalType": "bool",
          "name": "",
          "type": "bool"
        }
      ],
      "stateMutability": "view",
      "type": "function"
    },
    {
      "inputs": [
        {
          "internalType": "string",
          "name": "name",
          "type": "string"
        },
        {
          "internalType": "string",
          "name": "description",
          "type": "string"
        },
        {
          "internalType": "uint8",
          "name": "minTier",
          "type": "uint8"
        },
        {
          "internalType": "uint256",
          "name": "monthlyPriceWei",
          "type": "uint256"
        },
        {
          "internalType": "address",
          "name": "curator",
          "type": "address"
        }
      ],
      "name": "createFeed",
      "outputs": [
        {
          "internalType": "uint256",
          "name": "feedId",
          "type": "uint256"
        }
      ],
      "stateMutability": "nonpayable",
      "type": "function"
    },
    {
      "inputs": [
        {
          "internalType": "bytes32",
          "name": "nameHash",
          "type": "bytes32"
        },
        {
          "internalType": "uint16",
          "name": "seatLimit",
          "type": "uint16"
        }
      ],
      "name": "createTeam",
      "outputs": [
        {
          "internalType": "uint256",
          "name": "teamId",
          "type": "uint256"
        }
      ],
      "stateMutability": "nonpayable",
      "type": "function"
    },
    {
      "inputs": [
        {
          "internalType": "address",
          "name": "account",
          "type": "address"
        }
      ],
      "name": "effectiveTier",
      "outputs": [
        {
          "internalType": "uint8",
          "name": "tier",
          "type": "uint8"
        }
      ],
      "stateMutability": "view",
      "type": "function"
    },
    {
      "inputs": [],
      "name": "feedCount",
      "outputs": [
        {
          "internalType": "uint256",
          "name": "",
          "type": "uint256"
        }
      ],
      "stateMutability": "view",
      "type": "function"
    },
    {
      "inputs": [
        {
          "internalType": "address",
          "name": "account",
          "type": "address"
        },
        {
          "internalType": "uint256",
          "name": "index",
          "type": "uint256"
        }
      ],
      "name": "getAlert",
      "outputs": [
        {
          "internalType": "bytes32",
          "name": "ruleHash",
          "type": "bytes32"
        },
        {
          "internalType": "uint256",
          "name": "signalId",
          "type": "uint256"
        },
        {
          "internalType": "string",
          "name": "channel",
          "type": "string"
        },
        {
          "internalType": "string",
          "name": "deliveryRef",
          "type": "string"
        },
        {
          "internalType": "uint64",
          "name": "createdAt",
          "type": "uint64"
        },
        {
          "internalType": "bool",
          "name": "read",
          "type": "bool"
        }
      ],
      "stateMutability": "view",
      "type": "function"
    },
    {
      "inputs": [
        {
          "internalType": "address",
          "name": "analyst",
          "type": "address"
        }
      ],
      "name": "getAnalystProfile",
      "outputs": [
        {
          "internalType": "string",
          "name": "displayName",
          "type": "string"
        },
        {
          "internalType": "string",
          "name": "bio",
          "type": "string"
        },
        {
          "internalType": "string",
          "name": "strategy",
          "type": "string"
        },
        {
          "internalType": "string",
          "name": "uri",
          "type": "string"
        },
        {
          "internalType": "uint64",
          "name": "updatedAt",
          "type": "uint64"
        },
        {
          "internalType": "bool",
          "name": "active",
          "type": "bool"
        }
      ],
      "stateMutability": "view",
      "type": "function"
    },
    {
      "inputs": [
        {
          "internalType": "address",
          "name": "analyst",
          "type": "address"
        }
      ],
      "name": "getAnalystScore",
      "outputs": [
        {
          "internalType": "euint32",
          "name": "",
          "type": "bytes32"
        }
      ],
      "stateMutability": "view",
      "type": "function"
    },
    {
      "inputs": [
        {
          "internalType": "uint256",
          "name": "feedId",
          "type": "uint256"
        }
      ],
      "name": "getFeed",
      "outputs": [
        {
          "internalType": "string",
          "name": "name",
          "type": "string"
        },
        {
          "internalType": "string",
          "name": "description",
          "type": "string"
        },
        {
          "internalType": "uint8",
          "name": "minTier",
          "type": "uint8"
        },
        {
          "internalType": "uint256",
          "name": "monthlyPriceWei",
          "type": "uint256"
        },
        {
          "internalType": "bool",
          "name": "active",
          "type": "bool"
        },
        {
          "internalType": "address",
          "name": "curator",
          "type": "address"
        }
      ],
      "stateMutability": "view",
      "type": "function"
    },
    {
      "inputs": [
        {
          "internalType": "address",
          "name": "account",
          "type": "address"
        },
        {
          "internalType": "uint256",
          "name": "index",
          "type": "uint256"
        }
      ],
      "name": "getPaymentReceipt",
      "outputs": [
        {
          "internalType": "address",
          "name": "payer",
          "type": "address"
        },
        {
          "internalType": "address",
          "name": "token",
          "type": "address"
        },
        {
          "internalType": "uint8",
          "name": "tier",
          "type": "uint8"
        },
        {
          "internalType": "uint8",
          "name": "monthCount",
          "type": "uint8"
        },
        {
          "internalType": "uint256",
          "name": "amount",
          "type": "uint256"
        },
        {
          "internalType": "uint64",
          "name": "paidAt",
          "type": "uint64"
        },
        {
          "internalType": "uint64",
          "name": "expiresAt",
          "type": "uint64"
        }
      ],
      "stateMutability": "view",
      "type": "function"
    },
    {
      "inputs": [
        {
          "internalType": "uint256",
          "name": "signalId",
          "type": "uint256"
        }
      ],
      "name": "getSignal",
      "outputs": [
        {
          "internalType": "address",
          "name": "analyst",
          "type": "address"
        },
        {
          "internalType": "uint256",
          "name": "feedId",
          "type": "uint256"
        },
        {
          "internalType": "string",
          "name": "headline",
          "type": "string"
        },
        {
          "internalType": "string",
          "name": "publicSummary",
          "type": "string"
        },
        {
          "internalType": "string",
          "name": "tokenSymbol",
          "type": "string"
        },
        {
          "internalType": "string",
          "name": "sector",
          "type": "string"
        },
        {
          "internalType": "string",
          "name": "movementType",
          "type": "string"
        },
        {
          "internalType": "string",
          "name": "venue",
          "type": "string"
        },
        {
          "internalType": "string",
          "name": "sourceChain",
          "type": "string"
        },
        {
          "internalType": "string",
          "name": "eventRef",
          "type": "string"
        },
        {
          "internalType": "string",
          "name": "aiModel",
          "type": "string"
        },
        {
          "internalType": "string",
          "name": "scoreProvenance",
          "type": "string"
        },
        {
          "internalType": "uint8",
          "name": "minTier",
          "type": "uint8"
        },
        {
          "internalType": "uint64",
          "name": "createdAt",
          "type": "uint64"
        },
        {
          "internalType": "uint64",
          "name": "updatedAt",
          "type": "uint64"
        },
        {
          "internalType": "bool",
          "name": "active",
          "type": "bool"
        },
        {
          "internalType": "eaddress",
          "name": "encryptedWhale",
          "type": "bytes32"
        },
        {
          "internalType": "euint64",
          "name": "encryptedAmountUsd",
          "type": "bytes32"
        },
        {
          "internalType": "euint32",
          "name": "encryptedConfidenceBps",
          "type": "bytes32"
        },
        {
          "internalType": "euint32",
          "name": "encryptedEntryPriceBps",
          "type": "bytes32"
        },
        {
          "internalType": "euint32",
          "name": "encryptedRiskBps",
          "type": "bytes32"
        }
      ],
      "stateMutability": "view",
      "type": "function"
    },
    {
      "inputs": [
        {
          "internalType": "uint256",
          "name": "teamId",
          "type": "uint256"
        }
      ],
      "name": "getTeam",
      "outputs": [
        {
          "internalType": "address",
          "name": "teamOwner",
          "type": "address"
        },
        {
          "internalType": "bytes32",
          "name": "nameHash",
          "type": "bytes32"
        },
        {
          "internalType": "uint8",
          "name": "tier",
          "type": "uint8"
        },
        {
          "internalType": "uint16",
          "name": "seatLimit",
          "type": "uint16"
        },
        {
          "internalType": "uint16",
          "name": "memberCount",
          "type": "uint16"
        },
        {
          "internalType": "uint64",
          "name": "createdAt",
          "type": "uint64"
        },
        {
          "internalType": "bool",
          "name": "active",
          "type": "bool"
        }
      ],
      "stateMutability": "view",
      "type": "function"
    },
    {
      "inputs": [
        {
          "internalType": "address",
          "name": "account",
          "type": "address"
        },
        {
          "internalType": "uint256",
          "name": "index",
          "type": "uint256"
        }
      ],
      "name": "getWatchlistItem",
      "outputs": [
        {
          "internalType": "bytes32",
          "name": "labelHash",
          "type": "bytes32"
        },
        {
          "internalType": "string",
          "name": "publicNote",
          "type": "string"
        },
        {
          "internalType": "uint64",
          "name": "createdAt",
          "type": "uint64"
        },
        {
          "internalType": "bool",
          "name": "active",
          "type": "bool"
        },
        {
          "internalType": "eaddress",
          "name": "encryptedWallet",
          "type": "bytes32"
        },
        {
          "internalType": "euint32",
          "name": "encryptedMinConfidenceBps",
          "type": "bytes32"
        }
      ],
      "stateMutability": "view",
      "type": "function"
    },
    {
      "inputs": [
        {
          "internalType": "address",
          "name": "analyst",
          "type": "address"
        }
      ],
      "name": "grantAnalystScoreAccess",
      "outputs": [],
      "stateMutability": "nonpayable",
      "type": "function"
    },
    {
      "inputs": [
        {
          "internalType": "uint256",
          "name": "signalId",
          "type": "uint256"
        }
      ],
      "name": "grantSignalAccess",
      "outputs": [],
      "stateMutability": "nonpayable",
      "type": "function"
    },
    {
      "inputs": [
        {
          "internalType": "address",
          "name": "account",
          "type": "address"
        },
        {
          "internalType": "uint8",
          "name": "tier",
          "type": "uint8"
        },
        {
          "internalType": "uint64",
          "name": "expiresAt",
          "type": "uint64"
        }
      ],
      "name": "grantSubscription",
      "outputs": [],
      "stateMutability": "nonpayable",
      "type": "function"
    },
    {
      "inputs": [
        {
          "internalType": "uint256",
          "name": "index",
          "type": "uint256"
        }
      ],
      "name": "grantWatchlistAccess",
      "outputs": [],
      "stateMutability": "nonpayable",
      "type": "function"
    },
    {
      "inputs": [
        {
          "internalType": "address",
          "name": "",
          "type": "address"
        }
      ],
      "name": "hasAnalystProfile",
      "outputs": [
        {
          "internalType": "bool",
          "name": "",
          "type": "bool"
        }
      ],
      "stateMutability": "view",
      "type": "function"
    },
    {
      "inputs": [
        {
          "internalType": "address",
          "name": "",
          "type": "address"
        }
      ],
      "name": "hasAnalystScore",
      "outputs": [
        {
          "internalType": "bool",
          "name": "",
          "type": "bool"
        }
      ],
      "stateMutability": "view",
      "type": "function"
    },
    {
      "inputs": [
        {
          "internalType": "address",
          "name": "",
          "type": "address"
        }
      ],
      "name": "lastPublishedAt",
      "outputs": [
        {
          "internalType": "uint64",
          "name": "",
          "type": "uint64"
        }
      ],
      "stateMutability": "view",
      "type": "function"
    },
    {
      "inputs": [
        {
          "internalType": "uint256",
          "name": "index",
          "type": "uint256"
        },
        {
          "internalType": "bool",
          "name": "read",
          "type": "bool"
        }
      ],
      "name": "markAlertRead",
      "outputs": [],
      "stateMutability": "nonpayable",
      "type": "function"
    },
    {
      "inputs": [
        {
          "internalType": "address",
          "name": "account",
          "type": "address"
        },
        {
          "internalType": "uint256",
          "name": "index",
          "type": "uint256"
        }
      ],
      "name": "memberTeamAt",
      "outputs": [
        {
          "internalType": "uint256",
          "name": "",
          "type": "uint256"
        }
      ],
      "stateMutability": "view",
      "type": "function"
    },
    {
      "inputs": [
        {
          "internalType": "address",
          "name": "account",
          "type": "address"
        }
      ],
      "name": "memberTeamCount",
      "outputs": [
        {
          "internalType": "uint256",
          "name": "",
          "type": "uint256"
        }
      ],
      "stateMutability": "view",
      "type": "function"
    },
    {
      "inputs": [],
      "name": "owner",
      "outputs": [
        {
          "internalType": "address",
          "name": "",
          "type": "address"
        }
      ],
      "stateMutability": "view",
      "type": "function"
    },
    {
      "inputs": [],
      "name": "paymentToken",
      "outputs": [
        {
          "internalType": "address",
          "name": "",
          "type": "address"
        }
      ],
      "stateMutability": "view",
      "type": "function"
    },
    {
      "inputs": [],
      "name": "paymentTokenDecimals",
      "outputs": [
        {
          "internalType": "uint8",
          "name": "",
          "type": "uint8"
        }
      ],
      "stateMutability": "view",
      "type": "function"
    },
    {
      "inputs": [],
      "name": "paymentTokenEnabled",
      "outputs": [
        {
          "internalType": "bool",
          "name": "",
          "type": "bool"
        }
      ],
      "stateMutability": "view",
      "type": "function"
    },
    {
      "inputs": [],
      "name": "publishCooldownSeconds",
      "outputs": [
        {
          "internalType": "uint64",
          "name": "",
          "type": "uint64"
        }
      ],
      "stateMutability": "view",
      "type": "function"
    },
    {
      "inputs": [
        {
          "internalType": "uint256",
          "name": "feedId",
          "type": "uint256"
        },
        {
          "internalType": "string",
          "name": "headline",
          "type": "string"
        },
        {
          "internalType": "string",
          "name": "publicSummary",
          "type": "string"
        },
        {
          "internalType": "string",
          "name": "tokenSymbol",
          "type": "string"
        },
        {
          "internalType": "string",
          "name": "sector",
          "type": "string"
        },
        {
          "internalType": "string",
          "name": "movementType",
          "type": "string"
        },
        {
          "internalType": "string",
          "name": "venue",
          "type": "string"
        },
        {
          "internalType": "string",
          "name": "sourceChain",
          "type": "string"
        },
        {
          "internalType": "string",
          "name": "eventRef",
          "type": "string"
        },
        {
          "internalType": "string",
          "name": "aiModel",
          "type": "string"
        },
        {
          "internalType": "string",
          "name": "scoreProvenance",
          "type": "string"
        },
        {
          "internalType": "uint8",
          "name": "minTier",
          "type": "uint8"
        },
        {
          "components": [
            {
              "internalType": "uint256",
              "name": "ctHash",
              "type": "uint256"
            },
            {
              "internalType": "uint8",
              "name": "securityZone",
              "type": "uint8"
            },
            {
              "internalType": "uint8",
              "name": "utype",
              "type": "uint8"
            },
            {
              "internalType": "bytes",
              "name": "signature",
              "type": "bytes"
            }
          ],
          "internalType": "struct InEaddress",
          "name": "encryptedWhale",
          "type": "tuple"
        },
        {
          "components": [
            {
              "internalType": "uint256",
              "name": "ctHash",
              "type": "uint256"
            },
            {
              "internalType": "uint8",
              "name": "securityZone",
              "type": "uint8"
            },
            {
              "internalType": "uint8",
              "name": "utype",
              "type": "uint8"
            },
            {
              "internalType": "bytes",
              "name": "signature",
              "type": "bytes"
            }
          ],
          "internalType": "struct InEuint64",
          "name": "encryptedAmountUsd",
          "type": "tuple"
        },
        {
          "components": [
            {
              "internalType": "uint256",
              "name": "ctHash",
              "type": "uint256"
            },
            {
              "internalType": "uint8",
              "name": "securityZone",
              "type": "uint8"
            },
            {
              "internalType": "uint8",
              "name": "utype",
              "type": "uint8"
            },
            {
              "internalType": "bytes",
              "name": "signature",
              "type": "bytes"
            }
          ],
          "internalType": "struct InEuint32",
          "name": "encryptedConfidenceBps",
          "type": "tuple"
        },
        {
          "components": [
            {
              "internalType": "uint256",
              "name": "ctHash",
              "type": "uint256"
            },
            {
              "internalType": "uint8",
              "name": "securityZone",
              "type": "uint8"
            },
            {
              "internalType": "uint8",
              "name": "utype",
              "type": "uint8"
            },
            {
              "internalType": "bytes",
              "name": "signature",
              "type": "bytes"
            }
          ],
          "internalType": "struct InEuint32",
          "name": "encryptedEntryPriceBps",
          "type": "tuple"
        },
        {
          "components": [
            {
              "internalType": "uint256",
              "name": "ctHash",
              "type": "uint256"
            },
            {
              "internalType": "uint8",
              "name": "securityZone",
              "type": "uint8"
            },
            {
              "internalType": "uint8",
              "name": "utype",
              "type": "uint8"
            },
            {
              "internalType": "bytes",
              "name": "signature",
              "type": "bytes"
            }
          ],
          "internalType": "struct InEuint32",
          "name": "encryptedRiskBps",
          "type": "tuple"
        }
      ],
      "name": "publishSignal",
      "outputs": [
        {
          "internalType": "uint256",
          "name": "signalId",
          "type": "uint256"
        }
      ],
      "stateMutability": "nonpayable",
      "type": "function"
    },
    {
      "inputs": [
        {
          "internalType": "address",
          "name": "account",
          "type": "address"
        }
      ],
      "name": "receiptCount",
      "outputs": [
        {
          "internalType": "uint256",
          "name": "",
          "type": "uint256"
        }
      ],
      "stateMutability": "view",
      "type": "function"
    },
    {
      "inputs": [
        {
          "internalType": "address",
          "name": "account",
          "type": "address"
        },
        {
          "internalType": "bytes32",
          "name": "ruleHash",
          "type": "bytes32"
        },
        {
          "internalType": "uint256",
          "name": "signalId",
          "type": "uint256"
        },
        {
          "internalType": "string",
          "name": "channel",
          "type": "string"
        },
        {
          "internalType": "string",
          "name": "deliveryRef",
          "type": "string"
        }
      ],
      "name": "recordAlert",
      "outputs": [
        {
          "internalType": "uint256",
          "name": "alertId",
          "type": "uint256"
        }
      ],
      "stateMutability": "nonpayable",
      "type": "function"
    },
    {
      "inputs": [
        {
          "internalType": "uint256",
          "name": "teamId",
          "type": "uint256"
        },
        {
          "internalType": "address",
          "name": "member",
          "type": "address"
        }
      ],
      "name": "removeTeamMember",
      "outputs": [],
      "stateMutability": "nonpayable",
      "type": "function"
    },
    {
      "inputs": [],
      "name": "renounceOwnership",
      "outputs": [],
      "stateMutability": "nonpayable",
      "type": "function"
    },
    {
      "inputs": [
        {
          "internalType": "string",
          "name": "displayName",
          "type": "string"
        },
        {
          "internalType": "string",
          "name": "bio",
          "type": "string"
        },
        {
          "internalType": "string",
          "name": "strategy",
          "type": "string"
        },
        {
          "internalType": "string",
          "name": "uri",
          "type": "string"
        }
      ],
      "name": "setAnalystProfile",
      "outputs": [],
      "stateMutability": "nonpayable",
      "type": "function"
    },
    {
      "inputs": [
        {
          "internalType": "address",
          "name": "analyst",
          "type": "address"
        },
        {
          "internalType": "string",
          "name": "displayName",
          "type": "string"
        },
        {
          "internalType": "string",
          "name": "bio",
          "type": "string"
        },
        {
          "internalType": "string",
          "name": "strategy",
          "type": "string"
        },
        {
          "internalType": "string",
          "name": "uri",
          "type": "string"
        },
        {
          "internalType": "bool",
          "name": "active",
          "type": "bool"
        }
      ],
      "name": "setAnalystProfileFor",
      "outputs": [],
      "stateMutability": "nonpayable",
      "type": "function"
    },
    {
      "inputs": [
        {
          "internalType": "address",
          "name": "analyst",
          "type": "address"
        },
        {
          "components": [
            {
              "internalType": "uint256",
              "name": "ctHash",
              "type": "uint256"
            },
            {
              "internalType": "uint8",
              "name": "securityZone",
              "type": "uint8"
            },
            {
              "internalType": "uint8",
              "name": "utype",
              "type": "uint8"
            },
            {
              "internalType": "bytes",
              "name": "signature",
              "type": "bytes"
            }
          ],
          "internalType": "struct InEuint32",
          "name": "encryptedScoreBps",
          "type": "tuple"
        }
      ],
      "name": "setAnalystScore",
      "outputs": [],
      "stateMutability": "nonpayable",
      "type": "function"
    },
    {
      "inputs": [
        {
          "internalType": "address",
          "name": "analyst",
          "type": "address"
        },
        {
          "internalType": "bool",
          "name": "approved",
          "type": "bool"
        }
      ],
      "name": "setAnalystStatus",
      "outputs": [],
      "stateMutability": "nonpayable",
      "type": "function"
    },
    {
      "inputs": [
        {
          "internalType": "address",
          "name": "token",
          "type": "address"
        },
        {
          "internalType": "uint8",
          "name": "decimals",
          "type": "uint8"
        },
        {
          "internalType": "bool",
          "name": "enabled",
          "type": "bool"
        }
      ],
      "name": "setPaymentToken",
      "outputs": [],
      "stateMutability": "nonpayable",
      "type": "function"
    },
    {
      "inputs": [
        {
          "internalType": "uint64",
          "name": "secondsBetweenPublishes",
          "type": "uint64"
        }
      ],
      "name": "setPublishCooldown",
      "outputs": [],
      "stateMutability": "nonpayable",
      "type": "function"
    },
    {
      "inputs": [
        {
          "internalType": "uint256",
          "name": "signalId",
          "type": "uint256"
        },
        {
          "internalType": "bool",
          "name": "active",
          "type": "bool"
        }
      ],
      "name": "setSignalActive",
      "outputs": [],
      "stateMutability": "nonpayable",
      "type": "function"
    },
    {
      "inputs": [
        {
          "internalType": "uint256",
          "name": "teamId",
          "type": "uint256"
        },
        {
          "internalType": "bool",
          "name": "active",
          "type": "bool"
        }
      ],
      "name": "setTeamActive",
      "outputs": [],
      "stateMutability": "nonpayable",
      "type": "function"
    },
    {
      "inputs": [
        {
          "internalType": "uint256",
          "name": "teamId",
          "type": "uint256"
        },
        {
          "internalType": "uint16",
          "name": "seatLimit",
          "type": "uint16"
        }
      ],
      "name": "setTeamSeatLimit",
      "outputs": [],
      "stateMutability": "nonpayable",
      "type": "function"
    },
    {
      "inputs": [
        {
          "internalType": "uint8",
          "name": "tier",
          "type": "uint8"
        },
        {
          "internalType": "uint256",
          "name": "monthlyPriceWei",
          "type": "uint256"
        }
      ],
      "name": "setTierPrice",
      "outputs": [],
      "stateMutability": "nonpayable",
      "type": "function"
    },
    {
      "inputs": [
        {
          "internalType": "uint8",
          "name": "tier",
          "type": "uint8"
        },
        {
          "internalType": "uint256",
          "name": "monthlyPrice",
          "type": "uint256"
        }
      ],
      "name": "setTierTokenPrice",
      "outputs": [],
      "stateMutability": "nonpayable",
      "type": "function"
    },
    {
      "inputs": [
        {
          "internalType": "uint256",
          "name": "index",
          "type": "uint256"
        },
        {
          "internalType": "bool",
          "name": "active",
          "type": "bool"
        }
      ],
      "name": "setWatchlistItemActive",
      "outputs": [],
      "stateMutability": "nonpayable",
      "type": "function"
    },
    {
      "inputs": [],
      "name": "signalCount",
      "outputs": [
        {
          "internalType": "uint256",
          "name": "",
          "type": "uint256"
        }
      ],
      "stateMutability": "view",
      "type": "function"
    },
    {
      "inputs": [
        {
          "internalType": "uint8",
          "name": "tier",
          "type": "uint8"
        },
        {
          "internalType": "uint8",
          "name": "monthCount",
          "type": "uint8"
        }
      ],
      "name": "subscribe",
      "outputs": [],
      "stateMutability": "payable",
      "type": "function"
    },
    {
      "inputs": [
        {
          "internalType": "uint8",
          "name": "tier",
          "type": "uint8"
        },
        {
          "internalType": "uint8",
          "name": "monthCount",
          "type": "uint8"
        }
      ],
      "name": "subscribeWithToken",
      "outputs": [],
      "stateMutability": "nonpayable",
      "type": "function"
    },
    {
      "inputs": [
        {
          "internalType": "address",
          "name": "account",
          "type": "address"
        }
      ],
      "name": "subscriptionOf",
      "outputs": [
        {
          "internalType": "uint8",
          "name": "tier",
          "type": "uint8"
        },
        {
          "internalType": "uint64",
          "name": "expiresAt",
          "type": "uint64"
        },
        {
          "internalType": "bool",
          "name": "active",
          "type": "bool"
        }
      ],
      "stateMutability": "view",
      "type": "function"
    },
    {
      "inputs": [],
      "name": "teamCount",
      "outputs": [
        {
          "internalType": "uint256",
          "name": "",
          "type": "uint256"
        }
      ],
      "stateMutability": "view",
      "type": "function"
    },
    {
      "inputs": [
        {
          "internalType": "uint256",
          "name": "",
          "type": "uint256"
        },
        {
          "internalType": "address",
          "name": "",
          "type": "address"
        }
      ],
      "name": "teamMembers",
      "outputs": [
        {
          "internalType": "bool",
          "name": "",
          "type": "bool"
        }
      ],
      "stateMutability": "view",
      "type": "function"
    },
    {
      "inputs": [
        {
          "internalType": "uint8",
          "name": "",
          "type": "uint8"
        }
      ],
      "name": "tierPriceWei",
      "outputs": [
        {
          "internalType": "uint256",
          "name": "",
          "type": "uint256"
        }
      ],
      "stateMutability": "view",
      "type": "function"
    },
    {
      "inputs": [
        {
          "internalType": "uint8",
          "name": "",
          "type": "uint8"
        }
      ],
      "name": "tierTokenPrice",
      "outputs": [
        {
          "internalType": "uint256",
          "name": "",
          "type": "uint256"
        }
      ],
      "stateMutability": "view",
      "type": "function"
    },
    {
      "inputs": [
        {
          "internalType": "address",
          "name": "newOwner",
          "type": "address"
        }
      ],
      "name": "transferOwnership",
      "outputs": [],
      "stateMutability": "nonpayable",
      "type": "function"
    },
    {
      "inputs": [
        {
          "internalType": "uint256",
          "name": "feedId",
          "type": "uint256"
        },
        {
          "internalType": "string",
          "name": "name",
          "type": "string"
        },
        {
          "internalType": "string",
          "name": "description",
          "type": "string"
        },
        {
          "internalType": "uint8",
          "name": "minTier",
          "type": "uint8"
        },
        {
          "internalType": "uint256",
          "name": "monthlyPriceWei",
          "type": "uint256"
        },
        {
          "internalType": "bool",
          "name": "active",
          "type": "bool"
        },
        {
          "internalType": "address",
          "name": "curator",
          "type": "address"
        }
      ],
      "name": "updateFeed",
      "outputs": [],
      "stateMutability": "nonpayable",
      "type": "function"
    },
    {
      "inputs": [
        {
          "internalType": "uint256",
          "name": "signalId",
          "type": "uint256"
        },
        {
          "internalType": "string",
          "name": "headline",
          "type": "string"
        },
        {
          "internalType": "string",
          "name": "publicSummary",
          "type": "string"
        },
        {
          "internalType": "string",
          "name": "tokenSymbol",
          "type": "string"
        },
        {
          "internalType": "string",
          "name": "sector",
          "type": "string"
        },
        {
          "internalType": "string",
          "name": "movementType",
          "type": "string"
        },
        {
          "internalType": "string",
          "name": "venue",
          "type": "string"
        },
        {
          "internalType": "string",
          "name": "sourceChain",
          "type": "string"
        },
        {
          "internalType": "string",
          "name": "eventRef",
          "type": "string"
        },
        {
          "internalType": "string",
          "name": "aiModel",
          "type": "string"
        },
        {
          "internalType": "string",
          "name": "scoreProvenance",
          "type": "string"
        },
        {
          "internalType": "uint8",
          "name": "minTier",
          "type": "uint8"
        },
        {
          "internalType": "bool",
          "name": "active",
          "type": "bool"
        }
      ],
      "name": "updateSignalMetadata",
      "outputs": [],
      "stateMutability": "nonpayable",
      "type": "function"
    },
    {
      "inputs": [
        {
          "internalType": "address",
          "name": "account",
          "type": "address"
        }
      ],
      "name": "watchlistCount",
      "outputs": [
        {
          "internalType": "uint256",
          "name": "",
          "type": "uint256"
        }
      ],
      "stateMutability": "view",
      "type": "function"
    },
    {
      "inputs": [
        {
          "internalType": "address payable",
          "name": "recipient",
          "type": "address"
        }
      ],
      "name": "withdraw",
      "outputs": [],
      "stateMutability": "nonpayable",
      "type": "function"
    },
    {
      "inputs": [
        {
          "internalType": "address",
          "name": "token",
          "type": "address"
        },
        {
          "internalType": "address",
          "name": "recipient",
          "type": "address"
        },
        {
          "internalType": "uint256",
          "name": "amount",
          "type": "uint256"
        }
      ],
      "name": "withdrawToken",
      "outputs": [],
      "stateMutability": "nonpayable",
      "type": "function"
    },
    {
      "stateMutability": "payable",
      "type": "receive"
    }
  ],
  "bytecode": "0x60806040523461039657616ead6020813803918261001c816103cd565b93849283398101031261039657516001600160a01b03811690818103610396578115610383575f80546001600160a01b0319811684178255610373939182916001600160a01b0316907f8be0079c531659141344cd1fd0a4f28419497f9722a3daafe3b4186f6b6457e09080a360018080555f918252601260209081526040808420805460ff19168417905566038d7ea4c680007f3e5fec24aa4dc4e5aee2e025e51e1392c72a2500577559fae9665c6d52bd6a31819055660aa87bee5380007f8819ef417987f8ae7a81f42cdfb18815282fe989326fbff903d13cf0e03ace2955662386f26fc100005f516020616e6d5f395f51905f5255630121eac07fb39221ace053465ec3453ce2b36430bd138b997ecea25c1043da0c366812b828556302ebae407fb7c774451310d1be4108bc180d1b52823cb0ee0274a6c0081bcaf94f115fb96d556308e18f407f3be6fd20d5acfde5b873b48692cd31f4d3c7e8ee8a813af4696af8859e5ca6c655929093526006905261022c918391906101a2906103cd565b600e81526d2bb430b632902937ba30ba34b7b760911b60208201526101c760806103cd565b90604682527f456e6372797074656420686967682d636f6e76696374696f6e207768616c652060208301527f616363756d756c6174696f6e20616e6420646973747269627574696f6e20736960408301526533b730b6399760d11b60608301526103f2565b5060025f5260066020526102d38160405f205461024960406103cd565b601381527f536d617274204d6f6e65792057616c6c65747300000000000000000000000000602082015261027d60606103cd565b90604082527f507269766174652077616c6c65742d6c6576656c20696e74656c6c6967656e6360208301527f6520666f722072657065617461626c65206f6e2d636861696e2065646765732e60408301526107cc565b5060035f5260066020525f516020616e6d5f395f51905f52546102f660406103cd565b601081526f44414f20496e74656c6c6967656e636560801b602082015261031d60606103cd565b90603e82527f496e737469747574696f6e616c207369676e616c20666c6f772077697468207460208301527f65616d2d677261646520646973636c6f7375726520636f6e74726f6c732e00006040830152610b35565b50604051615fae9081610e9f8239f35b631e4fbdf760e01b5f525f60045260245ffd5b5f80fd5b6040519060c082016001600160401b038111838210176103b957604052565b634e487b7160e01b5f52604160045260245ffd5b6040519190601f01601f191682016001600160401b038111838210176103b957604052565b93926001600160a01b031680156107bd5761040b61039a565b858152602081019283526040810160018152606082019085825260808301946001865260a08401948552600254680100000000000000008110156103b95760018101806002558110156107a95760025f52935180516005959095025f516020616e4d5f395f51905f520194906001600160401b0382116103b957855490600182811c9216801561079f575b60208310146106c35781601f84931161074f575b50602090601f83116001146106ec575f926106e1575b50508160011b915f199060031b1c19161784555b51805160018501916001600160401b0382116103b9578254600181811c911680156106d7575b60208210146106c357601f811161067e575b50602090601f831160011461061257918060049694926105729896945f92610607575b50508160011b915f199060031b1c19161790555b60ff6002840191511660ff198254161790555160038201550192511515839060ff801983541691151516179055565b518154610100600160a81b03191660089190911b610100600160a81b03161790556002545f198101919082116105f3575f516020616e8d5f395f51905f5290608083956020604051938492606084528051928391826060870152018585015e5f838301850152600160208401526040830152601f01601f19168101030190a2565b634e487b7160e01b5f52601160045260245ffd5b015190505f8061052f565b90601f19831691845f52815f20925f5b81811061066657509260019285926105729a989660049a98961061064e575b505050811b019055610543565b01515f1960f88460031b161c191690555f8080610641565b92936020600181928786015181550195019301610622565b835f5260205f20601f840160051c810191602085106106b9575b601f0160051c01905b8181106106ae575061050c565b5f81556001016106a1565b9091508190610698565b634e487b7160e01b5f52602260045260245ffd5b90607f16906104fa565b015190505f806104c0565b5f8881528281209350601f198516905b818110610737575090846001959493921061071f575b505050811b0184556104d4565b01515f1960f88460031b161c191690555f8080610712565b929360206001819287860151815501950193016106fc565b909150865f5260205f20601f840160051c81019160208510610795575b90601f859493920160051c01905b81811061078757506104aa565b5f815584935060010161077a565b909150819061076c565b91607f1691610496565b634e487b7160e01b5f52603260045260245ffd5b63d92e233d60e01b5f5260045ffd5b93926001600160a01b031680156107bd576107e561039a565b858152602081019283526040810160028152606082019085825260808301946001865260a08401948552600254680100000000000000008110156103b95760018101806002558110156107a95760025f52935180516005959095025f516020616e4d5f395f51905f520194906001600160401b0382116103b957855490600182811c92168015610b2b575b60208310146106c35781601f849311610adb575b50602090601f8311600114610a78575f92610a6d575b50508160011b915f199060031b1c19161784555b51805160018501916001600160401b0382116103b9578254600181811c91168015610a63575b60208210146106c357601f8111610a1e575b50602090601f83116001146109cb579180600496949261094a9896945f926106075750508160011b915f199060031b1c191617905560ff6002840191511660ff198254161790555160038201550192511515839060ff801983541691151516179055565b518154610100600160a81b03191660089190911b610100600160a81b03161790556002545f198101919082116105f3575f516020616e8d5f395f51905f5290608083956020604051938492606084528051928391826060870152018585015e5f838301850152600260208401526040830152601f01601f19168101030190a2565b90601f19831691845f52815f20925f5b818110610a06575092600192859261094a9a989660049a98961061064e57505050811b019055610543565b929360206001819287860151815501950193016109db565b835f5260205f20601f840160051c81019160208510610a59575b601f0160051c01905b818110610a4e57506108e6565b5f8155600101610a41565b9091508190610a38565b90607f16906108d4565b015190505f8061089a565b5f8881528281209350601f198516905b818110610ac35750908460019594939210610aab575b505050811b0184556108ae565b01515f1960f88460031b161c191690555f8080610a9e565b92936020600181928786015181550195019301610a88565b909150865f5260205f20601f840160051c81019160208510610b21575b90601f859493920160051c01905b818110610b135750610884565b5f8155849350600101610b06565b9091508190610af8565b91607f1691610870565b93926001600160a01b031680156107bd57610b4e61039a565b858152602081019283526040810160038152606082019085825260808301946001865260a08401948552600254680100000000000000008110156103b95760018101806002558110156107a95760025f52935180516005959095025f516020616e4d5f395f51905f520194906001600160401b0382116103b957855490600182811c92168015610e94575b60208310146106c35781601f849311610e44575b50602090601f8311600114610de1575f92610dd6575b50508160011b915f199060031b1c19161784555b51805160018501916001600160401b0382116103b9578254600181811c91168015610dcc575b60208210146106c357601f8111610d87575b50602090601f8311600114610d345791806004969492610cb39896945f926106075750508160011b915f199060031b1c191617905560ff6002840191511660ff198254161790555160038201550192511515839060ff801983541691151516179055565b518154610100600160a81b03191660089190911b610100600160a81b03161790556002545f198101919082116105f3575f516020616e8d5f395f51905f5290608083956020604051938492606084528051928391826060870152018585015e5f838301850152600360208401526040830152601f01601f19168101030190a2565b90601f19831691845f52815f20925f5b818110610d6f5750926001928592610cb39a989660049a98961061064e57505050811b019055610543565b92936020600181928786015181550195019301610d44565b835f5260205f20601f840160051c81019160208510610dc2575b601f0160051c01905b818110610db75750610c4f565b5f8155600101610daa565b9091508190610da1565b90607f1690610c3d565b015190505f80610c03565b5f8881528281209350601f198516905b818110610e2c5750908460019594939210610e14575b505050811b018455610c17565b01515f1960f88460031b161c191690555f8080610e07565b92936020600181928786015181550195019301610df1565b909150865f5260205f20601f840160051c81019160208510610e8a575b90601f859493920160051c01905b818110610e7c5750610bed565b5f8155849350600101610e6f565b9091508190610e61565b91607f1691610bd956fe610560604052600436101561001b575b3615610019575f80fd5b005b5f3560e01c80628e0f1b14614e72578062d52e7914614a4b578063015dd97b14614a0e57806301788816146149f457806301e336671461493b57806303510c951461492057806308a8c7b4146148735780631cf455fa146145fe5780631d17749c146145c65780631d7737f5146145945780631dde91a0146145665780631e8fe03b146145295780632ff942ef146144a85780633013ce291461448057806330a16c52146143fb578063325cd796146143d85780633865f805146141865780633a924b36146141395780633c5030bb146140ca5780634410c021146140815780634628986d146140645780634776dc301461402c5780634896192714613faa5780634968744214613f795780634a5c6f8c14613f0e5780634da107b514613e9157806351028f9b14613dfa57806351cff8d914613d67578063598e1e4214613d155780635b9f86d214613cf05780635fd486e814613a8c57806368dd2f8814613a5a5780636c72084814613a3f5780636d48ac9714613a1b578063715018a6146139d75780637771a9ca146139bc5780637db455ca14613924578063828e58e2146136a35780638bb814851461360f5780638caa0083146135f25780638da5cb5b146135cb5780638f2391e1146135325780638f581f85146134c7578063948c8d6e146134a35780639add9a8214612a0b578063a097275714612981578063a20c9d9014612955578063a55c883a14612755578063a8037e8114612725578063ae0041aa14612708578063b1b8d5b61461265f578063b2fafcdb14611704578063b4b36e72146116cc578063bb7e9eab1461165c578063bd127bc714611624578063c3edc96414611307578063c6d4574e14611241578063cdc86ac314611152578063d04a31a214611115578063d479b32714610e4f578063d5999a5c14610e32578063d8dd53bc14610df2578063e7fde73814610dba578063e890008814610905578063ea63a48a1461082a578063eb51654a1461075c578063ecb76d90146106c3578063f2fde38b14610651578063f62cce431461057c5763fbf246dd0361000f57604036600319011261057857610333614f5d565b61033b614f6d565b906103446158b5565b61034d81615aed565b60ff8116805f52600660205260405f20549261036d60ff821680956153ac565b9283156105695783341061055a5761038791849133615b36565b8234033481116104f45783340361052f575b50335f52600a60205260405f20906040516103b381615027565b338152602081015f815260408201908582526060830190888252608084019188835260a085019660018060401b034216885260c086019660018060401b031687528054600160401b81101561051b5761041191600182018155615850565b94909461050857945184546001600160a01b03199081166001600160a01b03928316178655925160018601805490941691161782559351600394906104599060ff1683615833565b51815460ff60a81b191660a89190911b60ff60a81b1617905551600282015592519201805491516001600160801b03199092166001600160401b039390931692909217604091821b600160401b600160801b031617909155335f908152600a60205220545f198101929083116104f4575f93604051928352602083015260408201525f516020615e995f395f51905f5260603392a460018055005b634e487b7160e01b5f52601160045260245ffd5b634e487b7160e01b5f525f60045260245ffd5b634e487b7160e01b5f52604160045260245ffd5b5f80808093335af161053f61549e565b501561054b575f610399565b633c31275160e21b5f5260045ffd5b63949ce24160e01b5f5260045ffd5b630772d49760e51b5f5260045ffd5b5f80fd5b3461057857604036600319011261057857610595614f20565b6024356001600160401b0381116105785760806003198236030112610578576105cd6105d2916105c361588f565b36906004016150d1565b615943565b906105dc826159c7565b5f546105f1906001600160a01b031683615ab0565b6105fb8183615ab0565b6001600160a01b03165f818152600e602090815260408083209490945560109052918220805460ff19166001179055907fb566e26c5c67042eae1f753799a666a4552f47afe998643c225b1acaa4aaeb529080a2005b346105785760203660031901126105785761066a614f20565b61067261588f565b6001600160a01b031680156106b0575f80546001600160a01b03198116831782556001600160a01b0316905f516020615f195f395f51905f529080a3005b631e4fbdf760e01b5f525f60045260245ffd5b34610578576020366003190112610578576107216106e2600435615c88565b60ff600282015416600382015460048301549061072f61070d6001610706876155c7565b96016155c7565b60405196879660c0885260c0880190614fba565b908682036020880152614fba565b6040850193909352606084015260ff81161515608084015260081c6001600160a01b031660a08301520390f35b3461057857604036600319011261057857610775614f20565b6001600160a01b03165f818152600a6020526040902054602435919082101561081b5760e0916107af915f52600a60205260405f20615850565b50805460018201546002830154600390930154604080516001600160a01b039485168152938316602085015260ff60a084811c82168684015260a89490941c16606085015260808401949094526001600160401b038082169284019290925290921c90911660c0820152f35b6306f996f560e41b5f5260045ffd5b3461057857604036600319011261057857610843614f20565b6001600160a01b03165f818152600b6020526040902054602435908110156108f657610879915f52600b60205260405f20615179565b50805460018201549160ff6108d56004830154926108c76108a860036108a1600285016155c7565b93016155c7565b916040519788978852602088015260c0604088015260c0870190614fba565b908582036060870152614fba565b6001600160401b038316608085015260409290921c16151560a08301520390f35b63cc33f02f60e01b5f5260045ffd5b346105785760c03660031901126105785761091e614f20565b6024356001600160401b0381116105785761093d903690600401614ef3565b91906044356001600160401b0381116105785761095e903690600401614ef3565b9390926064356001600160401b03811161057857610980903690600401614ef3565b90959091906084356001600160401b038111610578576109a4903690600401614ef3565b97906109ae614fab565b936109b761588f565b6001600160a01b0316978815610dab57610a11926109f3610a0292604051966109df8861500c565b6109ea368c8e61509b565b8852369161509b565b9660208601978852369161509b565b9860408401998a52369161509b565b9660608201978852608082019360018060401b034216855260a083019315158452875f52600f60205260405f20925180519060018060401b03821161051b57610a6482610a5e8754615192565b876151ca565b602090601f8311600114610d4857610a8692915f9183610cda575b5050615219565b83555b51805160018401916001600160401b03821161051b57610ab382610aad8554615192565b856151ca565b602090601f8311600114610ce557610ad492915f9183610cda575050615219565b90555b51805160028301916001600160401b03821161051b57610afb82610aad8554615192565b602090601f8311600114610c7757610b1c92915f9183610c6c575050615219565b90555b9551805190969060038201906001600160401b03811161051b57610b4d81610b478454615192565b846151ca565b6020601f8211600114610bf25791610b8682610bb4979695936004955f516020615eb95f395f51905f529c9d5f92610be7575050615219565b90555b9251920180546001600160401b0319166001600160401b03939093169290921782555115159061522b565b835f52601160205260405f20600160ff19825416179055610be2604051928392602084526020840191615813565b0390a2005b015190508d80610a7f565b601f19821699835f52815f209a5f5b818110610c545750925f516020615eb95f395f51905f529a9b6004959360019383610bb49b9a999710610c3c575b505050811b019055610b89565b01515f1960f88460031b161c191690558c8080610c2f565b838301518d556001909c019b60209384019301610c01565b015190508b80610a7f565b90601f19831691845f52815f20925f5b818110610cc25750908460019594939210610caa575b505050811b019055610b1f565b01515f1960f88460031b161c191690558a8080610c9d565b92936020600181928786015181550195019301610c87565b015190508c80610a7f565b90601f19831691845f52815f20925f5b818110610d305750908460019594939210610d18575b505050811b019055610ad7565b01515f1960f88460031b161c191690558b8080610d0b565b92936020600181928786015181550195019301610cf5565b90601f19831691865f52815f20925f5b818110610d935750908460019594939210610d7b575b505050811b018355610a89565b01515f1960f88460031b161c191690558b8080610d6e565b92936020600181928786015181550195019301610d58565b63d92e233d60e01b5f5260045ffd5b34610578576020366003190112610578576001600160a01b03610ddb614f20565b165f526009602052602060405f2054604051908152f35b34610578576020366003190112610578576001600160a01b03610e13614f20565b165f526013602052602060018060401b0360405f205416604051908152f35b34610578575f36600319011261057857602060405162278d008152f35b346105785760a036600319011261057857610e68614f20565b6024356044356064356001600160401b03811161057857610e8d903690600401614ef3565b90936084356001600160401b03811161057857610eae903690600401614ef3565b959091610eb961588f565b6001600160a01b0316958615610dab57610ed285615c59565b50865f52600b602052610f1460405f2093610f0560405194610ef38661500c565b8986526020860197898952369161509b565b9260408501938452369161509b565b9060608301918252608083019460018060401b034216865260a08401945f86528054600160401b81101561051b57610f5191600182018155615179565b9490946105085751845551600184015551805160028401916001600160401b03821161051b57610f8582610aad8554615192565b602090601f83116001146110b257610fa692915f9183610c6c575050615219565b90555b51805160038301916001600160401b03821161051b57610fcd82610aad8554615192565b602090601f83116001146110475782610ff89796959360049593610b86935f92610cda575050615219565b825f52600b60205260405f2054915f1983019283116104f4576020937f8fe243eb9483d17f774ae832ffd701d210237357d4c2b2e7428cd439468add4b858593604051908152a4604051908152f35b90601f19831691845f52815f20925f5b81811061109a5750926001928592610ff89a999896600498961061108257505050811b019055610b89565b01515f1960f88460031b161c191690558b8080610c2f565b92936020600181928786015181550195019301611057565b90601f19831691845f52815f20925f5b8181106110fd57509084600195949392106110e5575b505050811b019055610fa9565b01515f1960f88460031b161c191690558a80806110d8565b929360206001819287860151815501950193016110c2565b34610578576020366003190112610578576001600160a01b03611136614f20565b165f526012602052602060ff60405f2054166040519015158152f35b346105785760603660031901126105785761116b614f20565b611173614f6d565b6044356001600160401b03811692908390036105785761119161588f565b61119a82615aed565b6001600160a01b0316918215610dab57428111156112325760408051908101916001600160401b0383118284101761051b5761121e60ff5f516020615ef95f395f51905f5295606095604052169283815260208101838152875f52600560205260ff8060405f209351161660ff1983541617825560018060401b03905116906157ee565b60405191825260208201525f6040820152a2005b63079955a160e41b5f5260045ffd5b346105785760603660031901126105785761125a614f20565b611262614f6d565b90604435801515928382036105785761127961588f565b81806112f6575b6112e7577f4a947481443f0d579705abe30e3d8e2216a63c9737006a1bd8de7e5f2bc439589260018060a01b031693846014549160ff60a81b9060a81b169160018060b01b0319161760ff60a01b8360a01b161717601455610be260405192839283615489565b63ad1991f560e01b5f5260045ffd5b506001600160a01b03831615611280565b346105785760a0366003190112610578576004356001600160401b03811161057857611337903690600401614ef3565b6024356001600160401b03811161057857611356903690600401614ef3565b906044359060ff82169384830361057857606435956084356001600160a01b03811693908490036105785761139b6113a3926113a99461139461588f565b369161509b565b95369161509b565b92615c7b565b8015610dab576040516113bb8161500c565b8381526020810192835260408101858152606082019087825260808301946001865260a08401948552600254600160401b81101561051b578060016114039201600255615149565b94909461050857518051906001600160401b03821161051b576114308261142a8854615192565b886151ca565b602090601f83116001146115c15761145192915f9183610cda575050615219565b84555b51805160018501916001600160401b03821161051b5761147882610aad8554615192565b602090601f831160011461154e57936114e1989796936114aa846114d1989560ff956004995f92611543575050615219565b90555b511660ff60028401911660ff19825416179055516003820155019251151583615432565b516001600160a01b0316906154cd565b6002545f198101929083116104f45761152e83927fd3a447f102a8baaaac74a18b985cf742ca5c49551ff129d57009d2b9135dffd692602096604051938493606085526060850190614fba565b918884015260408301520390a2604051908152f35b015190505f80610a7f565b90601f19831691845f52815f20925f5b8181106115a957508460ff94600498946114e19d9c9b98946114d19b9860019510611591575b505050811b0190556114ad565b01515f1960f88460031b161c191690558f8080611584565b9293602060018192878601518155019501930161155e565b90601f19831691875f52815f20925f5b81811061160c57509084600195949392106115f4575b505050811b018455611454565b01515f1960f88460031b161c191690558b80806115e7565b929360206001819287860151815501950193016115d1565b34610578576020366003190112610578576001600160a01b03611645614f20565b165f52600a602052602060405f2054604051908152f35b3461057857604036600319011261057857611675614f20565b6001600160a01b03165f8181526008602052604090205460243591908210156116bd576020916116ae915f526008835260405f20615248565b90549060031b1c604051908152f35b63779ffa5760e11b5f5260045ffd5b34610578576020366003190112610578576001600160a01b036116ed614f20565b165f526008602052602060405f2054604051908152f35b3461057857610220366003190112610578576024356001600160401b03811161057857611735903690600401614ef3565b6044356001600160401b03811161057857611754903690600401614ef3565b6101e0919091526064356001600160401b0381116105785761177a903690600401614ef3565b6102e0526102c0526084356001600160401b038111610578576117a1903690600401614ef3565b6102a0526102805260a4356001600160401b038111610578576117c8903690600401614ef3565b610260526102205260c4356001600160401b038111610578576117ef903690600401614ef3565b610240529160e4356001600160401b03811161057857611813903690600401614ef3565b9091610104356001600160401b03811161057857611835903690600401614ef3565b60809190915294610124356001600160401b0381116105785761185c903690600401614ef3565b6101205261014052610144356001600160401b03811161057857611884903690600401614ef3565b610180526101c052611894614f7d565b610300526001600160401b0361018435116105785760806101843536036003190112610578576001600160401b036101a435116105785760806101a43536036003190112610578576001600160401b036101c435116105785760806101c43536036003190112610578576001600160401b036101e435116105785760806101e43536036003190112610578576001600160401b03610204351161057857608061020435360360031901126105785761194e61030051615c7b565b611959600435615c88565b60048101549060ff82161561265057600260ff9101541660ff610300511610612641575f546001600160a01b031633141590819081612627575b5080612610575b61260157806125ea575b6125a7575b6119c16119bc36610184356004016150d1565b6158d5565b610200526119d5366101a4356004016150d1565b60ff604082015116600581036125905750611a29906119f2615da0565b50805190606060ff6020830151169101519060405192611a1184615042565b83526020830152600560408301526060820152615dc4565b6101a052611a406105cd366101c4356004016150d1565b61016052611a576105cd366101e4356004016150d1565b61010052611a6e6105cd36610204356004016150d1565b60e052611a8d3360e05161010051610160516101a05161020051615cfc565b5f546001600160a01b031633810361256e575b5060405160c08190526102a0810160a08190526001600160401b03811191111761051b57611b04611b6b95611af2611b7d99611b5d9560a0516040523360c05152600435602060c0510152369161509b565b604060c051015236906101e05161509b565b606060c0510152611b1c366102e0516102c05161509b565b608060c0510152611b34366102a0516102805161509b565b60a060c0510152611b4c36610260516102205161509b565b60c08051015261024051369161509b565b60e060c0510152369161509b565b61010060c0510152369060805161509b565b61012060c0510152611b9636610120516101405161509b565b61014060c0510152611baf36610180516101c05161509b565b61016060c051015260ff610300511661018060c051015260018060401b0342166101a060c051015260018060401b0342166101c060c051015260016101e060c05101526102005161020060c05101526101a05161022060c05101526101605161024060c05101526101005161026060c051015260e05161028060c0510152600354600160401b81101561051b57806001611c4c92016003556157d2565b6105085760c051805182546001600160a01b0319166001600160a01b039190911617825560208101516001830155604001518051906001600160401b03821161051b57611ca982611ca06002860154615192565b600286016151ca565b602090601f831160011461250157611cca92915f918361213a575050615219565b60028201555b60c051606001518051906001600160401b03821161051b57611d0282611cf96003860154615192565b600386016151ca565b602090601f831160011461249457611d2392915f918361213a575050615219565b60038201555b60c051608001518051906001600160401b03821161051b57611d5b82611d526004860154615192565b600486016151ca565b602090601f831160011461242757611d7c92915f918361213a575050615219565b60048201555b60c05160a001518051906001600160401b03821161051b57611db482611dab6005860154615192565b600586016151ca565b602090601f83116001146123ba57611dd592915f918361213a575050615219565b60058201555b60c0805101518051906001600160401b03821161051b57611e0c82611e036006860154615192565b600686016151ca565b602090601f831160011461234d57611e2d92915f918361213a575050615219565b60068201555b60c05160e001518051906001600160401b03821161051b57611e6582611e5c6007860154615192565b600786016151ca565b602090601f83116001146122e057611e8692915f918361213a575050615219565b60078201555b60c0516101000151805190919060088201906001600160401b03811161051b57611eba81610b478454615192565b6020601f821160011461227f578190611edc9394955f926121b2575050615219565b90555b60c0516101200151805190919060098201906001600160401b03811161051b57611f0d81610b478454615192565b6020601f821160011461221e578190611f2f9394955f926121b2575050615219565b90555b60c05161014001518051909190600a8201906001600160401b03811161051b57611f6081610b478454615192565b6020601f82116001146121bd578190611f829394955f926121b2575050615219565b90555b60c05161016001518051906001600160401b03821161051b57611fb882611faf600b860154615192565b600b86016151ca565b602090601f831160011461214557611fd992915f918361213a575050615219565b600b8201555b612040600c820160ff8061018060c0510151161660ff1982541617815561201560018060401b036101a060c051015116826157ee565b60c0516101c00151612030906001600160401b031682615460565b6101e060c0510151151590615443565b60c051610200810151600d830155610220810151600e830155610240810151600f830155610260810151601083015561028001516011909101556003545f1981019081116104f457602090335f526008825261209f8160405f20615684565b335f9081526013835260409081902080546001600160401b031916426001600160401b0316179055516103005160ff16815260608184018190526102e0516102c0516120ee9284019190615813565b8181036040830152827fbd7938c5d513ac6f27fe8de95437429fe5e903d942334cce47c18bb7d776455d600435938061212f33956102a05161028051615813565b0390a4604051908152f35b015190508480610a7f565b9190600b84015f52805f20905f935b601f1984168510612197576001945083601f1981161061217f575b505050811b01600b820155611fdf565b01515f1960f88460031b161c1916905583808061216f565b81810151835560209485019460019093019290910190612154565b015190508580610a7f565b601f19821690835f52805f20915f5b818110612206575095836001959697106121ee575b505050811b019055611f85565b01515f1960f88460031b161c191690558480806121e1565b9192602060018192868b0151815501940192016121cc565b601f19821690835f52805f20915f5b8181106122675750958360019596971061224f575b505050811b019055611f32565b01515f1960f88460031b161c19169055848080612242565b9192602060018192868b01518155019401920161222d565b601f19821690835f52805f20915f5b8181106122c8575095836001959697106122b0575b505050811b019055611edf565b01515f1960f88460031b161c191690558480806122a3565b9192602060018192868b01518155019401920161228e565b9190600784015f52805f20905f935b601f1984168510612332576001945083601f1981161061231a575b505050811b016007820155611e8c565b01515f1960f88460031b161c1916905583808061230a565b818101518355602094850194600190930192909101906122ef565b9190600684015f52805f20905f935b601f198416851061239f576001945083601f19811610612387575b505050811b016006820155611e33565b01515f1960f88460031b161c19169055838080612377565b8181015183556020948501946001909301929091019061235c565b9190600584015f52805f20905f935b601f198416851061240c576001945083601f198116106123f4575b505050811b016005820155611ddb565b01515f1960f88460031b161c191690558380806123e4565b818101518355602094850194600190930192909101906123c9565b9190600484015f52805f20905f935b601f1984168510612479576001945083601f19811610612461575b505050811b016004820155611d82565b01515f1960f88460031b161c19169055838080612451565b81810151835560209485019460019093019290910190612436565b9190600384015f52805f20905f935b601f19841685106124e6576001945083601f198116106124ce575b505050811b016003820155611d29565b01515f1960f88460031b161c191690558380806124be565b818101518355602094850194600190930192909101906124a3565b9190600284015f52805f20905f935b601f1984168510612553576001945083601f1981161061253b575b505050811b016002820155611cd0565b01515f1960f88460031b161c1916905583808061252b565b81810151835560209485019460019093019290910190612510565b61258a9060e05161010051610160516101a05161020051615cfc565b87611aa0565b6367cf307160e01b5f52600452600560245260445ffd5b335f908152601360205260409020546014546001600160401b03916125d39160b01c8316908316615b1d565b164210156119a95763fdc6bb0160e01b5f5260045ffd5b5060145460b01c6001600160401b031615156119a4565b6323c7d65560e01b5f5260045ffd5b50335f52601260205260ff60405f2054161561199a565b3360089190911c6001600160a01b03161415905089611993565b63261d848560e21b5f5260045ffd5b636ba3e88160e01b5f5260045ffd5b346105785760203660031901126105785760043561267d81336153bf565b156126f9576126d161268e82615c59565b61269c33600d830154615ab0565b6126aa33600e830154615ab0565b6126b833600f830154615ab0565b6126c6336010830154615ab0565b601133910154615ab0565b33907f55c868744ad9e1153741c3b352394023af0ddb5b644ef6ce0a12221d19a2e0105f80a3005b631a68e4b760e21b5f5260045ffd5b34610578575f366003190112610578576020600354604051908152f35b3461057857604036600319011261057857610019612741614f9c565b600261274f60043533615a7b565b0161522b565b3461057857604036600319011261057857600435612771614f4c565b600360ff61277e33615279565b16106129465761ffff16908115801561293c575b61292d576040516127a281615027565b33815260208101828152604082019060038252606083019085825260808401916001835260a085019160018060401b034216835260c086019360018552600454600160401b81101561051b578060016127fe920160045561525d565b92909261050857965182546001600160a01b0319166001600160a01b0391909116178255955160018201559351600294909401805460ff191660ff9590951694909417845551612893946128659161ffff919061285d90831687614fde565b5116846154f2565b518254600160281b600160681b03191660289190911b600160281b600160681b031617825551151590615667565b6004545f198101919082116104f4575f828152600d602090815260408083203384528252808320805460ff19166001179055600c82529091209093906128da908490615684565b60405191825283820152817f102bb50c2f52ac9fc70a23dab8b57cd53802def26287083bac8bdbe7021e645b60403393a360405160018152815f516020615f395f395f51905f52843393a3604051908152f35b63387301f360e01b5f5260045ffd5b5060c88211612792565b63346c0c9560e11b5f5260045ffd5b34610578575f3660031901126105785760145460405160b09190911c6001600160401b03168152602090f35b34610578576040366003190112610578576129a661299d614f20565b60243590615a7b565b805460028201546003830154926129c46001600483015492016155c7565b9360ff6129e3604051968796875260c0602088015260c0870190614fba565b9360018060401b038116604087015260401c1615156060850152608084015260a08301520390f35b34610578576101a0366003190112610578576024356001600160401b03811161057857612a3c903690600401614ef3565b61040052610480526044356001600160401b03811161057857612a63903690600401614ef3565b6104a0526064356001600160401b03811161057857612a86903690600401614ef3565b9091906084356001600160401b03811161057857612aa8903690600401614ef3565b9060a4356001600160401b03811161057857612ac8903690600401614ef3565b909290919060c4356001600160401b03811161057857612aec903690600401614ef3565b909790959060e4356001600160401b03811161057857612b10903690600401614ef3565b6103209190915297610104356001600160401b03811161057857612b38903690600401614ef3565b6103405261036052610124356001600160401b03811161057857612b60903690600401614ef3565b6103a0526103e052610144356001600160401b03811161057857612b88903690600401614ef3565b6104205261046052612b98614f7d565b61044052610184356103c0819052801515900361057857612bbb61044051615c7b565b612bc6600435615c59565b610380525f546001600160a01b03163314158061348c575b61347d5760ff6002612bf66001610380510154615c88565b01541660ff61044051161061264157610400516001600160401b031061051b57612c3961040051612c2d6002610380510154615192565b600261038051016151ca565b5f601f61040051116001146133fd57612c62905f90610400516133ef575b506104005190615219565b60026103805101555b6104a0516001600160401b031061051b57612c9f6104a051612c936003610380510154615192565b600361038051016151ca565b5f90601f6104a0511160011461337457612cca915f916104a051613369575b50506104a05190615219565b60036103805101555b6001600160401b03821161051b57612d0182612cf56004610380510154615192565b600461038051016151ca565b5f90601f83116001146132f657612d2192915f91836132eb575050615219565b60046103805101555b61038051600501916001600160401b03821161051b57612d4e82610aad8554615192565b5f90601f831160011461328757612d6e92915f918361327c575050615219565b90555b61038051600601916001600160401b03821161051b57612d9582610aad8554615192565b5f90601f831160011461321857612db592915f918361320d575050615219565b90555b61038051600701906001600160401b03811161051b57612ddc81610b478454615192565b5f601f82116001146131ab578190612dfd9394955f926131a0575050615219565b90555b61038051600801906001600160401b03811161051b57612e2481610b478454615192565b5f601f8211600114613138579080612e43925f9161312a575b50615219565b90555b6009610380510160018060401b03610340511161051b57612e7461034051612e6e8354615192565b836151ca565b5f601f61034051116001146130b957612e9d905f90610340516130ab575b506103405190615219565b90555b600a610380510160018060401b036103a0511161051b57612ec86103a051612e6e8354615192565b5f601f6103a0511160011461303a57612ef1905f906103a05161302c575b506103a05190615219565b90555b600b610380510160018060401b03610420511161051b57612f1c61042051612e6e8354615192565b5f601f6104205111600114612fbb57612f45905f9061042051612fad575b506104205190615219565b90555b612f7f600c610380510160ff610440511660ff19825416178155612f6f6103c05182615443565b426001600160401b031690615460565b60405133905f516020615ed95f395f51905f526004359180612fa86103c0516104405183615489565b0390a3005b905061046051013583612f3a565b601f19610420511690825f5260205f20915f5b81811061301157506104205111612ff2575b5050600161042051811b019055612f48565b5f1960f86104205160031b161c19906104605101351690558180612fe0565b91926020600181928661046051013581550194019201612fce565b90506103e051013583612ee6565b601f196103a0511690825f5260205f20915f5b81811061309057506103a05111613071575b505060016103a051811b019055612ef4565b5f1960f86103a05160031b161c19906103e0510135169055818061305f565b9192602060018192866103e05101358155019401920161304d565b905061036051013583612e92565b601f19610340511690825f5260205f20915f5b81811061310f575061034051116130f0575b5050600161034051811b019055612ea0565b5f1960f86103405160031b161c199061036051013516905581806130de565b919260206001819286610360510135815501940192016130cc565b905061032051013584612e3d565b601f19821690835f5260205f20915f5b81811061318557509083600194939210613169575b5050811b019055612e46565b6103205101355f19600384901b60f8161c19169055838061315d565b91926020600181928661032051013581550194019201613148565b013590508580610a7f565b601f19821694835f5260205f20915f5b8781106131f55750836001959697106131dc575b505050811b019055612e00565b01355f19600384901b60f8161c191690558480806131cf565b909260206001819286860135815501940191016131bb565b013590508780610a7f565b601f19831691845f5260205f20925f5b818110613264575090846001959493921061324b575b505050811b019055612db8565b01355f19600384901b60f8161c1916905586808061323e565b91936020600181928787013581550195019201613228565b013590508980610a7f565b601f19831691845f5260205f20925f5b8181106132d357509084600195949392106132ba575b505050811b019055612d71565b01355f19600384901b60f8161c191690558880806132ad565b91936020600181928787013581550195019201613297565b013590508a80610a7f565b600461038093929351015f5260205f20905f935b601f1984168510613351576001945083601f19811610613338575b505050811b016004610380510155612d2a565b01355f19600384901b60f8161c19169055898080613325565b8181013583556020948501946001909301920161330a565b013590508b80612cbe565b600361038051015f5260205f20915f5b6104a051601f191681106133d757506104a051601f198116106133bb575b50505060016104a051811b016003610380510155612cd3565b5f1960f86104a05160031b161c199101351690558980806133a2565b90926020600181928686013581550194019101613384565b90506104805101358c612c57565b600261038051015f5260205f20905f5b61040051601f19168110613462575061040051601f19811610613443575b5050600161040051811b016002610380510155612c6b565b5f1960f86104005160031b161c19906104805101351690558a8061342b565b9091602060018192856104805101358155019301910161340d565b6321bc347960e21b5f5260045ffd5b5061038051546001600160a01b0316331415612bde565b34610578576040366003190112610578576100196134bf614f36565b6004356156b8565b34610578576040366003190112610578576134e0614f5d565b7f20e4298859d6445ab05fb3a4ed408fb32e28aa6037a527d7a1ff58a7caaebd64602060ff6024359361351161588f565b61351a81615aed565b1692835f52600782528060405f2055604051908152a2005b34610578576020366003190112610578576001600160a01b03613553614f20565b165f52600f6020526135af60405f20600481015460ff6108d5613575846155c7565b936108c7613585600183016155c7565b916135bd61359a60036108a1600285016155c7565b93604051998a9960c08b5260c08b0190614fba565b9089820360208b0152614fba565b908782036040890152614fba565b34610578575f366003190112610578575f546040516001600160a01b039091168152602090f35b34610578575f366003190112610578576020600454604051908152f35b346105785760403660031901126105785760043561362b614f9c565b61363482615869565b9060018060a01b035f54163314158061368f575b6136805761ffff60025f516020615e795f395f51905f52930161366b8382615667565b5460081c1690610be260405192839283614ff6565b6347fbb75d60e01b5f5260045ffd5b5081546001600160a01b0316331415613648565b34610578576020366003190112610578576136bf600435615c59565b600160a01b6001900381541690600181015461052052600c8101546104e052600d81015491600e820154600f8301549160108401549360118101546104c0526002810161370b906155c7565b6105405261371b600382016155c7565b613727600483016155c7565b613733600584016155c7565b61373f600685016155c7565b61374b600786016155c7565b91613758600887016155c7565b93613765600988016155c7565b95613772600a89016155c7565b97600b0161377f906155c7565b98604051610500526105005152610520516105005160200152610500516040016102a09052610500516102a00161054051906137ba91614fba565b61050051810361050051606001526137d191614fba565b61050051810361050051608001526137e891614fba565b6105005181036105005160a001526137ff91614fba565b6105005181036105005160c0015261381691614fba565b6105005181036105005160e0015261382d91614fba565b61050051810361050051610100015261384591614fba565b61050051810361050051610120015261385d91614fba565b61050051810361050051610140015261387591614fba565b61050051810361050051610160015261388d91614fba565b936104e05160ff16610500516101800152600160401b600190036104e05160081c16610500516101a00152600160401b600190036104e05160481c16610500516101c001526104e05160881c60ff161515610500516101e001526105005161020001526105005161022001526105005161024001526105005161026001526104c05161050051610280015261050051900361050051f35b34610578576020366003190112610578576001600160a01b03613945614f20565b16805f52601060205260ff60405f205416156139ad575f546001600160a01b0316331415806139a3575b8061398e575b6126f9575f52600e6020526100193360405f2054615ab0565b50600160ff61399c33615279565b1610613975565b508033141561396f565b63618c7f4360e11b5f5260045ffd5b34610578575f36600319011261057857602060405160028152f35b34610578575f366003190112610578576139ef61588f565b5f80546001600160a01b0319811682556001600160a01b03165f516020615f195f395f51905f528280a3005b3461057857604036600319011261057857610019613a37614f36565b60043561550e565b34610578575f36600319011261057857602060405160038152f35b346105785760203660031901126105785760ff613a75614f5d565b165f526007602052602060405f2054604051908152f35b346105785760e0366003190112610578576004356024356001600160401b03811161057857613abf903690600401614ef3565b906044356001600160401b03811161057857613adf903690600401614ef3565b91906064359060ff82169384830361057857613af9614fab565b9560c435946001600160a01b0386169485870361057857613b2190613b1c61588f565b615c7b565b613b2a89615c88565b9415610dab576001600160401b03821161051b57613b4c82610a5e8754615192565b5f90601f8311600114613c8c57613b6c92915f91836132eb575050615219565b83555b60018301916001600160401b03821161051b57613b9082610aad8554615192565b5f90601f8311600114613c0e5793613bf493613bcb845f516020615f595f395f51905f529a989560049560409b995f92613c03575050615219565b90555b60028101805460ff191686179055608435600382015501613bef8582615432565b6154cd565b825191151582526020820152a2005b013590508d80610a7f565b601f19831691845f5260205f20925f5b818110613c7457508460049460409a9894613bf498945f516020615f595f395f51905f529d9b9860019510613c5b575b505050811b019055613bce565b01355f19600384901b60f8161c191690558c8080613c4e565b91936020600181928787013581550195019201613c1e565b601f19831691865f5260205f20925f5b818110613cd85750908460019594939210613cbf575b505050811b018355613b6f565b01355f19600384901b60f8161c19169055898080613cb2565b91936020600181928787013581550195019201613c9c565b34610578575f36600319011261057857602060ff60145460a81c166040519015158152f35b3461057857604036600319011261057857613d2e614f20565b6001600160a01b03165f818152600c602052604090205460243591908210156116bd576020916116ae915f52600c835260405f20615248565b34610578576020366003190112610578576004356001600160a01b0381169081900361057857613d9561588f565b613d9d6158b5565b8015610dab57475f80808084865af1613db461549e565b5015613deb5760207f233c84dc0c19fbf51f9fa92214ffd8a59f512e0098bff5827455d02e401221c091604051908152a260018055005b631d42c86760e21b5f5260045ffd5b3461057857604036600319011261057857600435613e16614f9c565b90613e2081615c59565b5f546001600160a01b031633141580613e7d575b61347d57612fa860ff600c5f516020615ed95f395f51905f529301613e598682615443565b613e6c426001600160401b031682615460565b541693604051918291339683615489565b5080546001600160a01b0316331415613e34565b3461057857604036600319011261057857613eaa614f20565b613eb2614f9c565b90613ebb61588f565b6001600160a01b0316908115610dab5760207f0b4a4b45eecf35c3a586b6f37461fd3b3670e4b920d8040bb84664b92aaf4e5591835f5260128252613f038160405f20615432565b6040519015158152a2005b3461057857604036600319011261057857613f27614f5d565b7f9b2aeac57e3bc4cc557619887fe04fb4a5d6a7198dc9d52d71c288115f3bf7c7602060ff60243593613f5861588f565b613f6181615aed565b1692835f52600682528060405f2055604051908152a2005b34610578576040366003190112610578576020613fa0613f97614f20565b602435906153bf565b6040519015158152f35b3461057857604036600319011261057857600435613fc6614f9c565b335f52600b60205260405f20548210156108f657335f52600b602052613ffc816004613ff58560405f20615179565b500161522b565b60405190151581527fcb5238199f4dd62b2c49fe48997555d9fd20cae22609f75d534e7d6ac4cc25df60203392a3005b34610578576020366003190112610578576001600160a01b0361404d614f20565b165f52600b602052602060405f2054604051908152f35b34610578575f366003190112610578576020600254604051908152f35b346105785760403660031901126105785761409a614f36565b6004355f52600d60205260405f209060018060a01b03165f52602052602060ff60405f2054166040519015158152f35b34610578576020366003190112610578576001600160a01b036140eb614f20565b165f90815260056020526040902054606090600881901c6001600160401b031690428210801591906141315760ff16915b60ff6040519316835260208301526040820152f35b505f9161411c565b34610578576020366003190112610578576001600160a01b0361415a614f20565b16805f52601060205260ff60405f205416156139ad575f52600e602052602060405f2054604051908152f35b346105785760403660031901126105785761419f614f5d565b6141a7614f6d565b906141b06158b5565b6141b981615aed565b60145460ff8160a81c16156143c9576001600160a01b03169081156143ba5760ff811690815f52600760205260405f2054926141f960ff861680956153ac565b9485156143ab57614246926142408793604051906323b872dd60e01b60208301523360248301523060448301528560648301526064825261423b60848361505d565b615d48565b33615b36565b9260018060a01b036014541693335f52600a60205260405f209060405161426c81615027565b3381526020810187815260408201908682526060830190888252608084019187835260a085019660018060401b034216885260c086019660018060401b031687528054600160401b81101561051b576142ca91600182018155615850565b94909461050857945184546001600160a01b03199081166001600160a01b03928316178655925160018601805490941691161782559351600394906143129060ff1683615833565b51815460ff60a81b191660a89190911b60ff60a81b1617905551600282015592519201805491516001600160801b03199092166001600160401b039390931692909217604091821b600160401b600160801b031617909155335f908152600a60205220545f198101939084116104f457604051928352602083015260408201525f516020615e995f395f51905f5260603392a460018055005b63036c163560e01b5f5260045ffd5b6363d12f7b60e01b5f5260045ffd5b631931ea8560e01b5f5260045ffd5b34610578575f36600319011261057857602060ff60145460a01c16604051908152f35b34610578576020366003190112610578576004356001600160401b03811690818103610578577f2c4d5420f9c927fb1954bfa41d3a85248a89735390fa87ee6275044af8eef6079160209161444e61588f565b60148054600160b01b600160f01b03191660b09290921b600160b01b600160f01b0316919091179055604051908152a1005b34610578575f366003190112610578576014546040516001600160a01b039091168152602090f35b34610578576020366003190112610578576004356144c68133615a7b565b60ff600282015460401c161561451a576144f3906144e8336003830154615ab0565b600433910154615ab0565b337f7a1fac5ff7e79aec04818648b6eed2fcc26f5aa79340daa477dc1a1a07f6bf3b5f80a3005b632189a1af60e21b5f5260045ffd5b34610578576020366003190112610578576001600160a01b0361454a614f20565b165f526011602052602060ff60405f2054166040519015158152f35b34610578576020366003190112610578576020614589614584614f20565b615279565b60ff60405191168152f35b346105785760203660031901126105785760ff6145af614f5d565b165f526006602052602060405f2054604051908152f35b34610578576020366003190112610578576001600160a01b036145e7614f20565b165f52600c602052602060405f2054604051908152f35b34610578576080366003190112610578576024356001600160401b0381116105785761462e903690600401614ef3565b6044356001600160401b038111610578576080600319823603011261057857606435906001600160401b0382116105785760806003198336030112610578576105cd6146846119bc61468f9336906004016150d1565b9236906004016150d1565b90614699816159c7565b6146a2826159c7565b6146ab81615a3f565b6146b482615a3f565b335f5260096020526146dd60405f2094604051946146d18661500c565b6004358652369161509b565b9360208401948552604084019060018060401b03421682526060850190600182526080860193845260a086019485528054600160401b81101561051b5761472991600182018155615179565b959095610508575185559451805190959060018601906001600160401b03811161051b5761475b81610b478454615192565b6020601f821160011461480857816147b6959493926147859260049a9b5f92610c6c575050615219565b90555b90516002870180546001600160401b0319166001600160401b0392909216919091178155905115159061522b565b51600384015551910155335f52600960205260405f20545f1981019081116104f45760405160209180337f764bc55e99370de849e60565eb769b7222fff071338a0701f316d8c897cb34645f80a38152f35b601f19821698835f52815f20995f5b81811061485b57509960019284926147b69897969560049c9d10614843575b505050811b019055614788565b01515f1960f88460031b161c191690558a8080614836565b838301518c556001909b019a60209384019301614817565b346105785760403660031901126105785760043561488f614f4c565b61489882615869565b5f546001600160a01b03163314158061490c575b613680576002019061ffff825460181c1661ffff8216908110908115614901575b5061292d5760ff826148ed835f516020615e795f395f51905f5295614fde565b5460681c16610be260405192839283614ff6565b60c8915011846148cd565b5080546001600160a01b03163314156148ac565b34610578575f36600319011261057857602060405160018152f35b3461057857606036600319011261057857614954614f20565b61495c614f36565b6044359161496861588f565b6149706158b5565b6001600160a01b03169081156112e7576001600160a01b0316918215610dab5760207f42856d0378dde02337bb59ae41747abc77ded8ebdbbc5cbdd1e53693b7554938916149e760405163a9059cbb60e01b84820152866024820152826044820152604481526149e160648261505d565b85615d48565b604051908152a360018055005b34610578575f3660031901126105785760206040515f8152f35b34610578576020366003190112610578576001600160a01b03614a2f614f20565b165f526010602052602060ff60405f2054166040519015158152f35b34610578576080366003190112610578576004356001600160401b03811161057857614a7b903690600401614ef3565b906024356001600160401b03811161057857614a9b903690600401614ef3565b6044356001600160401b03811161057857614aba903690600401614ef3565b91906064356001600160401b03811161057857614adb903690600401614ef3565b9460018060a01b035f541633141580614e5b575b61260157614b3492614b16614b259260405196614b0b8861500c565b6109ea368d8d61509b565b9560208601968752369161509b565b9460408401958652369161509b565b60608201908152608082019360018060401b034216855260a083019360018552335f52600f60205260405f20935180519060018060401b03821161051b57614b808261142a8854615192565b602090601f8311600114614df857614ba192915f9183610c6c575050615219565b84555b51805160018501916001600160401b03821161051b57614bc882610aad8554615192565b602090601f8311600114614d9557614be992915f9183610c6c575050615219565b90555b51805160028401916001600160401b03821161051b57614c1082610aad8554615192565b602090601f8311600114614d3257614c3192915f9183614d27575050615219565b90555b51805160038301916001600160401b03821161051b57614c5882610aad8554615192565b602090601f8311600114614cc25793610be29693610b86845f516020615eb95f395f51905f529a9895600495614c95995f92610be7575050615219565b335f52601160205260405f20600160ff198254161790556040519182916020835233956020840191615813565b90601f19831691845f52815f20925f5b818110614d0f575084600494614c959894610be29b98945f516020615eb95f395f51905f529d9b9860019510610c3c57505050811b019055610b89565b92936020600181928786015181550195019301614cd2565b015190508a80610a7f565b90601f19831691845f52815f20925f5b818110614d7d5750908460019594939210614d65575b505050811b019055614c34565b01515f1960f88460031b161c19169055898080614d58565b92936020600181928786015181550195019301614d42565b90601f19831691845f52815f20925f5b818110614de05750908460019594939210614dc8575b505050811b019055614bec565b01515f1960f88460031b161c191690558a8080614dbb565b92936020600181928786015181550195019301614da5565b90601f19831691875f52815f20925f5b818110614e435750908460019594939210614e2b575b505050811b018455614ba4565b01515f1960f88460031b161c191690558a8080614e1e565b92936020600181928786015181550195019301614e08565b50335f52601260205260ff60405f20541615614aef565b346105785760203660031901126105785760e0614e90600435615869565b60ff60018060a01b038254169160026001820154910154906040519384526020840152818116604084015261ffff8160081c16606084015261ffff8160181c16608084015260018060401b038160281c1660a084015260681c16151560c0820152f35b9181601f84011215610578578235916001600160401b038311610578576020838186019501011161057857565b600435906001600160a01b038216820361057857565b602435906001600160a01b038216820361057857565b6024359061ffff8216820361057857565b6004359060ff8216820361057857565b6024359060ff8216820361057857565b610164359060ff8216820361057857565b359060ff8216820361057857565b60243590811515820361057857565b60a43590811515820361057857565b805180835260209291819084018484015e5f828201840152601f01601f1916010190565b9062ffff0082549160081b169062ffff001916179055565b901515815261ffff909116602082015260400190565b60c081019081106001600160401b0382111761051b57604052565b60e081019081106001600160401b0382111761051b57604052565b608081019081106001600160401b0382111761051b57604052565b601f909101601f19168101906001600160401b0382119082101761051b57604052565b6001600160401b03811161051b57601f01601f191660200190565b9291926150a782615080565b916150b5604051938461505d565b829481845281830111610578578281602093845f960137010152565b919060808382031261057857604051906150ea82615042565b8193803583526150fc60208201614f8e565b602084015261510d60408201614f8e565b60408401526060810135906001600160401b038211610578570181601f82011215610578576060918160206151449335910161509b565b910152565b6002548110156151655760025f52600560205f20910201905f90565b634e487b7160e01b5f52603260045260245ffd5b8054821015615165575f52600560205f20910201905f90565b90600182811c921680156151c0575b60208310146151ac57565b634e487b7160e01b5f52602260045260245ffd5b91607f16916151a1565b601f82116151d757505050565b5f5260205f20906020601f840160051c8301931061520f575b601f0160051c01905b818110615204575050565b5f81556001016151f9565b90915081906151f0565b8160011b915f199060031b1c19161790565b805460ff60401b191691151560401b60ff60401b16919091179055565b8054821015615165575f5260205f2001905f90565b6004548110156151655760045f52600360205f20910201905f90565b6001600160a01b03165f818152600560205260408120549092919042600882901c6001600160401b031610156153a1575b50805f52600c60205260405f205f918154925b8381106152ca5750505050565b6152e36152d78285615248565b90549060031b1c61525d565b506152ee8285615248565b90549060031b1c5f52600d60205260405f20835f5260205260ff60405f205416156153985760028101549060ff8260681c161561538e57546001600160a01b03165f9081526005602052604090205442600882901c6001600160401b03161015908161537d575b50615366575b506001905b016152bd565b60ff1660ff871681111561535b579550600161535b565b905060ff808316911610155f615355565b5050600190615360565b50600190615360565b60ff1692505f6152aa565b818102929181159184041417156104f457565b906153c990615c59565b90600c8201549160ff8360881c161561542b57546001600160a01b0382811691168114908115615415575b5061540e5760ff6154058192615279565b92169116101590565b5050600190565b5f80546001600160a01b031690911491506153f4565b5050505f90565b9060ff801983541691151516179055565b805460ff60881b191691151560881b60ff60881b16919091179055565b8054600160481b600160881b03191660489290921b600160481b600160881b0316919091179055565b60ff9091168152901515602082015260400190565b3d156154c8573d906154af82615080565b916154bd604051938461505d565b82523d5f602084013e565b606090565b8054610100600160a81b03191660089290921b610100600160a81b0316919091179055565b9064ffff00000082549160181b169064ffff0000001916179055565b61551781615869565b80546001600160a01b03169233849003613680576001600160a01b03169283146155b857815f52600d60205260405f20835f5260205260ff60405f205416156155b357600290825f52600d60205260405f20845f5260205260405f2060ff198154169055015f1961ffff825460181c160161ffff81116104f45761559a916154f2565b5f516020615f395f395f51905f5260206040515f8152a3565b505050565b6323499e9f60e21b5f5260045ffd5b9060405191825f8254926155da84615192565b80845293600181169081156156455750600114615601575b506155ff9250038361505d565b565b90505f9291925260205f20905f915b8183106156295750509060206155ff928201015f6155f2565b6020919350806001915483858901015201910190918492615610565b9050602092506155ff94915060ff191682840152151560051b8201015f6155f2565b805460ff60681b191691151560681b60ff60681b16919091179055565b8054600160401b81101561051b576156a191600182018155615248565b819291549060031b91821b915f19901b1916179055565b6156c181615869565b80549092906001600160a01b03163303613680576001600160a01b038116928315610dab5760020190815460ff8160681c16156157c35761ffff808260081c169160181c1610156157b457825f52600d60205260405f20845f5260205260ff60405f2054166157ae57825f52600d60205260405f20845f5260205260405f20600160ff19825416179055600161ffff835460181c16019061ffff82116104f45761576f8492615774946154f2565b615caa565b15615794575b5f516020615f395f395f51905f52602060405160018152a3565b815f52600c6020526157a98160405f20615684565b61577a565b50505050565b631e77c7cb60e31b5f5260045ffd5b635c31b65d60e11b5f5260045ffd5b6003548110156151655760035f52601260205f20910201905f90565b8054610100600160481b03191660089290921b610100600160481b0316919091179055565b908060209392818452848401375f828201840152601f01601f1916010190565b805460ff60a01b191660a09290921b60ff60a01b16919091179055565b8054821015615165575f5260205f209060021b01905f90565b6004548110156158805761587c9061525d565b5090565b630b7df06f60e21b5f5260045ffd5b5f546001600160a01b031633036158a257565b63118cdaa760e01b5f523360045260245ffd5b6002600154146158c6576002600155565b633ee5aeb560e01b5f5260045ffd5b60ff6040820151166007810361592c5750615929906158f2615da0565b50805190606060ff602083015116910151906040519261591184615042565b83526020830152600760408301526060820152615dc4565b90565b6367cf307160e01b5f52600452600760245260445ffd5b60ff60408201511660048103615997575061592990615960615da0565b50805190606060ff602083015116910151906040519261597f84615042565b83526020830152600460408301526060820152615dc4565b6367cf307160e01b5f52600452600460245260445ffd5b9081526001600160a01b03909116602082015260400190565b73ea30c4b8b44078bbf8a6ef5b9f1ec1626c7848d93b15610578575f615a039160405180938192631974142760e21b83523090600484016159ae565b03818373ea30c4b8b44078bbf8a6ef5b9f1ec1626c7848d95af18015615a3457615a2a5750565b5f6155ff9161505d565b6040513d5f823e3d90fd5b73ea30c4b8b44078bbf8a6ef5b9f1ec1626c7848d93b15610578575f615a039160405180938192631974142760e21b83523390600484016159ae565b6001600160a01b03165f818152600960205260409020549091908110156116bd5761587c915f52600960205260405f20615179565b73ea30c4b8b44078bbf8a6ef5b9f1ec1626c7848d93b1561057857604051631974142760e21b8152915f9183918291615a039190600484016159ae565b60ff1660018110908115615b12575b50615b0357565b6321a9b14360e01b5f5260045ffd5b60039150115f615afc565b6001600160401b0391821690821601919082116104f457565b9160ff9094939194169182158015615c4f575b615c40576001600160a01b03165f8181526005602052604090208054909591939190600881901c6001600160401b031690428210159081615c23575b81615c13575b5015615bfd5762278d0090925b026001600160401b038116939084036104f457615bdc615bc85f516020615ef95f395f51905f5295606095615b1d565b809860ff851660ff198254161781556157ee565b6040805160ff9390931683526001600160401b0388166020840152820152a2565b50426001600160401b03169162278d0090615b98565b60ff91501660ff8316145f615b8b565b60ff811660ff85161015615b855763135f84b360e31b5f5260045ffd5b634d84c2e960e01b5f5260045ffd5b50600c8311615b49565b600354811015615c6c5761587c906157d2565b6364204ecd60e11b5f5260045ffd5b60ff6003911611615b0357565b600254811015615c9b5761587c90615149565b63b0171a5d60e01b5f5260045ffd5b6001600160a01b03165f908152600c60205260408120805492915b838110615cd457505050505f90565b82615cdf8284615248565b90549060031b1c14615cf357600101615cc5565b50505050600190565b92615d4386615d4394615d438280999896615d43826155ff9d99615d1f816159c7565b615d28846159c7565b615d31876159c7565b615d3a8a6159c7565b615d438d6159c7565b615ab0565b905f602091828151910182855af115615a34575f513d615d9757506001600160a01b0381163b155b615d775750565b635274afe760e01b5f9081526001600160a01b0391909116600452602490fd5b60011415615d70565b60405190615dad82615042565b606080835f81525f60208201525f60408201520152565b60206060615e189260405193849283926313fce3b160e11b8452604060048501528051604485015260ff8682015116606485015260ff60408201511660848501520151608060a484015260c4830190614fba565b33602483015203815f73ea30c4b8b44078bbf8a6ef5b9f1ec1626c7848d95af1908115615a34575f91615e49575090565b90506020813d602011615e70575b81615e646020938361505d565b81010312610578575190565b3d9150615e5756fe61f236a9a7e86141725b772bf859ee9ee9b6fcf6190b465f5586c024f2b19a072dd069729b7d218637d3a4c5f517467801f064fe4ce6bf0d701da1e90f43dcac4ddf285367f41310d6399a96656cac77e1bb39b4365c462a69aaa9d85e8fdfc4ab38677c1ddd822d1a5b6b9709e52b9d491a79afe7f6102fa682a71771ab53fc28453a0d57caa7a287ec5c9c93c27e54565bef03557fd317126ab3c3827d3fdd8be0079c531659141344cd1fd0a4f28419497f9722a3daafe3b4186f6b6457e0ea718b090d6b915859bcceaa2ec4aafbbf4eb5f774ffc4d39254270cc18849a185cc94caa6d1718877eebf3e6cdbbc4898c3f9fbdd21efcc223038f9fcbf3e3fa26469706673582212206117eb9561d7ea0498cc781fdfe77f28a810ba1908fd9dc4f2b5991f6280255764736f6c634300081c0033405787fa12a823e0f2b7631cc41b3ba8828b3321ca811111fa75cd3aa3bb5ace75f96ab15d697e93042dc45b5c896c4b27e89bb6eaf39475c5c371cb2513f7d2d3a447f102a8baaaac74a18b985cf742ca5c49551ff129d57009d2b9135dffd6",
  "linkReferences": {},
  "deployedLinkReferences": {}
}