{
  "_format": "hh-sol-artifact-1",
  "contractName": "SilentWhale",
  "sourceName": "contracts/SilentWhale.sol",
  "abi": [
    {
      "inputs": [
        {
          "internalType": "address",
          "name": "initialOwner",
          "type": "address"
        }
      ],
      "stateMutability": "nonpayable",
      "type": "constructor"
    },
    {
      "inputs": [
        {
          "internalType": "uint8",
          "name": "got",
          "type": "uint8"
        },
        {
          "internalType": "uint8",
          "name": "expected",
          "type": "uint8"
        }
      ],
      "name": "InvalidEncryptedInput",
      "type": "error"
    },
    {
      "inputs": [
        {
          "internalType": "address",
          "name": "owner",
          "type": "address"
        }
      ],
      "name": "OwnableInvalidOwner",
      "type": "error"
    },
    {
      "inputs": [
        {
          "internalType": "address",
          "name": "account",
          "type": "address"
        }
      ],
      "name": "OwnableUnauthorizedAccount",
      "type": "error"
    },
    {
      "anonymous": false,
      "inputs": [
        {
          "indexed": true,
          "internalType": "address",
          "name": "analyst",
          "type": "address"
        }
      ],
      "name": "AnalystScoreUpdated",
      "type": "event"
    },
    {
      "anonymous": false,
      "inputs": [
        {
          "indexed": true,
          "internalType": "address",
          "name": "analyst",
          "type": "address"
        },
        {
          "indexed": false,
          "internalType": "bool",
          "name": "approved",
          "type": "bool"
        }
      ],
      "name": "AnalystStatusUpdated",
      "type": "event"
    },
    {
      "anonymous": false,
      "inputs": [
        {
          "indexed": true,
          "internalType": "uint256",
          "name": "feedId",
          "type": "uint256"
        },
        {
          "indexed": false,
          "internalType": "string",
          "name": "name",
          "type": "string"
        },
        {
          "indexed": false,
          "internalType": "uint8",
          "name": "minTier",
          "type": "uint8"
        },
        {
          "indexed": false,
          "internalType": "uint256",
          "name": "monthlyPriceWei",
          "type": "uint256"
        }
      ],
      "name": "FeedCreated",
      "type": "event"
    },
    {
      "anonymous": false,
      "inputs": [
        {
          "indexed": true,
          "internalType": "uint256",
          "name": "feedId",
          "type": "uint256"
        },
        {
          "indexed": false,
          "internalType": "bool",
          "name": "active",
          "type": "bool"
        },
        {
          "indexed": false,
          "internalType": "uint8",
          "name": "minTier",
          "type": "uint8"
        }
      ],
      "name": "FeedUpdated",
      "type": "event"
    },
    {
      "anonymous": false,
      "inputs": [
        {
          "indexed": true,
          "internalType": "address",
          "name": "previousOwner",
          "type": "address"
        },
        {
          "indexed": true,
          "internalType": "address",
          "name": "newOwner",
          "type": "address"
        }
      ],
      "name": "OwnershipTransferred",
      "type": "event"
    },
    {
      "anonymous": false,
      "inputs": [
        {
          "indexed": true,
          "internalType": "uint256",
          "name": "signalId",
          "type": "uint256"
        },
        {
          "indexed": true,
          "internalType": "address",
          "name": "account",
          "type": "address"
        }
      ],
      "name": "SignalAccessGranted",
      "type": "event"
    },
    {
      "anonymous": false,
      "inputs": [
        {
          "indexed": true,
          "internalType": "uint256",
          "name": "signalId",
          "type": "uint256"
        },
        {
          "indexed": true,
          "internalType": "address",
          "name": "analyst",
          "type": "address"
        },
        {
          "indexed": true,
          "internalType": "uint256",
          "name": "feedId",
          "type": "uint256"
        },
        {
          "indexed": false,
          "internalType": "uint8",
          "name": "minTier",
          "type": "uint8"
        },
        {
          "indexed": false,
          "internalType": "string",
          "name": "tokenSymbol",
          "type": "string"
        },
        {
          "indexed": false,
          "internalType": "string",
          "name": "sector",
          "type": "string"
        }
      ],
      "name": "SignalPublished",
      "type": "event"
    },
    {
      "anonymous": false,
      "inputs": [
        {
          "indexed": true,
          "internalType": "address",
          "name": "account",
          "type": "address"
        },
        {
          "indexed": false,
          "internalType": "uint8",
          "name": "tier",
          "type": "uint8"
        },
        {
          "indexed": false,
          "internalType": "uint64",
          "name": "expiresAt",
          "type": "uint64"
        },
        {
          "indexed": false,
          "internalType": "uint256",
          "name": "paid",
          "type": "uint256"
        }
      ],
      "name": "Subscribed",
      "type": "event"
    },
    {
      "anonymous": false,
      "inputs": [
        {
          "indexed": true,
          "internalType": "uint8",
          "name": "tier",
          "type": "uint8"
        },
        {
          "indexed": false,
          "internalType": "uint256",
          "name": "monthlyPriceWei",
          "type": "uint256"
        }
      ],
      "name": "TierPriceUpdated",
      "type": "event"
    },
    {
      "anonymous": false,
      "inputs": [
        {
          "indexed": true,
          "internalType": "address",
          "name": "account",
          "type": "address"
        },
        {
          "indexed": true,
          "internalType": "uint256",
          "name": "index",
          "type": "uint256"
        }
      ],
      "name": "WatchlistAccessGranted",
      "type": "event"
    },
    {
      "anonymous": false,
      "inputs": [
        {
          "indexed": true,
          "internalType": "address",
          "name": "account",
          "type": "address"
        },
        {
          "indexed": true,
          "internalType": "uint256",
          "name": "index",
          "type": "uint256"
        }
      ],
      "name": "WatchlistItemAdded",
      "type": "event"
    },
    {
      "inputs": [],
      "name": "MONTH",
      "outputs": [
        {
          "internalType": "uint64",
          "name": "",
          "type": "uint64"
        }
      ],
      "stateMutability": "view",
      "type": "function"
    },
    {
      "inputs": [],
      "name": "TIER_DAO",
      "outputs": [
        {
          "internalType": "uint8",
          "name": "",
          "type": "uint8"
        }
      ],
      "stateMutability": "view",
      "type": "function"
    },
    {
      "inputs": [],
      "name": "TIER_ELITE",
      "outputs": [
        {
          "internalType": "uint8",
          "name": "",
          "type": "uint8"
        }
      ],
      "stateMutability": "view",
      "type": "function"
    },
    {
      "inputs": [],
      "name": "TIER_FREE",
      "outputs": [
        {
          "internalType": "uint8",
          "name": "",
          "type": "uint8"
        }
      ],
      "stateMutability": "view",
      "type": "function"
    },
    {
      "inputs": [],
      "name": "TIER_PRO",
      "outputs": [
        {
          "internalType": "uint8",
          "name": "",
          "type": "uint8"
        }
      ],
      "stateMutability": "view",
      "type": "function"
    },
    {
      "inputs": [
        {
          "internalType": "bytes32",
          "name": "labelHash",
          "type": "bytes32"
        },
        {
          "internalType": "string",
          "name": "publicNote",
          "type": "string"
        },
        {
          "components": [
            {
              "internalType": "uint256",
              "name": "ctHash",
              "type": "uint256"
            },
            {
              "internalType": "uint8",
              "name": "securityZone",
              "type": "uint8"
            },
            {
              "internalType": "uint8",
              "name": "utype",
              "type": "uint8"
            },
            {
              "internalType": "bytes",
              "name": "signature",
              "type": "bytes"
            }
          ],
          "internalType": "struct InEaddress",
          "name": "encryptedWallet",
          "type": "tuple"
        },
        {
          "components": [
            {
              "internalType": "uint256",
              "name": "ctHash",
              "type": "uint256"
            },
            {
              "internalType": "uint8",
              "name": "securityZone",
              "type": "uint8"
            },
            {
              "internalType": "uint8",
              "name": "utype",
              "type": "uint8"
            },
            {
              "internalType": "bytes",
              "name": "signature",
              "type": "bytes"
            }
          ],
          "internalType": "struct InEuint32",
          "name": "encryptedMinConfidenceBps",
          "type": "tuple"
        }
      ],
      "name": "addWatchlistItem",
      "outputs": [
        {
          "internalType": "uint256",
          "name": "index",
          "type": "uint256"
        }
      ],
      "stateMutability": "nonpayable",
      "type": "function"
    },
    {
      "inputs": [
        {
          "internalType": "address",
          "name": "analyst",
          "type": "address"
        },
        {
          "internalType": "uint256",
          "name": "index",
          "type": "uint256"
        }
      ],
      "name": "analystSignalAt",
      "outputs": [
        {
          "internalType": "uint256",
          "name": "",
          "type": "uint256"
        }
      ],
      "stateMutability": "view",
      "type": "function"
    },
    {
      "inputs": [
        {
          "internalType": "address",
          "name": "analyst",
          "type": "address"
        }
      ],
      "name": "analystSignalCount",
      "outputs": [
        {
          "internalType": "uint256",
          "name": "",
          "type": "uint256"
        }
      ],
      "stateMutability": "view",
      "type": "function"
    },
    {
      "inputs": [
        {
          "internalType": "address",
          "name": "",
          "type": "address"
        }
      ],
      "name": "approvedAnalysts",
      "outputs": [
        {
          "internalType": "bool",
          "name": "",
          "type": "bool"
        }
      ],
      "stateMutability": "view",
      "type": "function"
    },
    {
      "inputs": [
        {
          "internalType": "address",
          "name": "account",
          "type": "address"
        },
        {
          "internalType": "uint256",
          "name": "signalId",
          "type": "uint256"
        }
      ],
      "name": "canAccessSignal",
      "outputs": [
        {
          "internalType": "bool",
          "name": "",
          "type": "bool"
        }
      ],
      "stateMutability": "view",
      "type": "function"
    },
    {
      "inputs": [
        {
          "internalType": "string",
          "name": "name",
          "type": "string"
        },
        {
          "internalType": "string",
          "name": "description",
          "type": "string"
        },
        {
          "internalType": "uint8",
          "name": "minTier",
          "type": "uint8"
        },
        {
          "internalType": "uint256",
          "name": "monthlyPriceWei",
          "type": "uint256"
        },
        {
          "internalType": "address",
          "name": "curator",
          "type": "address"
        }
      ],
      "name": "createFeed",
      "outputs": [
        {
          "internalType": "uint256",
          "name": "feedId",
          "type": "uint256"
        }
      ],
      "stateMutability": "nonpayable",
      "type": "function"
    },
    {
      "inputs": [
        {
          "internalType": "address",
          "name": "account",
          "type": "address"
        }
      ],
      "name": "effectiveTier",
      "outputs": [
        {
          "internalType": "uint8",
          "name": "",
          "type": "uint8"
        }
      ],
      "stateMutability": "view",
      "type": "function"
    },
    {
      "inputs": [],
      "name": "feedCount",
      "outputs": [
        {
          "internalType": "uint256",
          "name": "",
          "type": "uint256"
        }
      ],
      "stateMutability": "view",
      "type": "function"
    },
    {
      "inputs": [
        {
          "internalType": "address",
          "name": "analyst",
          "type": "address"
        }
      ],
      "name": "getAnalystScore",
      "outputs": [
        {
          "internalType": "euint32",
          "name": "",
          "type": "bytes32"
        }
      ],
      "stateMutability": "view",
      "type": "function"
    },
    {
      "inputs": [
        {
          "internalType": "uint256",
          "name": "feedId",
          "type": "uint256"
        }
      ],
      "name": "getFeed",
      "outputs": [
        {
          "internalType": "string",
          "name": "name",
          "type": "string"
        },
        {
          "internalType": "string",
          "name": "description",
          "type": "string"
        },
        {
          "internalType": "uint8",
          "name": "minTier",
          "type": "uint8"
        },
        {
          "internalType": "uint256",
          "name": "monthlyPriceWei",
          "type": "uint256"
        },
        {
          "internalType": "bool",
          "name": "active",
          "type": "bool"
        },
        {
          "internalType": "address",
          "name": "curator",
          "type": "address"
        }
      ],
      "stateMutability": "view",
      "type": "function"
    },
    {
      "inputs": [
        {
          "internalType": "uint256",
          "name": "signalId",
          "type": "uint256"
        }
      ],
      "name": "getSignal",
      "outputs": [
        {
          "internalType": "address",
          "name": "analyst",
          "type": "address"
        },
        {
          "internalType": "uint256",
          "name": "feedId",
          "type": "uint256"
        },
        {
          "internalType": "string",
          "name": "headline",
          "type": "string"
        },
        {
          "internalType": "string",
          "name": "publicSummary",
          "type": "string"
        },
        {
          "internalType": "string",
          "name": "tokenSymbol",
          "type": "string"
        },
        {
          "internalType": "string",
          "name": "sector",
          "type": "string"
        },
        {
          "internalType": "uint8",
          "name": "minTier",
          "type": "uint8"
        },
        {
          "internalType": "uint64",
          "name": "createdAt",
          "type": "uint64"
        },
        {
          "internalType": "bool",
          "name": "active",
          "type": "bool"
        },
        {
          "internalType": "eaddress",
          "name": "encryptedWhale",
          "type": "bytes32"
        },
        {
          "internalType": "euint64",
          "name": "encryptedAmountUsd",
          "type": "bytes32"
        },
        {
          "internalType": "euint32",
          "name": "encryptedConfidenceBps",
          "type": "bytes32"
        },
        {
          "internalType": "euint32",
          "name": "encryptedEntryPriceBps",
          "type": "bytes32"
        },
        {
          "internalType": "euint32",
          "name": "encryptedRiskBps",
          "type": "bytes32"
        }
      ],
      "stateMutability": "view",
      "type": "function"
    },
    {
      "inputs": [
        {
          "internalType": "address",
          "name": "account",
          "type": "address"
        },
        {
          "internalType": "uint256",
          "name": "index",
          "type": "uint256"
        }
      ],
      "name": "getWatchlistItem",
      "outputs": [
        {
          "internalType": "bytes32",
          "name": "labelHash",
          "type": "bytes32"
        },
        {
          "internalType": "string",
          "name": "publicNote",
          "type": "string"
        },
        {
          "internalType": "uint64",
          "name": "createdAt",
          "type": "uint64"
        },
        {
          "internalType": "bool",
          "name": "active",
          "type": "bool"
        },
        {
          "internalType": "eaddress",
          "name": "encryptedWallet",
          "type": "bytes32"
        },
        {
          "internalType": "euint32",
          "name": "encryptedMinConfidenceBps",
          "type": "bytes32"
        }
      ],
      "stateMutability": "view",
      "type": "function"
    },
    {
      "inputs": [
        {
          "internalType": "address",
          "name": "analyst",
          "type": "address"
        }
      ],
      "name": "grantAnalystScoreAccess",
      "outputs": [],
      "stateMutability": "nonpayable",
      "type": "function"
    },
    {
      "inputs": [
        {
          "internalType": "uint256",
          "name": "signalId",
          "type": "uint256"
        }
      ],
      "name": "grantSignalAccess",
      "outputs": [],
      "stateMutability": "nonpayable",
      "type": "function"
    },
    {
      "inputs": [
        {
          "internalType": "address",
          "name": "account",
          "type": "address"
        },
        {
          "internalType": "uint8",
          "name": "tier",
          "type": "uint8"
        },
        {
          "internalType": "uint64",
          "name": "expiresAt",
          "type": "uint64"
        }
      ],
      "name": "grantSubscription",
      "outputs": [],
      "stateMutability": "nonpayable",
      "type": "function"
    },
    {
      "inputs": [
        {
          "internalType": "uint256",
          "name": "index",
          "type": "uint256"
        }
      ],
      "name": "grantWatchlistAccess",
      "outputs": [],
      "stateMutability": "nonpayable",
      "type": "function"
    },
    {
      "inputs": [
        {
          "internalType": "address",
          "name": "",
          "type": "address"
        }
      ],
      "name": "hasAnalystScore",
      "outputs": [
        {
          "internalType": "bool",
          "name": "",
          "type": "bool"
        }
      ],
      "stateMutability": "view",
      "type": "function"
    },
    {
      "inputs": [],
      "name": "owner",
      "outputs": [
        {
          "internalType": "address",
          "name": "",
          "type": "address"
        }
      ],
      "stateMutability": "view",
      "type": "function"
    },
    {
      "inputs": [
        {
          "internalType": "uint256",
          "name": "feedId",
          "type": "uint256"
        },
        {
          "internalType": "string",
          "name": "headline",
          "type": "string"
        },
        {
          "internalType": "string",
          "name": "publicSummary",
          "type": "string"
        },
        {
          "internalType": "string",
          "name": "tokenSymbol",
          "type": "string"
        },
        {
          "internalType": "string",
          "name": "sector",
          "type": "string"
        },
        {
          "internalType": "uint8",
          "name": "minTier",
          "type": "uint8"
        },
        {
          "components": [
            {
              "internalType": "uint256",
              "name": "ctHash",
              "type": "uint256"
            },
            {
              "internalType": "uint8",
              "name": "securityZone",
              "type": "uint8"
            },
            {
              "internalType": "uint8",
              "name": "utype",
              "type": "uint8"
            },
            {
              "internalType": "bytes",
              "name": "signature",
              "type": "bytes"
            }
          ],
          "internalType": "struct InEaddress",
          "name": "encryptedWhale",
          "type": "tuple"
        },
        {
          "components": [
            {
              "internalType": "uint256",
              "name": "ctHash",
              "type": "uint256"
            },
            {
              "internalType": "uint8",
              "name": "securityZone",
              "type": "uint8"
            },
            {
              "internalType": "uint8",
              "name": "utype",
              "type": "uint8"
            },
            {
              "internalType": "bytes",
              "name": "signature",
              "type": "bytes"
            }
          ],
          "internalType": "struct InEuint64",
          "name": "encryptedAmountUsd",
          "type": "tuple"
        },
        {
          "components": [
            {
              "internalType": "uint256",
              "name": "ctHash",
              "type": "uint256"
            },
            {
              "internalType": "uint8",
              "name": "securityZone",
              "type": "uint8"
            },
            {
              "internalType": "uint8",
              "name": "utype",
              "type": "uint8"
            },
            {
              "internalType": "bytes",
              "name": "signature",
              "type": "bytes"
            }
          ],
          "internalType": "struct InEuint32",
          "name": "encryptedConfidenceBps",
          "type": "tuple"
        },
        {
          "components": [
            {
              "internalType": "uint256",
              "name": "ctHash",
              "type": "uint256"
            },
            {
              "internalType": "uint8",
              "name": "securityZone",
              "type": "uint8"
            },
            {
              "internalType": "uint8",
              "name": "utype",
              "type": "uint8"
            },
            {
              "internalType": "bytes",
              "name": "signature",
              "type": "bytes"
            }
          ],
          "internalType": "struct InEuint32",
          "name": "encryptedEntryPriceBps",
          "type": "tuple"
        },
        {
          "components": [
            {
              "internalType": "uint256",
              "name": "ctHash",
              "type": "uint256"
            },
            {
              "internalType": "uint8",
              "name": "securityZone",
              "type": "uint8"
            },
            {
              "internalType": "uint8",
              "name": "utype",
              "type": "uint8"
            },
            {
              "internalType": "bytes",
              "name": "signature",
              "type": "bytes"
            }
          ],
          "internalType": "struct InEuint32",
          "name": "encryptedRiskBps",
          "type": "tuple"
        }
      ],
      "name": "publishSignal",
      "outputs": [
        {
          "internalType": "uint256",
          "name": "signalId",
          "type": "uint256"
        }
      ],
      "stateMutability": "nonpayable",
      "type": "function"
    },
    {
      "inputs": [],
      "name": "renounceOwnership",
      "outputs": [],
      "stateMutability": "nonpayable",
      "type": "function"
    },
    {
      "inputs": [
        {
          "internalType": "address",
          "name": "analyst",
          "type": "address"
        },
        {
          "components": [
            {
              "internalType": "uint256",
              "name": "ctHash",
              "type": "uint256"
            },
            {
              "internalType": "uint8",
              "name": "securityZone",
              "type": "uint8"
            },
            {
              "internalType": "uint8",
              "name": "utype",
              "type": "uint8"
            },
            {
              "internalType": "bytes",
              "name": "signature",
              "type": "bytes"
            }
          ],
          "internalType": "struct InEuint32",
          "name": "encryptedScoreBps",
          "type": "tuple"
        }
      ],
      "name": "setAnalystScore",
      "outputs": [],
      "stateMutability": "nonpayable",
      "type": "function"
    },
    {
      "inputs": [
        {
          "internalType": "address",
          "name": "analyst",
          "type": "address"
        },
        {
          "internalType": "bool",
          "name": "approved",
          "type": "bool"
        }
      ],
      "name": "setAnalystStatus",
      "outputs": [],
      "stateMutability": "nonpayable",
      "type": "function"
    },
    {
      "inputs": [
        {
          "internalType": "uint256",
          "name": "signalId",
          "type": "uint256"
        },
        {
          "internalType": "bool",
          "name": "active",
          "type": "bool"
        }
      ],
      "name": "setSignalActive",
      "outputs": [],
      "stateMutability": "nonpayable",
      "type": "function"
    },
    {
      "inputs": [
        {
          "internalType": "uint8",
          "name": "tier",
          "type": "uint8"
        },
        {
          "internalType": "uint256",
          "name": "monthlyPriceWei",
          "type": "uint256"
        }
      ],
      "name": "setTierPrice",
      "outputs": [],
      "stateMutability": "nonpayable",
      "type": "function"
    },
    {
      "inputs": [
        {
          "internalType": "uint256",
          "name": "index",
          "type": "uint256"
        },
        {
          "internalType": "bool",
          "name": "active",
          "type": "bool"
        }
      ],
      "name": "setWatchlistItemActive",
      "outputs": [],
      "stateMutability": "nonpayable",
      "type": "function"
    },
    {
      "inputs": [],
      "name": "signalCount",
      "outputs": [
        {
          "internalType": "uint256",
          "name": "",
          "type": "uint256"
        }
      ],
      "stateMutability": "view",
      "type": "function"
    },
    {
      "inputs": [
        {
          "internalType": "uint8",
          "name": "tier",
          "type": "uint8"
        },
        {
          "internalType": "uint8",
          "name": "monthCount",
          "type": "uint8"
        }
      ],
      "name": "subscribe",
      "outputs": [],
      "stateMutability": "payable",
      "type": "function"
    },
    {
      "inputs": [
        {
          "internalType": "address",
          "name": "account",
          "type": "address"
        }
      ],
      "name": "subscriptionOf",
      "outputs": [
        {
          "internalType": "uint8",
          "name": "tier",
          "type": "uint8"
        },
        {
          "internalType": "uint64",
          "name": "expiresAt",
          "type": "uint64"
        },
        {
          "internalType": "bool",
          "name": "active",
          "type": "bool"
        }
      ],
      "stateMutability": "view",
      "type": "function"
    },
    {
      "inputs": [
        {
          "internalType": "uint8",
          "name": "",
          "type": "uint8"
        }
      ],
      "name": "tierPriceWei",
      "outputs": [
        {
          "internalType": "uint256",
          "name": "",
          "type": "uint256"
        }
      ],
      "stateMutability": "view",
      "type": "function"
    },
    {
      "inputs": [
        {
          "internalType": "address",
          "name": "newOwner",
          "type": "address"
        }
      ],
      "name": "transferOwnership",
      "outputs": [],
      "stateMutability": "nonpayable",
      "type": "function"
    },
    {
      "inputs": [
        {
          "internalType": "uint256",
          "name": "feedId",
          "type": "uint256"
        },
        {
          "internalType": "string",
          "name": "name",
          "type": "string"
        },
        {
          "internalType": "string",
          "name": "description",
          "type": "string"
        },
        {
          "internalType": "uint8",
          "name": "minTier",
          "type": "uint8"
        },
        {
          "internalType": "uint256",
          "name": "monthlyPriceWei",
          "type": "uint256"
        },
        {
          "internalType": "bool",
          "name": "active",
          "type": "bool"
        },
        {
          "internalType": "address",
          "name": "curator",
          "type": "address"
        }
      ],
      "name": "updateFeed",
      "outputs": [],
      "stateMutability": "nonpayable",
      "type": "function"
    },
    {
      "inputs": [
        {
          "internalType": "address",
          "name": "account",
          "type": "address"
        }
      ],
      "name": "watchlistCount",
      "outputs": [
        {
          "internalType": "uint256",
          "name": "",
          "type": "uint256"
        }
      ],
      "stateMutability": "view",
      "type": "function"
    },
    {
      "inputs": [
        {
          "internalType": "address payable",
          "name": "recipient",
          "type": "address"
        }
      ],
      "name": "withdraw",
      "outputs": [],
      "stateMutability": "nonpayable",
      "type": "function"
    },
    {
      "stateMutability": "payable",
      "type": "receive"
    }
  ],
  "bytecode": "0x60806040523461032157613dbf6020813803918261001c81610358565b93849283398101031261032157516001600160a01b0381169081810361032157811561030e575f80546001600160a01b03198116841782556102fe939182916001600160a01b0316907f8be0079c531659141344cd1fd0a4f28419497f9722a3daafe3b4186f6b6457e09080a35f908152600960209081526040808320805460ff19166001908117909155600490925266038d7ea4c680007fabd6e7cb50984ff9c2f3e18a2660c3353dadf4e3291deeb275dae2cd1e44fe05819055660aa87bee5380007f91da3fd0782e51c6b3986e9e672fd566868e71f3dbc2d6c2cd6fbb3e361af2a755662386f26fc100005f516020613d5f5f395f51905f5255919092526101b79183919061012d90610358565b600e81526d2bb430b632902937ba30ba34b7b760911b60208201526101526080610358565b90604682527f456e6372797074656420686967682d636f6e76696374696f6e207768616c652060208301527f616363756d756c6174696f6e20616e6420646973747269627574696f6e20736960408301526533b730b6399760d11b606083015261037d565b5060025f52600460205261025e8160405f20546101d46040610358565b601381527f536d617274204d6f6e65792057616c6c6574730000000000000000000000000060208201526102086060610358565b90604082527f507269766174652077616c6c65742d6c6576656c20696e74656c6c6967656e6360208301527f6520666f722072657065617461626c65206f6e2d636861696e2065646765732e604083015261078d565b5060035f5260046020525f516020613d5f5f395f51905f52546102816040610358565b601081526f44414f20496e74656c6c6967656e636560801b60208201526102a86060610358565b90603e82527f496e737469747574696f6e616c207369676e616c20666c6f772077697468207460208301527f65616d2d677261646520646973636c6f7375726520636f6e74726f6c732e00006040830152610af6565b50604051612eff9081610e608239f35b631e4fbdf760e01b5f525f60045260245ffd5b5f80fd5b6040519060c082016001600160401b0381118382101761034457604052565b634e487b7160e01b5f52604160045260245ffd5b6040519190601f01601f191682016001600160401b0381118382101761034457604052565b93926001600160a01b0316801561074857610396610325565b858152602081019283526040810160018152606082019085825260808301946001865260a08401948552600154680100000000000000008110156103445760018101806001558110156107345760015f52935180516005959095025f516020613d9f5f395f51905f520194906001600160401b03821161034457855490600182811c9216801561072a575b602083101461064e5781601f8493116106da575b50602090601f8311600114610677575f9261066c575b50508160011b915f199060031b1c19161784555b51805160018501916001600160401b038211610344578254600181811c91168015610662575b602082101461064e57601f8111610609575b50602090601f831160011461059d57918060049694926104fd9896945f92610592575b50508160011b915f199060031b1c19161790555b60ff6002840191511660ff198254161790555160038201550192511515839060ff801983541691151516179055565b518154610100600160a81b03191660089190911b610100600160a81b03161790556001545f1981019190821161057e575f516020613d7f5f395f51905f5290608083956020604051938492606084528051928391826060870152018585015e5f838301850152600160208401526040830152601f01601f19168101030190a2565b634e487b7160e01b5f52601160045260245ffd5b015190505f806104ba565b90601f19831691845f52815f20925f5b8181106105f157509260019285926104fd9a989660049a9896106105d9575b505050811b0190556104ce565b01515f1960f88460031b161c191690555f80806105cc565b929360206001819287860151815501950193016105ad565b835f5260205f20601f840160051c81019160208510610644575b601f0160051c01905b8181106106395750610497565b5f815560010161062c565b9091508190610623565b634e487b7160e01b5f52602260045260245ffd5b90607f1690610485565b015190505f8061044b565b5f8881528281209350601f198516905b8181106106c257509084600195949392106106aa575b505050811b01845561045f565b01515f1960f88460031b161c191690555f808061069d565b92936020600181928786015181550195019301610687565b909150865f5260205f20601f840160051c81019160208510610720575b90601f859493920160051c01905b8181106107125750610435565b5f8155849350600101610705565b90915081906106f7565b91607f1691610421565b634e487b7160e01b5f52603260045260245ffd5b60405162461bcd60e51b815260206004820152601960248201527f53696c656e745768616c653a207a65726f2063757261746f72000000000000006044820152606490fd5b93926001600160a01b03168015610748576107a6610325565b858152602081019283526040810160028152606082019085825260808301946001865260a08401948552600154680100000000000000008110156103445760018101806001558110156107345760015f52935180516005959095025f516020613d9f5f395f51905f520194906001600160401b03821161034457855490600182811c92168015610aec575b602083101461064e5781601f849311610a9c575b50602090601f8311600114610a39575f92610a2e575b50508160011b915f199060031b1c19161784555b51805160018501916001600160401b038211610344578254600181811c91168015610a24575b602082101461064e57601f81116109df575b50602090601f831160011461098c579180600496949261090b9896945f926105925750508160011b915f199060031b1c191617905560ff6002840191511660ff198254161790555160038201550192511515839060ff801983541691151516179055565b518154610100600160a81b03191660089190911b610100600160a81b03161790556001545f1981019190821161057e575f516020613d7f5f395f51905f5290608083956020604051938492606084528051928391826060870152018585015e5f838301850152600260208401526040830152601f01601f19168101030190a2565b90601f19831691845f52815f20925f5b8181106109c7575092600192859261090b9a989660049a9896106105d957505050811b0190556104ce565b9293602060018192878601518155019501930161099c565b835f5260205f20601f840160051c81019160208510610a1a575b601f0160051c01905b818110610a0f57506108a7565b5f8155600101610a02565b90915081906109f9565b90607f1690610895565b015190505f8061085b565b5f8881528281209350601f198516905b818110610a845750908460019594939210610a6c575b505050811b01845561086f565b01515f1960f88460031b161c191690555f8080610a5f565b92936020600181928786015181550195019301610a49565b909150865f5260205f20601f840160051c81019160208510610ae2575b90601f859493920160051c01905b818110610ad45750610845565b5f8155849350600101610ac7565b9091508190610ab9565b91607f1691610831565b93926001600160a01b0316801561074857610b0f610325565b858152602081019283526040810160038152606082019085825260808301946001865260a08401948552600154680100000000000000008110156103445760018101806001558110156107345760015f52935180516005959095025f516020613d9f5f395f51905f520194906001600160401b03821161034457855490600182811c92168015610e55575b602083101461064e5781601f849311610e05575b50602090601f8311600114610da2575f92610d97575b50508160011b915f199060031b1c19161784555b51805160018501916001600160401b038211610344578254600181811c91168015610d8d575b602082101461064e57601f8111610d48575b50602090601f8311600114610cf55791806004969492610c749896945f926105925750508160011b915f199060031b1c191617905560ff6002840191511660ff198254161790555160038201550192511515839060ff801983541691151516179055565b518154610100600160a81b03191660089190911b610100600160a81b03161790556001545f1981019190821161057e575f516020613d7f5f395f51905f5290608083956020604051938492606084528051928391826060870152018585015e5f838301850152600360208401526040830152601f01601f19168101030190a2565b90601f19831691845f52815f20925f5b818110610d305750926001928592610c749a989660049a9896106105d957505050811b0190556104ce565b92936020600181928786015181550195019301610d05565b835f5260205f20601f840160051c81019160208510610d83575b601f0160051c01905b818110610d785750610c10565b5f8155600101610d6b565b9091508190610d62565b90607f1690610bfe565b015190505f80610bc4565b5f8881528281209350601f198516905b818110610ded5750908460019594939210610dd5575b505050811b018455610bd8565b01515f1960f88460031b161c191690555f8080610dc8565b92936020600181928786015181550195019301610db2565b909150865f5260205f20601f840160051c81019160208510610e4b575b90601f859493920160051c01905b818110610e3d5750610bae565b5f8155849350600101610e30565b9091508190610e22565b91607f1691610b9a56fe608080604052600436101561001c575b50361561001a575f80fd5b005b5f3560e01c908163015dd97b1461249957508063017888161461247f57806303510c95146124645780630f85d72214611b535780631cf455fa146118b55780631d7737f5146118835780631dde91a0146118555780632ff942ef1461179e5780633a924b361461174e5780633c5030bb146116e25780634628986d146116c557806349687442146116945780634a5c6f8c146116295780634da107b51461155b57806351028f9b146114a357806351cff8d9146113cc5780635fd486e8146110d15780636c720848146110b6578063715018a61461105f5780637771a9ca146110445780637db455ca14610fad578063828e58e214610e865780638da5cb5b14610e5f578063a097275714610dd4578063a8037e8114610d8d578063ae0041aa14610d70578063b1b8d5b614610cd3578063b4b36e7214610c9b578063bb7e9eab14610c39578063c3edc964146108b3578063cdc86ac314610752578063d04a31a214610715578063d5999a5c146106f8578063e7fde738146106c0578063ecb76d9014610627578063f2fde38b146105a2578063f62cce43146104cd5763fbf246dd146101ca575f61000f565b60403660031901126104c9576101de612515565b60ff6101e8612525565b6101f183612dcc565b1690811515806104be575b156104795760ff1690815f52600460205260405f20549080820291808304821490151715610379578115610434578134106103f657335f52600360205260405f209081546001600160401b038160081c16904282101590816103a2575b501561038d5762278d0090915b02906001600160401b038216918203610379576001600160401b031601906001600160401b03821161037957805468ffffffffffffffff0019851668ffffffffffffffffff1990911617600883901b68ffffffffffffffff001617905581340334811161037957823403610318575b506001600160401b039060405193845216602083015260408201527f28453a0d57caa7a287ec5c9c93c27e54565bef03557fd317126ab3c3827d3fdd60603392a2005b5f80808093335af16103286128a5565b5015610334575f6102d5565b60405162461bcd60e51b815260206004820152601a60248201527f53696c656e745768616c653a20726566756e64206661696c65640000000000006044820152606490fd5b634e487b7160e01b5f52601160045260245ffd5b5062278d006001600160401b03421691610266565b60ff1686106103b1575f610259565b60405162461bcd60e51b815260206004820152601d60248201527f53696c656e745768616c653a2061637469766520646f776e67726164650000006044820152606490fd5b60405162461bcd60e51b815260206004820152601660248201527514da5b195b9d15da185b194e881d5b99195c9c185a5960521b6044820152606490fd5b60405162461bcd60e51b815260206004820152601d60248201527f53696c656e745768616c653a207469657220756e617661696c61626c650000006044820152606490fd5b60405162461bcd60e51b815260206004820152601960248201527f53696c656e745768616c653a20626164206475726174696f6e000000000000006044820152606490fd5b50600c8211156101fc565b5f80fd5b346104c95760403660031901126104c9576104e66124d2565b6024356001600160401b0381116104c957608060031982360301126104c95761051e61052391610514612da6565b369060040161261e565b612b57565b9061052d82612c0e565b5f54610542906001600160a01b031683612d02565b61054c8183612d02565b6001600160a01b03165f8181526007602090815260408083209490945560089052918220805460ff19166001179055907fb566e26c5c67042eae1f753799a666a4552f47afe998643c225b1acaa4aaeb529080a2005b346104c95760203660031901126104c9576105bb6124d2565b6105c3612da6565b6001600160a01b03168015610614575f80546001600160a01b03198116831782556001600160a01b0316907f8be0079c531659141344cd1fd0a4f28419497f9722a3daafe3b4186f6b6457e09080a3005b631e4fbdf760e01b5f525f60045260245ffd5b346104c95760203660031901126104c957610685610646600435612a95565b60ff6002820154166003820154600483015490610693610671600161066a8761296c565b960161296c565b60405196879660c0885260c0880190612552565b908682036020880152612552565b6040850193909352606084015260ff81161515608084015260081c6001600160a01b031660a08301520390f35b346104c95760203660031901126104c9576001600160a01b036106e16124d2565b165f526006602052602060405f2054604051908152f35b346104c9575f3660031901126104c957602060405162278d008152f35b346104c95760203660031901126104c9576001600160a01b036107366124d2565b165f526009602052602060ff60405f2054166040519015158152f35b346104c95760603660031901126104c95761076b6124d2565b610773612525565b6044356001600160401b0381168091036104c95761078f612da6565b61079882612dcc565b4281111561086e5760405160408101918183106001600160401b0384111761085a5761084660ff7f28453a0d57caa7a287ec5c9c93c27e54565bef03557fd317126ab3c3827d3fdd9560609560405216928381526001600160401b03602082019784895260018060a01b031697885f52600360205260ff8060405f209451161660ff19845416178355511668ffffffffffffffff0082549160081b169068ffffffffffffffff001916179055565b60405191825260208201525f6040820152a2005b634e487b7160e01b5f52604160045260245ffd5b60405162461bcd60e51b815260206004820152601b60248201527f53696c656e745768616c653a2065787069727920696e207061737400000000006044820152606490fd5b346104c95760a03660031901126104c9576004356001600160401b0381116104c9576108e39036906004016124e8565b906024356001600160401b0381116104c9576109039036906004016124e8565b90926044359260ff84168094036104c957606435946084356001600160a01b03811693908490036104c95761094d926109459161093e612da6565b36916125e8565b9336916125e8565b9061095b6003851115612a51565b6109668115156128d4565b60405161097281612591565b8381526020810192835260408101858152606082019087825260808301946001865260a08401948552600154600160401b81101561085a578060016109ba9201600155612782565b949094610c2657518051906001600160401b03821161085a576109e7826109e188546126c6565b886126fe565b602090601f8311600114610bc357610a1692915f9183610bb8575b50508160011b915f199060031b1c19161790565b84555b51805160018501916001600160401b03821161085a57610a4382610a3d85546126c6565b856126fe565b602090601f8311600114610b455793610ad898979693610a8284610ab5989560ff956004995f92610b3a5750508160011b915f199060031b1c19161790565b90555b511660ff60028401911660ff198254161790555160038201550192511515839060ff801983541691151516179055565b518154610100600160a81b03191660089190911b610100600160a81b0316179055565b6001545f1981019290831161037957610b2583927fd3a447f102a8baaaac74a18b985cf742ca5c49551ff129d57009d2b9135dffd692602096604051938493606085526060850190612552565b918884015260408301520390a2604051908152f35b015190505f80610a02565b90601f19831691845f52815f20925f5b818110610ba057508460ff9460049894610ad89d9c9b9894610ab59b9860019510610b88575b505050811b019055610a85565b01515f1960f88460031b161c191690558f8080610b7b565b92936020600181928786015181550195019301610b55565b015190508c80610a02565b90601f19831691875f52815f20925f5b818110610c0e5750908460019594939210610bf6575b505050811b018455610a19565b01515f1960f88460031b161c191690558b8080610be9565b92936020600181928786015181550195019301610bd3565b634e487b7160e01b5f525f60045260245ffd5b346104c95760403660031901126104c9576020610c8c610c576124d2565b6001600160a01b03165f8181526005845260409020546024359190610c7d908310612a0c565b5f526005835260405f2061274d565b90549060031b1c604051908152f35b346104c95760203660031901126104c9576001600160a01b03610cbc6124d2565b165f526005602052602060405f2054604051908152f35b346104c95760203660031901126104c957600435610cf9610cf48233612832565b612920565b610d48610d0582612d4e565b610d13336007830154612d02565b610d21336008830154612d02565b610d2f336009830154612d02565b610d3d33600a830154612d02565b600b33910154612d02565b33907f55c868744ad9e1153741c3b352394023af0ddb5b644ef6ce0a12221d19a2e0105f80a3005b346104c9575f3660031901126104c9576020600254604051908152f35b346104c95760403660031901126104c95761001a610da9612543565b6002610db760043533612cca565b019060ff60401b825491151560401b169060ff60401b1916179055565b346104c95760403660031901126104c957610df9610df06124d2565b60243590612cca565b80546002820154600383015492610e1760016004830154920161296c565b9360ff610e36604051968796875260c0602088015260c0870190612552565b936001600160401b038116604087015260401c1615156060850152608084015260a08301520390f35b346104c9575f3660031901126104c9575f546040516001600160a01b039091168152602090f35b346104c95760203660031901126104c957610ea2600435612d4e565b600160a01b6001900381541660018201549160068101549060078101546008820154600983015490600a84015492600b8501549460028101610ee39061296c565b90610ef06003820161296c565b610efc6004830161296c565b91600501610f099061296c565b926040519b8c9b8c5260208c015260408b016101c090526101c08b01610f2e91612552565b8a810360608c0152610f3f91612552565b89810360808b0152610f5091612552565b88810360a08a0152610f6191612552565b9560ff811660c08901528060081c6001600160401b031660e089015260481c60ff1615156101008801526101208701526101408601526101608501526101808401526101a08301520390f35b346104c95760203660031901126104c9576001600160a01b03610fce6124d2565b16805f526008602052610fe760ff60405f2054166127ee565b5f546001600160a01b03163314801561103b575b8015611020575b61100b90612920565b5f52600760205261001a3360405f2054612d02565b5061100b600160ff611031336127b7565b1610159050611002565b50803314610ffb565b346104c9575f3660031901126104c957602060405160028152f35b346104c9575f3660031901126104c957611077612da6565b5f80546001600160a01b0319811682556001600160a01b03167f8be0079c531659141344cd1fd0a4f28419497f9722a3daafe3b4186f6b6457e08280a3005b346104c9575f3660031901126104c957602060405160038152f35b346104c95760e03660031901126104c9576004356024356001600160401b0381116104c9576111049036906004016124e8565b91906044356001600160401b0381116104c9576111259036906004016124e8565b9190936064359160ff83168093036104c95760a43590811515948583036104c95760c435936001600160a01b038516928386036104c957611164612da6565b6111716003881115612a51565b61118561117d8a612a95565b9415156128d4565b6001600160401b03821161085a576111a7826111a186546126c6565b866126fe565b5f90601f8311600114611368576111d492915f918361135d5750508160011b915f199060031b1c19161790565b82555b60018201906001600160401b03811161085a576111fe816111f884546126c6565b846126fe565b5f601f82116001146112c7576040979695936112af959361125d8461128a956004957f85cc94caa6d1718877eebf3e6cdbbc4898c3f9fbdd21efcc223038f9fcbf3e3f9e9f5f926112bc5750508160011b915f199060031b1c19161790565b90555b600281018760ff1982541617905560843560038201550191829060ff801983541691151516179055565b8054610100600160a81b03191660089290921b610100600160a81b0316919091179055565b82519182526020820152a2005b013590508f80610a02565b601f19821690835f5260205f20915f5b8181106113455750936001846004947f85cc94caa6d1718877eebf3e6cdbbc4898c3f9fbdd21efcc223038f9fcbf3e3f9d9e60409d9c9b999561128a986112af9c9a1061132c575b505050811b019055611260565b01355f19600384901b60f8161c191690558e808061131f565b91926020600181928f870135815501940192016112d7565b013590508b80610a02565b601f19831691855f5260205f20925f5b8181106113b4575090846001959493921061139b575b505050811b0182556111d7565b01355f19600384901b60f8161c191690558a808061138e565b91936020600181928787013581550195019201611378565b346104c95760203660031901126104c9576004356001600160a01b038116908190036104c9576113fa612da6565b801561145e575f8080809347905af16114116128a5565b501561141957005b60405162461bcd60e51b815260206004820152601c60248201527f53696c656e745768616c653a207769746864726177206661696c6564000000006044820152606490fd5b60405162461bcd60e51b815260206004820152601b60248201527f53696c656e745768616c653a207a65726f20726563697069656e7400000000006044820152606490fd5b346104c95760403660031901126104c9576114bc612543565b6114c7600435612d4e565b9060018060a01b035f541633148015611548575b1561150357600661001a92019060ff60481b825491151560481b169060ff60481b1916179055565b60405162461bcd60e51b815260206004820152601d60248201527f53696c656e745768616c653a206e6f74207369676e616c2061646d696e0000006044820152606490fd5b5081546001600160a01b031633146114db565b346104c95760403660031901126104c9576115746124d2565b61157c612543565b90611585612da6565b6001600160a01b03169081156115e45760207f0b4a4b45eecf35c3a586b6f37461fd3b3670e4b920d8040bb84664b92aaf4e5591835f52600982526115d98160405f209060ff801983541691151516179055565b6040519015158152a2005b60405162461bcd60e51b815260206004820152601960248201527f53696c656e745768616c653a207a65726f20616e616c797374000000000000006044820152606490fd5b346104c95760403660031901126104c957611642612515565b7f9b2aeac57e3bc4cc557619887fe04fb4a5d6a7198dc9d52d71c288115f3bf7c7602060ff60243593611673612da6565b61167c81612dcc565b1692835f52600482528060405f2055604051908152a2005b346104c95760403660031901126104c95760206116bb6116b26124d2565b60243590612832565b6040519015158152f35b346104c9575f3660031901126104c9576020600154604051908152f35b346104c95760203660031901126104c9576001600160a01b036117036124d2565b165f526003602052606060405f20546001600160401b038160081c16904282101590815f146117465760ff16915b60ff6040519316835260208301526040820152f35b505f91611731565b346104c95760203660031901126104c9576001600160a01b0361176f6124d2565b16805f52600860205261178860ff60405f2054166127ee565b5f526007602052602060405f2054604051908152f35b346104c95760203660031901126104c9576004356117bc8133612cca565b60ff600282015460401c1615611810576117e9906117de336003830154612d02565b600433910154612d02565b337f7a1fac5ff7e79aec04818648b6eed2fcc26f5aa79340daa477dc1a1a07f6bf3b5f80a3005b60405162461bcd60e51b815260206004820152601a60248201527f53696c656e745768616c653a206974656d20696e6163746976650000000000006044820152606490fd5b346104c95760203660031901126104c95760206118786118736124d2565b6127b7565b60ff60405191168152f35b346104c95760203660031901126104c95760ff61189e612515565b165f526004602052602060405f2054604051908152f35b346104c95760803660031901126104c9576024356001600160401b0381116104c9576118e59036906004016124e8565b6044356001600160401b0381116104c957608060031982360301126104c957606435906001600160401b0382116104c957608060031983360301126104c95761051e61194061193b61194b93369060040161261e565b612ae9565b92369060040161261e565b9061195581612c0e565b61195e82612c0e565b61196781612c88565b61197082612c88565b335f52600660205261199960405f20946040519461198d86612591565b600435865236916125e8565b936020840194855260408401906001600160401b03421682526060850190600182526080860193845260a086019485528054600160401b81101561085a576119e69160018201815561279e565b959095610c26575185556001850195519586516001600160401b03811161085a57611a15816111f884546126c6565b6020601f8211600114611ae85781611a8b95949392611a4c9260049a9b5f92611add5750508160011b915f199060031b1c19161790565b90555b6001600160401b03600288019251166001600160401b031983541617825551151560ff60401b825491151560401b169060ff60401b1916179055565b51600384015551910155335f52600660205260405f20545f1981019081116103795760405160209180337f764bc55e99370de849e60565eb769b7222fff071338a0701f316d8c897cb34645f80a38152f35b015190508b80610a02565b601f19821698835f52815f20995f5b818110611b3b5750996001928492611a8b9897969560049c9d10611b23575b505050811b019055611a4f565b01515f1960f88460031b161c191690558a8080611b16565b838301518c556001909b019a60209384019301611af7565b346104c9576101603660031901126104c9576024356001600160401b0381116104c957611b849036906004016124e8565b6044356001600160401b0381116104c957611ba39036906004016124e8565b91906064356001600160401b0381116104c957611bc49036906004016124e8565b9490936084356001600160401b0381116104c957611be69036906004016124e8565b94909360a4359360ff851685036104c95760c435916001600160401b0383116104c957608060031984360301126104c95760e4356001600160401b0381116104c957608060031982360301126104c95761010435916001600160401b0383116104c957608060031984360301126104c95761012435936001600160401b0385116104c957608060031986360301126104c95761014435956001600160401b0387116104c957608060031988360301126104c957611ca9600360ff8c161115612a51565b611cb4600435612a95565b60048101549060ff82161561241f57600260ff9101541660ff8c16106123da575f546001600160a01b031633149081156123c1575b5080156123ab575b1561235c57611d0a61193b611d1592369060040161261e565b93369060040161261e565b60ff60408201511660058103612345575061051e611d9161051e611d8661051e611d7b611d9c96611d44612df1565b50805190606060ff6020830151169101519060405192611d6384612576565b83526020830152600560408301526060820152612e15565b99369060040161261e565b98369060040161261e565b97369060040161261e565b96611dab338989898989612bc2565b5f546001600160a01b0316338103612331575b5060405198896101c08101106001600160401b036101c08c01111761085a578c8f8f8e611e2e8f98928f98611e3d94611e10611e1f926101c08d01604052338d5260208d019b6004358d5236916125e8565b9860408c01998a5236916125e8565b9460608a0195865236916125e8565b936080880194855236916125e8565b9260a0860193845260ff60c087019716875260e08601946001600160401b03421686526101a06101008801976001895261012081019a8b5261014081019b8c5261016081019c8d5261018081019d8e52019c8d52600254600160401b81101561085a57806001611eb09201600255612696565b9e909e610c2657518e546001600160a01b0319166001600160a01b0391909116178e555160018e015551805160028e01916001600160401b03821161085a57611efd82610a3d85546126c6565b602090601f83116001146122ce57611f2b92915f9183610b3a5750508160011b915f199060031b1c19161790565b90555b51805160038d01916001600160401b03821161085a57611f5282610a3d85546126c6565b602090601f831160011461226b57611f8092915f9183610b3a5750508160011b915f199060031b1c19161790565b90555b51805160048c01916001600160401b03821161085a57611fa782610a3d85546126c6565b602090601f831160011461220857611fd592915f9183610b3a5750508160011b915f199060031b1c19161790565b90555b51805160058b01906001600160401b03811161085a578b92611ffe82610a3d85546126c6565b602090601f83116001146121765760ff60066120a69896600b9f9e9d9c9b9a98949661204d876001600160401b03986120859a87985f92610b3a5750508160011b915f199060031b1c19161790565b90555b019651161660ff198654161785555116839068ffffffffffffffff0082549160081b169068ffffffffffffffff001916179055565b51815469ff000000000000000000191690151560481b60ff60481b16179055565b51600787015551600886015551600985015551600a840155519101556002545f1981019490851161037957335f52600560205260405f2095865492600160401b84101561085a5761216b6121587fbd7938c5d513ac6f27fe8de95437429fe5e903d942334cce47c18bb7d776455d9460ff9461212b8860209d60018e9b01815561274d565b81549060031b908a821b915f19901b191617905560405195869516855260608c8601526060850191612762565b8281036040840152600435973397612762565b0390a4604051908152f35b90601f19831691845f52815f20925f5b8181106121e157506120a69896600b9f9e9d9c9b9a9894966001876120859960ff9788976001600160401b039b600698106121c9575b505050811b019055612050565b01515f1960f88460031b161c191690555f80806121bc565b9383959697506001602092939491839286015181550195019301908f969594939291612186565b90601f19831691845f52815f20925f5b818110612253575090846001959493921061223b575b505050811b019055611fd8565b01515f1960f88460031b161c191690555f808061222e565b92936020600181928786015181550195019301612218565b90601f19831691845f52815f20925f5b8181106122b6575090846001959493921061229e575b505050811b019055611f83565b01515f1960f88460031b161c191690555f8080612291565b9293602060018192878601518155019501930161227b565b90601f19831691845f52815f20925f5b8181106123195750908460019594939210612301575b505050811b019055611f2e565b01515f1960f88460031b161c191690555f80806122f4565b929360206001819287860151815501950193016122de565b61233f908989898989612bc2565b8e611dbe565b6367cf307160e01b5f52600452600560245260445ffd5b60405162461bcd60e51b815260206004820152602160248201527f53696c656e745768616c653a20616e616c797374206e6f7420617070726f76656044820152601960fa1b6064820152608490fd5b50335f52600960205260ff60405f205416611cf1565b3360089190911c6001600160a01b03161490508f611ce9565b60405162461bcd60e51b815260206004820152601c60248201527f53696c656e745768616c653a2062656c6f7720666565642074696572000000006044820152606490fd5b60405162461bcd60e51b815260206004820152601a60248201527f53696c656e745768616c653a206665656420696e6163746976650000000000006044820152606490fd5b346104c9575f3660031901126104c957602060405160018152f35b346104c9575f3660031901126104c95760206040515f8152f35b346104c95760203660031901126104c9576020906001600160a01b036124bd6124d2565b165f526008825260ff60405f20541615158152f35b600435906001600160a01b03821682036104c957565b9181601f840112156104c9578235916001600160401b0383116104c957602083818601950101116104c957565b6004359060ff821682036104c957565b6024359060ff821682036104c957565b359060ff821682036104c957565b6024359081151582036104c957565b805180835260209291819084018484015e5f828201840152601f01601f1916010190565b608081019081106001600160401b0382111761085a57604052565b60c081019081106001600160401b0382111761085a57604052565b90601f801991011681019081106001600160401b0382111761085a57604052565b6001600160401b03811161085a57601f01601f191660200190565b9291926125f4826125cd565b9161260260405193846125ac565b8294818452818301116104c9578281602093845f960137010152565b91906080838203126104c9576040519061263782612576565b81938035835261264960208201612535565b602084015261265a60408201612535565b60408401526060810135906001600160401b0382116104c9570181601f820112156104c957606091816020612691933591016125e8565b910152565b6002548110156126b25760025f52600c60205f20910201905f90565b634e487b7160e01b5f52603260045260245ffd5b90600182811c921680156126f4575b60208310146126e057565b634e487b7160e01b5f52602260045260245ffd5b91607f16916126d5565b601f821161270b57505050565b5f5260205f20906020601f840160051c83019310612743575b601f0160051c01905b818110612738575050565b5f815560010161272d565b9091508190612724565b80548210156126b2575f5260205f2001905f90565b908060209392818452848401375f828201840152601f01601f1916010190565b6001548110156126b25760015f52600560205f20910201905f90565b80548210156126b2575f52600560205f20910201905f90565b6001600160a01b03165f9081526003602052604090205442600882901c6001600160401b031610156127e857505f90565b60ff1690565b156127f557565b60405162461bcd60e51b815260206004820152601560248201527453696c656e745768616c653a206e6f2073636f726560581b6044820152606490fd5b9061283c90612d4e565b9060068201549160ff8360481c161561289e57546001600160a01b0382811691168114908115612888575b506128815760ff61287881926127b7565b92169116101590565b5050600190565b5f80546001600160a01b03169091149150612867565b5050505f90565b3d156128cf573d906128b6826125cd565b916128c460405193846125ac565b82523d5f602084013e565b606090565b156128db57565b60405162461bcd60e51b815260206004820152601960248201527f53696c656e745768616c653a207a65726f2063757261746f72000000000000006044820152606490fd5b1561292757565b60405162461bcd60e51b815260206004820152601960248201527f53696c656e745768616c653a207469657220746f6f206c6f77000000000000006044820152606490fd5b9060405191825f82549261297f846126c6565b80845293600181169081156129ea57506001146129a6575b506129a4925003836125ac565b565b90505f9291925260205f20905f915b8183106129ce5750509060206129a4928201015f612997565b60209193508060019154838589010152019101909184926129b5565b9050602092506129a494915060ff191682840152151560051b8201015f612997565b15612a1357565b60405162461bcd60e51b81526020600482015260166024820152750a6d2d8cadce8aed0c2d8ca7440c4c2c840d2dcc8caf60531b6044820152606490fd5b15612a5857565b60405162461bcd60e51b815260206004820152601560248201527429b4b632b73a2bb430b6329d103130b2103a34b2b960591b6044820152606490fd5b600154811015612aac57612aa890612782565b5090565b60405162461bcd60e51b815260206004820152601560248201527414da5b195b9d15da185b194e881898590819995959605a1b6044820152606490fd5b60ff60408201511660078103612b405750612b3d90612b06612df1565b50805190606060ff6020830151169101519060405192612b2584612576565b83526020830152600760408301526060820152612e15565b90565b6367cf307160e01b5f52600452600760245260445ffd5b60ff60408201511660048103612bab5750612b3d90612b74612df1565b50805190606060ff6020830151169101519060405192612b9384612576565b83526020830152600460408301526060820152612e15565b6367cf307160e01b5f52600452600460245260445ffd5b92612c0986612c0994612c098280999896612c09826129a49d99612be581612c0e565b612bee84612c0e565b612bf787612c0e565b612c008a612c0e565b612c098d612c0e565b612d02565b73ea30c4b8b44078bbf8a6ef5b9f1ec1626c7848d93b156104c957604051631974142760e21b815260048101919091523060248201525f8180604481015b03818373ea30c4b8b44078bbf8a6ef5b9f1ec1626c7848d95af18015612c7d57612c735750565b5f6129a4916125ac565b6040513d5f823e3d90fd5b73ea30c4b8b44078bbf8a6ef5b9f1ec1626c7848d93b156104c957604051631974142760e21b815260048101919091523360248201525f818060448101612c4c565b6001600160a01b03165f81815260066020526040902054612aa8929190612cf2908310612a0c565b5f52600660205260405f2061279e565b73ea30c4b8b44078bbf8a6ef5b9f1ec1626c7848d93b156104c957604051631974142760e21b815260048101919091526001600160a01b0390911660248201525f818060448101612c4c565b600254811015612d6157612aa890612696565b60405162461bcd60e51b815260206004820152601760248201527f53696c656e745768616c653a20626164207369676e616c0000000000000000006044820152606490fd5b5f546001600160a01b03163303612db957565b63118cdaa760e01b5f523360045260245ffd5b60ff6129a4911660018110159081612de5575b50612a51565b6003915011155f612ddf565b60405190612dfe82612576565b606080835f81525f60208201525f60408201520152565b60206060612e699260405193849283926313fce3b160e11b8452604060048501528051604485015260ff8682015116606485015260ff60408201511660848501520151608060a484015260c4830190612552565b33602483015203815f73ea30c4b8b44078bbf8a6ef5b9f1ec1626c7848d95af1908115612c7d575f91612e9a575090565b90506020813d602011612ec1575b81612eb5602093836125ac565b810103126104c9575190565b3d9150612ea856fea2646970667358221220c4cd00e5fee2241bd42c64e5dcb4fb2cc9279edb5018b7ff0a6f8b0b2e2f81bc64736f6c634300081c00332e174c10e159ea99b867ce3205125c24a42d128804e4070ed6fcc8cc98166aa0d3a447f102a8baaaac74a18b985cf742ca5c49551ff129d57009d2b9135dffd6b10e2d527612073b26eecdfd717e6a320cf44b4afac2b0732d9fcbe2b7fa0cf6",
  "linkReferences": {},
  "deployedLinkReferences": {}
}