{
  "_format": "hh-sol-artifact-1",
  "contractName": "MockZkVerifier",
  "sourceName": "@cofhe/mock-contracts/contracts/MockZkVerifier.sol",
  "abi": [
    {
      "inputs": [],
      "name": "InvalidInputs",
      "type": "error"
    },
    {
      "inputs": [],
      "name": "exists",
      "outputs": [
        {
          "internalType": "bool",
          "name": "",
          "type": "bool"
        }
      ],
      "stateMutability": "pure",
      "type": "function"
    },
    {
      "inputs": [
        {
          "internalType": "uint256",
          "name": "ctHash",
          "type": "uint256"
        },
        {
          "internalType": "uint256",
          "name": "value",
          "type": "uint256"
        }
      ],
      "name": "insertCtHash",
      "outputs": [],
      "stateMutability": "nonpayable",
      "type": "function"
    },
    {
      "inputs": [
        {
          "internalType": "uint256[]",
          "name": "ctHashes",
          "type": "uint256[]"
        },
        {
          "internalType": "uint256[]",
          "name": "values",
          "type": "uint256[]"
        }
      ],
      "name": "insertPackedCtHashes",
      "outputs": [],
      "stateMutability": "nonpayable",
      "type": "function"
    },
    {
      "inputs": [
        {
          "internalType": "uint256",
          "name": "value",
          "type": "uint256"
        },
        {
          "internalType": "uint8",
          "name": "utype",
          "type": "uint8"
        },
        {
          "internalType": "address",
          "name": "user",
          "type": "address"
        },
        {
          "internalType": "uint8",
          "name": "securityZone",
          "type": "uint8"
        },
        {
          "internalType": "uint256",
          "name": "",
          "type": "uint256"
        }
      ],
      "name": "zkVerify",
      "outputs": [
        {
          "components": [
            {
              "internalType": "uint256",
              "name": "ctHash",
              "type": "uint256"
            },
            {
              "internalType": "uint8",
              "name": "securityZone",
              "type": "uint8"
            },
            {
              "internalType": "uint8",
              "name": "utype",
              "type": "uint8"
            },
            {
              "internalType": "bytes",
              "name": "signature",
              "type": "bytes"
            }
          ],
          "internalType": "struct EncryptedInput",
          "name": "",
          "type": "tuple"
        }
      ],
      "stateMutability": "nonpayable",
      "type": "function"
    },
    {
      "inputs": [
        {
          "internalType": "uint256",
          "name": "value",
          "type": "uint256"
        },
        {
          "internalType": "uint8",
          "name": "utype",
          "type": "uint8"
        },
        {
          "internalType": "address",
          "name": "user",
          "type": "address"
        },
        {
          "internalType": "uint8",
          "name": "securityZone",
          "type": "uint8"
        },
        {
          "internalType": "uint256",
          "name": "",
          "type": "uint256"
        }
      ],
      "name": "zkVerifyCalcCtHash",
      "outputs": [
        {
          "internalType": "uint256",
          "name": "ctHash",
          "type": "uint256"
        }
      ],
      "stateMutability": "view",
      "type": "function"
    },
    {
      "inputs": [
        {
          "internalType": "uint256[]",
          "name": "values",
          "type": "uint256[]"
        },
        {
          "internalType": "uint8[]",
          "name": "utypes",
          "type": "uint8[]"
        },
        {
          "internalType": "address",
          "name": "user",
          "type": "address"
        },
        {
          "internalType": "uint8",
          "name": "securityZone",
          "type": "uint8"
        },
        {
          "internalType": "uint256",
          "name": "chainId",
          "type": "uint256"
        }
      ],
      "name": "zkVerifyCalcCtHashesPacked",
      "outputs": [
        {
          "internalType": "uint256[]",
          "name": "ctHashes",
          "type": "uint256[]"
        }
      ],
      "stateMutability": "view",
      "type": "function"
    },
    {
      "inputs": [
        {
          "internalType": "uint256[]",
          "name": "values",
          "type": "uint256[]"
        },
        {
          "internalType": "uint8[]",
          "name": "utypes",
          "type": "uint8[]"
        },
        {
          "internalType": "address",
          "name": "user",
          "type": "address"
        },
        {
          "internalType": "uint8",
          "name": "securityZone",
          "type": "uint8"
        },
        {
          "internalType": "uint256",
          "name": "chainId",
          "type": "uint256"
        }
      ],
      "name": "zkVerifyPacked",
      "outputs": [
        {
          "components": [
            {
              "internalType": "uint256",
              "name": "ctHash",
              "type": "uint256"
            },
            {
              "internalType": "uint8",
              "name": "securityZone",
              "type": "uint8"
            },
            {
              "internalType": "uint8",
              "name": "utype",
              "type": "uint8"
            },
            {
              "internalType": "bytes",
              "name": "signature",
              "type": "bytes"
            }
          ],
          "internalType": "struct EncryptedInput[]",
          "name": "inputs",
          "type": "tuple[]"
        }
      ],
      "stateMutability": "nonpayable",
      "type": "function"
    }
  ],
  "bytecode": "0x608080604052346018575f8055610887908161001d8239f35b5f80fdfe60806040526004361015610011575f80fd5b5f3560e01c8063267c4ae4146100845780635946761f1461007f57806366dfcfc61461007a578063772de59614610075578063a2616ba914610070578063a9f046cd1461006b5763d2a0693e14610066575f80fd5b6105d0565b61054b565b610519565b610438565b6103de565b610302565b3461009f575f36600319011261009f57600160805260206080f35b5f80fd5b634e487b7160e01b5f52604160045260245ffd5b6080810190811067ffffffffffffffff8211176100d357604052565b6100a3565b90601f8019910116810190811067ffffffffffffffff8211176100d357604052565b67ffffffffffffffff81116100d35760051b60200190565b9080601f8301121561009f578135610129816100fa565b9261013760405194856100d8565b81845260208085019260051b82010192831161009f57602001905b82821061015f5750505090565b8135815260209182019101610152565b359060ff8216820361009f57565b35906001600160a01b038216820361009f57565b9060a060031983011261009f5760043567ffffffffffffffff811161009f57826101bd91600401610112565b916024359067ffffffffffffffff821161009f578060238301121561009f5781600401356101ea816100fa565b926101f860405194856100d8565b8184526024602085019260051b82010192831161009f57602401905b82821061023b5750505090610229604461017d565b90610234606461016f565b9060843590565b602080916102488461016f565b815201910190610214565b906020606060a0938051845260ff83820151168385015260ff60408201511660408501520151608060608401528051918291826080860152018484015e5f828201840152601f01601f1916010190565b602081016020825282518091526040820191602060408360051b8301019401925f915b8383106102d557505050505090565b90919293946020806102f3600193603f198682030187528951610253565b970193019301919392906102c6565b3461009f5761031036610191565b5090829392518351036103cf57835193610329856100fa565b9461033760405196876100d8565b808652610346601f19916100fa565b015f5b8181106103b85750505f5b81518110156103a6578061038a858561036f6001958a610617565b5161038461037d8689610617565b5160ff1690565b906106e1565b6103948289610617565b5261039f8188610617565b5001610354565b604051806103b488826102a3565b0390f35b6020906103c36105f3565b82828a01015201610349565b6379a67d5b60e11b5f5260045ffd5b3461009f57604036600319011261009f576103fd60243560043561063f565b005b60206040818301928281528451809452019201905f5b8181106104225750505090565b8251845260209384019390920191600101610415565b3461009f5761044636610191565b5082919392518351036103cf5781519361045f856100fa565b9461046d60405196876100d8565b80865261047c601f19916100fa565b013660208701375f5b83518110156104c557806104b461049e60019388610617565b518560ff6104ac858a610617565b511686610776565b6104be8289610617565b5201610485565b604051806103b488826103ff565b60a090600319011261009f576004359060243560ff8116810361009f57906044356001600160a01b038116810361009f579060643560ff8116810361009f579060843590565b3461009f576103b461053761052d366104d3565b50929190916106e1565b604051918291602083526020830190610253565b3461009f57604036600319011261009f5760043567ffffffffffffffff811161009f5761057c903690600401610112565b60243567ffffffffffffffff811161009f5761059c903690600401610112565b905f5b81518110156103fd57806105ca6105b860019385610617565b516105c38387610617565b519061063f565b0161059f565b3461009f5760206105eb6105e3366104d3565b509190610776565b604051908152f35b60405190610600826100b7565b606080835f81525f60208201525f60408201520152565b805182101561062b5760209160051b010190565b634e487b7160e01b5f52603260045260245ffd5b9073ea30c4b8b44078bbf8a6ef5b9f1ec1626c7848d93b1561009f5760405190630ad2437f60e11b82525f92600483015260248201525f816044818373ea30c4b8b44078bbf8a6ef5b9f1ec1626c7848d95af180156106d6576106c3575b50805490600182018092116106af5755565b634e487b7160e01b5f52601160045260245ffd5b6106cf91505f906100d8565b5f5f61069d565b6040513d5f823e3d90fd5b92806107066106ff8660ff96948688966106f96105f3565b50610776565b958661063f565b60405194610713866100b7565b855216602084015216604082015260405161072f6020826100d8565b5f8152606082015290565b805191908290602001825e015f815290565b60206107749161076694936040519586928484019061073a565b9081520380855201836100d8565b565b6107d76107eb6107ab6107dd6107c761080f956107b961079b61082f9b9a999a610832565b604051958691602083019061073a565b03601f1981018652856100d8565b6001600160a01b0316610832565b604051948593602085019061073a565b9061073a565b03601f1981018352826100d8565b5f5460408051602080820193845281529061080690826100d8565b5190209061074c565b60208151910120919060ff617f0091169160081b16179061ffff19161790565b90565b604051906108416040836100d8565b602080835282810190368237529056fea26469706673582212209ad00fe3aa9cb1fc992a4de0511f0a7f17f4ab84d05a7343bf723368e85aa79864736f6c634300081c0033",
  "linkReferences": {},
  "deployedLinkReferences": {}
}