{
  "_format": "hh-sol-artifact-1",
  "contractName": "MockZkVerifier",
  "sourceName": "@cofhe/mock-contracts/contracts/MockZkVerifier.sol",
  "abi": [
    {
      "inputs": [],
      "name": "InvalidInputs",
      "type": "error"
    },
    {
      "inputs": [],
      "name": "exists",
      "outputs": [
        {
          "internalType": "bool",
          "name": "",
          "type": "bool"
        }
      ],
      "stateMutability": "pure",
      "type": "function"
    },
    {
      "inputs": [
        {
          "internalType": "uint256",
          "name": "ctHash",
          "type": "uint256"
        },
        {
          "internalType": "uint256",
          "name": "value",
          "type": "uint256"
        }
      ],
      "name": "insertCtHash",
      "outputs": [],
      "stateMutability": "nonpayable",
      "type": "function"
    },
    {
      "inputs": [
        {
          "internalType": "uint256[]",
          "name": "ctHashes",
          "type": "uint256[]"
        },
        {
          "internalType": "uint256[]",
          "name": "values",
          "type": "uint256[]"
        }
      ],
      "name": "insertPackedCtHashes",
      "outputs": [],
      "stateMutability": "nonpayable",
      "type": "function"
    },
    {
      "inputs": [
        {
          "internalType": "uint256",
          "name": "value",
          "type": "uint256"
        },
        {
          "internalType": "uint8",
          "name": "utype",
          "type": "uint8"
        },
        {
          "internalType": "address",
          "name": "user",
          "type": "address"
        },
        {
          "internalType": "uint8",
          "name": "securityZone",
          "type": "uint8"
        },
        {
          "internalType": "uint256",
          "name": "",
          "type": "uint256"
        }
      ],
      "name": "zkVerify",
      "outputs": [
        {
          "components": [
            {
              "internalType": "uint256",
              "name": "ctHash",
              "type": "uint256"
            },
            {
              "internalType": "uint8",
              "name": "securityZone",
              "type": "uint8"
            },
            {
              "internalType": "uint8",
              "name": "utype",
              "type": "uint8"
            },
            {
              "internalType": "bytes",
              "name": "signature",
              "type": "bytes"
            }
          ],
          "internalType": "struct EncryptedInput",
          "name": "",
          "type": "tuple"
        }
      ],
      "stateMutability": "nonpayable",
      "type": "function"
    },
    {
      "inputs": [
        {
          "internalType": "uint256",
          "name": "value",
          "type": "uint256"
        },
        {
          "internalType": "uint8",
          "name": "utype",
          "type": "uint8"
        },
        {
          "internalType": "address",
          "name": "user",
          "type": "address"
        },
        {
          "internalType": "uint8",
          "name": "securityZone",
          "type": "uint8"
        },
        {
          "internalType": "uint256",
          "name": "",
          "type": "uint256"
        }
      ],
      "name": "zkVerifyCalcCtHash",
      "outputs": [
        {
          "internalType": "uint256",
          "name": "ctHash",
          "type": "uint256"
        }
      ],
      "stateMutability": "view",
      "type": "function"
    },
    {
      "inputs": [
        {
          "internalType": "uint256[]",
          "name": "values",
          "type": "uint256[]"
        },
        {
          "internalType": "uint8[]",
          "name": "utypes",
          "type": "uint8[]"
        },
        {
          "internalType": "address",
          "name": "user",
          "type": "address"
        },
        {
          "internalType": "uint8",
          "name": "securityZone",
          "type": "uint8"
        },
        {
          "internalType": "uint256",
          "name": "chainId",
          "type": "uint256"
        }
      ],
      "name": "zkVerifyCalcCtHashesPacked",
      "outputs": [
        {
          "internalType": "uint256[]",
          "name": "ctHashes",
          "type": "uint256[]"
        }
      ],
      "stateMutability": "view",
      "type": "function"
    },
    {
      "inputs": [
        {
          "internalType": "uint256[]",
          "name": "values",
          "type": "uint256[]"
        },
        {
          "internalType": "uint8[]",
          "name": "utypes",
          "type": "uint8[]"
        },
        {
          "internalType": "address",
          "name": "user",
          "type": "address"
        },
        {
          "internalType": "uint8",
          "name": "securityZone",
          "type": "uint8"
        },
        {
          "internalType": "uint256",
          "name": "chainId",
          "type": "uint256"
        }
      ],
      "name": "zkVerifyPacked",
      "outputs": [
        {
          "components": [
            {
              "internalType": "uint256",
              "name": "ctHash",
              "type": "uint256"
            },
            {
              "internalType": "uint8",
              "name": "securityZone",
              "type": "uint8"
            },
            {
              "internalType": "uint8",
              "name": "utype",
              "type": "uint8"
            },
            {
              "internalType": "bytes",
              "name": "signature",
              "type": "bytes"
            }
          ],
          "internalType": "struct EncryptedInput[]",
          "name": "inputs",
          "type": "tuple[]"
        }
      ],
      "stateMutability": "nonpayable",
      "type": "function"
    }
  ],
  "bytecode": "0x608080604052346018575f8055610882908161001d8239f35b5f80fdfe60806040526004361015610011575f80fd5b5f3560e01c8063267c4ae4146100845780635946761f1461007f57806366dfcfc61461007a578063772de59614610075578063a2616ba914610070578063a9f046cd1461006b5763d2a0693e14610066575f80fd5b6105cb565b610548565b610516565b610435565b6103db565b6102ff565b3461009f575f36600319011261009f57600160805260206080f35b5f80fd5b634e487b7160e01b5f52604160045260245ffd5b608081019081106001600160401b038211176100d257604052565b6100a3565b601f909101601f19168101906001600160401b038211908210176100d257604052565b6001600160401b0381116100d25760051b60200190565b9080601f8301121561009f578135610128816100fa565b9261013660405194856100d7565b81845260208085019260051b82010192831161009f57602001905b82821061015e5750505090565b8135815260209182019101610151565b359060ff8216820361009f57565b35906001600160a01b038216820361009f57565b9060a060031983011261009f576004356001600160401b03811161009f57826101bb91600401610111565b91602435906001600160401b03821161009f578060238301121561009f5781600401356101e7816100fa565b926101f560405194856100d7565b8184526024602085019260051b82010192831161009f57602401905b8282106102385750505090610226604461017c565b90610231606461016e565b9060843590565b602080916102458461016e565b815201910190610211565b906020606060a0938051845260ff83820151168385015260ff60408201511660408501520151608060608401528051918291826080860152018484015e5f828201840152601f01601f1916010190565b602081016020825282518091526040820191602060408360051b8301019401925f915b8383106102d257505050505090565b90919293946020806102f0600193603f198682030187528951610250565b970193019301919392906102c3565b3461009f5761030d36610190565b5090829392518351036103cc57835193610326856100fa565b9461033460405196876100d7565b808652610343601f19916100fa565b015f5b8181106103b55750505f5b81518110156103a35780610387858561036c6001958a610612565b5161038161037a8689610612565b5160ff1690565b906106dc565b6103918289610612565b5261039c8188610612565b5001610351565b604051806103b188826102a0565b0390f35b6020906103c06105ee565b82828a01015201610346565b6379a67d5b60e11b5f5260045ffd5b3461009f57604036600319011261009f576103fa60243560043561063a565b005b60206040818301928281528451809452019201905f5b81811061041f5750505090565b8251845260209384019390920191600101610412565b3461009f5761044336610190565b5082919392518351036103cc5781519361045c856100fa565b9461046a60405196876100d7565b808652610479601f19916100fa565b013660208701375f5b83518110156104c257806104b161049b60019388610612565b518560ff6104a9858a610612565b511686610771565b6104bb8289610612565b5201610482565b604051806103b188826103fc565b60a090600319011261009f576004359060243560ff8116810361009f57906044356001600160a01b038116810361009f579060643560ff8116810361009f579060843590565b3461009f576103b161053461052a366104d0565b50929190916106dc565b604051918291602083526020830190610250565b3461009f57604036600319011261009f576004356001600160401b03811161009f57610578903690600401610111565b6024356001600160401b03811161009f57610597903690600401610111565b905f5b81518110156103fa57806105c56105b360019385610612565b516105be8387610612565b519061063a565b0161059a565b3461009f5760206105e66105de366104d0565b509190610771565b604051908152f35b604051906105fb826100b7565b606080835f81525f60208201525f60408201520152565b80518210156106265760209160051b010190565b634e487b7160e01b5f52603260045260245ffd5b9073ea30c4b8b44078bbf8a6ef5b9f1ec1626c7848d93b1561009f5760405190630ad2437f60e11b82525f92600483015260248201525f816044818373ea30c4b8b44078bbf8a6ef5b9f1ec1626c7848d95af180156106d1576106be575b50805490600182018092116106aa5755565b634e487b7160e01b5f52601160045260245ffd5b6106ca91505f906100d7565b5f5f610698565b6040513d5f823e3d90fd5b92806107016106fa8660ff96948688966106f46105ee565b50610771565b958661063a565b6040519461070e866100b7565b855216602084015216604082015260405161072a6020826100d7565b5f8152606082015290565b805191908290602001825e015f815290565b602061076f91610761949360405195869284840190610735565b9081520380855201836100d7565b565b6107d26107e66107a66107d86107c261080a956107b461079661082a9b9a999a61082d565b6040519586916020830190610735565b03601f1981018652856100d7565b6001600160a01b031661082d565b6040519485936020850190610735565b90610735565b03601f1981018352826100d7565b5f5460408051602080820193845281529061080190826100d7565b51902090610747565b60208151910120919060ff617f0091169160081b16179061ffff19161790565b90565b6040519061083c6040836100d7565b602080835282810190368237529056fea2646970667358221220bb1fcdf439d27b355c5bd21ca086d37478d09f2bd0fe6f8541bb39182a8ebfd464736f6c634300081c0033",
  "linkReferences": {},
  "deployedLinkReferences": {}
}