{
  "_format": "hh-sol-artifact-1",
  "contractName": "MockACL",
  "sourceName": "@cofhe/mock-contracts/contracts/MockACL.sol",
  "abi": [
    {
      "inputs": [],
      "stateMutability": "nonpayable",
      "type": "constructor"
    },
    {
      "inputs": [],
      "name": "AlreadyDelegated",
      "type": "error"
    },
    {
      "inputs": [
        {
          "internalType": "address",
          "name": "sender",
          "type": "address"
        }
      ],
      "name": "DirectAllowForbidden",
      "type": "error"
    },
    {
      "inputs": [],
      "name": "InvalidShortString",
      "type": "error"
    },
    {
      "inputs": [],
      "name": "PermissionInvalid_Disabled",
      "type": "error"
    },
    {
      "inputs": [],
      "name": "PermissionInvalid_Expired",
      "type": "error"
    },
    {
      "inputs": [],
      "name": "PermissionInvalid_IssuerSignature",
      "type": "error"
    },
    {
      "inputs": [],
      "name": "PermissionInvalid_RecipientSignature",
      "type": "error"
    },
    {
      "inputs": [],
      "name": "SenderCannotBeDelegateeAddress",
      "type": "error"
    },
    {
      "inputs": [
        {
          "internalType": "address",
          "name": "sender",
          "type": "address"
        }
      ],
      "name": "SenderNotAllowed",
      "type": "error"
    },
    {
      "inputs": [
        {
          "internalType": "string",
          "name": "str",
          "type": "string"
        }
      ],
      "name": "StringTooLong",
      "type": "error"
    },
    {
      "anonymous": false,
      "inputs": [
        {
          "indexed": false,
          "internalType": "uint256[]",
          "name": "handlesList",
          "type": "uint256[]"
        }
      ],
      "name": "AllowedForDecryption",
      "type": "event"
    },
    {
      "anonymous": false,
      "inputs": [],
      "name": "EIP712DomainChanged",
      "type": "event"
    },
    {
      "anonymous": false,
      "inputs": [
        {
          "indexed": true,
          "internalType": "address",
          "name": "sender",
          "type": "address"
        },
        {
          "indexed": true,
          "internalType": "address",
          "name": "delegatee",
          "type": "address"
        },
        {
          "indexed": true,
          "internalType": "address",
          "name": "contractAddress",
          "type": "address"
        }
      ],
      "name": "NewDelegation",
      "type": "event"
    },
    {
      "inputs": [],
      "name": "TASK_MANAGER_ADDRESS_",
      "outputs": [
        {
          "internalType": "address",
          "name": "",
          "type": "address"
        }
      ],
      "stateMutability": "view",
      "type": "function"
    },
    {
      "inputs": [
        {
          "internalType": "uint256",
          "name": "handle",
          "type": "uint256"
        },
        {
          "internalType": "address",
          "name": "account",
          "type": "address"
        },
        {
          "internalType": "address",
          "name": "requester",
          "type": "address"
        }
      ],
      "name": "allow",
      "outputs": [],
      "stateMutability": "nonpayable",
      "type": "function"
    },
    {
      "inputs": [
        {
          "internalType": "uint256[]",
          "name": "handlesList",
          "type": "uint256[]"
        },
        {
          "internalType": "address",
          "name": "requester",
          "type": "address"
        }
      ],
      "name": "allowForDecryption",
      "outputs": [],
      "stateMutability": "nonpayable",
      "type": "function"
    },
    {
      "inputs": [
        {
          "internalType": "uint256",
          "name": "handle",
          "type": "uint256"
        },
        {
          "internalType": "address",
          "name": "requester",
          "type": "address"
        }
      ],
      "name": "allowGlobal",
      "outputs": [],
      "stateMutability": "nonpayable",
      "type": "function"
    },
    {
      "inputs": [
        {
          "internalType": "uint256",
          "name": "handle",
          "type": "uint256"
        },
        {
          "internalType": "address",
          "name": "account",
          "type": "address"
        },
        {
          "internalType": "address",
          "name": "requester",
          "type": "address"
        }
      ],
      "name": "allowTransient",
      "outputs": [],
      "stateMutability": "nonpayable",
      "type": "function"
    },
    {
      "inputs": [
        {
          "internalType": "address",
          "name": "delegatee",
          "type": "address"
        },
        {
          "internalType": "uint256",
          "name": "handle",
          "type": "uint256"
        },
        {
          "internalType": "address",
          "name": "contractAddress",
          "type": "address"
        },
        {
          "internalType": "address",
          "name": "account",
          "type": "address"
        }
      ],
      "name": "allowedOnBehalf",
      "outputs": [
        {
          "internalType": "bool",
          "name": "",
          "type": "bool"
        }
      ],
      "stateMutability": "view",
      "type": "function"
    },
    {
      "inputs": [
        {
          "internalType": "uint256",
          "name": "handle",
          "type": "uint256"
        },
        {
          "internalType": "address",
          "name": "account",
          "type": "address"
        }
      ],
      "name": "allowedTransient",
      "outputs": [
        {
          "internalType": "bool",
          "name": "",
          "type": "bool"
        }
      ],
      "stateMutability": "view",
      "type": "function"
    },
    {
      "inputs": [
        {
          "components": [
            {
              "internalType": "address",
              "name": "issuer",
              "type": "address"
            },
            {
              "internalType": "uint64",
              "name": "expiration",
              "type": "uint64"
            },
            {
              "internalType": "address",
              "name": "recipient",
              "type": "address"
            },
            {
              "internalType": "uint256",
              "name": "validatorId",
              "type": "uint256"
            },
            {
              "internalType": "address",
              "name": "validatorContract",
              "type": "address"
            },
            {
              "internalType": "bytes32",
              "name": "sealingKey",
              "type": "bytes32"
            },
            {
              "internalType": "bytes",
              "name": "issuerSignature",
              "type": "bytes"
            },
            {
              "internalType": "bytes",
              "name": "recipientSignature",
              "type": "bytes"
            }
          ],
          "internalType": "struct Permission",
          "name": "permission",
          "type": "tuple"
        }
      ],
      "name": "checkPermitValidity",
      "outputs": [
        {
          "internalType": "bool",
          "name": "",
          "type": "bool"
        }
      ],
      "stateMutability": "view",
      "type": "function"
    },
    {
      "inputs": [],
      "name": "cleanTransientStorage",
      "outputs": [],
      "stateMutability": "nonpayable",
      "type": "function"
    },
    {
      "inputs": [
        {
          "internalType": "address",
          "name": "delegatee",
          "type": "address"
        },
        {
          "internalType": "address",
          "name": "delegateeContract",
          "type": "address"
        }
      ],
      "name": "delegateAccount",
      "outputs": [],
      "stateMutability": "nonpayable",
      "type": "function"
    },
    {
      "inputs": [],
      "name": "eip712Domain",
      "outputs": [
        {
          "internalType": "bytes1",
          "name": "fields",
          "type": "bytes1"
        },
        {
          "internalType": "string",
          "name": "name",
          "type": "string"
        },
        {
          "internalType": "string",
          "name": "version",
          "type": "string"
        },
        {
          "internalType": "uint256",
          "name": "chainId",
          "type": "uint256"
        },
        {
          "internalType": "address",
          "name": "verifyingContract",
          "type": "address"
        },
        {
          "internalType": "bytes32",
          "name": "salt",
          "type": "bytes32"
        },
        {
          "internalType": "uint256[]",
          "name": "extensions",
          "type": "uint256[]"
        }
      ],
      "stateMutability": "view",
      "type": "function"
    },
    {
      "inputs": [],
      "name": "exists",
      "outputs": [
        {
          "internalType": "bool",
          "name": "",
          "type": "bool"
        }
      ],
      "stateMutability": "pure",
      "type": "function"
    },
    {
      "inputs": [],
      "name": "getTaskManagerAddress",
      "outputs": [
        {
          "internalType": "address",
          "name": "",
          "type": "address"
        }
      ],
      "stateMutability": "view",
      "type": "function"
    },
    {
      "inputs": [],
      "name": "getVersion",
      "outputs": [
        {
          "internalType": "string",
          "name": "",
          "type": "string"
        }
      ],
      "stateMutability": "pure",
      "type": "function"
    },
    {
      "inputs": [
        {
          "internalType": "uint256",
          "name": "handle",
          "type": "uint256"
        }
      ],
      "name": "globalAllowed",
      "outputs": [
        {
          "internalType": "bool",
          "name": "",
          "type": "bool"
        }
      ],
      "stateMutability": "view",
      "type": "function"
    },
    {
      "inputs": [
        {
          "internalType": "bytes32",
          "name": "structHash",
          "type": "bytes32"
        }
      ],
      "name": "hashTypedDataV4",
      "outputs": [
        {
          "internalType": "bytes32",
          "name": "",
          "type": "bytes32"
        }
      ],
      "stateMutability": "view",
      "type": "function"
    },
    {
      "inputs": [
        {
          "internalType": "uint256",
          "name": "handle",
          "type": "uint256"
        },
        {
          "internalType": "address",
          "name": "account",
          "type": "address"
        }
      ],
      "name": "isAllowed",
      "outputs": [
        {
          "internalType": "bool",
          "name": "",
          "type": "bool"
        }
      ],
      "stateMutability": "view",
      "type": "function"
    },
    {
      "inputs": [
        {
          "internalType": "uint256",
          "name": "handle",
          "type": "uint256"
        }
      ],
      "name": "isAllowedForDecryption",
      "outputs": [
        {
          "internalType": "bool",
          "name": "",
          "type": "bool"
        }
      ],
      "stateMutability": "view",
      "type": "function"
    },
    {
      "inputs": [
        {
          "components": [
            {
              "internalType": "address",
              "name": "issuer",
              "type": "address"
            },
            {
              "internalType": "uint64",
              "name": "expiration",
              "type": "uint64"
            },
            {
              "internalType": "address",
              "name": "recipient",
              "type": "address"
            },
            {
              "internalType": "uint256",
              "name": "validatorId",
              "type": "uint256"
            },
            {
              "internalType": "address",
              "name": "validatorContract",
              "type": "address"
            },
            {
              "internalType": "bytes32",
              "name": "sealingKey",
              "type": "bytes32"
            },
            {
              "internalType": "bytes",
              "name": "issuerSignature",
              "type": "bytes"
            },
            {
              "internalType": "bytes",
              "name": "recipientSignature",
              "type": "bytes"
            }
          ],
          "internalType": "struct Permission",
          "name": "permission",
          "type": "tuple"
        },
        {
          "internalType": "uint256",
          "name": "handle",
          "type": "uint256"
        }
      ],
      "name": "isAllowedWithPermission",
      "outputs": [
        {
          "internalType": "bool",
          "name": "",
          "type": "bool"
        }
      ],
      "stateMutability": "view",
      "type": "function"
    },
    {
      "inputs": [
        {
          "internalType": "uint256",
          "name": "handle",
          "type": "uint256"
        },
        {
          "internalType": "address",
          "name": "account",
          "type": "address"
        }
      ],
      "name": "persistAllowed",
      "outputs": [
        {
          "internalType": "bool",
          "name": "",
          "type": "bool"
        }
      ],
      "stateMutability": "view",
      "type": "function"
    }
  ],
  "bytecode": "0x6101606040523461012357604051610018604082610127565b600381526020810190621050d360ea1b825260405191610039604084610127565b600183526020830191603160f81b83526100528161015e565b6101205261005f846102f4565b61014052519020918260e05251902080610100524660a0526040519060208201927f8b73c3c69bb8fe3d512ecc4cf759cc79239f7b179b0ffacaa9a75d522b39400f8452604083015260608201524660808201523060a082015260a081526100c860c082610127565b5190206080523060c05260405161172a908161042d82396080518161134f015260a05181611406015260c05181611319015260e0518161139e015261010051816113c40152610120518161068e015261014051816106ba0152f35b5f80fd5b601f909101601f19168101906001600160401b0382119082101761014a57604052565b634e487b7160e01b5f52604160045260245ffd5b908151602081105f146101d8575090601f815111610198576020815191015160208210610189571790565b5f198260200360031b1b161790565b604460209160405192839163305a27a960e01b83528160048401528051918291826024860152018484015e5f828201840152601f01601f19168101030190fd5b6001600160401b03811161014a575f54600181811c911680156102ea575b60208210146102d657601f81116102a4575b50602092601f821160011461024557928192935f9261023a575b50508160011b915f199060031b1c1916175f5560ff90565b015190505f80610222565b601f198216935f8052805f20915f5b86811061028c5750836001959610610274575b505050811b015f5560ff90565b01515f1960f88460031b161c191690555f8080610267565b91926020600181928685015181550194019201610254565b5f8052601f60205f20910160051c810190601f830160051c015b8181106102cb5750610208565b5f81556001016102be565b634e487b7160e01b5f52602260045260245ffd5b90607f16906101f6565b908151602081105f1461031f575090601f815111610198576020815191015160208210610189571790565b6001600160401b03811161014a57600154600181811c91168015610422575b60208210146102d657601f81116103ef575b50602092601f821160011461038e57928192935f92610383575b50508160011b915f199060031b1c19161760015560ff90565b015190505f8061036a565b601f1982169360015f52805f20915f5b8681106103d757508360019596106103bf575b505050811b0160015560ff90565b01515f1960f88460031b161c191690555f80806103b1565b9192602060018192868501518155019401920161039e565b60015f52601f60205f20910160051c810190601f830160051c015b8181106104175750610350565b5f815560010161040a565b90607f169061033e56fe60806040526004361015610011575f80fd5b5f3560e01c80630d8e6e2c14610bc0578063267c4ae414610ba557806335334c2314610b7f57806337e6b44f14610b595780633c3839ba146109db578063484de822146109075780634980f288146108de57806351b8fd20146108595780635faa299a146108b85780636330a7091461088057806365ce8df71461085957806379a3a7fb146107ed5780637a9a598e146107c7578063846cd4331461074757806384b0196e1461067657806394d9184c14610641578063a8b701001461052e578063ae79f04a146103d0578063cbf4f703146101f65763ccd9a7cd146100f5575f80fd5b346101f25760803660031901126101f25761010e610d2a565b60443590602435906001600160a01b03831683036101f2576064356001600160a01b03811681036101f257610141611053565b9060018201845f528060205260405f2060018060a01b0383165f5260205260ff60405f20541694856101c6575b505083610183575b6020846040519015158152f35b6001600160a01b039081165f9081526003929092016020908152604080842094831684529381528383209590911682529384529081205460ff1691508080610176565b5f908152602091825260408082206001600160a01b03891683529092529081205460ff1694508061016e565b5f80fd5b346101f25760203660031901126101f2576004356001600160401b0381116101f257610226903690600401610e45565b60208101516001600160401b031642116103c1578051610285906001600160a01b031661027a61025584611097565b61025d611316565b6042916040519161190160f01b8352600283015260228201522090565b60c0840151916111cc565b156103b25760408101516001600160a01b0316801515908161038f575b506103805760608101518015159182610369575b826102dc575b50506102cd57602060405160018152f35b6365e9d4b360e11b5f5260045ffd5b608081015190516040516316c6723d60e31b8152935060209284926001600160a01b039081169284928392610315921660048401610fcd565b03915afa90811561035e575f9161032f575b5081806102bc565b610351915060203d602011610357575b6103498183610d54565b810190610fb5565b81610327565b503d61033f565b6040513d5f823e3d90fd5b60808101516001600160a01b0316151592506102b6565b638e143bf760e01b5f5260045ffd5b6103ab91506103a0610255846112c0565b60e0840151916111cc565b15826102a2565b634c40eccb60e01b5f5260045ffd5b63ed0764a160e01b5f5260045ffd5b346101f25760403660031901126101f2576004356001600160401b0381116101f257610400903690600401610e45565b60208101516001600160401b031642116103c157805161042f906001600160a01b031661027a61025584611097565b156103b25760408101516001600160a01b03168015159081610516575b5061038057606081015180151590816104ff575b8161048e575b506102cd5751602090610484906001600160a01b0316602435610f45565b6040519015158152f35b608083015183516040516316c6723d60e31b8152935060209284926001600160a01b0390811692849283926104c7921660048401610fcd565b03915afa90811561035e575f916104e0575b5082610466565b6104f9915060203d602011610357576103498183610d54565b826104d9565b60808301516001600160a01b031615159150610460565b61052791506103a0610255846112c0565b158261044c565b346101f25760403660031901126101f257610547610d2a565b61054f610d14565b5f5160206116d55f395f51905f52330361062e576001600160a01b03169033821461061f57600361057e611053565b335f9081529101602081815260408084206001600160a01b038616855282528084208685529091529091205460ff1661061057335f818152602092835260408082206001600160a01b0395909516808352948452808220868352909352918220805460ff19166001179055907ff03b7c0d4879b0bcbbf440794871f139c96fd13a145a8172b33b9cab5fa2830a9080a4005b631a30c08d60e31b5f5260045ffd5b6330dc920360e01b5f5260045ffd5b633809a24360e01b5f523360045260245ffd5b346101f25760203660031901126101f25761065a611053565b6004355f52602052602060ff60405f2054166040519015158152f35b346101f2575f3660031901126101f2576107156106b27f000000000000000000000000000000000000000000000000000000000000000061142c565b6107436106de7f0000000000000000000000000000000000000000000000000000000000000000611552565b610723604051916106f0602084610d54565b5f83525f368137604051958695600f60f81b875260e0602088015260e0870190610cf0565b908582036040870152610cf0565b904660608501523060808501525f60a085015283820360c0850152610db1565b0390f35b346101f25760403660031901126101f257600435610763610d14565b5f5160206116d55f395f51905f52330361062e576107818183610f45565b156107a7575061078f611053565b5f91825260205260409020805460ff19166001179055005b6368692cbb60e11b5f9081526001600160a01b0391909116600452602490fd5b346101f25760403660031901126101f25760206104846107e5610d14565b600435610f90565b346101f2576107fb36610d77565b5f5160206116d55f395f51905f52929192330361062e5761081c8183610f45565b156107a75750600161082c611053565b5f92835201602090815260408083206001600160a01b03909416835292905220805460ff19166001179055005b346101f2575f3660031901126101f25760206040515f5160206116d55f395f51905f528152f35b346101f25760203660031901126101f257600261089b611053565b016004355f52602052602060ff60405f2054166040519015158152f35b346101f25760403660031901126101f25760206104846108d6610d14565b600435610f45565b346101f25760203660031901126101f25760206108ff60043561025d611316565b604051908152f35b346101f25761091536610d77565b915f5160206116d55f395f51905f52330361062e576109348382610f45565b15806109bb575b61099d576004925061097c61098a610951611053565b9360405192839160208301958690815260609190911b6001600160601b031916602082015260340190565b03601f198101835282610d54565b5190205f52016020524360405f20555f80f35b6368692cbb60e11b5f9081526001600160a01b038416600452602490fd5b506001600160a01b0383165f5160206116d55f395f51905f52141561093b565b346101f25760403660031901126101f2576004356001600160401b0381116101f257366023820112156101f2576004810135906001600160401b038211610b45578160051b6020810192610a326040519485610d54565b835260246020840191830101913683116101f257602401905b828210610b355783610a5b610d14565b5f5160206116d55f395f51905f52330361062e578151610a79611053565b6002015f5b828110610ac3577f2fd616621b8415a2efb27b224024340ac767797553ce6fdf4c1adefd160504c6610abe86604051918291602083526020830190610db1565b0390a1005b8451811015610b215760208160051b86010151610ae08582610f45565b15610b0357906001915f528260205260405f208260ff1982541617905501610a7e565b6368692cbb60e11b5f9081526001600160a01b038616600452602490fd5b634e487b7160e01b5f52603260045260245ffd5b8135815260209182019101610a4b565b634e487b7160e01b5f52604160045260245ffd5b346101f25760403660031901126101f2576020610484610b77610d14565b600435610f17565b346101f2575f3660031901126101f2575f5160206116d55f395f51905f52330361062e57005b346101f2575f3660031901126101f257602060405160018152f35b346101f2575f3660031901126101f2576040805190610bdf8183610d54565b600382526020820190621050d360ea1b8252610bf9610fe8565b6001610c0481610de4565b90610c1184519283610d54565b808252601f19610c2082610de4565b01366020840137600a602183015b5f1901916f181899199a1a9b1b9c1cb0b131b232b360811b8282061a835304908115610c5c57600a90610c2e565b50506107439460016020610ce29460028284968180610c79610fe8565b958c519d8e9a518091848d015e8a019061103b60f11b83830152805192839101602283015e010190601760f91b84830152805192839101600383015e010190601760f91b84830152805192839101600283015e01015f838201520301601f198101845283610d54565b519182916020835260208301905b805180835260209291819084018484015e5f828201840152601f01601f1916010190565b602435906001600160a01b03821682036101f257565b600435906001600160a01b03821682036101f257565b35906001600160a01b03821682036101f257565b601f909101601f19168101906001600160401b03821190821017610b4557604052565b60609060031901126101f257600435906024356001600160a01b03811681036101f257906044356001600160a01b03811681036101f25790565b90602080835192838152019201905f5b818110610dce5750505090565b8251845260209384019390920191600101610dc1565b6001600160401b038111610b4557601f01601f191660200190565b81601f820112156101f257803590610e1682610de4565b92610e246040519485610d54565b828452602083830101116101f257815f926020809301838601378301015290565b9190610100838203126101f2576040519061010082016001600160401b03811183821017610b45576040528193610e7b81610d40565b835260208101356001600160401b03811681036101f2576020840152610ea360408201610d40565b604084015260608101356060840152610ebe60808201610d40565b608084015260a0818101359084015260c08101356001600160401b0381116101f25782610eec918301610dff565b60c084015260e0810135916001600160401b0383116101f25760e092610f129201610dff565b910152565b6001610f21611053565b01905f5260205260405f209060018060a01b03165f5260205260ff60405f20541690565b610f4f8282610f90565b918215610f7d575b508115610f62575090565b9050610f6c611053565b905f5260205260ff60405f20541690565b81610f89929350610f17565b905f610f57565b9060049161097c610fa2610951611053565b5190205f520160205260405f2054431490565b908160209103126101f2575180151581036101f25790565b6001600160a01b039091168152602081019190915260400190565b5f610ff36001610de4565b906110016040519283610d54565b60018252601f196110126001610de4565b01366020840137600a602183015b5f1901916f181899199a1a9b1b9c1cb0b131b232b360811b8282061a835304801561104e57600a9091611020565b505090565b604051602081017fc4eb438ffad04c606bb4f9c3576c0f142d5dc3782731029ea1ab95b64832201081526020825261108c604083610d54565b9051902060ff191690565b6040810180516001600160a01b0316801561113f575060018060a01b038251169160018060401b036020820151169160018060a01b0390511690606081015190608060018060a01b0391015116916040519360208501957f8549e986c64faf9b741179c61561f9d39f337cf9739f86178d84dabc6ca4cad5875260408601526060850152608084015260a083015260c082015260c0815261113960e082610d54565b51902090565b91905060018060a01b038151169160018060401b0360208301511691606081015160a0600180821b03608084015116920151926040519460208601967f0ce0d938c38f948b8f9cf16098cd15ec62de132c8d422719ad270c5e2a101102885260408701526060860152608085015260a084015260c083015260e082015260e0815261113961010082610d54565b9190823b61121b57906111de91611622565b506004811015611207571591826111f457505090565b6001600160a01b03918216911614919050565b634e487b7160e01b5f52602160045260245ffd5b915f9261097c61125185946040519283916020830195630b135d3f60e11b87526024840152604060448401526064830190610cf0565b51915afa3d156112b9573d61126581610de4565b906112736040519283610d54565b81523d5f602083013e5b816112ab575b8161128c575090565b90506020818051810103126101f25760200151630b135d3f60e11b1490565b905060208151101590611283565b606061127d565b60c060a0820151910151602081519101206040519060208201927f82af07a6c9eb6bb31a0c86f7f5cad0039589750ad5b4b925ed5741f7ad4e8d4b84526040830152606082015260608152611139608082610d54565b307f00000000000000000000000000000000000000000000000000000000000000006001600160a01b03161480611403575b15611371577f000000000000000000000000000000000000000000000000000000000000000090565b60405160208101907f8b73c3c69bb8fe3d512ecc4cf759cc79239f7b179b0ffacaa9a75d522b39400f82527f000000000000000000000000000000000000000000000000000000000000000060408201527f000000000000000000000000000000000000000000000000000000000000000060608201524660808201523060a082015260a0815261113960c082610d54565b507f00000000000000000000000000000000000000000000000000000000000000004614611348565b60ff81146114725760ff811690601f82116114635760405191611450604084610d54565b6020808452838101919036833783525290565b632cd44ac360e21b5f5260045ffd5b506040515f5f548060011c9160018216918215611548575b60208410831461153457838552849290811561151557506001146114b8575b6114b592500382610d54565b90565b505f80805290917f290decd9548b62a8d60345a988386fc84ba6bc95484008f6362f93160ef3e5635b8183106114f95750509060206114b5928201016114a9565b60209193508060019154838588010152019101909183926114e1565b602092506114b594915060ff191682840152151560051b8201016114a9565b634e487b7160e01b5f52602260045260245ffd5b92607f169261148a565b60ff81146115765760ff811690601f82116114635760405191611450604084610d54565b506040515f6001548060011c9160018216918215611618575b60208410831461153457838552849290811561151557506001146115b9576114b592500382610d54565b5060015f90815290917fb10e2d527612073b26eecdfd717e6a320cf44b4afac2b0732d9fcbe2b7fa0cf65b8183106115fc5750509060206114b5928201016114a9565b60209193508060019154838588010152019101909183926115e4565b92607f169261158f565b81519190604183036116525761164b9250602082015190606060408401519301515f1a9061165c565b9192909190565b50505f9160029190565b91906fa2a8918ca85bafe22016d0b997e4df60600160ff1b0384116116c9579160209360809260ff5f9560405194855216868401526040830152606082015282805260015afa1561035e575f516001600160a01b038116156116bf57905f905f90565b505f906001905f90565b5050505f916003919056fe000000000000000000000000ea30c4b8b44078bbf8a6ef5b9f1ec1626c7848d9a2646970667358221220e592d698af4173d72915ab517bcab9d0314517cd9322b490fc92c63fda548c4364736f6c634300081c0033",
  "linkReferences": {},
  "deployedLinkReferences": {}
}