{
  "_format": "hh-sol-artifact-1",
  "contractName": "MockACL",
  "sourceName": "@cofhe/mock-contracts/contracts/MockACL.sol",
  "abi": [
    {
      "inputs": [],
      "stateMutability": "nonpayable",
      "type": "constructor"
    },
    {
      "inputs": [],
      "name": "AlreadyDelegated",
      "type": "error"
    },
    {
      "inputs": [
        {
          "internalType": "address",
          "name": "sender",
          "type": "address"
        }
      ],
      "name": "DirectAllowForbidden",
      "type": "error"
    },
    {
      "inputs": [],
      "name": "InvalidShortString",
      "type": "error"
    },
    {
      "inputs": [],
      "name": "PermissionInvalid_Disabled",
      "type": "error"
    },
    {
      "inputs": [],
      "name": "PermissionInvalid_Expired",
      "type": "error"
    },
    {
      "inputs": [],
      "name": "PermissionInvalid_IssuerSignature",
      "type": "error"
    },
    {
      "inputs": [],
      "name": "PermissionInvalid_RecipientSignature",
      "type": "error"
    },
    {
      "inputs": [],
      "name": "SenderCannotBeDelegateeAddress",
      "type": "error"
    },
    {
      "inputs": [
        {
          "internalType": "address",
          "name": "sender",
          "type": "address"
        }
      ],
      "name": "SenderNotAllowed",
      "type": "error"
    },
    {
      "inputs": [
        {
          "internalType": "string",
          "name": "str",
          "type": "string"
        }
      ],
      "name": "StringTooLong",
      "type": "error"
    },
    {
      "anonymous": false,
      "inputs": [
        {
          "indexed": false,
          "internalType": "uint256[]",
          "name": "handlesList",
          "type": "uint256[]"
        }
      ],
      "name": "AllowedForDecryption",
      "type": "event"
    },
    {
      "anonymous": false,
      "inputs": [],
      "name": "EIP712DomainChanged",
      "type": "event"
    },
    {
      "anonymous": false,
      "inputs": [
        {
          "indexed": true,
          "internalType": "address",
          "name": "sender",
          "type": "address"
        },
        {
          "indexed": true,
          "internalType": "address",
          "name": "delegatee",
          "type": "address"
        },
        {
          "indexed": true,
          "internalType": "address",
          "name": "contractAddress",
          "type": "address"
        }
      ],
      "name": "NewDelegation",
      "type": "event"
    },
    {
      "inputs": [],
      "name": "TASK_MANAGER_ADDRESS_",
      "outputs": [
        {
          "internalType": "address",
          "name": "",
          "type": "address"
        }
      ],
      "stateMutability": "view",
      "type": "function"
    },
    {
      "inputs": [
        {
          "internalType": "uint256",
          "name": "handle",
          "type": "uint256"
        },
        {
          "internalType": "address",
          "name": "account",
          "type": "address"
        },
        {
          "internalType": "address",
          "name": "requester",
          "type": "address"
        }
      ],
      "name": "allow",
      "outputs": [],
      "stateMutability": "nonpayable",
      "type": "function"
    },
    {
      "inputs": [
        {
          "internalType": "uint256[]",
          "name": "handlesList",
          "type": "uint256[]"
        },
        {
          "internalType": "address",
          "name": "requester",
          "type": "address"
        }
      ],
      "name": "allowForDecryption",
      "outputs": [],
      "stateMutability": "nonpayable",
      "type": "function"
    },
    {
      "inputs": [
        {
          "internalType": "uint256",
          "name": "handle",
          "type": "uint256"
        },
        {
          "internalType": "address",
          "name": "requester",
          "type": "address"
        }
      ],
      "name": "allowGlobal",
      "outputs": [],
      "stateMutability": "nonpayable",
      "type": "function"
    },
    {
      "inputs": [
        {
          "internalType": "uint256",
          "name": "handle",
          "type": "uint256"
        },
        {
          "internalType": "address",
          "name": "account",
          "type": "address"
        },
        {
          "internalType": "address",
          "name": "requester",
          "type": "address"
        }
      ],
      "name": "allowTransient",
      "outputs": [],
      "stateMutability": "nonpayable",
      "type": "function"
    },
    {
      "inputs": [
        {
          "internalType": "address",
          "name": "delegatee",
          "type": "address"
        },
        {
          "internalType": "uint256",
          "name": "handle",
          "type": "uint256"
        },
        {
          "internalType": "address",
          "name": "contractAddress",
          "type": "address"
        },
        {
          "internalType": "address",
          "name": "account",
          "type": "address"
        }
      ],
      "name": "allowedOnBehalf",
      "outputs": [
        {
          "internalType": "bool",
          "name": "",
          "type": "bool"
        }
      ],
      "stateMutability": "view",
      "type": "function"
    },
    {
      "inputs": [
        {
          "internalType": "uint256",
          "name": "handle",
          "type": "uint256"
        },
        {
          "internalType": "address",
          "name": "account",
          "type": "address"
        }
      ],
      "name": "allowedTransient",
      "outputs": [
        {
          "internalType": "bool",
          "name": "",
          "type": "bool"
        }
      ],
      "stateMutability": "view",
      "type": "function"
    },
    {
      "inputs": [
        {
          "components": [
            {
              "internalType": "address",
              "name": "issuer",
              "type": "address"
            },
            {
              "internalType": "uint64",
              "name": "expiration",
              "type": "uint64"
            },
            {
              "internalType": "address",
              "name": "recipient",
              "type": "address"
            },
            {
              "internalType": "uint256",
              "name": "validatorId",
              "type": "uint256"
            },
            {
              "internalType": "address",
              "name": "validatorContract",
              "type": "address"
            },
            {
              "internalType": "bytes32",
              "name": "sealingKey",
              "type": "bytes32"
            },
            {
              "internalType": "bytes",
              "name": "issuerSignature",
              "type": "bytes"
            },
            {
              "internalType": "bytes",
              "name": "recipientSignature",
              "type": "bytes"
            }
          ],
          "internalType": "struct Permission",
          "name": "permission",
          "type": "tuple"
        }
      ],
      "name": "checkPermitValidity",
      "outputs": [
        {
          "internalType": "bool",
          "name": "",
          "type": "bool"
        }
      ],
      "stateMutability": "view",
      "type": "function"
    },
    {
      "inputs": [],
      "name": "cleanTransientStorage",
      "outputs": [],
      "stateMutability": "nonpayable",
      "type": "function"
    },
    {
      "inputs": [
        {
          "internalType": "address",
          "name": "delegatee",
          "type": "address"
        },
        {
          "internalType": "address",
          "name": "delegateeContract",
          "type": "address"
        }
      ],
      "name": "delegateAccount",
      "outputs": [],
      "stateMutability": "nonpayable",
      "type": "function"
    },
    {
      "inputs": [],
      "name": "eip712Domain",
      "outputs": [
        {
          "internalType": "bytes1",
          "name": "fields",
          "type": "bytes1"
        },
        {
          "internalType": "string",
          "name": "name",
          "type": "string"
        },
        {
          "internalType": "string",
          "name": "version",
          "type": "string"
        },
        {
          "internalType": "uint256",
          "name": "chainId",
          "type": "uint256"
        },
        {
          "internalType": "address",
          "name": "verifyingContract",
          "type": "address"
        },
        {
          "internalType": "bytes32",
          "name": "salt",
          "type": "bytes32"
        },
        {
          "internalType": "uint256[]",
          "name": "extensions",
          "type": "uint256[]"
        }
      ],
      "stateMutability": "view",
      "type": "function"
    },
    {
      "inputs": [],
      "name": "exists",
      "outputs": [
        {
          "internalType": "bool",
          "name": "",
          "type": "bool"
        }
      ],
      "stateMutability": "pure",
      "type": "function"
    },
    {
      "inputs": [],
      "name": "getTaskManagerAddress",
      "outputs": [
        {
          "internalType": "address",
          "name": "",
          "type": "address"
        }
      ],
      "stateMutability": "view",
      "type": "function"
    },
    {
      "inputs": [],
      "name": "getVersion",
      "outputs": [
        {
          "internalType": "string",
          "name": "",
          "type": "string"
        }
      ],
      "stateMutability": "pure",
      "type": "function"
    },
    {
      "inputs": [
        {
          "internalType": "uint256",
          "name": "handle",
          "type": "uint256"
        }
      ],
      "name": "globalAllowed",
      "outputs": [
        {
          "internalType": "bool",
          "name": "",
          "type": "bool"
        }
      ],
      "stateMutability": "view",
      "type": "function"
    },
    {
      "inputs": [
        {
          "internalType": "bytes32",
          "name": "structHash",
          "type": "bytes32"
        }
      ],
      "name": "hashTypedDataV4",
      "outputs": [
        {
          "internalType": "bytes32",
          "name": "",
          "type": "bytes32"
        }
      ],
      "stateMutability": "view",
      "type": "function"
    },
    {
      "inputs": [
        {
          "internalType": "uint256",
          "name": "handle",
          "type": "uint256"
        },
        {
          "internalType": "address",
          "name": "account",
          "type": "address"
        }
      ],
      "name": "isAllowed",
      "outputs": [
        {
          "internalType": "bool",
          "name": "",
          "type": "bool"
        }
      ],
      "stateMutability": "view",
      "type": "function"
    },
    {
      "inputs": [
        {
          "internalType": "uint256",
          "name": "handle",
          "type": "uint256"
        }
      ],
      "name": "isAllowedForDecryption",
      "outputs": [
        {
          "internalType": "bool",
          "name": "",
          "type": "bool"
        }
      ],
      "stateMutability": "view",
      "type": "function"
    },
    {
      "inputs": [
        {
          "components": [
            {
              "internalType": "address",
              "name": "issuer",
              "type": "address"
            },
            {
              "internalType": "uint64",
              "name": "expiration",
              "type": "uint64"
            },
            {
              "internalType": "address",
              "name": "recipient",
              "type": "address"
            },
            {
              "internalType": "uint256",
              "name": "validatorId",
              "type": "uint256"
            },
            {
              "internalType": "address",
              "name": "validatorContract",
              "type": "address"
            },
            {
              "internalType": "bytes32",
              "name": "sealingKey",
              "type": "bytes32"
            },
            {
              "internalType": "bytes",
              "name": "issuerSignature",
              "type": "bytes"
            },
            {
              "internalType": "bytes",
              "name": "recipientSignature",
              "type": "bytes"
            }
          ],
          "internalType": "struct Permission",
          "name": "permission",
          "type": "tuple"
        },
        {
          "internalType": "uint256",
          "name": "handle",
          "type": "uint256"
        }
      ],
      "name": "isAllowedWithPermission",
      "outputs": [
        {
          "internalType": "bool",
          "name": "",
          "type": "bool"
        }
      ],
      "stateMutability": "view",
      "type": "function"
    },
    {
      "inputs": [
        {
          "internalType": "uint256",
          "name": "handle",
          "type": "uint256"
        },
        {
          "internalType": "address",
          "name": "account",
          "type": "address"
        }
      ],
      "name": "persistAllowed",
      "outputs": [
        {
          "internalType": "bool",
          "name": "",
          "type": "bool"
        }
      ],
      "stateMutability": "view",
      "type": "function"
    }
  ],
  "bytecode": "0x6101606040523461012357604051610018604082610127565b600381526020810190621050d360ea1b825260405191610039604084610127565b600183526020830191603160f81b83526100528161015e565b6101205261005f846102f4565b61014052519020918260e05251902080610100524660a0526040519060208201927f8b73c3c69bb8fe3d512ecc4cf759cc79239f7b179b0ffacaa9a75d522b39400f8452604083015260608201524660808201523060a082015260a081526100c860c082610127565b5190206080523060c052604051611733908161042d82396080518161136e015260a05181611425015260c05181611338015260e051816113bd015261010051816113e301526101205181610693015261014051816106bf0152f35b5f80fd5b601f909101601f19168101906001600160401b0382119082101761014a57604052565b634e487b7160e01b5f52604160045260245ffd5b908151602081105f146101d8575090601f815111610198576020815191015160208210610189571790565b5f198260200360031b1b161790565b604460209160405192839163305a27a960e01b83528160048401528051918291826024860152018484015e5f828201840152601f01601f19168101030190fd5b6001600160401b03811161014a575f54600181811c911680156102ea575b60208210146102d657601f81116102a4575b50602092601f821160011461024557928192935f9261023a575b50508160011b915f199060031b1c1916175f5560ff90565b015190505f80610222565b601f198216935f8052805f20915f5b86811061028c5750836001959610610274575b505050811b015f5560ff90565b01515f1960f88460031b161c191690555f8080610267565b91926020600181928685015181550194019201610254565b5f8052601f60205f20910160051c810190601f830160051c015b8181106102cb5750610208565b5f81556001016102be565b634e487b7160e01b5f52602260045260245ffd5b90607f16906101f6565b908151602081105f1461031f575090601f815111610198576020815191015160208210610189571790565b6001600160401b03811161014a57600154600181811c91168015610422575b60208210146102d657601f81116103ef575b50602092601f821160011461038e57928192935f92610383575b50508160011b915f199060031b1c19161760015560ff90565b015190505f8061036a565b601f1982169360015f52805f20915f5b8681106103d757508360019596106103bf575b505050811b0160015560ff90565b01515f1960f88460031b161c191690555f80806103b1565b9192602060018192868501518155019401920161039e565b60015f52601f60205f20910160051c810190601f830160051c015b8181106104175750610350565b5f815560010161040a565b90607f169061033e56fe60806040526004361015610011575f80fd5b5f3560e01c80630d8e6e2c14610bfa578063267c4ae414610bdf57806335334c2314610bb257806337e6b44f14610b8c5780633c3839ba14610a07578063484de822146109215780634980f288146108f857806351b8fd201461086c5780635faa299a146108d25780636330a7091461089a57806365ce8df71461086c57806379a3a7fb146107f95780637a9a598e146107d3578063846cd4331461074c57806384b0196e1461067b57806394d9184c14610646578063a8b701001461052c578063ae79f04a146103cf578063cbf4f703146101f65763ccd9a7cd146100f5575f80fd5b346101f25760803660031901126101f25761010e610d64565b60443590602435906001600160a01b03831683036101f2576064356001600160a01b03811681036101f257610141611070565b9060018201845f528060205260405f2060018060a01b0383165f5260205260ff60405f20541694856101c6575b505083610183575b6020846040519015158152f35b6001600160a01b039081165f9081526003929092016020908152604080842094831684529381528383209590911682529384529081205460ff1691508080610176565b5f908152602091825260408082206001600160a01b03891683529092529081205460ff1694508061016e565b5f80fd5b346101f25760203660031901126101f2576004356001600160401b0381116101f257610226903690600401610e7d565b6001600160401b0360208201511642116103c0578051610285906001600160a01b031661027a610255846110b4565b61025d611335565b6042916040519161190160f01b8352600283015260228201522090565b60c0840151916111eb565b156103b15760408101516001600160a01b0316801515908161038e575b5061037f5760608101518015159182610368575b826102dc575b50506102cd57602060405160018152f35b6365e9d4b360e11b5f5260045ffd5b608081015190516040516316c6723d60e31b81526001600160a01b039182166004820152602481019390935291925060209183916044918391165afa90811561035d575f9161032e575b5081806102bc565b610350915060203d602011610356575b6103488183610d8e565b810190610fed565b81610326565b503d61033e565b6040513d5f823e3d90fd5b60808101516001600160a01b0316151592506102b6565b638e143bf760e01b5f5260045ffd5b6103aa915061039f610255846112df565b60e0840151916111eb565b15826102a2565b634c40eccb60e01b5f5260045ffd5b63ed0764a160e01b5f5260045ffd5b346101f25760403660031901126101f2576004356001600160401b0381116101f2576103ff903690600401610e7d565b6001600160401b0360208201511642116103c057805161042e906001600160a01b031661027a610255846110b4565b156103b15760408101516001600160a01b03168015159081610514575b5061037f57606081015180151590816104fd575b8161048d575b506102cd5751602090610483906001600160a01b0316602435610f7d565b6040519015158152f35b608083015183516040516316c6723d60e31b81526001600160a01b039182166004820152602481019390935291925060209183916044918391165afa90811561035d575f916104de575b5082610465565b6104f7915060203d602011610356576103488183610d8e565b826104d7565b60808301516001600160a01b03161515915061045f565b610525915061039f610255846112df565b158261044b565b346101f25760403660031901126101f257610545610d64565b61054d610d4e565b73ea30c4b8b44078bbf8a6ef5b9f1ec1626c7848d93303610633576001600160a01b031690338214610624576003610583611070565b335f9081529101602081815260408084206001600160a01b038616855282528084208685529091529091205460ff1661061557335f818152602092835260408082206001600160a01b0395909516808352948452808220868352909352918220805460ff19166001179055907ff03b7c0d4879b0bcbbf440794871f139c96fd13a145a8172b33b9cab5fa2830a9080a4005b631a30c08d60e31b5f5260045ffd5b6330dc920360e01b5f5260045ffd5b633809a24360e01b5f523360045260245ffd5b346101f25760203660031901126101f25761065f611070565b6004355f52602052602060ff60405f2054166040519015158152f35b346101f2575f3660031901126101f25761071a6106b77f000000000000000000000000000000000000000000000000000000000000000061144b565b6107486106e37f0000000000000000000000000000000000000000000000000000000000000000611571565b610728604051916106f5602084610d8e565b5f83525f368137604051958695600f60f81b875260e0602088015260e0870190610d2a565b908582036040870152610d2a565b904660608501523060808501525f60a085015283820360c0850152610de9565b0390f35b346101f25760403660031901126101f257600435610768610d4e565b73ea30c4b8b44078bbf8a6ef5b9f1ec1626c7848d933036106335761078d8183610f7d565b156107b3575061079b611070565b5f91825260205260409020805460ff19166001179055005b6368692cbb60e11b5f9081526001600160a01b0391909116600452602490fd5b346101f25760403660031901126101f25760206104836107f1610d4e565b600435610fc8565b346101f25761080736610daf565b73ea30c4b8b44078bbf8a6ef5b9f1ec1626c7848d992919233036106335761082f8183610f7d565b156107b35750600161083f611070565b5f92835201602090815260408083206001600160a01b03909416835292905220805460ff19166001179055005b346101f2575f3660031901126101f257602060405173ea30c4b8b44078bbf8a6ef5b9f1ec1626c7848d98152f35b346101f25760203660031901126101f25760026108b5611070565b016004355f52602052602060ff60405f2054166040519015158152f35b346101f25760403660031901126101f25760206104836108f0610d4e565b600435610f7d565b346101f25760203660031901126101f257602061091960043561025d611335565b604051908152f35b346101f25761092f36610daf565b9173ea30c4b8b44078bbf8a6ef5b9f1ec1626c7848d93303610633576109558382610f7d565b15806109e0575b6109c257600492506109a16109af610972611070565b604080516020810195865260609690961b6bffffffffffffffffffffffff191690860152939182906054820190565b03601f198101835282610d8e565b5190205f52016020524360405f20555f80f35b6368692cbb60e11b5f9081526001600160a01b038416600452602490fd5b506001600160a01b03831673ea30c4b8b44078bbf8a6ef5b9f1ec1626c7848d9141561095c565b346101f25760403660031901126101f2576004356001600160401b0381116101f257366023820112156101f2578060040135906001600160401b038211610b78578160051b6020810192610a5e6040519485610d8e565b835260246020840191830101913683116101f257602401905b828210610b685783610a87610d4e565b73ea30c4b8b44078bbf8a6ef5b9f1ec1626c7848d93303610633578151610aac611070565b6002015f5b828110610af6577f2fd616621b8415a2efb27b224024340ac767797553ce6fdf4c1adefd160504c6610af186604051918291602083526020830190610de9565b0390a1005b8451811015610b545760208160051b86010151610b138582610f7d565b15610b3657906001915f528260205260405f208260ff1982541617905501610ab1565b6368692cbb60e11b5f9081526001600160a01b038616600452602490fd5b634e487b7160e01b5f52603260045260245ffd5b8135815260209182019101610a77565b634e487b7160e01b5f52604160045260245ffd5b346101f25760403660031901126101f2576020610483610baa610d4e565b600435610f4f565b346101f2575f3660031901126101f25773ea30c4b8b44078bbf8a6ef5b9f1ec1626c7848d9330361063357005b346101f2575f3660031901126101f257602060405160018152f35b346101f2575f3660031901126101f2576040805190610c198183610d8e565b600382526020820190621050d360ea1b8252610c33611005565b6001610c3e81610e1c565b90610c4b84519283610d8e565b808252601f19610c5a82610e1c565b01366020840137600a602183015b5f1901916f181899199a1a9b1b9c1cb0b131b232b360811b8282061a835304908115610c9657600a90610c68565b50506107489460016020610d1c9460028284968180610cb3611005565b958c519d8e9a518091848d015e8a019061103b60f11b83830152805192839101602283015e010190601760f91b84830152805192839101600383015e010190601760f91b84830152805192839101600283015e01015f838201520301601f198101845283610d8e565b519182916020835260208301905b805180835260209291819084018484015e5f828201840152601f01601f1916010190565b602435906001600160a01b03821682036101f257565b600435906001600160a01b03821682036101f257565b35906001600160a01b03821682036101f257565b90601f801991011681019081106001600160401b03821117610b7857604052565b60609060031901126101f257600435906024356001600160a01b03811681036101f257906044356001600160a01b03811681036101f25790565b90602080835192838152019201905f5b818110610e065750505090565b8251845260209384019390920191600101610df9565b6001600160401b038111610b7857601f01601f191660200190565b81601f820112156101f257803590610e4e82610e1c565b92610e5c6040519485610d8e565b828452602083830101116101f257815f926020809301838601378301015290565b9190610100838203126101f2576040519061010082018281106001600160401b03821117610b78576040528193610eb381610d7a565b835260208101356001600160401b03811681036101f2576020840152610edb60408201610d7a565b604084015260608101356060840152610ef660808201610d7a565b608084015260a081013560a084015260c08101356001600160401b0381116101f25782610f24918301610e37565b60c084015260e0810135916001600160401b0383116101f25760e092610f4a9201610e37565b910152565b6001610f59611070565b01905f5260205260405f209060018060a01b03165f5260205260ff60405f20541690565b610f878282610fc8565b918215610fb5575b508115610f9a575090565b9050610fa4611070565b905f5260205260ff60405f20541690565b81610fc1929350610f4f565b905f610f8f565b906004916109a1610fda610972611070565b5190205f520160205260405f2054431490565b908160209103126101f2575180151581036101f25790565b5f6110106001610e1c565b9061101e6040519283610d8e565b60018252601f1961102f6001610e1c565b01366020840137600a602183015b5f1901916f181899199a1a9b1b9c1cb0b131b232b360811b8282061a835304801561106b57600a909161103d565b505090565b604051602081017fc4eb438ffad04c606bb4f9c3576c0f142d5dc3782731029ea1ab95b6483220108152602082526110a9604083610d8e565b9051902060ff191690565b6040810180516001600160a01b0316801561115d575060018060a01b03825116916001600160401b036020820151169160018060a01b0390511690606081015190608060018060a01b0391015116916040519360208501957f8549e986c64faf9b741179c61561f9d39f337cf9739f86178d84dabc6ca4cad5875260408601526060850152608084015260a083015260c082015260c0815261115760e082610d8e565b51902090565b91905060018060a01b03815116916001600160401b0360208301511691606081015160a0600180821b03608084015116920151926040519460208601967f0ce0d938c38f948b8f9cf16098cd15ec62de132c8d422719ad270c5e2a101102885260408701526060860152608085015260a084015260c083015260e082015260e0815261115761010082610d8e565b9190823b61123a57906111fd91611641565b5060048110156112265715918261121357505090565b6001600160a01b03918216911614919050565b634e487b7160e01b5f52602160045260245ffd5b915f926109a161127085946040519283916020830195630b135d3f60e11b87526024840152604060448401526064830190610d2a565b51915afa3d156112d8573d61128481610e1c565b906112926040519283610d8e565b81523d5f602083013e5b816112ca575b816112ab575090565b90506020818051810103126101f25760200151630b135d3f60e11b1490565b9050602081511015906112a2565b606061129c565b60c060a0820151910151602081519101206040519060208201927f82af07a6c9eb6bb31a0c86f7f5cad0039589750ad5b4b925ed5741f7ad4e8d4b84526040830152606082015260608152611157608082610d8e565b307f00000000000000000000000000000000000000000000000000000000000000006001600160a01b03161480611422575b15611390577f000000000000000000000000000000000000000000000000000000000000000090565b60405160208101907f8b73c3c69bb8fe3d512ecc4cf759cc79239f7b179b0ffacaa9a75d522b39400f82527f000000000000000000000000000000000000000000000000000000000000000060408201527f000000000000000000000000000000000000000000000000000000000000000060608201524660808201523060a082015260a0815261115760c082610d8e565b507f00000000000000000000000000000000000000000000000000000000000000004614611367565b60ff81146114915760ff811690601f8211611482576040519161146f604084610d8e565b6020808452838101919036833783525290565b632cd44ac360e21b5f5260045ffd5b506040515f5f548060011c9160018216918215611567575b60208410831461155357838552849290811561153457506001146114d7575b6114d492500382610d8e565b90565b505f80805290917f290decd9548b62a8d60345a988386fc84ba6bc95484008f6362f93160ef3e5635b8183106115185750509060206114d4928201016114c8565b6020919350806001915483858801015201910190918392611500565b602092506114d494915060ff191682840152151560051b8201016114c8565b634e487b7160e01b5f52602260045260245ffd5b92607f16926114a9565b60ff81146115955760ff811690601f8211611482576040519161146f604084610d8e565b506040515f6001548060011c9160018216918215611637575b60208410831461155357838552849290811561153457506001146115d8576114d492500382610d8e565b5060015f90815290917fb10e2d527612073b26eecdfd717e6a320cf44b4afac2b0732d9fcbe2b7fa0cf65b81831061161b5750509060206114d4928201016114c8565b6020919350806001915483858801015201910190918392611603565b92607f16926115ae565b81519190604183036116715761166a9250602082015190606060408401519301515f1a9061167b565b9192909190565b50505f9160029190565b91907f7fffffffffffffffffffffffffffffff5d576e7357a4501ddfe92f46681b20a084116116f2579160209360809260ff5f9560405194855216868401526040830152606082015282805260015afa1561035d575f516001600160a01b038116156116e857905f905f90565b505f906001905f90565b5050505f916003919056fea26469706673582212207dd6f120b6cb4c8aabb5da787d3d33bbcfbd5fff795a728d081a1ab71cba046a64736f6c634300081c0033",
  "linkReferences": {},
  "deployedLinkReferences": {}
}