{
  "_format": "hh-sol-artifact-1",
  "contractName": "TestBed",
  "sourceName": "@cofhe/mock-contracts/contracts/TestBed.sol",
  "abi": [
    {
      "inputs": [
        {
          "internalType": "uint8",
          "name": "got",
          "type": "uint8"
        },
        {
          "internalType": "uint8",
          "name": "expected",
          "type": "uint8"
        }
      ],
      "name": "InvalidEncryptedInput",
      "type": "error"
    },
    {
      "inputs": [
        {
          "internalType": "int32",
          "name": "value",
          "type": "int32"
        }
      ],
      "name": "SecurityZoneOutOfBounds",
      "type": "error"
    },
    {
      "inputs": [
        {
          "components": [
            {
              "internalType": "uint256",
              "name": "ctHash",
              "type": "uint256"
            },
            {
              "internalType": "uint8",
              "name": "securityZone",
              "type": "uint8"
            },
            {
              "internalType": "uint8",
              "name": "utype",
              "type": "uint8"
            },
            {
              "internalType": "bytes",
              "name": "signature",
              "type": "bytes"
            }
          ],
          "internalType": "struct InEuint32",
          "name": "inNumber",
          "type": "tuple"
        }
      ],
      "name": "add",
      "outputs": [],
      "stateMutability": "nonpayable",
      "type": "function"
    },
    {
      "inputs": [],
      "name": "decrypt",
      "outputs": [],
      "stateMutability": "nonpayable",
      "type": "function"
    },
    {
      "inputs": [],
      "name": "eNumber",
      "outputs": [
        {
          "internalType": "euint32",
          "name": "",
          "type": "bytes32"
        }
      ],
      "stateMutability": "view",
      "type": "function"
    },
    {
      "inputs": [],
      "name": "exists",
      "outputs": [
        {
          "internalType": "bool",
          "name": "",
          "type": "bool"
        }
      ],
      "stateMutability": "pure",
      "type": "function"
    },
    {
      "inputs": [
        {
          "internalType": "euint32",
          "name": "input1",
          "type": "bytes32"
        }
      ],
      "name": "getDecryptResult",
      "outputs": [
        {
          "internalType": "uint32",
          "name": "",
          "type": "uint32"
        }
      ],
      "stateMutability": "view",
      "type": "function"
    },
    {
      "inputs": [
        {
          "internalType": "euint32",
          "name": "input1",
          "type": "bytes32"
        }
      ],
      "name": "getDecryptResultSafe",
      "outputs": [
        {
          "internalType": "uint32",
          "name": "value",
          "type": "uint32"
        },
        {
          "internalType": "bool",
          "name": "decrypted",
          "type": "bool"
        }
      ],
      "stateMutability": "view",
      "type": "function"
    },
    {
      "inputs": [],
      "name": "increment",
      "outputs": [],
      "stateMutability": "nonpayable",
      "type": "function"
    },
    {
      "inputs": [
        {
          "components": [
            {
              "internalType": "uint256",
              "name": "ctHash",
              "type": "uint256"
            },
            {
              "internalType": "uint8",
              "name": "securityZone",
              "type": "uint8"
            },
            {
              "internalType": "uint8",
              "name": "utype",
              "type": "uint8"
            },
            {
              "internalType": "bytes",
              "name": "signature",
              "type": "bytes"
            }
          ],
          "internalType": "struct InEuint32",
          "name": "inNumber",
          "type": "tuple"
        }
      ],
      "name": "mul",
      "outputs": [],
      "stateMutability": "nonpayable",
      "type": "function"
    },
    {
      "inputs": [],
      "name": "numberHash",
      "outputs": [
        {
          "internalType": "bytes32",
          "name": "",
          "type": "bytes32"
        }
      ],
      "stateMutability": "view",
      "type": "function"
    },
    {
      "inputs": [
        {
          "internalType": "euint32",
          "name": "input",
          "type": "bytes32"
        },
        {
          "internalType": "uint32",
          "name": "result",
          "type": "uint32"
        },
        {
          "internalType": "bytes",
          "name": "signature",
          "type": "bytes"
        }
      ],
      "name": "publishDecryptResult",
      "outputs": [],
      "stateMutability": "nonpayable",
      "type": "function"
    },
    {
      "inputs": [
        {
          "components": [
            {
              "internalType": "uint256",
              "name": "ctHash",
              "type": "uint256"
            },
            {
              "internalType": "uint8",
              "name": "securityZone",
              "type": "uint8"
            },
            {
              "internalType": "uint8",
              "name": "utype",
              "type": "uint8"
            },
            {
              "internalType": "bytes",
              "name": "signature",
              "type": "bytes"
            }
          ],
          "internalType": "struct InEuint32",
          "name": "inNumber",
          "type": "tuple"
        }
      ],
      "name": "setNumber",
      "outputs": [],
      "stateMutability": "nonpayable",
      "type": "function"
    },
    {
      "inputs": [
        {
          "internalType": "uint32",
          "name": "inNumber",
          "type": "uint32"
        }
      ],
      "name": "setNumberTrivial",
      "outputs": [],
      "stateMutability": "nonpayable",
      "type": "function"
    },
    {
      "inputs": [
        {
          "components": [
            {
              "internalType": "uint256",
              "name": "ctHash",
              "type": "uint256"
            },
            {
              "internalType": "uint8",
              "name": "securityZone",
              "type": "uint8"
            },
            {
              "internalType": "uint8",
              "name": "utype",
              "type": "uint8"
            },
            {
              "internalType": "bytes",
              "name": "signature",
              "type": "bytes"
            }
          ],
          "internalType": "struct InEuint32",
          "name": "inNumber",
          "type": "tuple"
        }
      ],
      "name": "sub",
      "outputs": [],
      "stateMutability": "nonpayable",
      "type": "function"
    }
  ],
  "bytecode": "0x60808060405234601557611028908161001a8239f35b5f80fdfe6080806040526004361015610012575f80fd5b5f905f3560e01c9081631292f65a146109ff5750806319d8a05b146109e3578063260ec8891461093c578063267c4ae4146109215780633983d4301461089e578063647096091461050557806367c65174146104e757806384f091db146103da57806384ff25c6146103b45780638562354e146102ad57806388762d81146101de578063b5872e8c146101b85763d09de08a146100ad575f80fd5b346101b557806003193601126101b55780546020610132816040516100d28282610ab8565b8581525f368137604051906100e8608083610ab8565b600382526060368484013760016100fe83610f3c565b52600461010a83610f5d565b528661011583610f6d565b52604051631888debd60e01b815293849283926004808501610ec0565b0381875f516020610fd35f395f51905f525af19182156101aa578492610176575b846101696101618587610d90565b808355610cfa565b6101738154610d5b565b80f35b90809250813d83116101a3575b61018d8183610ab8565b8101031261019f575181610161610153565b5f80fd5b503d610183565b6040513d86823e3d90fd5b80fd5b50346101b5576101696101d26101cd36610b3e565b610be1565b80835580600155610cfa565b50346101b55760603660031901126101b5578060243563ffffffff81168091036102aa576044356001600160401b0381116102a857610221903690600401610ae9565b905f516020610fd35f395f51905f523b156102a85761026c9183916040519384928392631868370160e01b845260043560048501526024840152606060448401526064830190610e69565b0381835f516020610fd35f395f51905f525af1801561029d5761028c5750f35b8161029691610ab8565b6101b55780f35b6040513d84823e3d90fd5b505b50fd5b50346101b55760203660031901126101b55760043563ffffffff81168091036103b05761034390602080916040516102e58382610ab8565b8581525f368137604051916102fb608084610ab8565b600383526060368585013761030f83610f3c565b52600461031b83610f5d565b528561032683610f6d565b52604051631888debd60e01b815294859283926004808501610ec0565b0381865f516020610fd35f395f51905f525af19081156103a5578391610375575b836101698380835580600155610cfa565b905081813d831161039e575b61038b8183610ab8565b8101031261019f5761016990515f610364565b503d610381565b6040513d85823e3d90fd5b5080fd5b50346101b5576101696101616103c936610b3e565b6103d4845491610be1565b90610d90565b50346101b55761046b6103ec36610b3e565b6103f7835491610be1565b81156104d7575b80156104c9575b60405191610414606084610ab8565b60028352604036602085013761042983610f3c565b5261043382610f5d565b5260208091604051906104468383610ab8565b8582525f368137604051631888debd60e01b81529485928392600f6004808601610ef8565b0381865f516020610fd35f395f51905f525af19081156103a5578391610499575b8361016983808355610cfa565b905081813d83116104c2575b6104af8183610ab8565b8101031261019f5761016990515f61048c565b503d6104a5565b506104d2610f7d565b610405565b90506104e1610f7d565b906103fe565b50346101b557806003193601126101b5576020600154604051908152f35b50346101b5576105176101cd36610b3e565b8154811590828261088e575b811561087a575b604051926105969261053d606086610ab8565b600285526040958636602088013761055486610f3c565b5261055e85610f5d565b5260208094604051906105718383610ab8565b8882525f368137604051631888debd60e01b8152958692839260136004808601610ef8565b0381895f516020610fd35f395f51905f525af192831561086f578693610840575b506105c0610f7d565b9190831561076f575b610761575b8115610751575b604051926105e4608085610ab8565b60038452606036868601376105f884610f3c565b5261060283610f5d565b5261060c82610f6d565b52816106596040519261061f8385610ab8565b8684525f36813761066b6040519485938493631888debd60e01b855260048086015260046024860152608060448601526084850190610e8d565b83810360031901606485015290610e8d565b0381875f516020610fd35f395f51905f525af19081156101aa578491610722575b5061046b9282918554818115610712575b15610702575b604051926106b2606085610ab8565b6002845236858501376106c483610f3c565b526106ce82610f5d565b52604051906106dd8383610ab8565b8582525f368137604051631888debd60e01b8152948592839260076004808601610ef8565b905061070c610f7d565b906106a3565b905061071c610f7d565b9061069d565b90508181813d831161074a575b6107398183610ab8565b8101031261019f575161046b61068c565b503d61072f565b905061075b610f7d565b906105d5565b5061076a610f7d565b6105ce565b92506107e0846040516107828282610ab8565b8881525f36813760405190610798608083610ab8565b6003825260603684840137896107ad83610f3c565b52896107b883610f5d565b52896107c383610f6d565b52604051631888debd60e01b815293849283928c60048501610ec0565b03818a5f516020610fd35f395f51905f525af1908115610835578791610808575b50926105c9565b90508481813d831161082e575b61081f8183610ab8565b8101031261019f57515f610801565b503d610815565b6040513d89823e3d90fd5b9092508381813d8311610868575b6108588183610ab8565b8101031261019f5751915f6105b7565b503d61084e565b6040513d88823e3d90fd5b6105969150610887610f7d565b915061052a565b9250610898610f7d565b92610523565b503461019f575f36600319011261019f576001545f516020610fd35f395f51905f523b1561019f575f6108e79160405180938192630828982760e01b8352339060048401610bc8565b0381835f516020610fd35f395f51905f525af1801561091657610908575080f35b61091491505f90610ab8565b005b6040513d5f823e3d90fd5b3461019f575f36600319011261019f57602060405160018152f35b3461019f57602036600319011261019f5760405163458693c960e01b815260043560048201526040816024815f516020610fd35f395f51905f525afa8015610916575f905f9061099f575b6040925063ffffffff83519216825215156020820152f35b50506040813d6040116109db575b816109ba60409383610ab8565b8101031261019f5760208151910151801515810361019f5760409190610987565b3d91506109ad565b3461019f575f36600319011261019f5760205f54604051908152f35b3461019f57602036600319011261019f5763f6bc7f3f60e01b815260048035908201526020816024815f516020610fd35f395f51905f525afa8015610916575f90610a56575b60209063ffffffff60405191168152f35b506020813d602011610a81575b81610a7060209383610ab8565b8101031261019f5760209051610a45565b3d9150610a63565b608081019081106001600160401b03821117610aa457604052565b634e487b7160e01b5f52604160045260245ffd5b601f909101601f19168101906001600160401b03821190821017610aa457604052565b359060ff8216820361019f57565b81601f8201121561019f578035906001600160401b038211610aa45760405192610b1d601f8401601f191660200185610ab8565b8284526020838301011161019f57815f926020809301838601378301015290565b602060031982011261019f576004356001600160401b03811161019f576080818303600319011261019f5760405191610b7683610a89565b81600401358352610b8960248301610adb565b6020840152610b9a60448301610adb565b60408401526064820135916001600160401b03831161019f57610bc09201600401610ae9565b606082015290565b9081526001600160a01b03909116602082015260400190565b60ff60408201511660048103610ce35750602060ff91606080604051610c0681610a89565b5f81525f858201525f604082015201528051610c8a606085858501511693015160405192610c3384610a89565b83528483019384528560408401600481526060850192835260405197889687966313fce3b160e11b885260406004890152516044880152511660648601525116608484015251608060a484015260c4830190610e69565b33602483015203815f5f516020610fd35f395f51905f525af1908115610916575f91610cb4575090565b90506020813d602011610cdb575b81610ccf60209383610ab8565b8101031261019f575190565b3d9150610cc2565b6367cf307160e01b5f52600452600460245260445ffd5b5f516020610fd35f395f51905f523b1561019f575f610d2f9160405180938192631974142760e21b8352309060048401610bc8565b0381835f516020610fd35f395f51905f525af1801561091657610d4f5750565b5f610d5991610ab8565b565b5f516020610fd35f395f51905f523b1561019f575f610d2f9160405180938192631974142760e21b8352339060048401610bc8565b908115610e59575b8015610e4b575b60405191610dae606084610ab8565b600283526040366020850137610dc383610f3c565b52610dcd82610f5d565b52610e086020809260405190610de38383610ab8565b5f82525f368137604051631888debd60e01b8152938492839260086004808601610ef8565b03815f5f516020610fd35f395f51905f525af1918215610916575f92610e2d57505090565b90809250813d8311610e44575b610ccf8183610ab8565b503d610e3a565b50610e54610f7d565b610d9f565b9050610e63610f7d565b90610d98565b805180835260209291819084018484015e5f828201840152601f01601f1916010190565b90602080835192838152019201905f5b818110610eaa5750505090565b8251845260209384019390920191600101610e9d565b91610ee79060ff610ef59593168452601a6020850152608060408501526080840190610e8d565b916060818403910152610e8d565b90565b9293919060ff1683526020811015610f2857610ef593610ee7916020850152608060408501526080840190610e8d565b634e487b7160e01b5f52602160045260245ffd5b805115610f495760200190565b634e487b7160e01b5f52603260045260245ffd5b805160011015610f495760400190565b805160021015610f495760600190565b6020610e0881604051610f908282610ab8565b5f81525f36813760405190610fa6608083610ab8565b60038252606036848401375f610fbb83610f3c565b526004610fc783610f5d565b525f61011583610f6d56fe000000000000000000000000ea30c4b8b44078bbf8a6ef5b9f1ec1626c7848d9a26469706673582212204e76e27b9205ee4f3fe4079317735e13e14cab53fa7dc6421591f50dd546bddf64736f6c634300081c0033",
  "linkReferences": {},
  "deployedLinkReferences": {}
}