{
  "_format": "hh-sol-artifact-1",
  "contractName": "TestBed",
  "sourceName": "@cofhe/mock-contracts/contracts/TestBed.sol",
  "abi": [
    {
      "inputs": [
        {
          "internalType": "uint8",
          "name": "got",
          "type": "uint8"
        },
        {
          "internalType": "uint8",
          "name": "expected",
          "type": "uint8"
        }
      ],
      "name": "InvalidEncryptedInput",
      "type": "error"
    },
    {
      "inputs": [
        {
          "internalType": "int32",
          "name": "value",
          "type": "int32"
        }
      ],
      "name": "SecurityZoneOutOfBounds",
      "type": "error"
    },
    {
      "inputs": [
        {
          "components": [
            {
              "internalType": "uint256",
              "name": "ctHash",
              "type": "uint256"
            },
            {
              "internalType": "uint8",
              "name": "securityZone",
              "type": "uint8"
            },
            {
              "internalType": "uint8",
              "name": "utype",
              "type": "uint8"
            },
            {
              "internalType": "bytes",
              "name": "signature",
              "type": "bytes"
            }
          ],
          "internalType": "struct InEuint32",
          "name": "inNumber",
          "type": "tuple"
        }
      ],
      "name": "add",
      "outputs": [],
      "stateMutability": "nonpayable",
      "type": "function"
    },
    {
      "inputs": [],
      "name": "decrypt",
      "outputs": [],
      "stateMutability": "nonpayable",
      "type": "function"
    },
    {
      "inputs": [],
      "name": "eNumber",
      "outputs": [
        {
          "internalType": "euint32",
          "name": "",
          "type": "bytes32"
        }
      ],
      "stateMutability": "view",
      "type": "function"
    },
    {
      "inputs": [],
      "name": "exists",
      "outputs": [
        {
          "internalType": "bool",
          "name": "",
          "type": "bool"
        }
      ],
      "stateMutability": "pure",
      "type": "function"
    },
    {
      "inputs": [
        {
          "internalType": "euint32",
          "name": "input1",
          "type": "bytes32"
        }
      ],
      "name": "getDecryptResult",
      "outputs": [
        {
          "internalType": "uint32",
          "name": "",
          "type": "uint32"
        }
      ],
      "stateMutability": "view",
      "type": "function"
    },
    {
      "inputs": [
        {
          "internalType": "euint32",
          "name": "input1",
          "type": "bytes32"
        }
      ],
      "name": "getDecryptResultSafe",
      "outputs": [
        {
          "internalType": "uint32",
          "name": "value",
          "type": "uint32"
        },
        {
          "internalType": "bool",
          "name": "decrypted",
          "type": "bool"
        }
      ],
      "stateMutability": "view",
      "type": "function"
    },
    {
      "inputs": [],
      "name": "increment",
      "outputs": [],
      "stateMutability": "nonpayable",
      "type": "function"
    },
    {
      "inputs": [
        {
          "components": [
            {
              "internalType": "uint256",
              "name": "ctHash",
              "type": "uint256"
            },
            {
              "internalType": "uint8",
              "name": "securityZone",
              "type": "uint8"
            },
            {
              "internalType": "uint8",
              "name": "utype",
              "type": "uint8"
            },
            {
              "internalType": "bytes",
              "name": "signature",
              "type": "bytes"
            }
          ],
          "internalType": "struct InEuint32",
          "name": "inNumber",
          "type": "tuple"
        }
      ],
      "name": "mul",
      "outputs": [],
      "stateMutability": "nonpayable",
      "type": "function"
    },
    {
      "inputs": [],
      "name": "numberHash",
      "outputs": [
        {
          "internalType": "bytes32",
          "name": "",
          "type": "bytes32"
        }
      ],
      "stateMutability": "view",
      "type": "function"
    },
    {
      "inputs": [
        {
          "internalType": "euint32",
          "name": "input",
          "type": "bytes32"
        },
        {
          "internalType": "uint32",
          "name": "result",
          "type": "uint32"
        },
        {
          "internalType": "bytes",
          "name": "signature",
          "type": "bytes"
        }
      ],
      "name": "publishDecryptResult",
      "outputs": [],
      "stateMutability": "nonpayable",
      "type": "function"
    },
    {
      "inputs": [
        {
          "components": [
            {
              "internalType": "uint256",
              "name": "ctHash",
              "type": "uint256"
            },
            {
              "internalType": "uint8",
              "name": "securityZone",
              "type": "uint8"
            },
            {
              "internalType": "uint8",
              "name": "utype",
              "type": "uint8"
            },
            {
              "internalType": "bytes",
              "name": "signature",
              "type": "bytes"
            }
          ],
          "internalType": "struct InEuint32",
          "name": "inNumber",
          "type": "tuple"
        }
      ],
      "name": "setNumber",
      "outputs": [],
      "stateMutability": "nonpayable",
      "type": "function"
    },
    {
      "inputs": [
        {
          "internalType": "uint32",
          "name": "inNumber",
          "type": "uint32"
        }
      ],
      "name": "setNumberTrivial",
      "outputs": [],
      "stateMutability": "nonpayable",
      "type": "function"
    },
    {
      "inputs": [
        {
          "components": [
            {
              "internalType": "uint256",
              "name": "ctHash",
              "type": "uint256"
            },
            {
              "internalType": "uint8",
              "name": "securityZone",
              "type": "uint8"
            },
            {
              "internalType": "uint8",
              "name": "utype",
              "type": "uint8"
            },
            {
              "internalType": "bytes",
              "name": "signature",
              "type": "bytes"
            }
          ],
          "internalType": "struct InEuint32",
          "name": "inNumber",
          "type": "tuple"
        }
      ],
      "name": "sub",
      "outputs": [],
      "stateMutability": "nonpayable",
      "type": "function"
    }
  ],
  "bytecode": "0x60808060405234601557611018908161001a8239f35b5f80fdfe6080806040526004361015610012575f80fd5b5f905f3560e01c9081631292f65a146109fd5750806319d8a05b146109e1578063260ec8891461093a578063267c4ae41461091f5780633983d4301461089f578063647096091461050657806367c65174146104e857806384f091db146103db57806384ff25c6146103b55780638562354e146102ae57806388762d81146101de578063b5872e8c146101b85763d09de08a146100ad575f80fd5b346101b557806003193601126101b55780546020610132816040516100d28282610ab7565b8581525f368137604051906100e8608083610ab7565b600382526060368484013760016100fe83610f2c565b52600461010a83610f4d565b528661011583610f5d565b52604051631888debd60e01b815293849283926004808501610eb0565b0381875f516020610fc35f395f51905f525af19182156101aa578492610176575b846101696101618587610d80565b808355610ce2565b6101738154610d45565b80f35b90809250813d83116101a3575b61018d8183610ab7565b8101031261019f575181610161610153565b5f80fd5b503d610183565b6040513d86823e3d90fd5b80fd5b50346101b5576101696101d26101cd36610b3d565b610bc9565b80835580600155610ce2565b50346101b55760603660031901126101b5578060243563ffffffff81168091036102ab5760443567ffffffffffffffff81116102a957610222903690600401610ae7565b905f516020610fc35f395f51905f523b156102a95761026d9183916040519384928392631868370160e01b845260043560048501526024840152606060448401526064830190610e59565b0381835f516020610fc35f395f51905f525af1801561029e5761028d5750f35b8161029791610ab7565b6101b55780f35b6040513d84823e3d90fd5b505b50fd5b50346101b55760203660031901126101b55760043563ffffffff81168091036103b15761034490602080916040516102e68382610ab7565b8581525f368137604051916102fc608084610ab7565b600383526060368585013761031083610f2c565b52600461031c83610f4d565b528561032783610f5d565b52604051631888debd60e01b815294859283926004808501610eb0565b0381865f516020610fc35f395f51905f525af19081156103a6578391610376575b836101698380835580600155610ce2565b905081813d831161039f575b61038c8183610ab7565b8101031261019f5761016990515f610365565b503d610382565b6040513d85823e3d90fd5b5080fd5b50346101b5576101696101616103ca36610b3d565b6103d5845491610bc9565b90610d80565b50346101b55761046c6103ed36610b3d565b6103f8835491610bc9565b81156104d8575b80156104ca575b60405191610415606084610ab7565b60028352604036602085013761042a83610f2c565b5261043482610f4d565b5260208091604051906104478383610ab7565b8582525f368137604051631888debd60e01b81529485928392600f6004808601610ee8565b0381865f516020610fc35f395f51905f525af19081156103a657839161049a575b8361016983808355610ce2565b905081813d83116104c3575b6104b08183610ab7565b8101031261019f5761016990515f61048d565b503d6104a6565b506104d3610f6d565b610406565b90506104e2610f6d565b906103ff565b50346101b557806003193601126101b5576020600154604051908152f35b50346101b5576105186101cd36610b3d565b8154811590828261088f575b811561087b575b604051926105979261053e606086610ab7565b600285526040958636602088013761055586610f2c565b5261055f85610f4d565b5260208094604051906105728383610ab7565b8882525f368137604051631888debd60e01b8152958692839260136004808601610ee8565b0381895f516020610fc35f395f51905f525af1928315610870578693610841575b506105c1610f6d565b91908315610770575b610762575b8115610752575b604051926105e5608085610ab7565b60038452606036868601376105f984610f2c565b5261060383610f4d565b5261060d82610f5d565b528161065a604051926106208385610ab7565b8684525f36813761066c6040519485938493631888debd60e01b855260048086015260046024860152608060448601526084850190610e7d565b83810360031901606485015290610e7d565b0381875f516020610fc35f395f51905f525af19081156101aa578491610723575b5061046c9282918554818115610713575b15610703575b604051926106b3606085610ab7565b6002845236858501376106c583610f2c565b526106cf82610f4d565b52604051906106de8383610ab7565b8582525f368137604051631888debd60e01b8152948592839260076004808601610ee8565b905061070d610f6d565b906106a4565b905061071d610f6d565b9061069e565b90508181813d831161074b575b61073a8183610ab7565b8101031261019f575161046c61068d565b503d610730565b905061075c610f6d565b906105d6565b5061076b610f6d565b6105cf565b92506107e1846040516107838282610ab7565b8881525f36813760405190610799608083610ab7565b6003825260603684840137896107ae83610f2c565b52896107b983610f4d565b52896107c483610f5d565b52604051631888debd60e01b815293849283928c60048501610eb0565b03818a5f516020610fc35f395f51905f525af1908115610836578791610809575b50926105ca565b90508481813d831161082f575b6108208183610ab7565b8101031261019f57515f610802565b503d610816565b6040513d89823e3d90fd5b9092508381813d8311610869575b6108598183610ab7565b8101031261019f5751915f6105b8565b503d61084f565b6040513d88823e3d90fd5b6105979150610888610f6d565b915061052b565b9250610899610f6d565b92610524565b503461019f575f36600319011261019f576001545f516020610fc35f395f51905f523b1561019f57604051630828982760e01b815260048101919091523360248201525f81604481835f516020610fc35f395f51905f525af1801561091457610906575080f35b61091291505f90610ab7565b005b6040513d5f823e3d90fd5b3461019f575f36600319011261019f57602060405160018152f35b3461019f57602036600319011261019f5760405163458693c960e01b815260043560048201526040816024815f516020610fc35f395f51905f525afa8015610914575f905f9061099d575b6040925063ffffffff83519216825215156020820152f35b50506040813d6040116109d9575b816109b860409383610ab7565b8101031261019f5760208151910151801515810361019f5760409190610985565b3d91506109ab565b3461019f575f36600319011261019f5760205f54604051908152f35b3461019f57602036600319011261019f5763f6bc7f3f60e01b815260048035908201526020816024815f516020610fc35f395f51905f525afa8015610914575f90610a54575b60209063ffffffff60405191168152f35b506020813d602011610a7f575b81610a6e60209383610ab7565b8101031261019f5760209051610a43565b3d9150610a61565b6080810190811067ffffffffffffffff821117610aa357604052565b634e487b7160e01b5f52604160045260245ffd5b90601f8019910116810190811067ffffffffffffffff821117610aa357604052565b359060ff8216820361019f57565b81601f8201121561019f5780359067ffffffffffffffff8211610aa35760405192610b1c601f8401601f191660200185610ab7565b8284526020838301011161019f57815f926020809301838601378301015290565b602060031982011261019f5760043567ffffffffffffffff811161019f576080818303600319011261019f5760405191610b7683610a87565b81600401358352610b8960248301610ad9565b6020840152610b9a60448301610ad9565b604084015260648201359167ffffffffffffffff831161019f57610bc19201600401610ae7565b606082015290565b60ff60408201511660048103610ccb5750602060ff91606080604051610bee81610a87565b5f81525f858201525f604082015201528051610c72606085858501511693015160405192610c1b84610a87565b83528483019384528560408401600481526060850192835260405197889687966313fce3b160e11b885260406004890152516044880152511660648601525116608484015251608060a484015260c4830190610e59565b33602483015203815f5f516020610fc35f395f51905f525af1908115610914575f91610c9c575090565b90506020813d602011610cc3575b81610cb760209383610ab7565b8101031261019f575190565b3d9150610caa565b6367cf307160e01b5f52600452600460245260445ffd5b5f516020610fc35f395f51905f523b1561019f57604051631974142760e21b815260048101919091523060248201525f8180604481015b0381835f516020610fc35f395f51905f525af1801561091457610d395750565b5f610d4391610ab7565b565b5f516020610fc35f395f51905f523b1561019f57604051631974142760e21b815260048101919091523360248201525f818060448101610d19565b908115610e49575b8015610e3b575b60405191610d9e606084610ab7565b600283526040366020850137610db383610f2c565b52610dbd82610f4d565b52610df86020809260405190610dd38383610ab7565b5f82525f368137604051631888debd60e01b8152938492839260086004808601610ee8565b03815f5f516020610fc35f395f51905f525af1918215610914575f92610e1d57505090565b90809250813d8311610e34575b610cb78183610ab7565b503d610e2a565b50610e44610f6d565b610d8f565b9050610e53610f6d565b90610d88565b805180835260209291819084018484015e5f828201840152601f01601f1916010190565b90602080835192838152019201905f5b818110610e9a5750505090565b8251845260209384019390920191600101610e8d565b91610ed79060ff610ee59593168452601a6020850152608060408501526080840190610e7d565b916060818403910152610e7d565b90565b9293919060ff1683526020811015610f1857610ee593610ed7916020850152608060408501526080840190610e7d565b634e487b7160e01b5f52602160045260245ffd5b805115610f395760200190565b634e487b7160e01b5f52603260045260245ffd5b805160011015610f395760400190565b805160021015610f395760600190565b6020610df881604051610f808282610ab7565b5f81525f36813760405190610f96608083610ab7565b60038252606036848401375f610fab83610f2c565b526004610fb783610f4d565b525f61011583610f5d56fe000000000000000000000000ea30c4b8b44078bbf8a6ef5b9f1ec1626c7848d9a2646970667358221220132e191ee55e775e3d5934a7be812745be4436c80edddc830d81388bdeac485464736f6c634300081c0033",
  "linkReferences": {},
  "deployedLinkReferences": {}
}