{
  "_format": "hh-sol-artifact-1",
  "contractName": "MockThresholdNetwork",
  "sourceName": "@cofhe/mock-contracts/contracts/MockThresholdNetwork.sol",
  "abi": [
    {
      "inputs": [],
      "name": "NotAllowed",
      "type": "error"
    },
    {
      "inputs": [],
      "name": "SealingKeyInvalid",
      "type": "error"
    },
    {
      "inputs": [],
      "name": "SealingKeyMissing",
      "type": "error"
    },
    {
      "inputs": [
        {
          "internalType": "bytes",
          "name": "data",
          "type": "bytes"
        }
      ],
      "name": "decodeLowLevelReversion",
      "outputs": [
        {
          "internalType": "string",
          "name": "error",
          "type": "string"
        }
      ],
      "stateMutability": "pure",
      "type": "function"
    },
    {
      "inputs": [
        {
          "internalType": "uint256",
          "name": "ctHash",
          "type": "uint256"
        },
        {
          "components": [
            {
              "internalType": "address",
              "name": "issuer",
              "type": "address"
            },
            {
              "internalType": "uint64",
              "name": "expiration",
              "type": "uint64"
            },
            {
              "internalType": "address",
              "name": "recipient",
              "type": "address"
            },
            {
              "internalType": "uint256",
              "name": "validatorId",
              "type": "uint256"
            },
            {
              "internalType": "address",
              "name": "validatorContract",
              "type": "address"
            },
            {
              "internalType": "bytes32",
              "name": "sealingKey",
              "type": "bytes32"
            },
            {
              "internalType": "bytes",
              "name": "issuerSignature",
              "type": "bytes"
            },
            {
              "internalType": "bytes",
              "name": "recipientSignature",
              "type": "bytes"
            }
          ],
          "internalType": "struct Permission",
          "name": "permission",
          "type": "tuple"
        }
      ],
      "name": "decryptForTxWithPermit",
      "outputs": [
        {
          "internalType": "bool",
          "name": "allowed",
          "type": "bool"
        },
        {
          "internalType": "string",
          "name": "error",
          "type": "string"
        },
        {
          "internalType": "uint256",
          "name": "decryptedValue",
          "type": "uint256"
        }
      ],
      "stateMutability": "view",
      "type": "function"
    },
    {
      "inputs": [
        {
          "internalType": "uint256",
          "name": "ctHash",
          "type": "uint256"
        }
      ],
      "name": "decryptForTxWithoutPermit",
      "outputs": [
        {
          "internalType": "bool",
          "name": "allowed",
          "type": "bool"
        },
        {
          "internalType": "string",
          "name": "error",
          "type": "string"
        },
        {
          "internalType": "uint256",
          "name": "decryptedValue",
          "type": "uint256"
        }
      ],
      "stateMutability": "view",
      "type": "function"
    },
    {
      "inputs": [],
      "name": "exists",
      "outputs": [
        {
          "internalType": "bool",
          "name": "",
          "type": "bool"
        }
      ],
      "stateMutability": "pure",
      "type": "function"
    },
    {
      "inputs": [
        {
          "internalType": "address",
          "name": "_taskManager",
          "type": "address"
        },
        {
          "internalType": "address",
          "name": "_acl",
          "type": "address"
        }
      ],
      "name": "initialize",
      "outputs": [],
      "stateMutability": "nonpayable",
      "type": "function"
    },
    {
      "inputs": [],
      "name": "mockAcl",
      "outputs": [
        {
          "internalType": "contract MockACL",
          "name": "",
          "type": "address"
        }
      ],
      "stateMutability": "view",
      "type": "function"
    },
    {
      "inputs": [
        {
          "internalType": "uint256",
          "name": "ctHash",
          "type": "uint256"
        },
        {
          "internalType": "uint256",
          "name": "",
          "type": "uint256"
        },
        {
          "internalType": "address",
          "name": "issuer",
          "type": "address"
        }
      ],
      "name": "mockQueryDecrypt",
      "outputs": [
        {
          "internalType": "bool",
          "name": "allowed",
          "type": "bool"
        },
        {
          "internalType": "string",
          "name": "error",
          "type": "string"
        },
        {
          "internalType": "uint256",
          "name": "",
          "type": "uint256"
        }
      ],
      "stateMutability": "view",
      "type": "function"
    },
    {
      "inputs": [],
      "name": "mockTaskManager",
      "outputs": [
        {
          "internalType": "contract MockTaskManager",
          "name": "",
          "type": "address"
        }
      ],
      "stateMutability": "view",
      "type": "function"
    },
    {
      "inputs": [
        {
          "internalType": "uint256",
          "name": "ctHash",
          "type": "uint256"
        },
        {
          "internalType": "uint256",
          "name": "",
          "type": "uint256"
        },
        {
          "components": [
            {
              "internalType": "address",
              "name": "issuer",
              "type": "address"
            },
            {
              "internalType": "uint64",
              "name": "expiration",
              "type": "uint64"
            },
            {
              "internalType": "address",
              "name": "recipient",
              "type": "address"
            },
            {
              "internalType": "uint256",
              "name": "validatorId",
              "type": "uint256"
            },
            {
              "internalType": "address",
              "name": "validatorContract",
              "type": "address"
            },
            {
              "internalType": "bytes32",
              "name": "sealingKey",
              "type": "bytes32"
            },
            {
              "internalType": "bytes",
              "name": "issuerSignature",
              "type": "bytes"
            },
            {
              "internalType": "bytes",
              "name": "recipientSignature",
              "type": "bytes"
            }
          ],
          "internalType": "struct Permission",
          "name": "permission",
          "type": "tuple"
        }
      ],
      "name": "queryDecrypt",
      "outputs": [
        {
          "internalType": "bool",
          "name": "allowed",
          "type": "bool"
        },
        {
          "internalType": "string",
          "name": "error",
          "type": "string"
        },
        {
          "internalType": "uint256",
          "name": "",
          "type": "uint256"
        }
      ],
      "stateMutability": "view",
      "type": "function"
    },
    {
      "inputs": [
        {
          "internalType": "uint256",
          "name": "ctHash",
          "type": "uint256"
        },
        {
          "internalType": "uint256",
          "name": "",
          "type": "uint256"
        },
        {
          "components": [
            {
              "internalType": "address",
              "name": "issuer",
              "type": "address"
            },
            {
              "internalType": "uint64",
              "name": "expiration",
              "type": "uint64"
            },
            {
              "internalType": "address",
              "name": "recipient",
              "type": "address"
            },
            {
              "internalType": "uint256",
              "name": "validatorId",
              "type": "uint256"
            },
            {
              "internalType": "address",
              "name": "validatorContract",
              "type": "address"
            },
            {
              "internalType": "bytes32",
              "name": "sealingKey",
              "type": "bytes32"
            },
            {
              "internalType": "bytes",
              "name": "issuerSignature",
              "type": "bytes"
            },
            {
              "internalType": "bytes",
              "name": "recipientSignature",
              "type": "bytes"
            }
          ],
          "internalType": "struct Permission",
          "name": "permission",
          "type": "tuple"
        }
      ],
      "name": "querySealOutput",
      "outputs": [
        {
          "internalType": "bool",
          "name": "allowed",
          "type": "bool"
        },
        {
          "internalType": "string",
          "name": "error",
          "type": "string"
        },
        {
          "internalType": "bytes32",
          "name": "",
          "type": "bytes32"
        }
      ],
      "stateMutability": "view",
      "type": "function"
    },
    {
      "inputs": [
        {
          "internalType": "uint256",
          "name": "input",
          "type": "uint256"
        },
        {
          "internalType": "bytes32",
          "name": "key",
          "type": "bytes32"
        }
      ],
      "name": "seal",
      "outputs": [
        {
          "internalType": "bytes32",
          "name": "",
          "type": "bytes32"
        }
      ],
      "stateMutability": "pure",
      "type": "function"
    },
    {
      "inputs": [
        {
          "internalType": "bytes32",
          "name": "hashed",
          "type": "bytes32"
        },
        {
          "internalType": "bytes32",
          "name": "key",
          "type": "bytes32"
        }
      ],
      "name": "unseal",
      "outputs": [
        {
          "internalType": "uint256",
          "name": "",
          "type": "uint256"
        }
      ],
      "stateMutability": "pure",
      "type": "function"
    }
  ],
  "bytecode": "0x60808060405234601557610d60908161001a8239f35b5f80fdfe60806040526004361015610011575f80fd5b5f3560e01c806309ba3156146102aa5780631a1992a9146101b1578063267c4ae41461028f578063485cc955146102215780634cdc014d146101f95780637e0f4b5b146101d25780638a5c8c7f146101b15780638ca07b4814610172578063a02eb5341461013f578063a0639f5414610123578063b4bc28f8146100f55763ff6957d31461009d575f80fd5b346100f15760203660031901126100f15760043567ffffffffffffffff81116100f1576100d96100d46100ed923690600401610352565b610a53565b6040519182916020835260208301906104a4565b0390f35b5f80fd5b346100f15760203660031901126100f1576100ed610114600435610a4a565b604093919351938493846104c8565b346100f1576100ed6101146101373661046e565b919050610a00565b346100f15760603660031901126100f1576044356001600160a01b03811681036100f1576101146100ed91600435610937565b346100f15760403660031901126100f15760243567ffffffffffffffff81116100f1576101146101a96100ed923690600401610398565b600435610857565b346100f15760403660031901126100f1576020604051602435600435188152f35b346100f1575f3660031901126100f1575f546040516001600160a01b039091168152602090f35b346100f1575f3660031901126100f1576001546040516001600160a01b039091168152602090f35b346100f15760403660031901126100f1576004356001600160a01b038116908190036100f1576024356001600160a01b03811691908290036100f1576bffffffffffffffffffffffff60a01b5f5416175f556bffffffffffffffffffffffff60a01b60015416176001555f80f35b346100f1575f3660031901126100f157602060405160018152f35b346100f1576102c36102bb3661046e565b9190506106c2565b604051921515835260606020840181905283926102e2918401906104a4565b9060408301520390f35b90601f8019910116810190811067ffffffffffffffff82111761030e57604052565b634e487b7160e01b5f52604160045260245ffd5b35906001600160a01b03821682036100f157565b67ffffffffffffffff811161030e57601f01601f191660200190565b81601f820112156100f15780359061036982610336565b9261037760405194856102ec565b828452602083830101116100f157815f926020809301838601378301015290565b9190610100838203126100f15760405190610100820182811067ffffffffffffffff82111761030e5760405281936103cf81610322565b8352602081013567ffffffffffffffff811681036100f15760208401526103f860408201610322565b60408401526060810135606084015261041360808201610322565b608084015260a081013560a084015260c081013567ffffffffffffffff81116100f15782610442918301610352565b60c084015260e08101359167ffffffffffffffff83116100f15760e0926104699201610352565b910152565b60606003198201126100f15760043591602435916044359067ffffffffffffffff82116100f1576104a191600401610398565b90565b805180835260209291819084018484015e5f828201840152601f01601f1916010190565b9392916104e790604092151586526060602087015260608601906104a4565b930152565b908160209103126100f1575180151581036100f15790565b9291906104e76020916040865260018060a01b03815116604087015267ffffffffffffffff8382015116606087015260018060a01b036040820151166080870152606081015160a087015260018060a01b0360808201511660c087015260a081015160e087015260e061058760c0830151610100808a01526101408901906104a4565b910151868203603f19016101208801526104a4565b5f9060033d116105a857565b905060045f803e5f5160e01c90565b5f60443d106104a1576040513d600319016004823e8051913d602484011167ffffffffffffffff841117610625578282019283519167ffffffffffffffff831161061d573d8401600319018584016020011161061d57506104a1929101602001906102ec565b949350505050565b92915050565b5f5f9160233d1161063857565b915050602060045f3e5f51600191565b604051906106576040836102ec565b600582526450616e696360d81b6020830152565b3d15610695573d9061067c82610336565b9161068a60405193846102ec565b82523d5f602084013e565b606090565b604051906106a96040836102ec565b600a825269139bdd105b1b1bddd95960b21b6020830152565b9060a0810190815115610848576020836106fe9260018060a01b03600154169060405180958194829363573cf82560e11b845260048401610504565b03915afa5f9181610817575b506107725750505061071a61059c565b806308c379a01461075e57634e487b7114610741575b61073b6100d461066b565b5f918290565b61074961062b565b5015610730575f90610759610648565b905f90565b506107676105b7565b8061073b5750610730565b1561080b575f54604051631c76642b60e01b81526004810193909352602090839060249082906001600160a01b03165afa918215610800575f926107cc575b5051186001916040516107c56020826102ec565b5f81529190565b9091506020813d6020116107f8575b816107e8602093836102ec565b810103126100f15751905f6107b1565b3d91506107db565b6040513d5f823e3d90fd5b50505f9061075961069a565b61083a91925060203d602011610841575b61083281836102ec565b8101906104ec565b905f61070a565b503d610828565b6316f124db60e31b5f5260045ffd5b81519091906001600160a01b031615610902576108749082610c05565b90156108f957505f54604051631c76642b60e01b81526004810192909252602090829060249082906001600160a01b03165afa908115610800575f916108c7575b506001916040516107c56020826102ec565b90506020813d6020116108f1575b816108e2602093836102ec565b810103126100f157515f6108b5565b3d91506108d5565b5f929091508290565b50505f906040516109146040826102ec565b60118152705065726d697373696f6e4d697373696e6760781b6020820152905f90565b600154604051632fd514cd60e11b8152600481018390526001600160a01b039384166024820152919260209183916044918391165afa5f91816109df575b5061098457505061071a61059c565b156109d4575f54604051631c76642b60e01b81526004810192909252602090829060249082906001600160a01b03165afa908115610800575f916108c757506001916040516107c56020826102ec565b505f9061075961069a565b6109f991925060203d6020116108415761083281836102ec565b905f610975565b90602082610a309260018060a01b03600154169060405180958194829363573cf82560e11b845260048401610504565b03915afa5f91816109df575061098457505061071a61059c565b61087481610ce8565b602081519101519063ffffffff60e01b82169160048210610be5575b50506001600160e01b03191663ed0764a160e01b8114610ba957634c40eccb60e01b8114610b6357638e143bf760e01b8114610b1a576365e9d4b360e11b14610adf57604051610ac06040826102ec565b600f81526e2637bb902632bb32b61022b93937b960891b602082015290565b604051610aed6040826102ec565b601a81527f5065726d697373696f6e496e76616c69645f44697361626c6564000000000000602082015290565b50604051610b296060826102ec565b602481527f5065726d697373696f6e496e76616c69645f526563697069656e745369676e616020820152637475726560e01b604082015290565b50604051610b726060826102ec565b602181527f5065726d697373696f6e496e76616c69645f4973737565725369676e617475726020820152606560f81b604082015290565b50604051610bb86040826102ec565b601981527f5065726d697373696f6e496e76616c69645f4578706972656400000000000000602082015290565b6001600160e01b031960049290920360031b82901b161690505f80610a6f565b5f5460405163573cf82560e11b81529260209284926001600160a01b03169183918291610c36919060048401610504565b03915afa5f9181610cc7575b50610ca15750610c5061059c565b806308c379a014610c8d57634e487b7114610c75575b610c716100d461066b565b5f91565b610c7d61062b565b5015610c66575f906104a1610648565b50610c966105b7565b80610c715750610c66565b15610cbd57600190604051610cb76020826102ec565b5f815290565b5f906104a161069a565b610ce191925060203d6020116108415761083281836102ec565b905f610c42565b600154604051632536461360e21b81526004810192909252602090829060249082906001600160a01b03165afa5f9181610cc75750610ca15750610c5061059c56fea264697066735822122059cfa602ec4b3fad57a9f749a0fdba4e2e21e77829d3cba5940fb73652b90bac64736f6c634300081c0033",
  "linkReferences": {},
  "deployedLinkReferences": {}
}