{
  "_format": "hh-sol-artifact-1",
  "contractName": "MockThresholdNetwork",
  "sourceName": "@cofhe/mock-contracts/contracts/MockThresholdNetwork.sol",
  "abi": [
    {
      "inputs": [],
      "name": "NotAllowed",
      "type": "error"
    },
    {
      "inputs": [],
      "name": "SealingKeyInvalid",
      "type": "error"
    },
    {
      "inputs": [],
      "name": "SealingKeyMissing",
      "type": "error"
    },
    {
      "inputs": [
        {
          "internalType": "bytes",
          "name": "data",
          "type": "bytes"
        }
      ],
      "name": "decodeLowLevelReversion",
      "outputs": [
        {
          "internalType": "string",
          "name": "error",
          "type": "string"
        }
      ],
      "stateMutability": "pure",
      "type": "function"
    },
    {
      "inputs": [
        {
          "internalType": "uint256",
          "name": "ctHash",
          "type": "uint256"
        },
        {
          "components": [
            {
              "internalType": "address",
              "name": "issuer",
              "type": "address"
            },
            {
              "internalType": "uint64",
              "name": "expiration",
              "type": "uint64"
            },
            {
              "internalType": "address",
              "name": "recipient",
              "type": "address"
            },
            {
              "internalType": "uint256",
              "name": "validatorId",
              "type": "uint256"
            },
            {
              "internalType": "address",
              "name": "validatorContract",
              "type": "address"
            },
            {
              "internalType": "bytes32",
              "name": "sealingKey",
              "type": "bytes32"
            },
            {
              "internalType": "bytes",
              "name": "issuerSignature",
              "type": "bytes"
            },
            {
              "internalType": "bytes",
              "name": "recipientSignature",
              "type": "bytes"
            }
          ],
          "internalType": "struct Permission",
          "name": "permission",
          "type": "tuple"
        }
      ],
      "name": "decryptForTxWithPermit",
      "outputs": [
        {
          "internalType": "bool",
          "name": "allowed",
          "type": "bool"
        },
        {
          "internalType": "string",
          "name": "error",
          "type": "string"
        },
        {
          "internalType": "uint256",
          "name": "decryptedValue",
          "type": "uint256"
        }
      ],
      "stateMutability": "view",
      "type": "function"
    },
    {
      "inputs": [
        {
          "internalType": "uint256",
          "name": "ctHash",
          "type": "uint256"
        }
      ],
      "name": "decryptForTxWithoutPermit",
      "outputs": [
        {
          "internalType": "bool",
          "name": "allowed",
          "type": "bool"
        },
        {
          "internalType": "string",
          "name": "error",
          "type": "string"
        },
        {
          "internalType": "uint256",
          "name": "decryptedValue",
          "type": "uint256"
        }
      ],
      "stateMutability": "view",
      "type": "function"
    },
    {
      "inputs": [],
      "name": "exists",
      "outputs": [
        {
          "internalType": "bool",
          "name": "",
          "type": "bool"
        }
      ],
      "stateMutability": "pure",
      "type": "function"
    },
    {
      "inputs": [
        {
          "internalType": "address",
          "name": "_taskManager",
          "type": "address"
        },
        {
          "internalType": "address",
          "name": "_acl",
          "type": "address"
        }
      ],
      "name": "initialize",
      "outputs": [],
      "stateMutability": "nonpayable",
      "type": "function"
    },
    {
      "inputs": [],
      "name": "mockAcl",
      "outputs": [
        {
          "internalType": "contract MockACL",
          "name": "",
          "type": "address"
        }
      ],
      "stateMutability": "view",
      "type": "function"
    },
    {
      "inputs": [
        {
          "internalType": "uint256",
          "name": "ctHash",
          "type": "uint256"
        },
        {
          "internalType": "uint256",
          "name": "",
          "type": "uint256"
        },
        {
          "internalType": "address",
          "name": "issuer",
          "type": "address"
        }
      ],
      "name": "mockQueryDecrypt",
      "outputs": [
        {
          "internalType": "bool",
          "name": "allowed",
          "type": "bool"
        },
        {
          "internalType": "string",
          "name": "error",
          "type": "string"
        },
        {
          "internalType": "uint256",
          "name": "",
          "type": "uint256"
        }
      ],
      "stateMutability": "view",
      "type": "function"
    },
    {
      "inputs": [],
      "name": "mockTaskManager",
      "outputs": [
        {
          "internalType": "contract MockTaskManager",
          "name": "",
          "type": "address"
        }
      ],
      "stateMutability": "view",
      "type": "function"
    },
    {
      "inputs": [
        {
          "internalType": "uint256",
          "name": "ctHash",
          "type": "uint256"
        },
        {
          "internalType": "uint256",
          "name": "",
          "type": "uint256"
        },
        {
          "components": [
            {
              "internalType": "address",
              "name": "issuer",
              "type": "address"
            },
            {
              "internalType": "uint64",
              "name": "expiration",
              "type": "uint64"
            },
            {
              "internalType": "address",
              "name": "recipient",
              "type": "address"
            },
            {
              "internalType": "uint256",
              "name": "validatorId",
              "type": "uint256"
            },
            {
              "internalType": "address",
              "name": "validatorContract",
              "type": "address"
            },
            {
              "internalType": "bytes32",
              "name": "sealingKey",
              "type": "bytes32"
            },
            {
              "internalType": "bytes",
              "name": "issuerSignature",
              "type": "bytes"
            },
            {
              "internalType": "bytes",
              "name": "recipientSignature",
              "type": "bytes"
            }
          ],
          "internalType": "struct Permission",
          "name": "permission",
          "type": "tuple"
        }
      ],
      "name": "queryDecrypt",
      "outputs": [
        {
          "internalType": "bool",
          "name": "allowed",
          "type": "bool"
        },
        {
          "internalType": "string",
          "name": "error",
          "type": "string"
        },
        {
          "internalType": "uint256",
          "name": "",
          "type": "uint256"
        }
      ],
      "stateMutability": "view",
      "type": "function"
    },
    {
      "inputs": [
        {
          "internalType": "uint256",
          "name": "ctHash",
          "type": "uint256"
        },
        {
          "internalType": "uint256",
          "name": "",
          "type": "uint256"
        },
        {
          "components": [
            {
              "internalType": "address",
              "name": "issuer",
              "type": "address"
            },
            {
              "internalType": "uint64",
              "name": "expiration",
              "type": "uint64"
            },
            {
              "internalType": "address",
              "name": "recipient",
              "type": "address"
            },
            {
              "internalType": "uint256",
              "name": "validatorId",
              "type": "uint256"
            },
            {
              "internalType": "address",
              "name": "validatorContract",
              "type": "address"
            },
            {
              "internalType": "bytes32",
              "name": "sealingKey",
              "type": "bytes32"
            },
            {
              "internalType": "bytes",
              "name": "issuerSignature",
              "type": "bytes"
            },
            {
              "internalType": "bytes",
              "name": "recipientSignature",
              "type": "bytes"
            }
          ],
          "internalType": "struct Permission",
          "name": "permission",
          "type": "tuple"
        }
      ],
      "name": "querySealOutput",
      "outputs": [
        {
          "internalType": "bool",
          "name": "allowed",
          "type": "bool"
        },
        {
          "internalType": "string",
          "name": "error",
          "type": "string"
        },
        {
          "internalType": "bytes32",
          "name": "",
          "type": "bytes32"
        }
      ],
      "stateMutability": "view",
      "type": "function"
    },
    {
      "inputs": [
        {
          "internalType": "uint256",
          "name": "input",
          "type": "uint256"
        },
        {
          "internalType": "bytes32",
          "name": "key",
          "type": "bytes32"
        }
      ],
      "name": "seal",
      "outputs": [
        {
          "internalType": "bytes32",
          "name": "",
          "type": "bytes32"
        }
      ],
      "stateMutability": "pure",
      "type": "function"
    },
    {
      "inputs": [
        {
          "internalType": "bytes32",
          "name": "hashed",
          "type": "bytes32"
        },
        {
          "internalType": "bytes32",
          "name": "key",
          "type": "bytes32"
        }
      ],
      "name": "unseal",
      "outputs": [
        {
          "internalType": "uint256",
          "name": "",
          "type": "uint256"
        }
      ],
      "stateMutability": "pure",
      "type": "function"
    }
  ],
  "bytecode": "0x60808060405234601557610d42908161001a8239f35b5f80fdfe60806040526004361015610011575f80fd5b5f3560e01c806309ba31561461029a5780631a1992a9146101af578063267c4ae41461027f578063485cc9551461021f5780634cdc014d146101f75780637e0f4b5b146101d05780638a5c8c7f146101af5780638ca07b4814610171578063a02eb5341461013e578063a0639f5414610122578063b4bc28f8146100f45763ff6957d31461009d575f80fd5b346100f05760203660031901126100f0576004356001600160401b0381116100f0576100d86100d36100ec923690600401610342565b610a3c565b60405191829160208352602083019061048f565b0390f35b5f80fd5b346100f05760203660031901126100f0576100ec610113600435610a33565b604093919351938493846104b3565b346100f0576100ec6101136101363661045a565b9190506109e9565b346100f05760603660031901126100f0576044356001600160a01b03811681036100f0576101136100ec91600435610920565b346100f05760403660031901126100f0576024356001600160401b0381116100f0576101136101a76100ec923690600401610388565b600435610840565b346100f05760403660031901126100f0576020604051602435600435188152f35b346100f0575f3660031901126100f0575f546040516001600160a01b039091168152602090f35b346100f0575f3660031901126100f0576001546040516001600160a01b039091168152602090f35b346100f05760403660031901126100f0576004356001600160a01b038116908190036100f0576024356001600160a01b03811691908290036100f0575f80546001600160a01b031990811692909217905560018054909116919091179055005b346100f0575f3660031901126100f057602060405160018152f35b346100f0576102b36102ab3661045a565b9190506106ab565b604051921515835260606020840181905283926102d29184019061048f565b9060408301520390f35b601f909101601f19168101906001600160401b038211908210176102ff57604052565b634e487b7160e01b5f52604160045260245ffd5b35906001600160a01b03821682036100f057565b6001600160401b0381116102ff57601f01601f191660200190565b81601f820112156100f05780359061035982610327565b9261036760405194856102dc565b828452602083830101116100f057815f926020809301838601378301015290565b9190610100838203126100f0576040519061010082016001600160401b038111838210176102ff5760405281936103be81610313565b835260208101356001600160401b03811681036100f05760208401526103e660408201610313565b60408401526060810135606084015261040160808201610313565b608084015260a0818101359084015260c08101356001600160401b0381116100f0578261042f918301610342565b60c084015260e0810135916001600160401b0383116100f05760e0926104559201610342565b910152565b60606003198201126100f0576004359160243591604435906001600160401b0382116100f05761048c91600401610388565b90565b805180835260209291819084018484015e5f828201840152601f01601f1916010190565b9392916104d2906040921515865260606020870152606086019061048f565b930152565b908160209103126100f0575180151581036100f05790565b9291906104d26020916040865260018060a01b03815116604087015260018060401b038382015116606087015260018060a01b036040820151166080870152606081015160a087015260018060a01b0360808201511660c087015260a081015160e087015260e061057060c0830151610100808a015261014089019061048f565b910151868203603f190161012088015261048f565b5f9060033d1161059157565b905060045f803e5f5160e01c90565b5f60443d1061048c576040513d600319016004823e8051916001600160401b0383113d60248501111761060e578183018051909390916001600160401b038311610606573d84016003190185840160200111610606575061048c929101602001906102dc565b949350505050565b92915050565b5f5f9160233d1161062157565b915050602060045f3e5f51600191565b604051906106406040836102dc565b600582526450616e696360d81b6020830152565b3d1561067e573d9061066582610327565b9161067360405193846102dc565b82523d5f602084013e565b606090565b604051906106926040836102dc565b600a825269139bdd105b1b1bddd95960b21b6020830152565b9060a0810190815115610831576020836106e79260018060a01b03600154169060405180958194829363573cf82560e11b8452600484016104ef565b03915afa5f9181610800575b5061075b57505050610703610585565b806308c379a01461074757634e487b711461072a575b6107246100d3610654565b5f918290565b610732610614565b5015610719575f90610742610631565b905f90565b506107506105a0565b806107245750610719565b156107f4575f54604051631c76642b60e01b81526004810193909352602090839060249082906001600160a01b03165afa9182156107e9575f926107b5575b5051186001916040516107ae6020826102dc565b5f81529190565b9091506020813d6020116107e1575b816107d1602093836102dc565b810103126100f05751905f61079a565b3d91506107c4565b6040513d5f823e3d90fd5b50505f90610742610683565b61082391925060203d60201161082a575b61081b81836102dc565b8101906104d7565b905f6106f3565b503d610811565b6316f124db60e31b5f5260045ffd5b81519091906001600160a01b0316156108eb5761085d9082610be7565b90156108e257505f54604051631c76642b60e01b81526004810192909252602090829060249082906001600160a01b03165afa9081156107e9575f916108b0575b506001916040516107ae6020826102dc565b90506020813d6020116108da575b816108cb602093836102dc565b810103126100f057515f61089e565b3d91506108be565b5f929091508290565b50505f906040516108fd6040826102dc565b60118152705065726d697373696f6e4d697373696e6760781b6020820152905f90565b600154604051632fd514cd60e11b8152600481018390526001600160a01b039384166024820152919260209183916044918391165afa5f91816109c8575b5061096d575050610703610585565b156109bd575f54604051631c76642b60e01b81526004810192909252602090829060249082906001600160a01b03165afa9081156107e9575f916108b057506001916040516107ae6020826102dc565b505f90610742610683565b6109e291925060203d60201161082a5761081b81836102dc565b905f61095e565b90602082610a199260018060a01b03600154169060405180958194829363573cf82560e11b8452600484016104ef565b03915afa5f91816109c8575061096d575050610703610585565b61085d81610cca565b602081519101519063ffffffff60e01b82169160048210610bc7575b50506001600160e01b03191663ed0764a160e01b8114610b8f57634c40eccb60e01b8114610b4957638e143bf760e01b8114610b00576365e9d4b360e11b14610ac857604051610aa96040826102dc565b600f81526e2637bb902632bb32b61022b93937b960891b602082015290565b604051610ad66040826102dc565b601a81527914195c9b5a5cdcda5bdb925b9d985b1a5917d11a5cd8589b195960321b602082015290565b50604051610b0f6060826102dc565b602481527f5065726d697373696f6e496e76616c69645f526563697069656e745369676e616020820152637475726560e01b604082015290565b50604051610b586060826102dc565b602181527f5065726d697373696f6e496e76616c69645f4973737565725369676e617475726020820152606560f81b604082015290565b50604051610b9e6040826102dc565b601981527814195c9b5a5cdcda5bdb925b9d985b1a5917d15e1c1a5c9959603a1b602082015290565b6001600160e01b031960049290920360031b82901b161690505f80610a58565b5f5460405163573cf82560e11b81529260209284926001600160a01b03169183918291610c189190600484016104ef565b03915afa5f9181610ca9575b50610c835750610c32610585565b806308c379a014610c6f57634e487b7114610c57575b610c536100d3610654565b5f91565b610c5f610614565b5015610c48575f9061048c610631565b50610c786105a0565b80610c535750610c48565b15610c9f57600190604051610c996020826102dc565b5f815290565b5f9061048c610683565b610cc391925060203d60201161082a5761081b81836102dc565b905f610c24565b600154604051632536461360e21b81526004810192909252602090829060249082906001600160a01b03165afa5f9181610ca95750610c835750610c3261058556fea26469706673582212203712f8fa395019fcffbe7f63be9e84cd9d5475081ac28fab39e8935a072086d164736f6c634300081c0033",
  "linkReferences": {},
  "deployedLinkReferences": {}
}