{
  "_format": "hh-sol-artifact-1",
  "contractName": "MockTaskManager",
  "sourceName": "@cofhe/mock-contracts/contracts/MockTaskManager.sol",
  "abi": [
    {
      "inputs": [],
      "stateMutability": "nonpayable",
      "type": "constructor"
    },
    {
      "inputs": [
        {
          "internalType": "uint256",
          "name": "handle",
          "type": "uint256"
        },
        {
          "internalType": "address",
          "name": "account",
          "type": "address"
        }
      ],
      "name": "ACLNotAllowed",
      "type": "error"
    },
    {
      "inputs": [
        {
          "internalType": "uint256",
          "name": "ctHash",
          "type": "uint256"
        }
      ],
      "name": "DecryptionResultNotReady",
      "type": "error"
    },
    {
      "inputs": [],
      "name": "ECDSAInvalidSignature",
      "type": "error"
    },
    {
      "inputs": [
        {
          "internalType": "uint256",
          "name": "length",
          "type": "uint256"
        }
      ],
      "name": "ECDSAInvalidSignatureLength",
      "type": "error"
    },
    {
      "inputs": [
        {
          "internalType": "bytes32",
          "name": "s",
          "type": "bytes32"
        }
      ],
      "name": "ECDSAInvalidSignatureS",
      "type": "error"
    },
    {
      "inputs": [
        {
          "internalType": "uint256",
          "name": "ctHash",
          "type": "uint256"
        }
      ],
      "name": "InputNotInMockStorage",
      "type": "error"
    },
    {
      "inputs": [],
      "name": "InvalidAddress",
      "type": "error"
    },
    {
      "inputs": [
        {
          "internalType": "string",
          "name": "functionName",
          "type": "string"
        },
        {
          "internalType": "uint8",
          "name": "inputType",
          "type": "uint8"
        }
      ],
      "name": "InvalidInputForFunction",
      "type": "error"
    },
    {
      "inputs": [
        {
          "internalType": "uint8",
          "name": "actual",
          "type": "uint8"
        },
        {
          "internalType": "uint8",
          "name": "expected",
          "type": "uint8"
        }
      ],
      "name": "InvalidInputType",
      "type": "error"
    },
    {
      "inputs": [
        {
          "internalType": "string",
          "name": "operation",
          "type": "string"
        },
        {
          "internalType": "uint256",
          "name": "got",
          "type": "uint256"
        },
        {
          "internalType": "uint256",
          "name": "expected",
          "type": "uint256"
        }
      ],
      "name": "InvalidInputsAmount",
      "type": "error"
    },
    {
      "inputs": [
        {
          "internalType": "string",
          "name": "operation",
          "type": "string"
        }
      ],
      "name": "InvalidOperationInputs",
      "type": "error"
    },
    {
      "inputs": [
        {
          "internalType": "int32",
          "name": "zone",
          "type": "int32"
        },
        {
          "internalType": "int32",
          "name": "min",
          "type": "int32"
        },
        {
          "internalType": "int32",
          "name": "max",
          "type": "int32"
        }
      ],
      "name": "InvalidSecurityZone",
      "type": "error"
    },
    {
      "inputs": [],
      "name": "InvalidSignature",
      "type": "error"
    },
    {
      "inputs": [
        {
          "internalType": "address",
          "name": "signer",
          "type": "address"
        },
        {
          "internalType": "address",
          "name": "expectedSigner",
          "type": "address"
        }
      ],
      "name": "InvalidSigner",
      "type": "error"
    },
    {
      "inputs": [
        {
          "internalType": "string",
          "name": "operation",
          "type": "string"
        }
      ],
      "name": "InvalidThreeInputOperation",
      "type": "error"
    },
    {
      "inputs": [
        {
          "internalType": "string",
          "name": "operation",
          "type": "string"
        }
      ],
      "name": "InvalidTwoInputOperation",
      "type": "error"
    },
    {
      "inputs": [
        {
          "internalType": "string",
          "name": "operation",
          "type": "string"
        }
      ],
      "name": "InvalidTypeOrSecurityZone",
      "type": "error"
    },
    {
      "inputs": [
        {
          "internalType": "string",
          "name": "operation",
          "type": "string"
        }
      ],
      "name": "InvalidUnaryOperation",
      "type": "error"
    },
    {
      "inputs": [],
      "name": "NotImplemented",
      "type": "error"
    },
    {
      "inputs": [
        {
          "internalType": "address",
          "name": "caller",
          "type": "address"
        }
      ],
      "name": "OnlyAggregatorAllowed",
      "type": "error"
    },
    {
      "inputs": [
        {
          "internalType": "address",
          "name": "caller",
          "type": "address"
        }
      ],
      "name": "OnlyOwnerAllowed",
      "type": "error"
    },
    {
      "inputs": [],
      "name": "RandomFunctionNotSupported",
      "type": "error"
    },
    {
      "inputs": [
        {
          "internalType": "uint256",
          "name": "value",
          "type": "uint256"
        },
        {
          "internalType": "uint256",
          "name": "length",
          "type": "uint256"
        }
      ],
      "name": "StringsInsufficientHexLength",
      "type": "error"
    },
    {
      "inputs": [
        {
          "internalType": "string",
          "name": "operation",
          "type": "string"
        },
        {
          "internalType": "uint256",
          "name": "got",
          "type": "uint256"
        },
        {
          "internalType": "uint256",
          "name": "maxAllowed",
          "type": "uint256"
        }
      ],
      "name": "TooManyInputs",
      "type": "error"
    },
    {
      "anonymous": false,
      "inputs": [
        {
          "indexed": false,
          "internalType": "uint256",
          "name": "ctHash",
          "type": "uint256"
        },
        {
          "indexed": false,
          "internalType": "uint256",
          "name": "result",
          "type": "uint256"
        },
        {
          "indexed": true,
          "internalType": "address",
          "name": "requestor",
          "type": "address"
        }
      ],
      "name": "DecryptionResult",
      "type": "event"
    },
    {
      "anonymous": false,
      "inputs": [
        {
          "indexed": false,
          "internalType": "uint256",
          "name": "ctHash",
          "type": "uint256"
        },
        {
          "indexed": false,
          "internalType": "string",
          "name": "operation",
          "type": "string"
        },
        {
          "indexed": false,
          "internalType": "string",
          "name": "errorMessage",
          "type": "string"
        }
      ],
      "name": "ProtocolNotification",
      "type": "event"
    },
    {
      "anonymous": false,
      "inputs": [
        {
          "indexed": false,
          "internalType": "uint256",
          "name": "ctHash",
          "type": "uint256"
        },
        {
          "indexed": false,
          "internalType": "string",
          "name": "operation",
          "type": "string"
        },
        {
          "indexed": false,
          "internalType": "uint256",
          "name": "input1",
          "type": "uint256"
        },
        {
          "indexed": false,
          "internalType": "uint256",
          "name": "input2",
          "type": "uint256"
        },
        {
          "indexed": false,
          "internalType": "uint256",
          "name": "input3",
          "type": "uint256"
        }
      ],
      "name": "TaskCreated",
      "type": "event"
    },
    {
      "inputs": [
        {
          "internalType": "string",
          "name": "operation",
          "type": "string"
        },
        {
          "internalType": "uint256",
          "name": "ctHash",
          "type": "uint256"
        },
        {
          "internalType": "address",
          "name": "account",
          "type": "address"
        }
      ],
      "name": "MOCK_logAllow",
      "outputs": [],
      "stateMutability": "view",
      "type": "function"
    },
    {
      "inputs": [
        {
          "internalType": "uint256",
          "name": "ctHash",
          "type": "uint256"
        },
        {
          "internalType": "uint256",
          "name": "value",
          "type": "uint256"
        }
      ],
      "name": "MOCK_setInEuintKey",
      "outputs": [],
      "stateMutability": "nonpayable",
      "type": "function"
    },
    {
      "inputs": [],
      "name": "acl",
      "outputs": [
        {
          "internalType": "contract MockACL",
          "name": "",
          "type": "address"
        }
      ],
      "stateMutability": "view",
      "type": "function"
    },
    {
      "inputs": [],
      "name": "aggregator",
      "outputs": [
        {
          "internalType": "address",
          "name": "",
          "type": "address"
        }
      ],
      "stateMutability": "view",
      "type": "function"
    },
    {
      "inputs": [
        {
          "internalType": "uint256",
          "name": "ctHash",
          "type": "uint256"
        },
        {
          "internalType": "address",
          "name": "account",
          "type": "address"
        }
      ],
      "name": "allow",
      "outputs": [],
      "stateMutability": "nonpayable",
      "type": "function"
    },
    {
      "inputs": [
        {
          "internalType": "uint256",
          "name": "ctHash",
          "type": "uint256"
        }
      ],
      "name": "allowForDecryption",
      "outputs": [],
      "stateMutability": "nonpayable",
      "type": "function"
    },
    {
      "inputs": [
        {
          "internalType": "uint256",
          "name": "ctHash",
          "type": "uint256"
        }
      ],
      "name": "allowGlobal",
      "outputs": [],
      "stateMutability": "nonpayable",
      "type": "function"
    },
    {
      "inputs": [
        {
          "internalType": "uint256",
          "name": "ctHash",
          "type": "uint256"
        },
        {
          "internalType": "address",
          "name": "account",
          "type": "address"
        }
      ],
      "name": "allowTransient",
      "outputs": [],
      "stateMutability": "nonpayable",
      "type": "function"
    },
    {
      "inputs": [
        {
          "internalType": "uint256",
          "name": "ctHash",
          "type": "uint256"
        },
        {
          "internalType": "address",
          "name": "",
          "type": "address"
        }
      ],
      "name": "createDecryptTask",
      "outputs": [],
      "stateMutability": "nonpayable",
      "type": "function"
    },
    {
      "inputs": [
        {
          "internalType": "uint8",
          "name": "returnType",
          "type": "uint8"
        },
        {
          "internalType": "uint256",
          "name": "seed",
          "type": "uint256"
        },
        {
          "internalType": "int32",
          "name": "securityZone",
          "type": "int32"
        }
      ],
      "name": "createRandomTask",
      "outputs": [
        {
          "internalType": "uint256",
          "name": "",
          "type": "uint256"
        }
      ],
      "stateMutability": "nonpayable",
      "type": "function"
    },
    {
      "inputs": [
        {
          "internalType": "uint8",
          "name": "returnType",
          "type": "uint8"
        },
        {
          "internalType": "enum FunctionId",
          "name": "funcId",
          "type": "uint8"
        },
        {
          "internalType": "uint256[]",
          "name": "encryptedHashes",
          "type": "uint256[]"
        },
        {
          "internalType": "uint256[]",
          "name": "extraInputs",
          "type": "uint256[]"
        }
      ],
      "name": "createTask",
      "outputs": [
        {
          "internalType": "uint256",
          "name": "",
          "type": "uint256"
        }
      ],
      "stateMutability": "nonpayable",
      "type": "function"
    },
    {
      "inputs": [],
      "name": "decryptResultSigner",
      "outputs": [
        {
          "internalType": "address",
          "name": "",
          "type": "address"
        }
      ],
      "stateMutability": "view",
      "type": "function"
    },
    {
      "inputs": [],
      "name": "exists",
      "outputs": [
        {
          "internalType": "bool",
          "name": "",
          "type": "bool"
        }
      ],
      "stateMutability": "pure",
      "type": "function"
    },
    {
      "inputs": [
        {
          "internalType": "uint256",
          "name": "ctHash",
          "type": "uint256"
        }
      ],
      "name": "getDecryptResult",
      "outputs": [
        {
          "internalType": "uint256",
          "name": "",
          "type": "uint256"
        }
      ],
      "stateMutability": "view",
      "type": "function"
    },
    {
      "inputs": [
        {
          "internalType": "uint256",
          "name": "ctHash",
          "type": "uint256"
        }
      ],
      "name": "getDecryptResultSafe",
      "outputs": [
        {
          "internalType": "uint256",
          "name": "result",
          "type": "uint256"
        },
        {
          "internalType": "bool",
          "name": "decrypted",
          "type": "bool"
        }
      ],
      "stateMutability": "view",
      "type": "function"
    },
    {
      "inputs": [
        {
          "internalType": "uint256",
          "name": "ctHash",
          "type": "uint256"
        },
        {
          "internalType": "uint256",
          "name": "result",
          "type": "uint256"
        },
        {
          "internalType": "address[]",
          "name": "",
          "type": "address[]"
        }
      ],
      "name": "handleDecryptResult",
      "outputs": [],
      "stateMutability": "nonpayable",
      "type": "function"
    },
    {
      "inputs": [
        {
          "internalType": "uint256",
          "name": "ctHash",
          "type": "uint256"
        },
        {
          "internalType": "string",
          "name": "operation",
          "type": "string"
        },
        {
          "internalType": "string",
          "name": "errorMessage",
          "type": "string"
        }
      ],
      "name": "handleError",
      "outputs": [],
      "stateMutability": "nonpayable",
      "type": "function"
    },
    {
      "inputs": [
        {
          "internalType": "uint256",
          "name": "",
          "type": "uint256"
        }
      ],
      "name": "inMockStorage",
      "outputs": [
        {
          "internalType": "bool",
          "name": "",
          "type": "bool"
        }
      ],
      "stateMutability": "view",
      "type": "function"
    },
    {
      "inputs": [
        {
          "internalType": "address",
          "name": "initialOwner",
          "type": "address"
        }
      ],
      "name": "initialize",
      "outputs": [],
      "stateMutability": "nonpayable",
      "type": "function"
    },
    {
      "inputs": [
        {
          "internalType": "uint256",
          "name": "ctHash",
          "type": "uint256"
        },
        {
          "internalType": "address",
          "name": "account",
          "type": "address"
        }
      ],
      "name": "isAllowed",
      "outputs": [
        {
          "internalType": "bool",
          "name": "",
          "type": "bool"
        }
      ],
      "stateMutability": "view",
      "type": "function"
    },
    {
      "inputs": [
        {
          "components": [
            {
              "internalType": "address",
              "name": "issuer",
              "type": "address"
            },
            {
              "internalType": "uint64",
              "name": "expiration",
              "type": "uint64"
            },
            {
              "internalType": "address",
              "name": "recipient",
              "type": "address"
            },
            {
              "internalType": "uint256",
              "name": "validatorId",
              "type": "uint256"
            },
            {
              "internalType": "address",
              "name": "validatorContract",
              "type": "address"
            },
            {
              "internalType": "bytes32",
              "name": "sealingKey",
              "type": "bytes32"
            },
            {
              "internalType": "bytes",
              "name": "issuerSignature",
              "type": "bytes"
            },
            {
              "internalType": "bytes",
              "name": "recipientSignature",
              "type": "bytes"
            }
          ],
          "internalType": "struct Permission",
          "name": "permission",
          "type": "tuple"
        },
        {
          "internalType": "uint256",
          "name": "handle",
          "type": "uint256"
        }
      ],
      "name": "isAllowedWithPermission",
      "outputs": [
        {
          "internalType": "bool",
          "name": "",
          "type": "bool"
        }
      ],
      "stateMutability": "view",
      "type": "function"
    },
    {
      "inputs": [],
      "name": "isInitialized",
      "outputs": [
        {
          "internalType": "bool",
          "name": "",
          "type": "bool"
        }
      ],
      "stateMutability": "view",
      "type": "function"
    },
    {
      "inputs": [
        {
          "internalType": "uint256",
          "name": "ctHash",
          "type": "uint256"
        }
      ],
      "name": "isPubliclyAllowed",
      "outputs": [
        {
          "internalType": "bool",
          "name": "",
          "type": "bool"
        }
      ],
      "stateMutability": "view",
      "type": "function"
    },
    {
      "inputs": [],
      "name": "logOps",
      "outputs": [
        {
          "internalType": "bool",
          "name": "",
          "type": "bool"
        }
      ],
      "stateMutability": "view",
      "type": "function"
    },
    {
      "inputs": [
        {
          "internalType": "uint256",
          "name": "",
          "type": "uint256"
        }
      ],
      "name": "mockStorage",
      "outputs": [
        {
          "internalType": "uint256",
          "name": "",
          "type": "uint256"
        }
      ],
      "stateMutability": "view",
      "type": "function"
    },
    {
      "inputs": [
        {
          "internalType": "uint256",
          "name": "ctHash",
          "type": "uint256"
        },
        {
          "internalType": "uint256",
          "name": "result",
          "type": "uint256"
        },
        {
          "internalType": "bytes",
          "name": "signature",
          "type": "bytes"
        }
      ],
      "name": "publishDecryptResult",
      "outputs": [],
      "stateMutability": "nonpayable",
      "type": "function"
    },
    {
      "inputs": [
        {
          "internalType": "uint256[]",
          "name": "ctHashes",
          "type": "uint256[]"
        },
        {
          "internalType": "uint256[]",
          "name": "results",
          "type": "uint256[]"
        },
        {
          "internalType": "bytes[]",
          "name": "signatures",
          "type": "bytes[]"
        }
      ],
      "name": "publishDecryptResultBatch",
      "outputs": [],
      "stateMutability": "nonpayable",
      "type": "function"
    },
    {
      "inputs": [
        {
          "internalType": "string",
          "name": "str",
          "type": "string"
        }
      ],
      "name": "removeFirstLetter",
      "outputs": [
        {
          "internalType": "string",
          "name": "",
          "type": "string"
        }
      ],
      "stateMutability": "pure",
      "type": "function"
    },
    {
      "inputs": [
        {
          "internalType": "address",
          "name": "_aclAddress",
          "type": "address"
        }
      ],
      "name": "setACLContract",
      "outputs": [],
      "stateMutability": "nonpayable",
      "type": "function"
    },
    {
      "inputs": [
        {
          "internalType": "address",
          "name": "_aggregatorAddress",
          "type": "address"
        }
      ],
      "name": "setAggregator",
      "outputs": [],
      "stateMutability": "nonpayable",
      "type": "function"
    },
    {
      "inputs": [
        {
          "internalType": "address",
          "name": "signer",
          "type": "address"
        }
      ],
      "name": "setDecryptResultSigner",
      "outputs": [],
      "stateMutability": "nonpayable",
      "type": "function"
    },
    {
      "inputs": [
        {
          "internalType": "bool",
          "name": "_logOps",
          "type": "bool"
        }
      ],
      "name": "setLogOps",
      "outputs": [],
      "stateMutability": "nonpayable",
      "type": "function"
    },
    {
      "inputs": [
        {
          "internalType": "int32",
          "name": "securityZone",
          "type": "int32"
        }
      ],
      "name": "setSecurityZoneMax",
      "outputs": [],
      "stateMutability": "nonpayable",
      "type": "function"
    },
    {
      "inputs": [
        {
          "internalType": "int32",
          "name": "securityZone",
          "type": "int32"
        }
      ],
      "name": "setSecurityZoneMin",
      "outputs": [],
      "stateMutability": "nonpayable",
      "type": "function"
    },
    {
      "inputs": [
        {
          "internalType": "int32",
          "name": "minSZ",
          "type": "int32"
        },
        {
          "internalType": "int32",
          "name": "maxSZ",
          "type": "int32"
        }
      ],
      "name": "setSecurityZones",
      "outputs": [],
      "stateMutability": "nonpayable",
      "type": "function"
    },
    {
      "inputs": [
        {
          "internalType": "address",
          "name": "signer",
          "type": "address"
        }
      ],
      "name": "setVerifierSigner",
      "outputs": [],
      "stateMutability": "nonpayable",
      "type": "function"
    },
    {
      "inputs": [
        {
          "internalType": "string",
          "name": "str",
          "type": "string"
        },
        {
          "internalType": "uint256",
          "name": "start",
          "type": "uint256"
        },
        {
          "internalType": "uint256",
          "name": "length",
          "type": "uint256"
        }
      ],
      "name": "sliceString",
      "outputs": [
        {
          "internalType": "string",
          "name": "",
          "type": "string"
        }
      ],
      "stateMutability": "pure",
      "type": "function"
    },
    {
      "inputs": [
        {
          "internalType": "uint256",
          "name": "ctHash",
          "type": "uint256"
        },
        {
          "internalType": "uint256",
          "name": "result",
          "type": "uint256"
        },
        {
          "internalType": "bytes",
          "name": "signature",
          "type": "bytes"
        }
      ],
      "name": "verifyDecryptResult",
      "outputs": [
        {
          "internalType": "bool",
          "name": "",
          "type": "bool"
        }
      ],
      "stateMutability": "view",
      "type": "function"
    },
    {
      "inputs": [
        {
          "internalType": "uint256[]",
          "name": "ctHashes",
          "type": "uint256[]"
        },
        {
          "internalType": "uint256[]",
          "name": "results",
          "type": "uint256[]"
        },
        {
          "internalType": "bytes[]",
          "name": "signatures",
          "type": "bytes[]"
        }
      ],
      "name": "verifyDecryptResultBatch",
      "outputs": [
        {
          "internalType": "bool",
          "name": "",
          "type": "bool"
        }
      ],
      "stateMutability": "view",
      "type": "function"
    },
    {
      "inputs": [
        {
          "internalType": "uint256[]",
          "name": "ctHashes",
          "type": "uint256[]"
        },
        {
          "internalType": "uint256[]",
          "name": "results",
          "type": "uint256[]"
        },
        {
          "internalType": "bytes[]",
          "name": "signatures",
          "type": "bytes[]"
        }
      ],
      "name": "verifyDecryptResultBatchSafe",
      "outputs": [
        {
          "internalType": "bool[]",
          "name": "",
          "type": "bool[]"
        }
      ],
      "stateMutability": "view",
      "type": "function"
    },
    {
      "inputs": [
        {
          "internalType": "uint256",
          "name": "ctHash",
          "type": "uint256"
        },
        {
          "internalType": "uint256",
          "name": "result",
          "type": "uint256"
        },
        {
          "internalType": "bytes",
          "name": "signature",
          "type": "bytes"
        }
      ],
      "name": "verifyDecryptResultSafe",
      "outputs": [
        {
          "internalType": "bool",
          "name": "",
          "type": "bool"
        }
      ],
      "stateMutability": "view",
      "type": "function"
    },
    {
      "inputs": [
        {
          "components": [
            {
              "internalType": "uint256",
              "name": "ctHash",
              "type": "uint256"
            },
            {
              "internalType": "uint8",
              "name": "securityZone",
              "type": "uint8"
            },
            {
              "internalType": "uint8",
              "name": "utype",
              "type": "uint8"
            },
            {
              "internalType": "bytes",
              "name": "signature",
              "type": "bytes"
            }
          ],
          "internalType": "struct EncryptedInput",
          "name": "input",
          "type": "tuple"
        },
        {
          "internalType": "address",
          "name": "sender",
          "type": "address"
        }
      ],
      "name": "verifyInput",
      "outputs": [
        {
          "internalType": "uint256",
          "name": "",
          "type": "uint256"
        }
      ],
      "stateMutability": "nonpayable",
      "type": "function"
    }
  ],
  "bytecode": "0x60808060405234602057600160ff195f5416175f55615c7690816100258239f35b5f80fdfe60806040526004361015610011575f80fd5b5f3560e01c806308289827146102b457806315a486fe146102af57806318683701146102aa5780631888debd146102a55780631c76642b146102a05780631d0319311461029b578063245a7bfc146102965780632605ab9f1461029157806326594a0c1461028c578063267c4ae41461028757806327f9c7621461028257806334ef1e5a1461027d578063392e53cd14610278578063458693c9146102735780634bc982631461026e5780634d7cb0c014610269578063591363c7146102645780635faa299a1461025f5780635fb0bf911461025a578063642b3f191461025557806365d0509c14610250578063733016511461024b5780637e5cf5191461024657806380d55b691461024157806381ba09861461023c5780638b2b9c23146102375780638d9c9c92146102325780638db39c8d1461022d5780638eef9ae71461022857806392bd6c9514610223578063938fb3d91461021e578063a307d21d14610219578063a33b4b0a14610214578063ae79f04a1461020f578063c4d66de81461020a578063cae71e3714610205578063d521ed4b14610200578063de287359146101fb578063e64a0ded146101f6578063e68d826f146101f1578063f6bc7f3f146101ec5763f9120af6146101e7575f80fd5b6116a6565b611666565b611645565b611626565b6115fe565b6115af565b6114d8565b611479565b611378565b611348565b6112a5565b61127d565b61121e565b6111fe565b6111b1565b611120565b610fee565b610f61565b610ef7565b610e19565b610d48565b610bf3565b610bc4565b610b59565b610b32565b610ac1565b610a9b565b6109ca565b61099e565b610979565b6108da565b610837565b6107ad565b610752565b6106d2565b6106a8565b61066f565b610645565b6105be565b610431565b6103bb565b61031f565b6001600160a01b031690565b602435906001600160a01b03821682036102db57565b5f80fd5b600435906001600160a01b03821682036102db57565b604435906001600160a01b03821682036102db57565b35906001600160a01b03821682036102db57565b346102db5760403660031901126102db576103b960043561033e6102c5565b50610348816120d4565b805f52600560205260405f20600160ff1982541617905561036881612160565b815f52600460205260405f20556103b46103a561039661038a600a4206611742565b6001600160401b031690565b426001600160401b031661176b565b915f52600660205260405f2090565b611784565b005b346102db5760403660031901126102db576103b96024356004356121db565b9060606003198301126102db5760043591602435916044356001600160401b0381116102db57826023820112156102db576004810135926001600160401b0384116102db57602484830101116102db576024019190565b346102db5761046e7f023b156100bf14eedc41deb8cef114c1fce662c306697f3bfaf3dbca58130bf7610463366103da565b90828496939461221b565b505f838152600560209081526040808320805460ff1916600117905560048252808320849055600690915290206104af90426001600160401b031690611784565b6040805193845260208401919091523392a2005b6004359060ff821682036102db57565b359060ff821682036102db57565b634e487b7160e01b5f52604160045260245ffd5b608081019081106001600160401b0382111761051057604052565b6104e1565b601f909101601f19168101906001600160401b0382119082101761051057604052565b6040519061054861010083610515565b565b6001600160401b0381116105105760051b60200190565b9080601f830112156102db5781356105788161054a565b926105866040519485610515565b81845260208085019260051b8201019283116102db57602001905b8282106105ae5750505090565b81358152602091820191016105a1565b346102db5760803660031901126102db576105d76104c3565b6024359060208210156102db576044356001600160401b0381116102db57610603903690600401610561565b60643591906001600160401b0383116102db576106419361062b610631943690600401610561565b92611815565b6040519081529081906020820190565b0390f35b346102db5760203660031901126102db576004355f526001602052602060405f2054604051908152f35b346102db5760203660031901126102db576004355f526002602052602060ff60405f2054166040519015158152f35b5f9103126102db57565b346102db575f3660031901126102db576007546040805191901c6001600160a01b03168152602090f35b346102db5760203660031901126102db576106eb6102df565b6003546001600160a01b0316330361071f57600a80546001600160a01b0319166001600160a01b0392909216919091179055005b63391c752b60e11b5f523360045260245ffd5b600435908160030b82036102db57565b604435908160030b82036102db57565b346102db5760403660031901126102db5761076b610732565b602435908160030b82036102db576003546001600160a01b0316330361071f5761079490611914565b63ffffffff19600754169063ffffffff16176007555f80f35b346102db575f3660031901126102db57602060405160018152f35b6001600160401b03811161051057601f01601f191660200190565b9291926107ef826107c8565b916107fd6040519384610515565b8294818452818301116102db578281602093845f960137010152565b9080601f830112156102db57816020610834933591016107e3565b90565b346102db5760403660031901126102db576004356001600160401b0381116102db57608060031982360301126102db5760405190610874826104f5565b80600401358252610887602482016104d3565b6020830152610898604482016104d3565b60408301526064810135916001600160401b0383116102db576108c76106319260046106419536920101610819565b60608201526108d46102c5565b90611963565b346102db5760203660031901126102db576004356080808216036108fa57005b61090d6109086008546102b9565b6102b9565b90813b156102db575f604051809363846cd43360e01b8252818381610936338860048401611aa2565b03925af1918215610974576103b99261095a575b503390610955611acf565b613f19565b806109685f61096e93610515565b8061069e565b5f61094a565b61180a565b346102db575f3660031901126102db57602060ff60035460a01c166040519015158152f35b346102db5760203660031901126102db5760406109bc600435611afc565b825191825215156020820152f35b346102db5760603660031901126102db576004356024356001600160401b0381116102db576109fd903690600401610819565b6044356001600160401b0381116102db57610a1c903690600401610819565b60075490929060401c6001600160a01b03163303610a8857610a837f66d3f531abdf188fde59b6d2b282dc7c725ef2bb1c6c93954054721a13c1a3fa93610a756040519485948552606060208601526060850190610de4565b908382036040850152610de4565b0390a1005b6354ba507f60e11b5f523360045260245ffd5b346102db576020610ab7610aae366103da565b9291909161221b565b6040519015158152f35b346102db5760203660031901126102db57610ada610732565b6003546001600160a01b0316330361071f57600754908160201c60030b808260030b12610b18575063ffffffff169063ffffffff1916176007555f80f35b631265e79b60e11b5f52610b2f9260030b91611935565b5ffd5b346102db5760403660031901126102db576020610ab7600435610b536102c5565b90611b5c565b346102db5760203660031901126102db57610b72610732565b6003546001600160a01b0316330361071f576007548060030b90818360030b13610b9f576103b983611914565b91610b2f92631265e79b60e11b5f5260201c60030b90611935565b801515036102db57565b346102db5760203660031901126102db57600435610be181610bba565b60ff80195f541691151516175f555f80f35b346102db5760403660031901126102db57600435610c0f6102c5565b60808281161415610c1f565b1590565b610c2557005b610c336109086008546102b9565b91823b156102db575f60405180946379a3a7fb60e01b8252818381610c5d338989600485016117ea565b03925af1928315610974576103b993610c92575b506001600160a01b0382163303610c8a57610955611c03565b610955611bdc565b806109685f610ca093610515565b5f610c71565b9181601f840112156102db578235916001600160401b0383116102db576020808501948460051b0101116102db57565b60606003198201126102db576004356001600160401b0381116102db5781610d0091600401610ca6565b909290916024356001600160401b0381116102db5781610d2291600401610ca6565b90929091604435906001600160401b0382116102db57610d4491600401610ca6565b9091565b346102db57610d5636610cd6565b5f95929193955b858110610d6657005b610d71818786611c42565b3590610d7e81858a611c42565b35610d8a828589611c52565b919093303b156102db57610db45f936040519687948594631868370160e01b865260048601611c93565b038183305af191821561097457600192610dd0575b5001610d5d565b806109685f610dde93610515565b5f610dc9565b805180835260209291819084018484015e5f828201840152601f01601f1916010190565b906020610834928181520190610de4565b346102db5760603660031901126102db576004356001600160401b0381116102db57610e49903690600401610819565b6024359060443590818301808411610ef257815110610ebd57610e6b82611cc5565b925f5b838110610e8357604051806106418782610e08565b80610eaa610e9c610e966001948661175e565b86611d14565b516001600160f81b03191690565b5f1a610eb68288611d14565b5301610e6e565b60405162461bcd60e51b815260206004820152600d60248201526c4f7574206f6620626f756e647360981b6044820152606490fd5b61172e565b346102db5760603660031901126102db57610641610f136104c3565b602435610f1e610742565b6040519160ff6020840194168452604083015260030b606082015242608082015260808152610f4e60a082610515565b5190206040519081529081906020820190565b346102db5760603660031901126102db576004356024356044356001600160401b0381116102db57610f97903690600401610ca6565b505060075460401c6001600160a01b03163303610a88575f918252600560209081526040808420805460ff1916600117905560048252808420929092556006905290206103b990426001600160401b031690611784565b346102db5760603660031901126102db576004356001600160401b0381116102db5761101e903690600401610819565b6024356110296102f5565b9060ff5f541661103557005b611046611040613e9b565b936153b5565b611057611051613ebd565b926154ec565b6001600160a01b0390931693846110766110716028611750565b611cc5565b95603061108288611cf7565b53607861108e88611d04565b536110996028611742565b600181116110d357506110bc5750916110b793916103b99593613ede565b6155b5565b63e22e27eb60e01b5f52600452601460245260445ffd5b90600f8116601081101561111b5761111691611110916f181899199a1a9b1b9c1cb0b131b232b360811b901a611109858c611d14565b5360041c90565b91615c14565b611099565b611c2e565b346102db5760403660031901126102db5760043561113c6102c5565b60808083160361114857005b6111566109086008546102b9565b91823b156102db575f6040518094632426f41160e11b8252818381611180338989600485016117ea565b03925af1928315610974576103b99361119d575b50610955611dc5565b806109685f6111ab93610515565b5f611194565b346102db5760203660031901126102db576111ca6102df565b6003546001600160a01b0316330361071f57600980546001600160a01b0319166001600160a01b0392909216919091179055005b346102db5760203660031901126102db5763d623472560e01b5f5260045ffd5b346102db5760203660031901126102db576112376102df565b6003546001600160a01b0316330361071f576001600160a01b0316801561126e57600880546001600160a01b031916919091179055005b63e6c4247b60e01b5f5260045ffd5b346102db575f3660031901126102db57600a546040516001600160a01b039091168152602090f35b346102db5760203660031901126102db576004356080808216036112c557005b6112cd611df5565b90806112d883611cf7565b526112e76109086008546102b9565b803b156102db57604051631e1c1cdd60e11b8152925f91849182908490829061131590339060048401611e73565b03925af1918215610974576103b992611334575b503390610955611ec1565b806109685f61134293610515565b5f611329565b346102db576020610ab761135b366103da565b929190916122d8565b35906001600160401b03821682036102db57565b346102db5760403660031901126102db576004356001600160401b0381116102db5761010060031982360301126102db576113b1610538565b906113be8160040161030b565b82526113cc60248201611364565b60208301526113dd6044820161030b565b6040830152606481013560608301526113f86084820161030b565b608083015260a481013560a083015260c48101356001600160401b0381116102db5761142a9060043691840101610819565b60c083015260e4810135916001600160401b0383116102db576114596114679260046106419536920101610819565b60e082015260243590611ef5565b60405190151581529081906020820190565b346102db5760203660031901126102db57600160a01b6001600160a01b0361149f6102df565b60038054919092166001600160a81b031990911617919091179055600980546001600160a01b0319908116909155600a80549091169055005b346102db576114e636610cd6565b9092916114f485969561054a565b956115026040519788610515565b808752601f196115118261054a565b013660208901375f5b81811061156857876040518091602082016020835281518091526020604084019201905f5b81811061154d575050500390f35b8251151584528594506020938401939092019160010161153f565b8061159a611579600193858b611c42565b3561158583878a611c42565b359061159284898c611c52565b9290916122d8565b6115a4828b611e5f565b90151590520161151a565b346102db5760203660031901126102db576004356001600160401b0381116102db576115ea6115e5610641923690600401610819565b611ff9565b604051918291602083526020830190610de4565b346102db575f3660031901126102db576008546040516001600160a01b039091168152602090f35b346102db576020610ab761163936610cd6565b94939093929192612075565b346102db575f3660031901126102db57602060ff5f54166040519015158152f35b346102db5760203660031901126102db5760043561168381611afc565b1561169357602090604051908152f35b50631c33d95560e21b5f5260045260245ffd5b346102db5760203660031901126102db576116bf6102df565b6003546001600160a01b0316330361071f576001600160a01b0381161561126e5760078054600160401b600160e01b03191660409290921b600160401b600160e01b0316919091179055005b634e487b7160e01b5f52601260045260245ffd5b8115611729570690565b61170b565b634e487b7160e01b5f52601160045260245ffd5b9060018201809211610ef257565b9060028201809211610ef257565b91908201809211610ef257565b6001600160401b039182169082160191908211610ef257565b80546001600160401b0319166001600160401b03909216919091179055565b634e487b7160e01b5f52602160045260245ffd5b602011156117c157565b6117a3565b6040906117e0600393959495606083526060830190610de4565b9460208201520152565b9081526001600160a01b0391821660208201529116604082015260600190565b6040513d5f823e3d90fd5b919091611821836117b7565b601b831461190557611836825185519061175e565b600381116118dc575081839161184f8361186b956138a5565b61186561185c8784613a0c565b96879385613aa1565b90613b26565b9161187a6109086008546102b9565b91823b156102db575f6040518094632426f41160e11b82528183816118a430338c600485016117ea565b03925af190811561097457610834936118c2926118c8575b5061359a565b83613c98565b806109685f6118d693610515565b5f6118bc565b6118e58461359a565b611901604051928392632b0399d560e01b8452600484016117c6565b0390fd5b63098e08ab60e41b5f5260045ffd5b6007549060201b63ffffffff60201b169063ffffffff60201b191617600755565b600390810b60045290810b6024520b604452606490565b6001600160a01b0390811660045216602452604490565b91909161198c61198061197a602084015160ff1690565b60ff1690565b63ffffffff1660030b90565b6119976009546102b9565b936001600160a01b038516611a2d575b506119d69293506119be6040835193015160ff1690565b9060ff617f0091169160081b16179061ffff19161790565b6119e46109086008546102b9565b803b156102db575f6040518092632426f41160e11b8252818381611a0d30338a600485016117ea565b03925af1801561097457611a1f575090565b806109685f61083493610515565b611a39610c1b83613dca565b611a7457611a479083613df0565b93611a51816102b9565b6001600160a01b038616146119a757637ba5ffb560e01b5f52610b2f908561194c565b610b2f82600754611a92611a8b8260201c60030b90565b9160030b90565b631265e79b60e11b5f5291611935565b9081526001600160a01b03909116602082015260400190565b60405190611aca602083610515565b5f8252565b60405190611ade604083610515565b600f82526e1192114b985b1b1bddd1db1bd8985b608a1b6020830152565b805f52600560205260ff60405f20541615611b40575f818152600660205260409020546001600160401b03164210611b40575f52600460205260405f205490600190565b505f905f90565b908160209103126102db575161083481610bba565b608080821614611bd557600854604051632fd514cd60e11b81529260209284926001600160a01b03169183918291611b979160048401611aa2565b03915afa908115610974575f91611bac575090565b610834915060203d602011611bce575b611bc68183610515565b810190611b47565b503d611bbc565b5050600190565b60405190611beb604083610515565b60098252684648452e616c6c6f7760b81b6020830152565b60405190611c12604083610515565b600d82526c4648452e616c6c6f775468697360981b6020830152565b634e487b7160e01b5f52603260045260245ffd5b919081101561111b5760051b0190565b919081101561111b5760051b81013590601e19813603018212156102db5701803591906001600160401b0383116102db5760200182360381136102db579190565b928492608095928552602085015260606040850152816060850152848401375f828201840152601f01601f1916010190565b90611ccf826107c8565b611cdc6040519182610515565b8281528092611ced601f19916107c8565b0190602036910137565b80511561111b5760200190565b80516001101561111b5760210190565b90815181101561111b570160200190565b8051600411610ebd57611d386004611cc5565b905f5b60048110611d4857505090565b80611d58610e9c60019385611d14565b5f1a611d648286611d14565b5301611d3b565b9060048101808211610ef257825110610ebd57611d886004611cc5565b915f5b60048110611d995750505090565b80611db2610e9c611dac6001948761175e565b85611d14565b5f1a611dbe8287611d14565b5301611d8b565b60405190611dd4604083610515565b60128252711192114b985b1b1bddd51c985b9cda595b9d60721b6020830152565b60408051909190611e068382610515565b6001815291601f1901366020840137565b90611e218261054a565b611e2e6040519182610515565b8281528092611ced601f199161054a565b80516001101561111b5760400190565b80516002101561111b5760600190565b805182101561111b5760209160051b010190565b9092919260408201906040835280518092526020606084019101915f5b818110611eab575050602091509360018060a01b0316910152565b8351835260209384019390920191600101611e90565b60405190611ed0604083610515565b60168252752324229730b63637bba337b92232b1b93cb83a34b7b760511b6020830152565b6008546040805163573cf82560e11b8152600481019190915282516001600160a01b0390811660448301526020848101516001600160401b03166064840152919491938593909116918391829190611fb49060408101516001600160a01b03166084850152606081015160a485015260808101516001600160a01b031660c485015260a081015160e485015260e0611f9f60c0830151610100610104880152610144870190610de4565b91015184820360431901610124860152610de4565b90602483015203915afa908115610974575f91611bac575090565b5f19810191908211610ef257565b600319810191908211610ef257565b91908203918211610ef257565b9081511561205f5781515f198101908111610ef25761201790611cc5565b9160015b815181101561205b576001600160f81b03196120378284611d14565b5116905f198101818111610ef2576120546001935f1a9187611d14565b530161201b565b5050565b905060405161206f602082610515565b5f815290565b9093925f5b85811061208d5750505050505050600190565b6120bc61209b828886611c42565b356120a7838588611c42565b35906120b4848b8a611c52565b92909161221b565b156120c95760010161207a565b505050505050505f90565b6080818116036120e15750565b6120ef6109086008546102b9565b60206040518092632fd514cd60e11b82528180612110338860048401611aa2565b03915afa908115610974575f91612141575b501561212b5750565b63268989cf60e11b5f526004523360245260445ffd5b61215a915060203d602011611bce57611bc68183610515565b5f612122565b805f52600260205260ff60405f20541615612195575f19600161218283615602565b1b01905f52600160205260405f20541690565b63850a796d60e01b5f5260045260245ffd5b5f1960016121b483615602565b1b01815f52600160205260405f20555f52600260205260405f20600160ff19825416179055565b905f1960016121e984615602565b1b0116815f52600160205260405f20555f52600260205260405f20600160ff19825416179055565b600411156117c157565b9290919261222a600a546102b9565b936001600160a01b038516156122ce576122649361225e9261225691466001600160401b031691613fd5565b9236916107e3565b90614008565b5061226e81612211565b158015906122bd575b6122ae57612284826102b9565b6001600160a01b0382160361229a575050600190565b637ba5ffb560e01b5f52610b2f925061194c565b638baa579f60e01b5f5260045ffd5b506001600160a01b03811615612277565b5050505050600190565b925f936122e6600a546102b9565b936001600160a01b03851615612384576123129361225e9261225691466001600160401b031691613fd5565b5061231c81612211565b15801590612373575b61236c57612332826102b9565b6001600160a01b0382160361234957505050600190565b82612355575050505f90565b637ba5ffb560e01b8352612369919061194c565b90fd5b5050505f90565b506001600160a01b03811615612325565b505050505050600190565b6040519061239e604083610515565b600482526318d85cdd60e21b6020830152565b604051906123c0604083610515565b600a8252691cd9585b13dd5d1c1d5d60b21b6020830152565b604051906123e8604083610515565b60068252651cd95b1958dd60d21b6020830152565b6040519061240c604083610515565b6007825266191958dc9e5c1d60ca1b6020830152565b60405190612431604083610515565b600382526239bab160e91b6020830152565b60405190612452604083610515565b600382526218591960ea1b6020830152565b60405190612473604083610515565b60038252623c37b960e91b6020830152565b60405190612494604083610515565b6003825262185b9960ea1b6020830152565b604051906124b5604083610515565b600282526137b960f11b6020830152565b604051906124d5604083610515565b60038252621b9bdd60ea1b6020830152565b604051906124f6604083610515565b60038252623234bb60e91b6020830152565b60405190612517604083610515565b600382526272656d60e81b6020830152565b60405190612538604083610515565b60038252621b5d5b60ea1b6020830152565b60405190612559604083610515565b60038252621cda1b60ea1b6020830152565b6040519061257a604083610515565b600382526239b43960e91b6020830152565b6040519061259b604083610515565b600382526267746560e81b6020830152565b604051906125bc604083610515565b60038252626c746560e81b6020830152565b604051906125dd604083610515565b60028252611b1d60f21b6020830152565b604051906125fd604083610515565b600282526119dd60f21b6020830152565b6040519061261d604083610515565b600382526236b4b760e91b6020830152565b6040519061263e604083610515565b60038252620dac2f60eb1b6020830152565b6040519061265f604083610515565b6002825261657160f01b6020830152565b6040519061267f604083610515565b60028252616e6560f01b6020830152565b6040519061269f604083610515565b600e82526d1d1c9a5d9a585b115b98dc9e5c1d60921b6020830152565b604051906126cb604083610515565b600682526572616e646f6d60d01b6020830152565b604051906126ef604083610515565b60038252621c9bdb60ea1b6020830152565b60405190612710604083610515565b60038252623937b960e91b6020830152565b60405190612731604083610515565b600682526573717561726560d01b6020830152565b61083461238f565b612758601a6117b7565b612762601a6117b7565b61276c601a6117b7565b612776601a6117b7565b612780601a6117b7565b61278a601a6117b7565b612794601a6117b7565b61279e601a6117b7565b6127a8601a6117b7565b6127b2601a6117b7565b6127bc601a6117b7565b6127c6601a6117b7565b6127d0601a6117b7565b6127da601a6117b7565b6127e4601a6117b7565b6127ee601a6117b7565b6127f8601a6117b7565b612802601a6117b7565b61280c601a6117b7565b612816601a6117b7565b612820601a6117b7565b61282a601a6117b7565b612834601a6117b7565b61283e601a6117b7565b610834612690565b6108346123d9565b610834612422565b61286060086117b7565b610834612443565b61287260096117b7565b61287c60096117b7565b610834612464565b61288e600a6117b7565b612898600a6117b7565b6128a2600a6117b7565b610834612485565b6128b4600b6117b7565b6128be600b6117b7565b6128c8600b6117b7565b6128d2600b6117b7565b6128dc600b6117b7565b6108346124a6565b6128ee600d6117b7565b6128f8600d6117b7565b612902600d6117b7565b61290c600d6117b7565b612916600d6117b7565b612920600d6117b7565b61292a600d6117b7565b6108346124e7565b61293c600e6117b7565b612946600e6117b7565b612950600e6117b7565b61295a600e6117b7565b612964600e6117b7565b61296e600e6117b7565b612978600e6117b7565b612982600e6117b7565b61298c600e6117b7565b610834612508565b61299e600f6117b7565b6129a8600f6117b7565b6129b2600f6117b7565b6129bc600f6117b7565b6129c6600f6117b7565b6129d0600f6117b7565b6129da600f6117b7565b6129e4600f6117b7565b6129ee600f6117b7565b6129f8600f6117b7565b610834612529565b612a0a60106117b7565b612a1460106117b7565b612a1e60106117b7565b612a2860106117b7565b612a3260106117b7565b612a3c60106117b7565b612a4660106117b7565b612a5060106117b7565b612a5a60106117b7565b612a6460106117b7565b612a6e60106117b7565b61083461254a565b612a8060116117b7565b612a8a60116117b7565b612a9460116117b7565b612a9e60116117b7565b612aa860116117b7565b612ab260116117b7565b612abc60116117b7565b612ac660116117b7565b612ad060116117b7565b612ada60116117b7565b612ae460116117b7565b612aee60116117b7565b612af860116117b7565b61083461256b565b612b0a60126117b7565b612b1460126117b7565b612b1e60126117b7565b612b2860126117b7565b612b3260126117b7565b612b3c60126117b7565b612b4660126117b7565b612b5060126117b7565b612b5a60126117b7565b612b6460126117b7565b612b6e60126117b7565b612b7860126117b7565b612b8260126117b7565b612b8c60126117b7565b61083461258c565b612b9e60136117b7565b612ba860136117b7565b612bb260136117b7565b612bbc60136117b7565b612bc660136117b7565b612bd060136117b7565b612bda60136117b7565b612be460136117b7565b612bee60136117b7565b612bf860136117b7565b612c0260136117b7565b612c0c60136117b7565b612c1660136117b7565b612c2060136117b7565b612c2a60136117b7565b6108346125ad565b612c3c60146117b7565b612c4660146117b7565b612c5060146117b7565b612c5a60146117b7565b612c6460146117b7565b612c6e60146117b7565b612c7860146117b7565b612c8260146117b7565b612c8c60146117b7565b612c9660146117b7565b612ca060146117b7565b612caa60146117b7565b612cb460146117b7565b612cbe60146117b7565b612cc860146117b7565b612cd260146117b7565b612cdc60146117b7565b6108346125ce565b612cee60156117b7565b612cf860156117b7565b612d0260156117b7565b612d0c60156117b7565b612d1660156117b7565b612d2060156117b7565b612d2a60156117b7565b612d3460156117b7565b612d3e60156117b7565b612d4860156117b7565b612d5260156117b7565b612d5c60156117b7565b612d6660156117b7565b612d7060156117b7565b612d7a60156117b7565b612d8460156117b7565b612d8e60156117b7565b612d9860156117b7565b6108346125ee565b612daa60166117b7565b612db460166117b7565b612dbe60166117b7565b612dc860166117b7565b612dd260166117b7565b612ddc60166117b7565b612de660166117b7565b612df060166117b7565b612dfa60166117b7565b612e0460166117b7565b612e0e60166117b7565b612e1860166117b7565b612e2260166117b7565b612e2c60166117b7565b612e3660166117b7565b612e4060166117b7565b612e4a60166117b7565b612e5460166117b7565b612e5e60166117b7565b61083461260e565b612e7060176117b7565b612e7a60176117b7565b612e8460176117b7565b612e8e60176117b7565b612e9860176117b7565b612ea260176117b7565b612eac60176117b7565b612eb660176117b7565b612ec060176117b7565b612eca60176117b7565b612ed460176117b7565b612ede60176117b7565b612ee860176117b7565b612ef260176117b7565b612efc60176117b7565b612f0660176117b7565b612f1060176117b7565b612f1a60176117b7565b612f2460176117b7565b612f2e60176117b7565b612f3860176117b7565b61083461262f565b612f4a60186117b7565b612f5460186117b7565b612f5e60186117b7565b612f6860186117b7565b612f7260186117b7565b612f7c60186117b7565b612f8660186117b7565b612f9060186117b7565b612f9a60186117b7565b612fa460186117b7565b612fae60186117b7565b612fb860186117b7565b612fc260186117b7565b612fcc60186117b7565b612fd660186117b7565b612fe060186117b7565b612fea60186117b7565b612ff460186117b7565b612ffe60186117b7565b61300860186117b7565b61301260186117b7565b61301c60186117b7565b610834612650565b61302e60196117b7565b61303860196117b7565b61304260196117b7565b61304c60196117b7565b61305660196117b7565b61306060196117b7565b61306a60196117b7565b61307460196117b7565b61307e60196117b7565b61308860196117b7565b61309260196117b7565b61309c60196117b7565b6130a660196117b7565b6130b060196117b7565b6130ba60196117b7565b6130c460196117b7565b6130ce60196117b7565b6130d860196117b7565b6130e260196117b7565b6130ec60196117b7565b6130f660196117b7565b61310060196117b7565b61310a60196117b7565b610834612670565b61311c601c6117b7565b613126601c6117b7565b613130601c6117b7565b61313a601c6117b7565b613144601c6117b7565b61314e601c6117b7565b613158601c6117b7565b613162601c6117b7565b61316c601c6117b7565b613176601c6117b7565b613180601c6117b7565b61318a601c6117b7565b613194601c6117b7565b61319e601c6117b7565b6131a8601c6117b7565b6131b2601c6117b7565b6131bc601c6117b7565b6131c6601c6117b7565b6131d0601c6117b7565b6131da601c6117b7565b6131e4601c6117b7565b6131ee601c6117b7565b6131f8601c6117b7565b613202601c6117b7565b61320c601c6117b7565b613216601c6117b7565b6108346126e0565b613228601d6117b7565b613232601d6117b7565b61323c601d6117b7565b613246601d6117b7565b613250601d6117b7565b61325a601d6117b7565b613264601d6117b7565b61326e601d6117b7565b613278601d6117b7565b613282601d6117b7565b61328c601d6117b7565b613296601d6117b7565b6132a0601d6117b7565b6132aa601d6117b7565b6132b4601d6117b7565b6132be601d6117b7565b6132c8601d6117b7565b6132d2601d6117b7565b6132dc601d6117b7565b6132e6601d6117b7565b6132f0601d6117b7565b6132fa601d6117b7565b613304601d6117b7565b61330e601d6117b7565b613318601d6117b7565b613322601d6117b7565b61332c601d6117b7565b610834612701565b61333e601b6117b7565b613348601b6117b7565b613352601b6117b7565b61335c601b6117b7565b613366601b6117b7565b613370601b6117b7565b61337a601b6117b7565b613384601b6117b7565b61338e601b6117b7565b613398601b6117b7565b6133a2601b6117b7565b6133ac601b6117b7565b6133b6601b6117b7565b6133c0601b6117b7565b6133ca601b6117b7565b6133d4601b6117b7565b6133de601b6117b7565b6133e8601b6117b7565b6133f2601b6117b7565b6133fc601b6117b7565b613406601b6117b7565b613410601b6117b7565b61341a601b6117b7565b613424601b6117b7565b61342e601b6117b7565b6108346126bc565b613440600c6117b7565b61344a600c6117b7565b613454600c6117b7565b61345e600c6117b7565b613468600c6117b7565b613472600c6117b7565b6108346124c6565b613484601e6117b7565b61348e601e6117b7565b613498601e6117b7565b6134a2601e6117b7565b6134ac601e6117b7565b6134b6601e6117b7565b6134c0601e6117b7565b6134ca601e6117b7565b6134d4601e6117b7565b6134de601e6117b7565b6134e8601e6117b7565b6134f2601e6117b7565b6134fc601e6117b7565b613506601e6117b7565b613510601e6117b7565b61351a601e6117b7565b613524601e6117b7565b61352e601e6117b7565b613538601e6117b7565b613542601e6117b7565b61354c601e6117b7565b613556601e6117b7565b613560601e6117b7565b61356a601e6117b7565b613574601e6117b7565b61357e601e6117b7565b613588601e6117b7565b613592601e6117b7565b610834612722565b6135a3816117b7565b60028114613868576135b4816117b7565b6003811461385f576135c5816117b7565b60048114613856576135d6816117b7565b6006811461384d576135e7816117b7565b60078114613844576135f8816117b7565b6008811461383b57613609816117b7565b600981146138325761361a816117b7565b600a81146138295761362b816117b7565b600b81146138205761363c816117b7565b600c81146138175761364d816117b7565b600d811461380e5761365e816117b7565b600e81146138055761366f816117b7565b600f81146137fc57613680816117b7565b601081146137f357613691816117b7565b601181146137ea576136a2816117b7565b601281146137e1576136b3816117b7565b601381146137d8576136c4816117b7565b601481146137cf576136d5816117b7565b601581146137c6576136e6816117b7565b601681146137bd576136f7816117b7565b601781146137b457613708816117b7565b601881146137ab57613719816117b7565b601981146137a25761372a816117b7565b601a81146137995761373b816117b7565b601b81146137905761374c816117b7565b601c81146137875761375d816117b7565b601d811461377e5780613771601e926117b7565b1461359257610834611abb565b50610834612701565b506108346126e0565b506108346126bc565b50610834612690565b50610834612670565b50610834612650565b5061083461262f565b5061083461260e565b506108346125ee565b506108346125ce565b506108346125ad565b5061083461258c565b5061083461256b565b5061083461254a565b50610834612529565b50610834612508565b506108346124e7565b506108346124c6565b506108346124a6565b50610834612485565b50610834612464565b50610834612443565b50610834612422565b506108346123fd565b506108346123d9565b506108346123b1565b5061083461238f565b6040906117e0600293959495606083526060830190610de4565b6040906117e0600193959495606083526060830190610de4565b9190916138b18361359a565b8151156139c7576138c1846117b7565b60048403613923576138d2826140dd565b6138e76138de83611cf7565b5160ff165f0b90565b936138f4610c1b86613dca565b61390c5761054893945061390783614172565b6141e6565b610b2f85600754611a92611a8b8260201c60030b90565b61392c84614062565b1561395e5781516001810361394157506138d2565b6040516326a10d4760e21b8152918291611901916004840161388b565b8151600281036139aa575061398861397583611cf7565b5161397f84611e3f565b5118617fff1690565b156138d2576040516352b50ae160e01b81529081906119019060048301610e08565b6040516326a10d4760e21b81529182916119019160048401613871565b91926139d79150610c1b90614042565b6139de5750565b60405163598b095560e11b81529081906119019060048301610e08565b60ff1660ff8114610ef25760010190565b9190825181518101809111610ef257613a2490611e17565b905f5b845160ff821690811015613a5a579081613a4f613a47613a559489611e5f565b519186611e5f565b526139fb565b613a27565b509392935b613a6c845183519061175e565b60ff821690811015613a995790613a9491613a4f613a47613a8e885184611fec565b86611e5f565b613a5f565b505050905090565b613aad90929192614042565b613ac5575080511561111b576020015160ff165f0b90565b809150515f198101908111610ef257613add91611e5f565b5160030b90565b805191908290602001825e015f815290565b61054890613b18613b1294936040519586936020850190613ae4565b90613ae4565b03601f198101845283610515565b91909293606094613b36816117b7565b601a8114905f965b845160ff891690811015613b7857613b7291613b66613b60613b6c9389611e5f565b516142d4565b90613af6565b976139fb565b96613b3e565b50909361083496939750949194613b8e856117b7565b601e8514613bf3575b5090613bc8613be06001613bed94613bae886117b7565b60ff60f81b8860f81b166040519485926020840190613ae4565b9060ff60f81b16815203601e19810184520182610515565b60208151910120936142f8565b91613e70565b935090613bc8613be06001613c13613bed95613b66613b60600f9a611cf7565b9394505050613b97565b91613c3c9060809497969592845260a0602085015260a0840190610de4565b95604083015260608201520152565b9093613c3c6080935f959796845260a0602085015260a0840190610de4565b613c885f93608093969596835260a0602084015260a0830190610de4565b9460408201528260608201520152565b909160018151148015613db3575b15613ceb5791613ce4835f516020615c215f395f51905f52613cdc613ccd61054897611cf7565b51604051918291878984613c6a565b0390a1611cf7565b5191615284565b8051600203613d4957610548925f516020615c215f395f51905f52613d0f83611cf7565b51613d1984611e3f565b5190613d2c604051928392868985613c4b565b0390a1613d42613d3b83611cf7565b5192611e3f565b5192614bae565b610548925f516020615c215f395f51905f52613d6483611cf7565b51613d6e84611e3f565b5190613d8b613d7c86611e4f565b51604051938493878a86613c1d565b0390a1613d9782611cf7565b5190613dac613da584611e3f565b5193611e4f565b5193614473565b50613dc5613dbf612746565b846157fd565b613ca6565b6007549060030b8160201c60030b8112159182613de657505090565b60030b1215919050565b6060613e5e928251906040840151906020850151604051926020840194855260ff60f81b9060f81b16604084015260ff60f81b9060f81b166041830152600180851b031990841b16604282015246605682015260568152613e52607682610515565b5190209101519061539f565b6001600160a01b038116156122ae5790565b9215613e9057607f60ff6080925b1692161760081b179061ffff19161790565b607f60ff5f92613e7e565b60405190613eaa604083610515565b60048252630714a4e160e51b6020830152565b60405190613ecc604083610515565b60038252620103e160ed1b6020830152565b91936004613f0861054895613b12613b129998613b12613b18976040519c8d9a60208c0190613ae4565b63010169f160e51b81520190613ae4565b919060ff5f5416613f2957505050565b613f34611040613e9b565b613f3f611051613ebd565b6001600160a01b039093169384613f596110716028611750565b956030613f6588611cf7565b536078613f7188611d04565b53613f7c6028611742565b60018111613f9a57506110bc5750916110b793916105489593613ede565b90600f8116601081101561111b57613fd091611110916f181899199a1a9b1b9c1cb0b131b232b360811b901a611109858c611d14565b613f7c565b909291613fe1826156df565b60405194855260e01b602085015260c01b6024840152602c830152604c8083209201604052565b8151919060418303614038576140319250602082015190606060408401519301515f1a906156ed565b9192909190565b50505f9160029190565b60208110156117c157601b811490811561405a575090565b601a91501490565b60208110156117c157600c8114908115614092575b8115614081575090565b6002915061408e816117b7565b1490565b601e81149150614077565b60068152651cd95b1958dd60d21b602082015260400190565b6040600391939293606081526117e06060820161409d565b6020610834918181520161409d565b80516003810361415557506140fe6140f482611e3f565b5161397f83611e4f565b61413b5761410e61411491611cf7565b516156df565b60ff811661411f5750565b63884a0e9d60e01b5f90815260ff90911660045260245260445ffd5b6040516352b50ae160e01b815280611901600482016140ce565b6040516326a10d4760e21b815290819061190190600483016140b6565b5f5b81519060ff8116918210156141a35761419961419361419e9385611e5f565b516120d4565b6139fb565b614174565b505050565b919060206141c0600792604086526040860190610de4565b930152565b9060ff6141df602092959495604085526040850190610de4565b9416910152565b929091926141f381615765565b6142ce57614200906157aa565b15614263575f5b835160ff82169081101561425c57600761422761410e61422e9388611e5f565b1860ff1690565b156142415761423c906139fb565b614207565b604051631236966f60e31b81528061190185600483016141a8565b5050915050565b5f9291925b825160ff82169081101561425c5761410e6142839185611e5f565b60ff60078218161580156142c3575b6142a557506142a0906139fb565b614268565b604051631236966f60e31b81529081906119019087600484016141c5565b5060ff811615614292565b50915050565b6040805191906142e48184610515565b602083526020830190601f19013682375290565b614301816117b7565b60138114908115614389575b8115614374575b811561435f575b811561434a575b8115614336575b506143315790565b505f90565b60199150614343816117b7565b145f614329565b9050614355816117b7565b6018811490614322565b905061436a816117b7565b601581149061431b565b905061437f816117b7565b6012811490614314565b9050614394816117b7565b601481149061430d565b90610548613b1892604051938491664648452e61734560c81b60208401526027830190613ae4565b6001610548916143f36143e59594836040519788946020860190613ae4565b600560fb1b81520190613ae4565b602960f81b815203601e19810185520183610515565b613b1861442b9493600361443b6105489582604051998a976020890190613ae4565b620101f960ed1b81520190613ae4565b620101d160ed1b81520190613ae4565b6040519061445a604083610515565b600a8252691192114b9cd95b1958dd60b21b6020830152565b929193909361448961448361274e565b866157fd565b61452657614498614483612846565b6144b757604051635e45fa0160e01b8152806119018760048301610e08565b6105489450916144fb916145016144fb6144f58660016144d961450799612160565b03614515576144f06144ea87612160565b8a6121db565b6154ec565b936154ec565b916154ec565b91614409565b9061451061444b565b615679565b6144f061452186612160565b6144ea565b6105489450838194935061453a92506121db565b6145706144fb61455461454f6115e58561597f565b61439e565b9361456a6145646115e58661597f565b91615a17565b906143c6565b91615679565b61054890613b18614594949360036040519687946020860190613ae4565b6201016960ed1b81520190613ae4565b604051906145b3604083610515565b60078252662324229739bab160c91b6020830152565b61054890613b186145e7949360036040519687946020860190613ae4565b6201015960ed1b81520190613ae4565b60405190614606604083610515565b60078252661192114b98591960ca1b6020830152565b61054890613b1861463a949360036040519687946020860190613ae4565b620102f160ed1b81520190613ae4565b60405190614659604083610515565b6007825266232422973c37b960c91b6020830152565b61054890613b1861468d949360036040519687946020860190613ae4565b6201013160ed1b81520190613ae4565b604051906146ac604083610515565b60078252661192114b985b9960ca1b6020830152565b61054890613b186146e0949360036040519687946020860190613ae4565b620103e160ed1b81520190613ae4565b604051906146ff604083610515565b60068252652324229737b960d11b6020830152565b8115611729570490565b61054890613b1861473c949360036040519687946020860190613ae4565b6201017960ed1b81520190613ae4565b6040519061475b604083610515565b6007825266232422973234bb60c91b6020830152565b61054890613b1861478f949360036040519687946020860190613ae4565b6201012960ed1b81520190613ae4565b604051906147ae604083610515565b60078252664648452e72656d60c81b6020830152565b61054890613b186147e2949360036040519687946020860190613ae4565b6201015160ed1b81520190613ae4565b60405190614801604083610515565b60078252661192114b9b5d5b60ca1b6020830152565b61054890613b18614835949360046040519687946020860190613ae4565b630101e1e160e51b81520190613ae4565b60405190614855604083610515565b60078252661192114b9cda1b60ca1b6020830152565b61054890613b18614889949360046040519687946020860190613ae4565b630101f1f160e51b81520190613ae4565b604051906148a9604083610515565b60078252662324229739b43960c91b6020830152565b61054890613b186148dd949360046040519687946020860190613ae4565b630101f1e960e51b81520190613ae4565b604051906148fd604083610515565b60078252664648452e67746560c81b6020830152565b61054890613b18614931949360046040519687946020860190613ae4565b630101e1e960e51b81520190613ae4565b60405190614951604083610515565b60078252664648452e6c746560c81b6020830152565b61054890613b18614985949360036040519687946020860190613ae4565b620101e160ed1b81520190613ae4565b604051906149a4604083610515565b60068252651192114b9b1d60d21b6020830152565b61054890613b186149d7949360036040519687946020860190613ae4565b620101f160ed1b81520190613ae4565b604051906149f6604083610515565b60068252651192114b99dd60d21b6020830152565b6001610548916143f3614a3895946002604051978894630dad2dc560e31b60208701526024860190613ae4565b61016160f51b81520190613ae4565b60405190614a56604083610515565b60078252662324229736b4b760c91b6020830152565b6001610548916143f3614a3895946002604051978894630dac2f0560e31b60208701526024860190613ae4565b60405190614aa8604083610515565b600782526608c908a5cdac2f60cb1b6020830152565b61054890613b18614adc949360046040519687946020860190613ae4565b630101e9e960e51b81520190613ae4565b60405190614afc604083610515565b60068252654648452e657160d01b6020830152565b61054890613b18614b2f949360046040519687946020860190613ae4565b63010109e960e51b81520190613ae4565b60405190614b4f604083610515565b60068252654648452e6e6560d01b6020830152565b60405190614b73604083610515565b60078252661192114b9c9bdb60ca1b6020830152565b60405190614b98604083610515565b6007825266232422973937b960c91b6020830152565b91929092614bc3614bbd61284e565b856157fd565b6151aa57614bd2614bbd612856565b61516c57614be1614bbd612868565b61512e57614bf0614bbd612884565b6150f057614bff614bbd6128aa565b6150b257614c0e614bbd6128e4565b61506357614c1d614bbd612932565b61502357614c2c614bbd612994565b614fe557614c3b614bbd612a00565b614fbd57614c4a614bbd612a76565b614f9557614c59614bbd612b00565b614f5657614c68614bbd612b94565b614f1757614c77614bbd612c32565b614ed957614c86614bbd612ce4565b614e9b57614c95614bbd612da0565b614e5557614ca4614bbd612e66565b614df857614cb3614bbd612f40565b614dba57614cc2614bbd613024565b614d7b57614cd1614bbd613112565b614d3d57614ce0614bbd61321e565b614cff5760405163cef6088560e01b8152806119018660048301610e08565b6105489350614d3491614d2e6144fb836144f0614d1e6144fb96612160565b614d2786612160565b1c886121db565b9061486b565b90614510614b89565b6105489350614d7291614d6c6144fb836144f0614d5c6144fb96612160565b614d6586612160565b1b886121db565b90614817565b90614510614b64565b6105489350614db191614dab6144fb836144f0614d9a6144fb96612160565b614da386612160565b141588615b6b565b90614b11565b90614510614b40565b6105489350614def91614de96144fb836144f0614dd96144fb96612160565b614de286612160565b1488615b6b565b90614abe565b90614510614aed565b6105489350614e3b91614e356144fb83614e146144fb95612160565b614e1d85612160565b1015614e44576144f0614e2f82612160565b886121db565b90614a6c565b90614510614a99565b6144f0614e5085612160565b614e2f565b6105489350614e9291614e8c6144fb83614e716144fb95612160565b614e7a85612160565b1115614e44576144f0614e2f82612160565b90614a0b565b90614510614a47565b6105489350614ed091614eca6144fb836144f0614eba6144fb96612160565b614ec386612160565b1088615b6b565b906149b9565b906145106149e7565b6105489350614f0e91614f086144fb836144f0614ef86144fb96612160565b614f0186612160565b1188615b6b565b90614967565b90614510614995565b6105489350614f4d91614f476144fb836144f0614f366144fb96612160565b614f3f86612160565b101588615b6b565b90614913565b90614510614942565b6105489350614f8c91614f866144fb836144f0614f756144fb96612160565b614f7e86612160565b111588615b6b565b906148bf565b906145106148ee565b6105489350614fb491614d2e6144fb836144f0614d1e6144fb96612160565b9061451061489a565b6105489350614fdc91614d6c6144fb836144f0614d5c6144fb96612160565b90614510614846565b610548935061501a916150146144fb836144f06150046144fb96612160565b61500d86612160565b02886121db565b906147c4565b906145106147f2565b610548935061505a916150546144fb836144f0614e2f6150456144fb97612160565b61504e87612160565b9061171f565b90614771565b9061451061479f565b61054893508161508e6144fb6144fb9361507f61509496612160565b8061509d57506144f0876121a7565b9061471e565b9061451061474c565b614e2f6144f0916150ad84612160565b614714565b61054893506150e7916150e16144fb836144f06150d16144fb96612160565b6150da86612160565b17886121db565b906146c2565b906145106146f0565b61054893506151259161511f6144fb836144f061510f6144fb96612160565b61511886612160565b16886121db565b9061466f565b9061451061469d565b61054893506151639161515d6144fb836144f061514d6144fb96612160565b61515686612160565b18886121db565b9061461c565b9061451061464a565b61054893506151a19161519b6144fb836144f061518b6144fb96612160565b61519486612160565b01886121db565b906145c9565b906145106145f7565b61054893506151e0916151da6144fb836144f06151c96144fb96612160565b6151d286612160565b9003886121db565b90614576565b906145106145a4565b604051906151f8604083610515565b600a8252694648452e72616e646f6d60b01b6020830152565b60405190615220604083610515565b60088252671192114b98d85cdd60c21b6020830152565b60405190615246604083610515565b60078252661192114b9b9bdd60ca1b6020830152565b6040519061526b604083610515565b600a8252694648452e73717561726560b01b6020830152565b9091615291613dbf613334565b61536c576152a0613dbf612746565b615345576152af613dbf613436565b61531a576152be613dbf61347a565b6152dd57604051633654b39f60e21b8152806119018560048301610e08565b61054892506144fb816153056152f561531194612160565b6152fe83612160565b02856121db565b6150146144fb826154ec565b9061451061525c565b61054892506144fb816144f0600161533461533c95612160565b141585615b6b565b90614510615237565b61054892506144fb816144f061535d61536394612160565b856121db565b90614510615211565b506105489150615389906144f061538243611fcf565b40826121db565b6153916151e9565b615399611abb565b90615679565b610834916153ac91614008565b90929192615b88565b90601082511015610548576153ca6010611cc5565b5f5b8351811015615400576001906001600160f81b03196153eb8287611d14565b51165f1a6153f98285611d14565b53016153cc565b909192505b60108110615411575090565b80602061542060019385611d14565b5301615405565b60405190615436604083610515565b600582526466616c736560d81b6020830152565b60405190615459604083610515565b60048252637472756560e01b6020830152565b6040519061547b604083610515565b6005825264454d50545960d81b6020830152565b6154d66143e5959460026154c761054896826154b8600198896040519d8e9a60208c0190613ae4565b61171760f11b81520190613ae4565b61295b60f01b81520190613ae4565b605d60f81b815203601e19810185520183610515565b6154f581615a17565b80519160068311156155af5761083492815f52600260205261551c60405f2060ff90541690565b9161552f815f52600160205260405f2090565b5461553982615c04565b156155a05760010361558d5761557261555961555361544a565b9261597f565b9461556c61556682611d25565b94611fdd565b90611d6b565b921561557e579261548f565b5061558761546c565b9261548f565b61557261555961559b615427565b615553565b61555961555361557292615a17565b50905090565b5f80916040516155ef816155e1602082019463104c13eb60e21b86526020602484018181520190610de4565b03601f198101835282610515565b51906a636f6e736f6c652e6c6f675afa50565b61560d60ff916156df565b1680156156735760028114615673576003811461566d57600481146156675760058114615661576006811461565b57600881146156545760071461564f575f90565b60a090565b5061010090565b50608090565b50604090565b50602090565b50601090565b50600890565b9160ff5f541661568857505050565b610548926155e16110b79260066156cc613b1296613b126156b06156aa613e9b565b976153b5565b613b126156bb613ebd565b916040519b8c9a60208c0190613ae4565b65010101e9f10160d51b81520190613ae4565b60ff90617f001660081c1690565b91906fa2a8918ca85bafe22016d0b997e4df60600160ff1b03841161575a579160209360809260ff5f9560405194855216868401526040830152606082015282805260015afa15610974575f516001600160a01b0381161561575057905f905f90565b505f906001905f90565b5050505f9160039190565b60208110156117c1576004811490811561579f575b811561578a578115614081575090565b9050615795816117b7565b6019811490614077565b60188114915061577a565b60208110156117c157600981149081156157f2575b81156157dd575b81156157d0575090565b600c915061408e816117b7565b90506157e8816117b7565b600b8114906157c6565b600a811491506157bf565b604051615812816155e1602082018095613ae4565b5190209060405161582b816155e1602082018095613ae4565b5190201490565b60405190615841604083610515565b600582526419589bdbdb60da1b6020830152565b60405190615864604083610515565b60068252650caead2dce8760d31b6020830152565b60405190615888604083610515565b600782526632bab4b73a189b60c91b6020830152565b604051906158ad604083610515565b600782526632bab4b73a199960c91b6020830152565b604051906158d2604083610515565b6007825266195d5a5b9d0d8d60ca1b6020830152565b604051906158f7604083610515565b60088252670caead2dce86264760c31b6020830152565b6040519061591d604083610515565b600882526732bab4b73a191a9b60c11b6020830152565b60405190615943604083610515565b6008825267656164647265737360c01b6020830152565b60405190615969604083610515565b60078252663ab735b737bbb760c91b6020830152565b61598a60ff916156df565b168015615a0e5760028114615a0557600381146159fc57600481146159f357600581146159ea57600681146159e157600881146159d8576007146159d05761083461595a565b610834615934565b5061083461590e565b506108346158e8565b506108346158c3565b5061083461589e565b50610834615879565b50610834615855565b50610834615832565b5f908072184f03e93ff9f4daa797ed6e38ed64bf6a1f0160401b811015615b48575b600a906904ee2d6d415b85acef8160201b811015615b2d575b662386f26fc10000811015615b18575b6305f5e100811015615b06575b612710811015615af6575b6064811015615ae7575b1015615adc575b615ac76021615a9c60018501611cc5565b938401015b5f1901916f181899199a1a9b1b9c1cb0b131b232b360811b600a82061a8353600a900490565b8015615ad757615ac79091615aa1565b505090565b600190910190615a8b565b60029060649004930192615a84565b6004906127109004930192615a7a565b6008906305f5e1009004930192615a6f565b601090662386f26fc100009004930192615a62565b6020906904ee2d6d415b85acef8160201b9004930192615a52565b506040915072184f03e93ff9f4daa797ed6e38ed64bf6a1f0160401b8104615a39565b6105489115615b805760ff60015b16906121db565b60ff5f615b79565b615b9181612211565b80615b9a575050565b615ba381612211565b60018103615bba5763f645eedf60e01b5f5260045ffd5b615bc381612211565b60028103615bde575063fce698f760e01b5f5260045260245ffd5b80615bea600392612211565b14615bf25750565b6335e2f38360e21b5f5260045260245ffd5b615c0f60ff916156df565b161590565b8015610ef2575f19019056fee9de54a3e7ddf0c48cc6e1134185300d5a71acbf2d8c21fcdefa9d9dd9e20ac1a26469706673582212202ba8b2b9cf242817fcff7a13eb881b3d30db779a68f7fc236a72ee05341cbf3364736f6c634300081c0033",
  "linkReferences": {},
  "deployedLinkReferences": {}
}