{
  "_format": "hh-sol-artifact-1",
  "contractName": "MockTaskManager",
  "sourceName": "@cofhe/mock-contracts/contracts/MockTaskManager.sol",
  "abi": [
    {
      "inputs": [],
      "stateMutability": "nonpayable",
      "type": "constructor"
    },
    {
      "inputs": [
        {
          "internalType": "uint256",
          "name": "handle",
          "type": "uint256"
        },
        {
          "internalType": "address",
          "name": "account",
          "type": "address"
        }
      ],
      "name": "ACLNotAllowed",
      "type": "error"
    },
    {
      "inputs": [
        {
          "internalType": "uint256",
          "name": "ctHash",
          "type": "uint256"
        }
      ],
      "name": "DecryptionResultNotReady",
      "type": "error"
    },
    {
      "inputs": [],
      "name": "ECDSAInvalidSignature",
      "type": "error"
    },
    {
      "inputs": [
        {
          "internalType": "uint256",
          "name": "length",
          "type": "uint256"
        }
      ],
      "name": "ECDSAInvalidSignatureLength",
      "type": "error"
    },
    {
      "inputs": [
        {
          "internalType": "bytes32",
          "name": "s",
          "type": "bytes32"
        }
      ],
      "name": "ECDSAInvalidSignatureS",
      "type": "error"
    },
    {
      "inputs": [
        {
          "internalType": "uint256",
          "name": "ctHash",
          "type": "uint256"
        }
      ],
      "name": "InputNotInMockStorage",
      "type": "error"
    },
    {
      "inputs": [],
      "name": "InvalidAddress",
      "type": "error"
    },
    {
      "inputs": [
        {
          "internalType": "string",
          "name": "functionName",
          "type": "string"
        },
        {
          "internalType": "uint8",
          "name": "inputType",
          "type": "uint8"
        }
      ],
      "name": "InvalidInputForFunction",
      "type": "error"
    },
    {
      "inputs": [
        {
          "internalType": "uint8",
          "name": "actual",
          "type": "uint8"
        },
        {
          "internalType": "uint8",
          "name": "expected",
          "type": "uint8"
        }
      ],
      "name": "InvalidInputType",
      "type": "error"
    },
    {
      "inputs": [
        {
          "internalType": "string",
          "name": "operation",
          "type": "string"
        },
        {
          "internalType": "uint256",
          "name": "got",
          "type": "uint256"
        },
        {
          "internalType": "uint256",
          "name": "expected",
          "type": "uint256"
        }
      ],
      "name": "InvalidInputsAmount",
      "type": "error"
    },
    {
      "inputs": [
        {
          "internalType": "string",
          "name": "operation",
          "type": "string"
        }
      ],
      "name": "InvalidOperationInputs",
      "type": "error"
    },
    {
      "inputs": [
        {
          "internalType": "int32",
          "name": "zone",
          "type": "int32"
        },
        {
          "internalType": "int32",
          "name": "min",
          "type": "int32"
        },
        {
          "internalType": "int32",
          "name": "max",
          "type": "int32"
        }
      ],
      "name": "InvalidSecurityZone",
      "type": "error"
    },
    {
      "inputs": [],
      "name": "InvalidSignature",
      "type": "error"
    },
    {
      "inputs": [
        {
          "internalType": "address",
          "name": "signer",
          "type": "address"
        },
        {
          "internalType": "address",
          "name": "expectedSigner",
          "type": "address"
        }
      ],
      "name": "InvalidSigner",
      "type": "error"
    },
    {
      "inputs": [
        {
          "internalType": "string",
          "name": "operation",
          "type": "string"
        }
      ],
      "name": "InvalidThreeInputOperation",
      "type": "error"
    },
    {
      "inputs": [
        {
          "internalType": "string",
          "name": "operation",
          "type": "string"
        }
      ],
      "name": "InvalidTwoInputOperation",
      "type": "error"
    },
    {
      "inputs": [
        {
          "internalType": "string",
          "name": "operation",
          "type": "string"
        }
      ],
      "name": "InvalidTypeOrSecurityZone",
      "type": "error"
    },
    {
      "inputs": [
        {
          "internalType": "string",
          "name": "operation",
          "type": "string"
        }
      ],
      "name": "InvalidUnaryOperation",
      "type": "error"
    },
    {
      "inputs": [],
      "name": "NotImplemented",
      "type": "error"
    },
    {
      "inputs": [
        {
          "internalType": "address",
          "name": "caller",
          "type": "address"
        }
      ],
      "name": "OnlyAggregatorAllowed",
      "type": "error"
    },
    {
      "inputs": [
        {
          "internalType": "address",
          "name": "caller",
          "type": "address"
        }
      ],
      "name": "OnlyOwnerAllowed",
      "type": "error"
    },
    {
      "inputs": [],
      "name": "RandomFunctionNotSupported",
      "type": "error"
    },
    {
      "inputs": [
        {
          "internalType": "uint256",
          "name": "value",
          "type": "uint256"
        },
        {
          "internalType": "uint256",
          "name": "length",
          "type": "uint256"
        }
      ],
      "name": "StringsInsufficientHexLength",
      "type": "error"
    },
    {
      "inputs": [
        {
          "internalType": "string",
          "name": "operation",
          "type": "string"
        },
        {
          "internalType": "uint256",
          "name": "got",
          "type": "uint256"
        },
        {
          "internalType": "uint256",
          "name": "maxAllowed",
          "type": "uint256"
        }
      ],
      "name": "TooManyInputs",
      "type": "error"
    },
    {
      "anonymous": false,
      "inputs": [
        {
          "indexed": false,
          "internalType": "uint256",
          "name": "ctHash",
          "type": "uint256"
        },
        {
          "indexed": false,
          "internalType": "uint256",
          "name": "result",
          "type": "uint256"
        },
        {
          "indexed": true,
          "internalType": "address",
          "name": "requestor",
          "type": "address"
        }
      ],
      "name": "DecryptionResult",
      "type": "event"
    },
    {
      "anonymous": false,
      "inputs": [
        {
          "indexed": false,
          "internalType": "uint256",
          "name": "ctHash",
          "type": "uint256"
        },
        {
          "indexed": false,
          "internalType": "string",
          "name": "operation",
          "type": "string"
        },
        {
          "indexed": false,
          "internalType": "string",
          "name": "errorMessage",
          "type": "string"
        }
      ],
      "name": "ProtocolNotification",
      "type": "event"
    },
    {
      "anonymous": false,
      "inputs": [
        {
          "indexed": false,
          "internalType": "uint256",
          "name": "ctHash",
          "type": "uint256"
        },
        {
          "indexed": false,
          "internalType": "string",
          "name": "operation",
          "type": "string"
        },
        {
          "indexed": false,
          "internalType": "uint256",
          "name": "input1",
          "type": "uint256"
        },
        {
          "indexed": false,
          "internalType": "uint256",
          "name": "input2",
          "type": "uint256"
        },
        {
          "indexed": false,
          "internalType": "uint256",
          "name": "input3",
          "type": "uint256"
        }
      ],
      "name": "TaskCreated",
      "type": "event"
    },
    {
      "inputs": [
        {
          "internalType": "string",
          "name": "operation",
          "type": "string"
        },
        {
          "internalType": "uint256",
          "name": "ctHash",
          "type": "uint256"
        },
        {
          "internalType": "address",
          "name": "account",
          "type": "address"
        }
      ],
      "name": "MOCK_logAllow",
      "outputs": [],
      "stateMutability": "view",
      "type": "function"
    },
    {
      "inputs": [
        {
          "internalType": "uint256",
          "name": "ctHash",
          "type": "uint256"
        },
        {
          "internalType": "uint256",
          "name": "value",
          "type": "uint256"
        }
      ],
      "name": "MOCK_setInEuintKey",
      "outputs": [],
      "stateMutability": "nonpayable",
      "type": "function"
    },
    {
      "inputs": [],
      "name": "acl",
      "outputs": [
        {
          "internalType": "contract MockACL",
          "name": "",
          "type": "address"
        }
      ],
      "stateMutability": "view",
      "type": "function"
    },
    {
      "inputs": [],
      "name": "aggregator",
      "outputs": [
        {
          "internalType": "address",
          "name": "",
          "type": "address"
        }
      ],
      "stateMutability": "view",
      "type": "function"
    },
    {
      "inputs": [
        {
          "internalType": "uint256",
          "name": "ctHash",
          "type": "uint256"
        },
        {
          "internalType": "address",
          "name": "account",
          "type": "address"
        }
      ],
      "name": "allow",
      "outputs": [],
      "stateMutability": "nonpayable",
      "type": "function"
    },
    {
      "inputs": [
        {
          "internalType": "uint256",
          "name": "ctHash",
          "type": "uint256"
        }
      ],
      "name": "allowForDecryption",
      "outputs": [],
      "stateMutability": "nonpayable",
      "type": "function"
    },
    {
      "inputs": [
        {
          "internalType": "uint256",
          "name": "ctHash",
          "type": "uint256"
        }
      ],
      "name": "allowGlobal",
      "outputs": [],
      "stateMutability": "nonpayable",
      "type": "function"
    },
    {
      "inputs": [
        {
          "internalType": "uint256",
          "name": "ctHash",
          "type": "uint256"
        },
        {
          "internalType": "address",
          "name": "account",
          "type": "address"
        }
      ],
      "name": "allowTransient",
      "outputs": [],
      "stateMutability": "nonpayable",
      "type": "function"
    },
    {
      "inputs": [
        {
          "internalType": "uint256",
          "name": "ctHash",
          "type": "uint256"
        },
        {
          "internalType": "address",
          "name": "",
          "type": "address"
        }
      ],
      "name": "createDecryptTask",
      "outputs": [],
      "stateMutability": "nonpayable",
      "type": "function"
    },
    {
      "inputs": [
        {
          "internalType": "uint8",
          "name": "returnType",
          "type": "uint8"
        },
        {
          "internalType": "uint256",
          "name": "seed",
          "type": "uint256"
        },
        {
          "internalType": "int32",
          "name": "securityZone",
          "type": "int32"
        }
      ],
      "name": "createRandomTask",
      "outputs": [
        {
          "internalType": "uint256",
          "name": "",
          "type": "uint256"
        }
      ],
      "stateMutability": "nonpayable",
      "type": "function"
    },
    {
      "inputs": [
        {
          "internalType": "uint8",
          "name": "returnType",
          "type": "uint8"
        },
        {
          "internalType": "enum FunctionId",
          "name": "funcId",
          "type": "uint8"
        },
        {
          "internalType": "uint256[]",
          "name": "encryptedHashes",
          "type": "uint256[]"
        },
        {
          "internalType": "uint256[]",
          "name": "extraInputs",
          "type": "uint256[]"
        }
      ],
      "name": "createTask",
      "outputs": [
        {
          "internalType": "uint256",
          "name": "",
          "type": "uint256"
        }
      ],
      "stateMutability": "nonpayable",
      "type": "function"
    },
    {
      "inputs": [],
      "name": "decryptResultSigner",
      "outputs": [
        {
          "internalType": "address",
          "name": "",
          "type": "address"
        }
      ],
      "stateMutability": "view",
      "type": "function"
    },
    {
      "inputs": [],
      "name": "exists",
      "outputs": [
        {
          "internalType": "bool",
          "name": "",
          "type": "bool"
        }
      ],
      "stateMutability": "pure",
      "type": "function"
    },
    {
      "inputs": [
        {
          "internalType": "uint256",
          "name": "ctHash",
          "type": "uint256"
        }
      ],
      "name": "getDecryptResult",
      "outputs": [
        {
          "internalType": "uint256",
          "name": "",
          "type": "uint256"
        }
      ],
      "stateMutability": "view",
      "type": "function"
    },
    {
      "inputs": [
        {
          "internalType": "uint256",
          "name": "ctHash",
          "type": "uint256"
        }
      ],
      "name": "getDecryptResultSafe",
      "outputs": [
        {
          "internalType": "uint256",
          "name": "result",
          "type": "uint256"
        },
        {
          "internalType": "bool",
          "name": "decrypted",
          "type": "bool"
        }
      ],
      "stateMutability": "view",
      "type": "function"
    },
    {
      "inputs": [
        {
          "internalType": "uint256",
          "name": "ctHash",
          "type": "uint256"
        },
        {
          "internalType": "uint256",
          "name": "result",
          "type": "uint256"
        },
        {
          "internalType": "address[]",
          "name": "",
          "type": "address[]"
        }
      ],
      "name": "handleDecryptResult",
      "outputs": [],
      "stateMutability": "nonpayable",
      "type": "function"
    },
    {
      "inputs": [
        {
          "internalType": "uint256",
          "name": "ctHash",
          "type": "uint256"
        },
        {
          "internalType": "string",
          "name": "operation",
          "type": "string"
        },
        {
          "internalType": "string",
          "name": "errorMessage",
          "type": "string"
        }
      ],
      "name": "handleError",
      "outputs": [],
      "stateMutability": "nonpayable",
      "type": "function"
    },
    {
      "inputs": [
        {
          "internalType": "uint256",
          "name": "",
          "type": "uint256"
        }
      ],
      "name": "inMockStorage",
      "outputs": [
        {
          "internalType": "bool",
          "name": "",
          "type": "bool"
        }
      ],
      "stateMutability": "view",
      "type": "function"
    },
    {
      "inputs": [
        {
          "internalType": "address",
          "name": "initialOwner",
          "type": "address"
        }
      ],
      "name": "initialize",
      "outputs": [],
      "stateMutability": "nonpayable",
      "type": "function"
    },
    {
      "inputs": [
        {
          "internalType": "uint256",
          "name": "ctHash",
          "type": "uint256"
        },
        {
          "internalType": "address",
          "name": "account",
          "type": "address"
        }
      ],
      "name": "isAllowed",
      "outputs": [
        {
          "internalType": "bool",
          "name": "",
          "type": "bool"
        }
      ],
      "stateMutability": "view",
      "type": "function"
    },
    {
      "inputs": [
        {
          "components": [
            {
              "internalType": "address",
              "name": "issuer",
              "type": "address"
            },
            {
              "internalType": "uint64",
              "name": "expiration",
              "type": "uint64"
            },
            {
              "internalType": "address",
              "name": "recipient",
              "type": "address"
            },
            {
              "internalType": "uint256",
              "name": "validatorId",
              "type": "uint256"
            },
            {
              "internalType": "address",
              "name": "validatorContract",
              "type": "address"
            },
            {
              "internalType": "bytes32",
              "name": "sealingKey",
              "type": "bytes32"
            },
            {
              "internalType": "bytes",
              "name": "issuerSignature",
              "type": "bytes"
            },
            {
              "internalType": "bytes",
              "name": "recipientSignature",
              "type": "bytes"
            }
          ],
          "internalType": "struct Permission",
          "name": "permission",
          "type": "tuple"
        },
        {
          "internalType": "uint256",
          "name": "handle",
          "type": "uint256"
        }
      ],
      "name": "isAllowedWithPermission",
      "outputs": [
        {
          "internalType": "bool",
          "name": "",
          "type": "bool"
        }
      ],
      "stateMutability": "view",
      "type": "function"
    },
    {
      "inputs": [],
      "name": "isInitialized",
      "outputs": [
        {
          "internalType": "bool",
          "name": "",
          "type": "bool"
        }
      ],
      "stateMutability": "view",
      "type": "function"
    },
    {
      "inputs": [
        {
          "internalType": "uint256",
          "name": "ctHash",
          "type": "uint256"
        }
      ],
      "name": "isPubliclyAllowed",
      "outputs": [
        {
          "internalType": "bool",
          "name": "",
          "type": "bool"
        }
      ],
      "stateMutability": "view",
      "type": "function"
    },
    {
      "inputs": [],
      "name": "logOps",
      "outputs": [
        {
          "internalType": "bool",
          "name": "",
          "type": "bool"
        }
      ],
      "stateMutability": "view",
      "type": "function"
    },
    {
      "inputs": [
        {
          "internalType": "uint256",
          "name": "",
          "type": "uint256"
        }
      ],
      "name": "mockStorage",
      "outputs": [
        {
          "internalType": "uint256",
          "name": "",
          "type": "uint256"
        }
      ],
      "stateMutability": "view",
      "type": "function"
    },
    {
      "inputs": [
        {
          "internalType": "uint256",
          "name": "ctHash",
          "type": "uint256"
        },
        {
          "internalType": "uint256",
          "name": "result",
          "type": "uint256"
        },
        {
          "internalType": "bytes",
          "name": "signature",
          "type": "bytes"
        }
      ],
      "name": "publishDecryptResult",
      "outputs": [],
      "stateMutability": "nonpayable",
      "type": "function"
    },
    {
      "inputs": [
        {
          "internalType": "uint256[]",
          "name": "ctHashes",
          "type": "uint256[]"
        },
        {
          "internalType": "uint256[]",
          "name": "results",
          "type": "uint256[]"
        },
        {
          "internalType": "bytes[]",
          "name": "signatures",
          "type": "bytes[]"
        }
      ],
      "name": "publishDecryptResultBatch",
      "outputs": [],
      "stateMutability": "nonpayable",
      "type": "function"
    },
    {
      "inputs": [
        {
          "internalType": "string",
          "name": "str",
          "type": "string"
        }
      ],
      "name": "removeFirstLetter",
      "outputs": [
        {
          "internalType": "string",
          "name": "",
          "type": "string"
        }
      ],
      "stateMutability": "pure",
      "type": "function"
    },
    {
      "inputs": [
        {
          "internalType": "address",
          "name": "_aclAddress",
          "type": "address"
        }
      ],
      "name": "setACLContract",
      "outputs": [],
      "stateMutability": "nonpayable",
      "type": "function"
    },
    {
      "inputs": [
        {
          "internalType": "address",
          "name": "_aggregatorAddress",
          "type": "address"
        }
      ],
      "name": "setAggregator",
      "outputs": [],
      "stateMutability": "nonpayable",
      "type": "function"
    },
    {
      "inputs": [
        {
          "internalType": "address",
          "name": "signer",
          "type": "address"
        }
      ],
      "name": "setDecryptResultSigner",
      "outputs": [],
      "stateMutability": "nonpayable",
      "type": "function"
    },
    {
      "inputs": [
        {
          "internalType": "bool",
          "name": "_logOps",
          "type": "bool"
        }
      ],
      "name": "setLogOps",
      "outputs": [],
      "stateMutability": "nonpayable",
      "type": "function"
    },
    {
      "inputs": [
        {
          "internalType": "int32",
          "name": "securityZone",
          "type": "int32"
        }
      ],
      "name": "setSecurityZoneMax",
      "outputs": [],
      "stateMutability": "nonpayable",
      "type": "function"
    },
    {
      "inputs": [
        {
          "internalType": "int32",
          "name": "securityZone",
          "type": "int32"
        }
      ],
      "name": "setSecurityZoneMin",
      "outputs": [],
      "stateMutability": "nonpayable",
      "type": "function"
    },
    {
      "inputs": [
        {
          "internalType": "int32",
          "name": "minSZ",
          "type": "int32"
        },
        {
          "internalType": "int32",
          "name": "maxSZ",
          "type": "int32"
        }
      ],
      "name": "setSecurityZones",
      "outputs": [],
      "stateMutability": "nonpayable",
      "type": "function"
    },
    {
      "inputs": [
        {
          "internalType": "address",
          "name": "signer",
          "type": "address"
        }
      ],
      "name": "setVerifierSigner",
      "outputs": [],
      "stateMutability": "nonpayable",
      "type": "function"
    },
    {
      "inputs": [
        {
          "internalType": "string",
          "name": "str",
          "type": "string"
        },
        {
          "internalType": "uint256",
          "name": "start",
          "type": "uint256"
        },
        {
          "internalType": "uint256",
          "name": "length",
          "type": "uint256"
        }
      ],
      "name": "sliceString",
      "outputs": [
        {
          "internalType": "string",
          "name": "",
          "type": "string"
        }
      ],
      "stateMutability": "pure",
      "type": "function"
    },
    {
      "inputs": [
        {
          "internalType": "uint256",
          "name": "ctHash",
          "type": "uint256"
        },
        {
          "internalType": "uint256",
          "name": "result",
          "type": "uint256"
        },
        {
          "internalType": "bytes",
          "name": "signature",
          "type": "bytes"
        }
      ],
      "name": "verifyDecryptResult",
      "outputs": [
        {
          "internalType": "bool",
          "name": "",
          "type": "bool"
        }
      ],
      "stateMutability": "view",
      "type": "function"
    },
    {
      "inputs": [
        {
          "internalType": "uint256[]",
          "name": "ctHashes",
          "type": "uint256[]"
        },
        {
          "internalType": "uint256[]",
          "name": "results",
          "type": "uint256[]"
        },
        {
          "internalType": "bytes[]",
          "name": "signatures",
          "type": "bytes[]"
        }
      ],
      "name": "verifyDecryptResultBatch",
      "outputs": [
        {
          "internalType": "bool",
          "name": "",
          "type": "bool"
        }
      ],
      "stateMutability": "view",
      "type": "function"
    },
    {
      "inputs": [
        {
          "internalType": "uint256[]",
          "name": "ctHashes",
          "type": "uint256[]"
        },
        {
          "internalType": "uint256[]",
          "name": "results",
          "type": "uint256[]"
        },
        {
          "internalType": "bytes[]",
          "name": "signatures",
          "type": "bytes[]"
        }
      ],
      "name": "verifyDecryptResultBatchSafe",
      "outputs": [
        {
          "internalType": "bool[]",
          "name": "",
          "type": "bool[]"
        }
      ],
      "stateMutability": "view",
      "type": "function"
    },
    {
      "inputs": [
        {
          "internalType": "uint256",
          "name": "ctHash",
          "type": "uint256"
        },
        {
          "internalType": "uint256",
          "name": "result",
          "type": "uint256"
        },
        {
          "internalType": "bytes",
          "name": "signature",
          "type": "bytes"
        }
      ],
      "name": "verifyDecryptResultSafe",
      "outputs": [
        {
          "internalType": "bool",
          "name": "",
          "type": "bool"
        }
      ],
      "stateMutability": "view",
      "type": "function"
    },
    {
      "inputs": [
        {
          "components": [
            {
              "internalType": "uint256",
              "name": "ctHash",
              "type": "uint256"
            },
            {
              "internalType": "uint8",
              "name": "securityZone",
              "type": "uint8"
            },
            {
              "internalType": "uint8",
              "name": "utype",
              "type": "uint8"
            },
            {
              "internalType": "bytes",
              "name": "signature",
              "type": "bytes"
            }
          ],
          "internalType": "struct EncryptedInput",
          "name": "input",
          "type": "tuple"
        },
        {
          "internalType": "address",
          "name": "sender",
          "type": "address"
        }
      ],
      "name": "verifyInput",
      "outputs": [
        {
          "internalType": "uint256",
          "name": "",
          "type": "uint256"
        }
      ],
      "stateMutability": "nonpayable",
      "type": "function"
    }
  ],
  "bytecode": "0x60808060405234602057600160ff195f5416175f55615d1290816100258239f35b5f80fdfe60806040526004361015610011575f80fd5b5f3560e01c806308289827146102b457806315a486fe146102af57806318683701146102aa5780631888debd146102a55780631c76642b146102a05780631d0319311461029b578063245a7bfc146102965780632605ab9f1461029157806326594a0c1461028c578063267c4ae41461028757806327f9c7621461028257806334ef1e5a1461027d578063392e53cd14610278578063458693c9146102735780634bc982631461026e5780634d7cb0c014610269578063591363c7146102645780635faa299a1461025f5780635fb0bf911461025a578063642b3f191461025557806365d0509c14610250578063733016511461024b5780637e5cf5191461024657806380d55b691461024157806381ba09861461023c5780638b2b9c23146102375780638d9c9c92146102325780638db39c8d1461022d5780638eef9ae71461022857806392bd6c9514610223578063938fb3d91461021e578063a307d21d14610219578063a33b4b0a14610214578063ae79f04a1461020f578063c4d66de81461020a578063cae71e3714610205578063d521ed4b14610200578063de287359146101fb578063e64a0ded146101f6578063e68d826f146101f1578063f6bc7f3f146101ec5763f9120af6146101e7575f80fd5b61174b565b61170b565b6116ea565b6116cb565b6116a3565b611654565b61157d565b611516565b611415565b6113e5565b61133b565b611313565b6112b3565b611293565b611246565b61119d565b61106b565b610fd6565b610f6c565b610e8e565b610dbd565b610c50565b610c21565b610b93565b610b6c565b610af4565b610ace565b6109fd565b6109d1565b6109ac565b610900565b61085d565b6107d3565b61075a565b6106da565b6106b0565b610677565b61064d565b6105c6565b61043b565b6103c5565b610313565b602435906001600160a01b03821682036102cf57565b5f80fd5b600435906001600160a01b03821682036102cf57565b604435906001600160a01b03821682036102cf57565b35906001600160a01b03821682036102cf57565b346102cf5760403660031901126102cf576103c36004356103326102b9565b5061033c8161211c565b805f52600560205260405f20600160ff1982541617905561035c816121b1565b815f52600460205260405f20556103a861039961038a61037e600a42066117f1565b6001600160401b031690565b6001600160401b03421661181a565b915f52600660205260405f2090565b906001600160401b03166001600160401b0319825416179055565b005b346102cf5760403660031901126102cf576103c360243560043561222c565b9060606003198301126102cf5760043591602435916044356001600160401b0381116102cf57826023820112156102cf578060040135926001600160401b0384116102cf57602484830101116102cf576024019190565b346102cf576104787f023b156100bf14eedc41deb8cef114c1fce662c306697f3bfaf3dbca58130bf761046d366103e4565b90828496939461226c565b505f838152600560209081526040808320805460ff1916600117905560048252808320849055600690915290206104b990426001600160401b0316906103a8565b6040805193845260208401919091523392a2005b6004359060ff821682036102cf57565b359060ff821682036102cf57565b634e487b7160e01b5f52604160045260245ffd5b608081019081106001600160401b0382111761051a57604052565b6104eb565b90601f801991011681019081106001600160401b0382111761051a57604052565b604051906105506101008361051f565b565b6001600160401b03811161051a5760051b60200190565b9080601f830112156102cf57813561058081610552565b9261058e604051948561051f565b81845260208085019260051b8201019283116102cf57602001905b8282106105b65750505090565b81358152602091820191016105a9565b346102cf5760803660031901126102cf576105df6104cd565b6024359060208210156102cf576044356001600160401b0381116102cf5761060b903690600401610569565b90606435916001600160401b0383116102cf5761064993610633610639943690600401610569565b9261188c565b6040519081529081906020820190565b0390f35b346102cf5760203660031901126102cf576004355f526001602052602060405f2054604051908152f35b346102cf5760203660031901126102cf576004355f526002602052602060ff60405f2054166040519015158152f35b5f9103126102cf57565b346102cf575f3660031901126102cf576007546040805191901c6001600160a01b03168152602090f35b346102cf5760203660031901126102cf576106f36102d3565b6003546001600160a01b0316330361072757600a80546001600160a01b0319166001600160a01b0392909216919091179055005b63391c752b60e11b5f523360045260245ffd5b600435908160030b82036102cf57565b604435908160030b82036102cf57565b346102cf5760403660031901126102cf5761077361073a565b602435908160030b82036102cf576003546001600160a01b03163303610727576107ba906007549060201b67ffffffff00000000169067ffffffff00000000191617600755565b63ffffffff19600754169063ffffffff16176007555f80f35b346102cf575f3660031901126102cf57602060405160018152f35b6001600160401b03811161051a57601f01601f191660200190565b929192610815826107ee565b91610823604051938461051f565b8294818452818301116102cf578281602093845f960137010152565b9080601f830112156102cf5781602061085a93359101610809565b90565b346102cf5760403660031901126102cf576004356001600160401b0381116102cf57608060031982360301126102cf576040519061089a826104ff565b806004013582526108ad602482016104dd565b60208301526108be604482016104dd565b60408301526064810135916001600160401b0383116102cf576108ed610639926004610649953692010161083f565b60608201526108fa6102b9565b9061199c565b346102cf5760203660031901126102cf5760043560808082160361092057005b60085461093d906001600160a01b03165b6001600160a01b031690565b90813b156102cf5760405163846cd43360e01b815260048101829052336024820152915f908390604490829084905af19182156109a7576103c39261098d575b503390610988611b16565b61400e565b8061099b5f6109a19361051f565b806106a6565b5f61097d565b611881565b346102cf575f3660031901126102cf57602060ff60035460a01c166040519015158152f35b346102cf5760203660031901126102cf5760406109ef600435611b43565b825191825215156020820152f35b346102cf5760603660031901126102cf576004356024356001600160401b0381116102cf57610a3090369060040161083f565b6044356001600160401b0381116102cf57610a4f90369060040161083f565b60075490929060401c6001600160a01b03163303610abb57610ab67f66d3f531abdf188fde59b6d2b282dc7c725ef2bb1c6c93954054721a13c1a3fa93610aa86040519485948552606060208601526060850190610e59565b908382036040850152610e59565b0390a1005b6354ba507f60e11b5f523360045260245ffd5b346102cf576020610aea610ae1366103e4565b9291909161226c565b6040519015158152f35b346102cf5760203660031901126102cf57610b0d61073a565b6003546001600160a01b0316330361072757600754908160201c60030b808260030b12610b4b575063ffffffff169063ffffffff1916176007555f80f35b631265e79b60e11b5f52600391820b600452810b6024520b60445260645b5ffd5b346102cf5760403660031901126102cf576020610aea600435610b8d6102b9565b90611ba2565b346102cf5760203660031901126102cf57610bac61073a565b6003546001600160a01b03163303610727576007548060030b90818360030b13610bf3576007805467ffffffff00000000191667ffffffff00000000602086901b16179055005b631265e79b60e11b5f52600392830b60045260201c820b602452900b60445260645ffd5b801515036102cf57565b346102cf5760203660031901126102cf57600435610c3e81610c17565b60ff80195f541691151516175f555f80f35b346102cf5760403660031901126102cf57600435610c6c6102b9565b60808281161415610c7c565b1590565b610c8257005b600854610c97906001600160a01b0316610931565b91823b156102cf576040516379a3a7fb60e01b8152600481018290526001600160a01b0383166024820152336044820152925f908490606490829084905af19283156109a7576103c393610d07575b506001600160a01b0382163303610cff57610988611c4b565b610988611c24565b8061099b5f610d159361051f565b5f610ce6565b9181601f840112156102cf578235916001600160401b0383116102cf576020808501948460051b0101116102cf57565b60606003198201126102cf576004356001600160401b0381116102cf5781610d7591600401610d1b565b929092916024356001600160401b0381116102cf5781610d9791600401610d1b565b92909291604435906001600160401b0382116102cf57610db991600401610d1b565b9091565b346102cf57610dcb36610d4b565b5f95929193955b858110610ddb57005b610de6818786611c8a565b3590610df381858a611c8a565b35610dff828589611c9a565b919093303b156102cf57610e295f936040519687948594631868370160e01b865260048601611cdb565b038183305af19182156109a757600192610e45575b5001610dd2565b8061099b5f610e539361051f565b5f610e3e565b805180835260209291819084018484015e5f828201840152601f01601f1916010190565b90602061085a928181520190610e59565b346102cf5760603660031901126102cf576004356001600160401b0381116102cf57610ebe90369060040161083f565b6024359060443590818301808411610f6757815110610f3257610ee082611d0d565b925f5b838110610ef857604051806106498782610e7d565b80610f1f610f11610f0b6001948661180d565b86611d5c565b516001600160f81b03191690565b5f1a610f2b8288611d5c565b5301610ee3565b60405162461bcd60e51b815260206004820152600d60248201526c4f7574206f6620626f756e647360981b6044820152606490fd5b6117dd565b346102cf5760603660031901126102cf57610649610f886104cd565b602435610f9361074a565b6040519160ff6020840194168452604083015260030b606082015242608082015260808152610fc360a08261051f565b5190206040519081529081906020820190565b346102cf5760603660031901126102cf576004356024356044356001600160401b0381116102cf5761100c903690600401610d1b565b505060075460401c6001600160a01b03163303610abb575f918252600560209081526040808420805460ff191660011790556004825280842092909255600690529020805467ffffffffffffffff1916426001600160401b0316179055005b346102cf5760603660031901126102cf576004356001600160401b0381116102cf5761109b90369060040161083f565b6024356110a66102e9565b9060ff5f54166110b257005b6110c36110bd613f90565b93615482565b6110d46110ce613fb2565b926155b9565b6001600160a01b0390931693846110f36110ee60286117ff565b611d0d565b9560306110ff88611d3f565b53607861110b88611d4c565b5361111660286117f1565b60018111611150575061113957509161113493916103c39593613fd3565b615687565b63e22e27eb60e01b5f52600452601460245260445ffd5b90600f81166010811015611198576111939161118d916f181899199a1a9b1b9c1cb0b131b232b360811b901a611186858c611d5c565b5360041c90565b91615cd0565b611116565b611c76565b346102cf5760403660031901126102cf576004356111b96102b9565b6080808316036111c557005b6008546111da906001600160a01b0316610931565b91823b156102cf57604051632426f41160e11b8152600481018290526001600160a01b0383166024820152336044820152925f908490606490829084905af19283156109a7576103c393611232575b50610988611e0d565b8061099b5f6112409361051f565b5f611229565b346102cf5760203660031901126102cf5761125f6102d3565b6003546001600160a01b0316330361072757600980546001600160a01b0319166001600160a01b0392909216919091179055005b346102cf5760203660031901126102cf5763d623472560e01b5f5260045ffd5b346102cf5760203660031901126102cf576112cc6102d3565b6003546001600160a01b03163303610727576001600160a01b03168015611304576001600160601b0360a01b60085416176008555f80f35b63e6c4247b60e01b5f5260045ffd5b346102cf575f3660031901126102cf57600a546040516001600160a01b039091168152602090f35b346102cf5760203660031901126102cf5760043560808082160361135b57005b611363611e3d565b908061136e83611d3f565b52600854611384906001600160a01b0316610931565b803b156102cf57604051631e1c1cdd60e11b8152925f9184918290849082906113b290339060048401611ebb565b03925af19182156109a7576103c3926113d1575b503390610988611f09565b8061099b5f6113df9361051f565b5f6113c6565b346102cf576020610aea6113f8366103e4565b92919091612359565b35906001600160401b03821682036102cf57565b346102cf5760403660031901126102cf576004356001600160401b0381116102cf5761010060031982360301126102cf5761144e610540565b9061145b816004016102ff565b825261146960248201611401565b602083015261147a604482016102ff565b604083015260648101356060830152611495608482016102ff565b608083015260a481013560a083015260c48101356001600160401b0381116102cf576114c7906004369184010161083f565b60c083015260e4810135916001600160401b0383116102cf576114f6611504926004610649953692010161083f565b60e082015260243590611f3d565b60405190151581529081906020820190565b346102cf5760203660031901126102cf57600160a01b6001600160a01b0361153c6102d3565b166affffffffffffffffffffff60a81b6003541617176003556001600160601b0360a01b600954166009556001600160601b0360a01b600a5416600a555f80f35b346102cf5761158b36610d4b565b909291611599859695610552565b956115a7604051978861051f565b808752601f196115b682610552565b013660208901375f5b81811061160d57876040518091602082016020835281518091526020604084019201905f5b8181106115f2575050500390f35b825115158452859450602093840193909201916001016115e4565b8061163f61161e600193858b611c8a565b3561162a83878a611c8a565b359061163784898c611c9a565b929091612359565b611649828b611ea7565b9015159052016115bf565b346102cf5760203660031901126102cf576004356001600160401b0381116102cf5761168f61168a61064992369060040161083f565b612041565b604051918291602083526020830190610e59565b346102cf575f3660031901126102cf576008546040516001600160a01b039091168152602090f35b346102cf576020610aea6116de36610d4b565b949390939291926120bd565b346102cf575f3660031901126102cf57602060ff5f54166040519015158152f35b346102cf5760203660031901126102cf5760043561172881611b43565b1561173857602090604051908152f35b50631c33d95560e21b5f5260045260245ffd5b346102cf5760203660031901126102cf576117646102d3565b6003546001600160a01b03163303610727576001600160a01b03811615611304576007805468010000000000000000600160e01b03191660409290921b68010000000000000000600160e01b0316919091179055005b634e487b7160e01b5f52601260045260245ffd5b81156117d8570690565b6117ba565b634e487b7160e01b5f52601160045260245ffd5b9060018201809211610f6757565b9060028201809211610f6757565b91908201809211610f6757565b906001600160401b03809116911601906001600160401b038211610f6757565b634e487b7160e01b5f52602160045260245ffd5b6020111561185857565b61183a565b604090611877600393959495606083526060830190610e59565b9460208201520152565b6040513d5f823e3d90fd5b9190916118988361184e565b601b831461198d576118ad825185519061180d565b6003811161196457508183916118c6836118e29561395f565b6118dc6118d38784613ac6565b96879385613b5b565b90613be0565b6008549092906118fa906001600160a01b0316610931565b91823b156102cf57604051632426f41160e11b815260048101859052336024820152306044820152925f908490606490829084905af19081156109a75761085a9361194a92611950575b50613654565b83613d52565b8061099b5f61195e9361051f565b5f611944565b61196d84613654565b611989604051928392632b0399d560e01b84526004840161185d565b0390fd5b63098e08ab60e41b5f5260045ffd5b9190916119c56119b96119b3602084015160ff1690565b60ff1690565b63ffffffff1660030b90565b6009546001600160a01b03169384611a6d575b50611a079293506119ef6040835193015160ff1690565b9060ff617f0091169160081b16179061ffff19161790565b600854611a1c906001600160a01b0316610931565b803b156102cf57604051632426f41160e11b815260048101839052336024820152306044820152905f908290606490829084905af180156109a757611a5f575090565b8061099b5f61085a9361051f565b611a79610c7883613ebd565b611ac257611a879083613ee3565b936001600160a01b0381166001600160a01b038616146119d857637ba5ffb560e01b5f526001600160a01b038086166004521660245260445ffd5b610b6982600754611ae0611ad98260201c60030b90565b9160030b90565b631265e79b60e11b5f52600392830b60045290820b602452900b604452606490565b60405190611b1160208361051f565b5f8252565b60405190611b2560408361051f565b600f82526e1192114b985b1b1bddd1db1bd8985b608a1b6020830152565b805f52600560205260ff60405f20541615611b8657805f5260066020526001600160401b0360405f2054164210611b86575f52600460205260405f205490600190565b505f905f90565b908160209103126102cf575161085a81610c17565b608080821614611c1d57600854604051632fd514cd60e11b815260048101929092526001600160a01b039283166024830152909160209183916044918391165afa9081156109a7575f91611bf4575090565b61085a915060203d602011611c16575b611c0e818361051f565b810190611b8d565b503d611c04565b5050600190565b60405190611c3360408361051f565b60098252684648452e616c6c6f7760b81b6020830152565b60405190611c5a60408361051f565b600d82526c4648452e616c6c6f775468697360981b6020830152565b634e487b7160e01b5f52603260045260245ffd5b91908110156111985760051b0190565b91908110156111985760051b81013590601e19813603018212156102cf5701908135916001600160401b0383116102cf5760200182360381136102cf579190565b928492608095928552602085015260606040850152816060850152848401375f828201840152601f01601f1916010190565b90611d17826107ee565b611d24604051918261051f565b8281528092611d35601f19916107ee565b0190602036910137565b8051156111985760200190565b8051600110156111985760210190565b908151811015611198570160200190565b8051600411610f3257611d806004611d0d565b905f5b60048110611d9057505090565b80611da0610f1160019385611d5c565b5f1a611dac8286611d5c565b5301611d83565b9060048101808211610f6757825110610f3257611dd06004611d0d565b915f5b60048110611de15750505090565b80611dfa610f11611df46001948761180d565b85611d5c565b5f1a611e068287611d5c565b5301611dd3565b60405190611e1c60408361051f565b60128252711192114b985b1b1bddd51c985b9cda595b9d60721b6020830152565b60408051909190611e4e838261051f565b6001815291601f1901366020840137565b90611e6982610552565b611e76604051918261051f565b8281528092611d35601f1991610552565b8051600110156111985760400190565b8051600210156111985760600190565b80518210156111985760209160051b010190565b9092919260408201906040835280518092526020606084019101915f5b818110611ef3575050602091509360018060a01b0316910152565b8351835260209384019390920191600101611ed8565b60405190611f1860408361051f565b60168252752324229730b63637bba337b92232b1b93cb83a34b7b760511b6020830152565b6008546040805163573cf82560e11b8152600481019190915282516001600160a01b0390811660448301526020848101516001600160401b03166064840152919491938593909116918391829190611ffc9060408101516001600160a01b03166084850152606081015160a485015260808101516001600160a01b031660c485015260a081015160e485015260e0611fe760c0830151610100610104880152610144870190610e59565b91015184820360431901610124860152610e59565b90602483015203915afa9081156109a7575f91611bf4575090565b5f19810191908211610f6757565b600319810191908211610f6757565b91908203918211610f6757565b908151156120a75781515f198101908111610f675761205f90611d0d565b9160015b81518110156120a3576001600160f81b031961207f8284611d5c565b5116905f198101818111610f675761209c6001935f1a9187611d5c565b5301612063565b5050565b90506040516120b760208261051f565b5f815290565b9093925f5b8581106120d55750505050505050600190565b6121046120e3828886611c8a565b356120ef838588611c8a565b35906120fc848b8a611c9a565b92909161226c565b15612111576001016120c2565b505050505050505f90565b6080818116036121295750565b60085461213e906001600160a01b0316610931565b604051632fd514cd60e11b81526004810183905233602482015290602090829060449082905afa9081156109a7575f91612192575b501561217c5750565b63268989cf60e11b5f526004523360245260445ffd5b6121ab915060203d602011611c1657611c0e818361051f565b5f612173565b805f52600260205260ff60405f205416156121e6575f1960016121d3836156d4565b1b01905f52600160205260405f20541690565b63850a796d60e01b5f5260045260245ffd5b5f196001612205836156d4565b1b01815f52600160205260405f20555f52600260205260405f20600160ff19825416179055565b905f19600161223a846156d4565b1b0116815f52600160205260405f20555f52600260205260405f20600160ff19825416179055565b6004111561185857565b600a546001600160a01b0316939192841561234f576122c96122d1926122d7956001600160401b03461691909291607f600883901c1660405194855260e01b602085015260c01b6024840152602c830152604c8083209201604052565b923691610809565b906140ca565b506122e181612262565b1580159061233e575b61232f576001600160a01b0382166001600160a01b0382160361230e575050600190565b637ba5ffb560e01b5f526001600160a01b039081166004521660245260445ffd5b638baa579f60e01b5f5260045ffd5b506001600160a01b038116156122ea565b5050505050600190565b600a545f9491906001600160a01b0316936001600160a01b0385161561243e576122c96122d1926123c1956001600160401b03461691909291607f600883901c1660405194855260e01b602085015260c01b6024840152602c830152604c8083209201604052565b506123cb81612262565b1580159061242d575b612426576001600160a01b0382166001600160a01b038216036123f957505050600190565b82612405575050505f90565b637ba5ffb560e01b83526001600160a01b0390811660045216602452604490fd5b5050505f90565b506001600160a01b038116156123d4565b505050505050600190565b6040519061245860408361051f565b600482526318d85cdd60e21b6020830152565b6040519061247a60408361051f565b600a8252691cd9585b13dd5d1c1d5d60b21b6020830152565b604051906124a260408361051f565b60068252651cd95b1958dd60d21b6020830152565b604051906124c660408361051f565b6007825266191958dc9e5c1d60ca1b6020830152565b604051906124eb60408361051f565b600382526239bab160e91b6020830152565b6040519061250c60408361051f565b600382526218591960ea1b6020830152565b6040519061252d60408361051f565b60038252623c37b960e91b6020830152565b6040519061254e60408361051f565b6003825262185b9960ea1b6020830152565b6040519061256f60408361051f565b600282526137b960f11b6020830152565b6040519061258f60408361051f565b60038252621b9bdd60ea1b6020830152565b604051906125b060408361051f565b60038252623234bb60e91b6020830152565b604051906125d160408361051f565b600382526272656d60e81b6020830152565b604051906125f260408361051f565b60038252621b5d5b60ea1b6020830152565b6040519061261360408361051f565b60038252621cda1b60ea1b6020830152565b6040519061263460408361051f565b600382526239b43960e91b6020830152565b6040519061265560408361051f565b600382526267746560e81b6020830152565b6040519061267660408361051f565b60038252626c746560e81b6020830152565b6040519061269760408361051f565b60028252611b1d60f21b6020830152565b604051906126b760408361051f565b600282526119dd60f21b6020830152565b604051906126d760408361051f565b600382526236b4b760e91b6020830152565b604051906126f860408361051f565b60038252620dac2f60eb1b6020830152565b6040519061271960408361051f565b6002825261657160f01b6020830152565b6040519061273960408361051f565b60028252616e6560f01b6020830152565b6040519061275960408361051f565b600e82526d1d1c9a5d9a585b115b98dc9e5c1d60921b6020830152565b6040519061278560408361051f565b600682526572616e646f6d60d01b6020830152565b604051906127a960408361051f565b60038252621c9bdb60ea1b6020830152565b604051906127ca60408361051f565b60038252623937b960e91b6020830152565b604051906127eb60408361051f565b600682526573717561726560d01b6020830152565b61085a612449565b612812601a61184e565b61281c601a61184e565b612826601a61184e565b612830601a61184e565b61283a601a61184e565b612844601a61184e565b61284e601a61184e565b612858601a61184e565b612862601a61184e565b61286c601a61184e565b612876601a61184e565b612880601a61184e565b61288a601a61184e565b612894601a61184e565b61289e601a61184e565b6128a8601a61184e565b6128b2601a61184e565b6128bc601a61184e565b6128c6601a61184e565b6128d0601a61184e565b6128da601a61184e565b6128e4601a61184e565b6128ee601a61184e565b6128f8601a61184e565b61085a61274a565b61085a612493565b61085a6124dc565b61291a600861184e565b61085a6124fd565b61292c600961184e565b612936600961184e565b61085a61251e565b612948600a61184e565b612952600a61184e565b61295c600a61184e565b61085a61253f565b61296e600b61184e565b612978600b61184e565b612982600b61184e565b61298c600b61184e565b612996600b61184e565b61085a612560565b6129a8600d61184e565b6129b2600d61184e565b6129bc600d61184e565b6129c6600d61184e565b6129d0600d61184e565b6129da600d61184e565b6129e4600d61184e565b61085a6125a1565b6129f6600e61184e565b612a00600e61184e565b612a0a600e61184e565b612a14600e61184e565b612a1e600e61184e565b612a28600e61184e565b612a32600e61184e565b612a3c600e61184e565b612a46600e61184e565b61085a6125c2565b612a58600f61184e565b612a62600f61184e565b612a6c600f61184e565b612a76600f61184e565b612a80600f61184e565b612a8a600f61184e565b612a94600f61184e565b612a9e600f61184e565b612aa8600f61184e565b612ab2600f61184e565b61085a6125e3565b612ac4601061184e565b612ace601061184e565b612ad8601061184e565b612ae2601061184e565b612aec601061184e565b612af6601061184e565b612b00601061184e565b612b0a601061184e565b612b14601061184e565b612b1e601061184e565b612b28601061184e565b61085a612604565b612b3a601161184e565b612b44601161184e565b612b4e601161184e565b612b58601161184e565b612b62601161184e565b612b6c601161184e565b612b76601161184e565b612b80601161184e565b612b8a601161184e565b612b94601161184e565b612b9e601161184e565b612ba8601161184e565b612bb2601161184e565b61085a612625565b612bc4601261184e565b612bce601261184e565b612bd8601261184e565b612be2601261184e565b612bec601261184e565b612bf6601261184e565b612c00601261184e565b612c0a601261184e565b612c14601261184e565b612c1e601261184e565b612c28601261184e565b612c32601261184e565b612c3c601261184e565b612c46601261184e565b61085a612646565b612c58601361184e565b612c62601361184e565b612c6c601361184e565b612c76601361184e565b612c80601361184e565b612c8a601361184e565b612c94601361184e565b612c9e601361184e565b612ca8601361184e565b612cb2601361184e565b612cbc601361184e565b612cc6601361184e565b612cd0601361184e565b612cda601361184e565b612ce4601361184e565b61085a612667565b612cf6601461184e565b612d00601461184e565b612d0a601461184e565b612d14601461184e565b612d1e601461184e565b612d28601461184e565b612d32601461184e565b612d3c601461184e565b612d46601461184e565b612d50601461184e565b612d5a601461184e565b612d64601461184e565b612d6e601461184e565b612d78601461184e565b612d82601461184e565b612d8c601461184e565b612d96601461184e565b61085a612688565b612da8601561184e565b612db2601561184e565b612dbc601561184e565b612dc6601561184e565b612dd0601561184e565b612dda601561184e565b612de4601561184e565b612dee601561184e565b612df8601561184e565b612e02601561184e565b612e0c601561184e565b612e16601561184e565b612e20601561184e565b612e2a601561184e565b612e34601561184e565b612e3e601561184e565b612e48601561184e565b612e52601561184e565b61085a6126a8565b612e64601661184e565b612e6e601661184e565b612e78601661184e565b612e82601661184e565b612e8c601661184e565b612e96601661184e565b612ea0601661184e565b612eaa601661184e565b612eb4601661184e565b612ebe601661184e565b612ec8601661184e565b612ed2601661184e565b612edc601661184e565b612ee6601661184e565b612ef0601661184e565b612efa601661184e565b612f04601661184e565b612f0e601661184e565b612f18601661184e565b61085a6126c8565b612f2a601761184e565b612f34601761184e565b612f3e601761184e565b612f48601761184e565b612f52601761184e565b612f5c601761184e565b612f66601761184e565b612f70601761184e565b612f7a601761184e565b612f84601761184e565b612f8e601761184e565b612f98601761184e565b612fa2601761184e565b612fac601761184e565b612fb6601761184e565b612fc0601761184e565b612fca601761184e565b612fd4601761184e565b612fde601761184e565b612fe8601761184e565b612ff2601761184e565b61085a6126e9565b613004601861184e565b61300e601861184e565b613018601861184e565b613022601861184e565b61302c601861184e565b613036601861184e565b613040601861184e565b61304a601861184e565b613054601861184e565b61305e601861184e565b613068601861184e565b613072601861184e565b61307c601861184e565b613086601861184e565b613090601861184e565b61309a601861184e565b6130a4601861184e565b6130ae601861184e565b6130b8601861184e565b6130c2601861184e565b6130cc601861184e565b6130d6601861184e565b61085a61270a565b6130e8601961184e565b6130f2601961184e565b6130fc601961184e565b613106601961184e565b613110601961184e565b61311a601961184e565b613124601961184e565b61312e601961184e565b613138601961184e565b613142601961184e565b61314c601961184e565b613156601961184e565b613160601961184e565b61316a601961184e565b613174601961184e565b61317e601961184e565b613188601961184e565b613192601961184e565b61319c601961184e565b6131a6601961184e565b6131b0601961184e565b6131ba601961184e565b6131c4601961184e565b61085a61272a565b6131d6601c61184e565b6131e0601c61184e565b6131ea601c61184e565b6131f4601c61184e565b6131fe601c61184e565b613208601c61184e565b613212601c61184e565b61321c601c61184e565b613226601c61184e565b613230601c61184e565b61323a601c61184e565b613244601c61184e565b61324e601c61184e565b613258601c61184e565b613262601c61184e565b61326c601c61184e565b613276601c61184e565b613280601c61184e565b61328a601c61184e565b613294601c61184e565b61329e601c61184e565b6132a8601c61184e565b6132b2601c61184e565b6132bc601c61184e565b6132c6601c61184e565b6132d0601c61184e565b61085a61279a565b6132e2601d61184e565b6132ec601d61184e565b6132f6601d61184e565b613300601d61184e565b61330a601d61184e565b613314601d61184e565b61331e601d61184e565b613328601d61184e565b613332601d61184e565b61333c601d61184e565b613346601d61184e565b613350601d61184e565b61335a601d61184e565b613364601d61184e565b61336e601d61184e565b613378601d61184e565b613382601d61184e565b61338c601d61184e565b613396601d61184e565b6133a0601d61184e565b6133aa601d61184e565b6133b4601d61184e565b6133be601d61184e565b6133c8601d61184e565b6133d2601d61184e565b6133dc601d61184e565b6133e6601d61184e565b61085a6127bb565b6133f8601b61184e565b613402601b61184e565b61340c601b61184e565b613416601b61184e565b613420601b61184e565b61342a601b61184e565b613434601b61184e565b61343e601b61184e565b613448601b61184e565b613452601b61184e565b61345c601b61184e565b613466601b61184e565b613470601b61184e565b61347a601b61184e565b613484601b61184e565b61348e601b61184e565b613498601b61184e565b6134a2601b61184e565b6134ac601b61184e565b6134b6601b61184e565b6134c0601b61184e565b6134ca601b61184e565b6134d4601b61184e565b6134de601b61184e565b6134e8601b61184e565b61085a612776565b6134fa600c61184e565b613504600c61184e565b61350e600c61184e565b613518600c61184e565b613522600c61184e565b61352c600c61184e565b61085a612580565b61353e601e61184e565b613548601e61184e565b613552601e61184e565b61355c601e61184e565b613566601e61184e565b613570601e61184e565b61357a601e61184e565b613584601e61184e565b61358e601e61184e565b613598601e61184e565b6135a2601e61184e565b6135ac601e61184e565b6135b6601e61184e565b6135c0601e61184e565b6135ca601e61184e565b6135d4601e61184e565b6135de601e61184e565b6135e8601e61184e565b6135f2601e61184e565b6135fc601e61184e565b613606601e61184e565b613610601e61184e565b61361a601e61184e565b613624601e61184e565b61362e601e61184e565b613638601e61184e565b613642601e61184e565b61364c601e61184e565b61085a6127dc565b61365d8161184e565b600281146139225761366e8161184e565b600381146139195761367f8161184e565b60048114613910576136908161184e565b60068114613907576136a18161184e565b600781146138fe576136b28161184e565b600881146138f5576136c38161184e565b600981146138ec576136d48161184e565b600a81146138e3576136e58161184e565b600b81146138da576136f68161184e565b600c81146138d1576137078161184e565b600d81146138c8576137188161184e565b600e81146138bf576137298161184e565b600f81146138b65761373a8161184e565b601081146138ad5761374b8161184e565b601181146138a45761375c8161184e565b6012811461389b5761376d8161184e565b601381146138925761377e8161184e565b601481146138895761378f8161184e565b60158114613880576137a08161184e565b60168114613877576137b18161184e565b6017811461386e576137c28161184e565b60188114613865576137d38161184e565b6019811461385c576137e48161184e565b601a8114613853576137f58161184e565b601b811461384a576138068161184e565b601c8114613841576138178161184e565b601d8114613838578061382b601e9261184e565b1461364c5761085a611b02565b5061085a6127bb565b5061085a61279a565b5061085a612776565b5061085a61274a565b5061085a61272a565b5061085a61270a565b5061085a6126e9565b5061085a6126c8565b5061085a6126a8565b5061085a612688565b5061085a612667565b5061085a612646565b5061085a612625565b5061085a612604565b5061085a6125e3565b5061085a6125c2565b5061085a6125a1565b5061085a612580565b5061085a612560565b5061085a61253f565b5061085a61251e565b5061085a6124fd565b5061085a6124dc565b5061085a6124b7565b5061085a612493565b5061085a61246b565b5061085a612449565b604090611877600293959495606083526060830190610e59565b604090611877600193959495606083526060830190610e59565b91909161396b83613654565b815115613a815761397b8461184e565b600484036139dd5761398c8261418c565b6139a161399883611d3f565b5160ff165f0b90565b936139ae610c7886613ebd565b6139c6576105509394506139c18361423f565b6142b3565b610b6985600754611ae0611ad98260201c60030b90565b6139e684614124565b15613a18578151600181036139fb575061398c565b6040516326a10d4760e21b81529182916119899160048401613945565b815160028103613a645750613a42613a2f83611d3f565b51613a3984611e87565b5118617fff1690565b1561398c576040516352b50ae160e01b81529081906119899060048301610e7d565b6040516326a10d4760e21b8152918291611989916004840161392b565b9192613a919150610c7890614104565b613a985750565b60405163598b095560e11b81529081906119899060048301610e7d565b60ff1660ff8114610f675760010190565b9190825181518101809111610f6757613ade90611e5f565b905f5b845160ff821690811015613b14579081613b09613b01613b0f9489611ea7565b519186611ea7565b52613ab5565b613ae1565b509392935b613b26845183519061180d565b60ff821690811015613b535790613b4e91613b09613b01613b48885184612034565b86611ea7565b613b19565b505050905090565b613b6790929192614104565b613b7f5750805115611198576020015160ff165f0b90565b809150515f198101908111610f6757613b9791611ea7565b5160030b90565b805191908290602001825e015f815290565b61055090613bd2613bcc94936040519586936020850190613b9e565b90613b9e565b03601f19810184528361051f565b91909293606094613bf08161184e565b601a8114905f965b845160ff891690811015613c3257613c2c91613c20613c1a613c269389611ea7565b516143a1565b90613bb0565b97613ab5565b96613bf8565b50909361085a96939750949194613c488561184e565b601e8514613cad575b5090613c82613c9a6001613ca794613c688861184e565b60ff60f81b8860f81b166040519485926020840190613b9e565b9060ff60f81b16815203601e1981018452018261051f565b60208151910120936143c5565b91613f65565b935090613c82613c9a6001613ccd613ca795613c20613c1a600f9a611d3f565b9394505050613c51565b91613cf69060809497969592845260a0602085015260a0840190610e59565b95604083015260608201520152565b9093613cf66080935f959796845260a0602085015260a0840190610e59565b613d425f93608093969596835260a0602084015260a0830190610e59565b9460408201528260608201520152565b909160018151148015613ea6575b15613db85791613db1837fe9de54a3e7ddf0c48cc6e1134185300d5a71acbf2d8c21fcdefa9d9dd9e20ac1613da9613d9a61055097611d3f565b51604051918291878984613d24565b0390a1611d3f565b5191615351565b8051600203613e2957610550927fe9de54a3e7ddf0c48cc6e1134185300d5a71acbf2d8c21fcdefa9d9dd9e20ac1613def83611d3f565b51613df984611e87565b5190613e0c604051928392868985613d05565b0390a1613e22613e1b83611d3f565b5192611e87565b5192614c7b565b610550927fe9de54a3e7ddf0c48cc6e1134185300d5a71acbf2d8c21fcdefa9d9dd9e20ac1613e5783611d3f565b51613e6184611e87565b5190613e7e613e6f86611e97565b51604051938493878a86613cd7565b0390a1613e8a82611d3f565b5190613e9f613e9884611e87565b5193611e97565b5193614540565b50613eb8613eb2612800565b846158c9565b613d60565b6007549060030b8160201c60030b8112159182613ed957505090565b60030b1215919050565b6060613f53928251906040840151906020850151604051926020840194855260ff60f81b9060f81b16604084015260ff60f81b9060f81b1660418301526001600160601b031990841b16604282015246605682015260568152613f4760768261051f565b5190209101519061546c565b6001600160a01b0381161561232f5790565b9215613f8557607f60ff6080925b1692161760081b179061ffff19161790565b607f60ff5f92613f73565b60405190613f9f60408361051f565b60048252630714a4e160e51b6020830152565b60405190613fc160408361051f565b60038252620103e160ed1b6020830152565b91936004613ffd61055095613bcc613bcc9998613bcc613bd2976040519c8d9a60208c0190613b9e565b63010169f160e51b81520190613b9e565b919060ff5f541661401e57505050565b6140296110bd613f90565b6140346110ce613fb2565b6001600160a01b03909316938461404e6110ee60286117ff565b95603061405a88611d3f565b53607861406688611d4c565b5361407160286117f1565b6001811161408f575061113957509161113493916105509593613fd3565b90600f81166010811015611198576140c59161118d916f181899199a1a9b1b9c1cb0b131b232b360811b901a611186858c611d5c565b614071565b81519190604183036140fa576140f39250602082015190606060408401519301515f1a906157af565b9192909190565b50505f9160029190565b602081101561185857601b811490811561411c575090565b601a91501490565b602081101561185857600c8114908115614154575b8115614143575090565b600291506141508161184e565b1490565b601e81149150614139565b6040600391939293606081526118776060820160409060068152651cd95b1958dd60d21b60208201520190565b80516003810361422257506141ad6141a382611e87565b51613a3983611e97565b6141f3576141bd6141cc91611d3f565b5160ff90617f001660081c1690565b60ff81166141d75750565b63884a0e9d60e01b5f90815260ff90911660045260245260445ffd5b6040516352b50ae160e01b81526020600482015260066024820152651cd95b1958dd60d21b6044820152606490fd5b6040516326a10d4760e21b8152908190611989906004830161415f565b5f5b81519060ff8116918210156142705761426661426061426b9385611ea7565b5161211c565b613ab5565b614241565b505050565b9190602061428d600792604086526040860190610e59565b930152565b9060ff6142ac602092959495604085526040850190610e59565b9416910152565b929091926142c081615831565b61439b576142cd90615876565b15614330575f5b835160ff8216908110156143295760076142f46141bd6142fb9388611ea7565b1860ff1690565b1561430e5761430990613ab5565b6142d4565b604051631236966f60e31b8152806119898560048301614275565b5050915050565b5f9291925b825160ff821690811015614329576141bd6143509185611ea7565b60ff6007821816158015614390575b614372575061436d90613ab5565b614335565b604051631236966f60e31b8152908190611989908760048401614292565b5060ff81161561435f565b50915050565b6040805191906143b1818461051f565b602083526020830190601f19013682375290565b6143ce8161184e565b60138114908115614456575b8115614441575b811561442c575b8115614417575b8115614403575b506143fe5790565b505f90565b601991506144108161184e565b145f6143f6565b90506144228161184e565b60188114906143ef565b90506144378161184e565b60158114906143e8565b905061444c8161184e565b60128114906143e1565b90506144618161184e565b60148114906143da565b90610550613bd292604051938491664648452e61734560c81b60208401526027830190613b9e565b6001610550916144c06144b29594836040519788946020860190613b9e565b600560fb1b81520190613b9e565b602960f81b815203601e1981018552018361051f565b613bd26144f8949360036145086105509582604051998a976020890190613b9e565b620101f960ed1b81520190613b9e565b620101d160ed1b81520190613b9e565b6040519061452760408361051f565b600a8252691192114b9cd95b1958dd60b21b6020830152565b9291939093614556614550612808565b866158c9565b6145f357614565614550612900565b61458457604051635e45fa0160e01b8152806119898760048301610e7d565b6105509450916145c8916145ce6145c86145c28660016145a66145d4996121b1565b036145e2576145bd6145b7876121b1565b8a61222c565b6155b9565b936155b9565b916155b9565b916144d6565b906145dd614518565b615749565b6145bd6145ee866121b1565b6145b7565b61055094508381949350614607925061222c565b61463d6145c861462161461c61168a85615a4b565b61446b565b9361463761463161168a86615a4b565b91615ae1565b90614493565b91615749565b61055090613bd2614661949360036040519687946020860190613b9e565b6201016960ed1b81520190613b9e565b6040519061468060408361051f565b60078252662324229739bab160c91b6020830152565b61055090613bd26146b4949360036040519687946020860190613b9e565b6201015960ed1b81520190613b9e565b604051906146d360408361051f565b60078252661192114b98591960ca1b6020830152565b61055090613bd2614707949360036040519687946020860190613b9e565b620102f160ed1b81520190613b9e565b6040519061472660408361051f565b6007825266232422973c37b960c91b6020830152565b61055090613bd261475a949360036040519687946020860190613b9e565b6201013160ed1b81520190613b9e565b6040519061477960408361051f565b60078252661192114b985b9960ca1b6020830152565b61055090613bd26147ad949360036040519687946020860190613b9e565b620103e160ed1b81520190613b9e565b604051906147cc60408361051f565b60068252652324229737b960d11b6020830152565b81156117d8570490565b61055090613bd2614809949360036040519687946020860190613b9e565b6201017960ed1b81520190613b9e565b6040519061482860408361051f565b6007825266232422973234bb60c91b6020830152565b61055090613bd261485c949360036040519687946020860190613b9e565b6201012960ed1b81520190613b9e565b6040519061487b60408361051f565b60078252664648452e72656d60c81b6020830152565b61055090613bd26148af949360036040519687946020860190613b9e565b6201015160ed1b81520190613b9e565b604051906148ce60408361051f565b60078252661192114b9b5d5b60ca1b6020830152565b61055090613bd2614902949360046040519687946020860190613b9e565b630101e1e160e51b81520190613b9e565b6040519061492260408361051f565b60078252661192114b9cda1b60ca1b6020830152565b61055090613bd2614956949360046040519687946020860190613b9e565b630101f1f160e51b81520190613b9e565b6040519061497660408361051f565b60078252662324229739b43960c91b6020830152565b61055090613bd26149aa949360046040519687946020860190613b9e565b630101f1e960e51b81520190613b9e565b604051906149ca60408361051f565b60078252664648452e67746560c81b6020830152565b61055090613bd26149fe949360046040519687946020860190613b9e565b630101e1e960e51b81520190613b9e565b60405190614a1e60408361051f565b60078252664648452e6c746560c81b6020830152565b61055090613bd2614a52949360036040519687946020860190613b9e565b620101e160ed1b81520190613b9e565b60405190614a7160408361051f565b60068252651192114b9b1d60d21b6020830152565b61055090613bd2614aa4949360036040519687946020860190613b9e565b620101f160ed1b81520190613b9e565b60405190614ac360408361051f565b60068252651192114b99dd60d21b6020830152565b6001610550916144c0614b0595946002604051978894630dad2dc560e31b60208701526024860190613b9e565b61016160f51b81520190613b9e565b60405190614b2360408361051f565b60078252662324229736b4b760c91b6020830152565b6001610550916144c0614b0595946002604051978894630dac2f0560e31b60208701526024860190613b9e565b60405190614b7560408361051f565b600782526608c908a5cdac2f60cb1b6020830152565b61055090613bd2614ba9949360046040519687946020860190613b9e565b630101e9e960e51b81520190613b9e565b60405190614bc960408361051f565b60068252654648452e657160d01b6020830152565b61055090613bd2614bfc949360046040519687946020860190613b9e565b63010109e960e51b81520190613b9e565b60405190614c1c60408361051f565b60068252654648452e6e6560d01b6020830152565b60405190614c4060408361051f565b60078252661192114b9c9bdb60ca1b6020830152565b60405190614c6560408361051f565b6007825266232422973937b960c91b6020830152565b91929092614c90614c8a612908565b856158c9565b61527757614c9f614c8a612910565b61523957614cae614c8a612922565b6151fb57614cbd614c8a61293e565b6151bd57614ccc614c8a612964565b61517f57614cdb614c8a61299e565b61513057614cea614c8a6129ec565b6150f057614cf9614c8a612a4e565b6150b257614d08614c8a612aba565b61508a57614d17614c8a612b30565b61506257614d26614c8a612bba565b61502357614d35614c8a612c4e565b614fe457614d44614c8a612cec565b614fa657614d53614c8a612d9e565b614f6857614d62614c8a612e5a565b614f2257614d71614c8a612f20565b614ec557614d80614c8a612ffa565b614e8757614d8f614c8a6130de565b614e4857614d9e614c8a6131cc565b614e0a57614dad614c8a6132d8565b614dcc5760405163cef6088560e01b8152806119898660048301610e7d565b6105509350614e0191614dfb6145c8836145bd614deb6145c8966121b1565b614df4866121b1565b1c8861222c565b90614938565b906145dd614c56565b6105509350614e3f91614e396145c8836145bd614e296145c8966121b1565b614e32866121b1565b1b8861222c565b906148e4565b906145dd614c31565b6105509350614e7e91614e786145c8836145bd614e676145c8966121b1565b614e70866121b1565b141588615c37565b90614bde565b906145dd614c0d565b6105509350614ebc91614eb66145c8836145bd614ea66145c8966121b1565b614eaf866121b1565b1488615c37565b90614b8b565b906145dd614bba565b6105509350614f0891614f026145c883614ee16145c8956121b1565b614eea856121b1565b1015614f11576145bd614efc826121b1565b8861222c565b90614b39565b906145dd614b66565b6145bd614f1d856121b1565b614efc565b6105509350614f5f91614f596145c883614f3e6145c8956121b1565b614f47856121b1565b1115614f11576145bd614efc826121b1565b90614ad8565b906145dd614b14565b6105509350614f9d91614f976145c8836145bd614f876145c8966121b1565b614f90866121b1565b1088615c37565b90614a86565b906145dd614ab4565b6105509350614fdb91614fd56145c8836145bd614fc56145c8966121b1565b614fce866121b1565b1188615c37565b90614a34565b906145dd614a62565b610550935061501a916150146145c8836145bd6150036145c8966121b1565b61500c866121b1565b101588615c37565b906149e0565b906145dd614a0f565b6105509350615059916150536145c8836145bd6150426145c8966121b1565b61504b866121b1565b111588615c37565b9061498c565b906145dd6149bb565b610550935061508191614dfb6145c8836145bd614deb6145c8966121b1565b906145dd614967565b61055093506150a991614e396145c8836145bd614e296145c8966121b1565b906145dd614913565b61055093506150e7916150e16145c8836145bd6150d16145c8966121b1565b6150da866121b1565b028861222c565b90614891565b906145dd6148bf565b6105509350615127916151216145c8836145bd614efc6151126145c8976121b1565b61511b876121b1565b906117ce565b9061483e565b906145dd61486c565b61055093508161515b6145c86145c89361514c615161966121b1565b8061516a57506145bd876121f8565b906147eb565b906145dd614819565b614efc6145bd9161517a846121b1565b6147e1565b61055093506151b4916151ae6145c8836145bd61519e6145c8966121b1565b6151a7866121b1565b178861222c565b9061478f565b906145dd6147bd565b61055093506151f2916151ec6145c8836145bd6151dc6145c8966121b1565b6151e5866121b1565b168861222c565b9061473c565b906145dd61476a565b61055093506152309161522a6145c8836145bd61521a6145c8966121b1565b615223866121b1565b188861222c565b906146e9565b906145dd614717565b610550935061526e916152686145c8836145bd6152586145c8966121b1565b615261866121b1565b018861222c565b90614696565b906145dd6146c4565b61055093506152ad916152a76145c8836145bd6152966145c8966121b1565b61529f866121b1565b90038861222c565b90614643565b906145dd614671565b604051906152c560408361051f565b600a8252694648452e72616e646f6d60b01b6020830152565b604051906152ed60408361051f565b60088252671192114b98d85cdd60c21b6020830152565b6040519061531360408361051f565b60078252661192114b9b9bdd60ca1b6020830152565b6040519061533860408361051f565b600a8252694648452e73717561726560b01b6020830152565b909161535e613eb26133ee565b6154395761536d613eb2612800565b6154125761537c613eb26134f0565b6153e75761538b613eb2613534565b6153aa57604051633654b39f60e21b8152806119898560048301610e7d565b61055092506145c8816153d26153c26153de946121b1565b6153cb836121b1565b028561222c565b6150e16145c8826155b9565b906145dd615329565b61055092506145c8816145bd6001615401615409956121b1565b141585615c37565b906145dd615304565b61055092506145c8816145bd61542a615430946121b1565b8561222c565b906145dd6152de565b506105509150615456906145bd61544f43612017565b408261222c565b61545e6152b6565b615466611b02565b90615749565b61085a91615479916140ca565b90929192615c54565b90601082511015610550576154976010611d0d565b5f5b83518110156154cd576001906001600160f81b03196154b88287611d5c565b51165f1a6154c68285611d5c565b5301615499565b909192505b601081106154de575090565b8060206154ed60019385611d5c565b53016154d2565b6040519061550360408361051f565b600582526466616c736560d81b6020830152565b6040519061552660408361051f565b60048252637472756560e01b6020830152565b6040519061554860408361051f565b6005825264454d50545960d81b6020830152565b6155a36144b2959460026155946105509682615585600198896040519d8e9a60208c0190613b9e565b61171760f11b81520190613b9e565b61295b60f01b81520190613b9e565b605d60f81b815203601e1981018552018361051f565b6155c281615ae1565b80519160068311156156815761085a92815f5260026020526155e960405f2060ff90541690565b916155fc815f52600160205260405f2090565b5461560b8260081c607f161590565b156156725760010361565f5761564461562b615625615517565b92615a4b565b9461563e61563882611d6d565b94612025565b90611db3565b9215615650579261555c565b50615659615539565b9261555c565b61564461562b61566d6154f4565b615625565b61562b61562561564492615ae1565b50905090565b5f80916040516156c1816156b3602082019463104c13eb60e21b86526020602484018181520190610e59565b03601f19810183528261051f565b51906a636f6e736f6c652e6c6f675afa50565b60ff9060081c607f161680156157435760028114615743576003811461573d57600481146157375760058114615731576006811461572b57600881146157245760071461571f575f90565b60a090565b5061010090565b50608090565b50604090565b50602090565b50601090565b50600890565b9160ff5f541661575857505050565b610550926156b361113492600661579c613bcc96613bcc61578061577a613f90565b97615482565b613bcc61578b613fb2565b916040519b8c9a60208c0190613b9e565b65010101e9f10160d51b81520190613b9e565b91907f7fffffffffffffffffffffffffffffff5d576e7357a4501ddfe92f46681b20a08411615826579160209360809260ff5f9560405194855216868401526040830152606082015282805260015afa156109a7575f516001600160a01b0381161561581c57905f905f90565b505f906001905f90565b5050505f9160039190565b6020811015611858576004811490811561586b575b8115615856578115614143575090565b90506158618161184e565b6019811490614139565b601881149150615846565b602081101561185857600981149081156158be575b81156158a9575b811561589c575090565b600c91506141508161184e565b90506158b48161184e565b600b811490615892565b600a8114915061588b565b6040516158de816156b3602082018095613b9e565b519020906040516158f7816156b3602082018095613b9e565b5190201490565b6040519061590d60408361051f565b600582526419589bdbdb60da1b6020830152565b6040519061593060408361051f565b60068252650caead2dce8760d31b6020830152565b6040519061595460408361051f565b600782526632bab4b73a189b60c91b6020830152565b6040519061597960408361051f565b600782526632bab4b73a199960c91b6020830152565b6040519061599e60408361051f565b6007825266195d5a5b9d0d8d60ca1b6020830152565b604051906159c360408361051f565b60088252670caead2dce86264760c31b6020830152565b604051906159e960408361051f565b600882526732bab4b73a191a9b60c11b6020830152565b60405190615a0f60408361051f565b6008825267656164647265737360c01b6020830152565b60405190615a3560408361051f565b60078252663ab735b737bbb760c91b6020830152565b60ff9060081c607f16168015615ad85760028114615acf5760038114615ac65760048114615abd5760058114615ab45760068114615aab5760088114615aa257600714615a9a5761085a615a26565b61085a615a00565b5061085a6159da565b5061085a6159b4565b5061085a61598f565b5061085a61596a565b5061085a615945565b5061085a615921565b5061085a6158fe565b805f9172184f03e93ff9f4daa797ed6e38ed64bf6a1f0160401b821015615c14575b806d04ee2d6d415b85acef8100000000600a921015615bf8575b662386f26fc10000811015615be3575b6305f5e100811015615bd1575b612710811015615bc1575b6064811015615bb2575b1015615ba7575b615b926021615b6760018501611d0d565b938401015b5f1901916f181899199a1a9b1b9c1cb0b131b232b360811b600a82061a8353600a900490565b8015615ba257615b929091615b6c565b505090565b600190910190615b56565b60029060649004930192615b4f565b6004906127109004930192615b45565b6008906305f5e1009004930192615b3a565b601090662386f26fc100009004930192615b2d565b6020906d04ee2d6d415b85acef81000000009004930192615b1d565b506040915072184f03e93ff9f4daa797ed6e38ed64bf6a1f0160401b8104615b03565b6105509115615c4c5760ff60015b169061222c565b60ff5f615c45565b615c5d81612262565b80615c66575050565b615c6f81612262565b60018103615c865763f645eedf60e01b5f5260045ffd5b615c8f81612262565b60028103615caa575063fce698f760e01b5f5260045260245ffd5b80615cb6600392612262565b14615cbe5750565b6335e2f38360e21b5f5260045260245ffd5b8015610f67575f19019056fea26469706673582212206db6713f2ebb368377db005250f742265d90b889df79d5da56da0c1c11ae440f64736f6c634300081c0033",
  "linkReferences": {},
  "deployedLinkReferences": {}
}